:10000000C02F00200946000061780100F54500007E
:10001000F5450000F5450000F5450000F5450000F8
:10002000000000000000000000000000C5470000C4
:10003000F54500000000000021470000F5450000E4
:10004000E9490000E9490000E9490000E9490000E8
:10005000E9490000E9490000E9490000E9490000D8
:10006000E9490000E9490000E9490000E9490000C8
:10007000E9490000E9490000E9490000E9490000B8
:10008000E9490000E9490000E9490000E9490000A8
:10009000E9490000E9490000E9490000E949000098
:1000A000E9490000E9490000E9490000E949000088
:1000B000E9490000E9490000E9490000E949000078
:1000C000E9490000E9490000E9490000E949000068
:1000D000E9490000E9490000E9490000E949000058
:1000E000E9490000E9490000E9490000E949000048
:1000F000E9490000E9490000E9490000E949000038
:10010000E9490000E9490000E9490000E949000027
:10011000E9490000E9490000E9490000E949000017
:10012000E9490000E9490000E9490000E949000007
:10013000E9490000E9490000E9490000E9490000F7
:10014000E9490000E9490000E9490000E9490000E7
:04015000E949000079
:1001580081F0004102E000BF83F0004330B54FEA70
:1001680041044FEA430594EA050F08BF90EA020FDD
:100178001FBF54EA000C55EA020C7FEA645C7FEA70
:10018800655C00F0E2804FEA5454D4EB5555B8BF93
:100198006D420CDD2C4480EA020281EA030382EA04
:1001A800000083EA010180EA020281EA0303362D96
:1001B80088BF30BD11F0004F4FEA01314FF4801C69
:1001C8004CEA113102D0404261EB410113F0004F7B
:1001D8004FEA03334CEA133302D0524263EB430332
:1001E80094EA050F00F0A780A4F10104D5F1200ED0
:1001F8000DDB02FA0EFC22FA05F2801841F100012B
:1002080003FA0EF2801843FA05F359410EE0A5F1FE
:1002180020050EF1200E012A03FA0EFC28BF4CF02F
:10022800020C43FA05F3C01851EBE37101F00045E5
:1002380007D54FF0000EDCF1000C7EEB00006EEBF2
:100248000101B1F5801F1BD3B1F5001F0CD349087C
:100258005FEA30004FEA3C0C04F101044FEA4452D3
:1002680012F5800F80F09A80BCF1004F08BF5FEA5A
:10027800500C50F1000041EB045141EA050130BD3A
:100288005FEA4C0C404141EB0101013C28BFB1F54C
:10029800801FE9D291F0000F04BF01460020B1FA97
:1002A80081F308BF2033A3F10B03B3F120020CDA6A
:1002B8000C3208DD02F1140CC2F10C0201FA0CF048
:1002C80021FA02F10CE002F11402D8BFC2F1200CAD
:1002D80001FA02F120FA0CFCDCBF41EA0C01904063
:1002E800E41AA2BF01EB0451294330BD6FEA0404AC
:1002F8001F3C1CDA0C340EDC04F11404C4F1200297
:1003080020FA04F001FA02F340EA030021FA04F3A8
:1003180045EA030130BDC4F10C04C4F1200220FAFF
:1003280002F001FA04F340EA0300294630BD21FA3D
:1003380004F0294630BD94F0000F83F4801306BF03
:1003480081F480110134013D4EE77FEA645C18BFF7
:100358007FEA655C29D094EA050F08BF90EA020F8E
:1003680005D054EA000C04BF1946104630BD91EA86
:10037800030F1EBF0021002030BD5FEA545C05D189
:100388004000494128BF41F0004130BD14F58004C8
:100398003CBF01F5801130BD01F0004545F0FE413C
:1003A80041F470014FF0000030BD7FEA645C1ABF71
:1003B800194610467FEA655C1CBF0B46024650EAA8
:1003C800013406BF52EA033591EA030F41F40021D4
:1003D80030BD00BF90F0000F04BF0021704730B55A
:1003E8004FF4806404F132044FF000054FF000012F
:1003F80050E700BF90F0000F04BF0021704730B5F0
:100408004FF4806404F1320410F0004548BF4042C4
:100418004FF000013EE700BF42004FEAE2014FEA19
:1004280031014FEA02701FBF12F07F4393F07F4FF4
:1004380081F06051704732F07F4208BF704793F0F7
:100448007F4F04BF41F40021704730B54FF460740A
:1004580001F0004521F000411CE700BF50EA01020D
:1004680008BF704730B54FF000050AE050EA0102B6
:1004780008BF704730B511F0004502D5404261EB26
:1004880041014FF4806404F132045FEA915C3FF467
:10049800D8AE4FF003025FEADC0C18BF03325FEA04
:1004A800DC0C18BF033202EBDC02C2F1200300FAB5
:1004B80003FC20FA02F001FA03FE40EA0E0021FADA
:1004C80002F11444BDE600BF4FF0FF3C06E000BF58
:1004D8004FF0010C02E000BF4FF0010C4DF804CDC5
:1004E8004FEA410C7FEA6C5C4FEA430C18BF7FEA85
:1004F8006C5C1BD001B050EA410C0CBF52EA430CB3
:1005080091EA030F02BF90EA020F0020704710F132
:10051800000F91EA030F58BF994208BF90422CBFC1
:10052800D8176FEAE37040F0010070474FEA410CBA
:100538007FEA6C5C02D150EA013C07D14FEA430CD8
:100548007FEA6C5CD6D152EA033CD3D05DF8040B49
:10055800704700BF8446104662468C46194663467B
:1005680000E000BF01B5FFF7B7FF002848BF10F152
:10057800000F01BD4DF808EDFFF7F4FF0CBF012097
:1005880000205DF808FB00BF4DF808EDFFF7EAFF13
:1005980034BF012000205DF808FB00BF4DF808EDCE
:1005A800FFF7E0FF94BF012000205DF808FB00BFC3
:1005B8004DF808EDFFF7CEFF94BF012000205DF84D
:1005C80008FB00BF4DF808EDFFF7C4FF34BF01205A
:1005D80000205DF808FB00BF4FEA4102B2F1E0439A
:1005E80024BFB3F5001CDCF1FE5C0DD901F0004C12
:1005F8004FEAC0024CEA5070B2F1004F40EB830062
:1006080008BF20F00100704711F0804F21D113F18D
:100618003872BCBF01F00040704741F480114FEAC6
:100628005252C2F11802C2F1200C10FA0CF320FA4F
:1006380002F018BF40F001004FEAC1234FEAD3236C
:1006480003FA0CFC40EA0C0023FA02F34FEA4303D6
:10065800CCE77FEA625307D150EA01331EBF4FF05F
:10066800FE4040F44000704701F0004040F0FE407A
:1006780040F40000704700BF53B94AB9002908BFC9
:1006880000281CBF4FF0FF314FF0FF3000F062BD73
:10069800ADF1080C6DE904CE00F078FDDDF804E05A
:1006A800DDE9022304B0704703685A004CBF43F0E9
:1006B800004323F00043184470472DE9F0470646ED
:1006C800174641B301394FF00009884609EB080481
:1006D80004EBD474641006EBC4054FEAC40A284638
:1006E800FFF7E2FFA14204D1B84204D82846BDE88A
:1006F800F087B84204D9A1450DD004F1FF38E5E7E9
:100708000AF108003044FFF7CFFF0138B842EDD2B4
:1007180004F10109DAE70025E8E7012806D00228F4
:1007280006D00028034818BF0020704702487047C9
:10073800024870473D0D0000410D0000450D0000C6
:100748001F4B37B504468D1E4BB101A92846AFF3A0
:10075800008048B900230920236103B030BD19483F
:10076800194B1B1ADB10019301992A46FFF7A5FFC5
:1007780001460028EED0FFF797FF4B68A064012BD5
:100788001AD0002B01F1040010DBFFF78DFF0023C6
:10079800C4E913030368002B0ADAC3F30360FFF705
:1007A800BCFF03460028D5D00020D5E70123EFE79A
:1007B800FFF77AFF0346F7E700230520CCE700BFE1
:1007C800000000006C270200243502000368DA07E5
:1007D80010B5044605D49B0700F1480018D500F071
:1007E800F7FB2368590703D404F1D00000F0F8FBA5
:1007F80023681A0703D404F5A87000F0F9FB2368EE
:10080800DB0608D404F5E870BDE8104000F034BCFD
:1008180000F0D6FBE5E710BD0920704703460068E5
:1008280000B118447047704770B505460C46216CF6
:100838002846FFF785FF064608B104F0E7FA236C5F
:100848002246294601206B612B6998470828EED07B
:100858000728F2D13046216CFFF7E5FF201D00F094
:10086800A3FB2DE9F0470C1DADF5727DD0F80C9077
:100878000746D0F818A0164603AD0DF108080FCCAE
:100888000FC50FCC0FC50FCC0FC594E80F0085E836
:100898000F000025C8F800500936D8F8401038462F
:1008A800FFF74EFF0446F6B268BBD8F840304FF465
:1008B800F07241467AA87B6120F031FB3B697AAA45
:1008C800394630469847889B0546C8F844303A462A
:1008D8003B4631460120CDE9008AC847C0B9C4B9B2
:1008E8004FF4F0727AA94046264620F018FB082DEE
:1008F800D2D0072D0CD12046D8F84010FFF793FF2F
:1009080003A800F051FB46F01006D8F83830DCE7B1
:10091800092420460DF5727DBDE8F087406C7047CC
:10092800F0B5CB6BF9B00D1D06460B640F4601AC54
:100938000FCD0FC40FCD0FC40FCD0FC495E80F0016
:1009480084E80F004FF0FF33009310993046FFF70B
:10095800F7FE78B933696A4631469847082804464D
:10096800F3D06846FFF732FF062C03D139463046EC
:10097800FFF75AFF092079B0F0BD10B48261DA6B35
:10098800C16019461A64002210BC6AE770B5436951
:100998000446C6680D460B6426B10122FFF761FFC5
:1009A80004F034FA03690A460146022098470728EA
:1009B80005D00828F4D129462046FFF735FF3046F0
:1009C800296CFFF730FF281D00F0EEFAC26802B963
:1009D800A6E7CA6B0A64002243E7704783680146AA
:1009E8000BB1012018477047012910B50446084685
:1009F80005D005D9C81E01288CBF0220012010BDD2
:100A080043B90F2A06D804EB8204029A1846616893
:100A18001160F4E70220F2E71FB503AB0A46009322
:100A280000231946FFF7E0FF039805B05DF804FBC3
:100A3800012910B50446084605D005D9C81E012865
:100A48008CBF0220012010BD43B90F2A06D8029995
:100A580004EB8204184609686160F4E70220F2E7B3
:100A68001FB503AB03920A46009300231946FFF70C
:100A7800DFFF05B05DF804FBF0B5D36BADF50F7D76
:100A8800141D064613640F4617AD0FCC0FC50FCCC7
:100A98000FC50FCC0FC594E80F0085E80F004FF085
:100AA800FF33169326996846FFF74AFE90B90C2142
:100AB80016A86A46FFF7D4FF394616A8B04748B9C2
:100AC800049B16AA6946082098470528044602D0C0
:100AD8000928E7D1092416A8FFF778FE20460DF566
:100AE8000F7DF0BD2DE9F04FCD6C87B017460C4651
:100AF80055F8042B00F003099A4604953BBB1202F3
:100B08008DF8153003230392B9F1020F8DF81430D4
:100B1800236D08BFA56B13F0010322D100F008086C
:100B280000932B6843BB03A9384600F0A2FC0028B9
:100B380040F0FB80009BDBB10F213846FFF76CFFCC
:100B48000E2102463846FFF78BFF794A55E0130C11
:100B580012048DF81530DBB2039205EB83050223EE
:100B6800D2E703A9384600F084FC002840F0DD8075
:100B7800082007B0BDE8F08FBAF1020FA26C4FF061
:100B88000F01384607BFD5F804B005F10806B5F8D7
:100B980002B02E1D18BF2B882BF0010501931544B8
:100BA800FFF73AFF019B854229D823F001022A4426
:100BB800824294BF002201224FEA4B0003F0010356
:100BC80000F0020040EA0305012D1AD0022D5ED084
:100BD800002D40F0AA80351DB9F1000FA1D0002AE0
:100BE8009FD03046FFF760FDA563064620461FF0FC
:100BF800A6FA002800F0998032460F213FE0002233
:100C0800DAE7B9F1000F26D1002A3DD073683268BF
:100C1800991C4FEAD27200F0888004F15801013320
:100C2800029109D0301DFFF7F9FD02AB01462046BD
:100C380010F0B6FD054638B30D213846FFF7ECFE37
:100C4800022D029B206202D1E36204F12C030620EC
:100C5800C4E909368DE7256A0D213846FFF7DCFE21
:100C6800854211D1A36A9E420ED13046FFF71CFD82
:100C78000F2102463846FFF7F3FE22460021384688
:100C8800FFF7EEFE072074E706F1080549E7356827
:100C980025F00045B9F1000F2AD1A2B1B8F1000F33
:100CA80019D085B9CB4617E00BF1010B019B002247
:100CB80006EB8B000293FFF7B1FD02AB014620461D
:100CC80010F06EFD58B13368002B00DA0436013598
:100CD80006EB850525E7C34604F158030193AB45A8
:100CE800E2D10D213846FFF797FE029B2062AEE75E
:100CF800D4F820B00D213846FFF78EFE8345E2D1A7
:100D0800A36A9E42DFD14FF0000B0423A562C4E919
:100D18000BB3F318636333685B4503DA681C06EBAF
:100D28008000A3E701230093D1E7092021E700BF52
:100D3800691801000023D5E60123D3E60223D1E692
:100D48002DE9F0410546C2B014461E46042925D8AF
:100D5800DFE811F005001C002400D6000301EEB9FD
:100D6800836B92B20121043001FA06F717421CBFC7
:100D780053F8047B40F826700136102EF4D1A604EF
:100D880000D4AB63002042B0BDE8F081012E4FEAE9
:100D9800124794B204D13B19102B41D90220F2E733
:100DA800052EFBD107EB0408B8F1200FF6D80F2F5A
:100DB8004DD9002CE6D00368A046580708D523F083
:100DC8000403284640F8D03B00F00EF90F2F48D90D
:100DD800684600F009F9AB6B102F3A4642A94FEA72
:100DE800480838BF10221C4608F1FF3801EBC20240
:100DF8004FEA8801A2F5C472101F02EB880254F86A
:100E080004CB40F804CF8242F9D10A1D012E1344C5
:100E180017D00F2FAB636FD9684600F0E1F8B1E740
:100E2800102FBBD00368DA0705D523F0030340F879
:100E3800483B00F0C9F820A800F0C6F8AB6B002CBE
:100E48003FD1043320A8AB6300F0BAF89AE7B8F1B1
:100E5800100F03682DD9DC07A8F1100842D45807F1
:100E6800ADD420A8C7F1100400F0B6F8684600F029
:100E7800BBF820AA6400AB6B02EBC702013C101F51
:100E8800A10002EB84021C4654F804CB40F804CFBE
:100E98009042F9D10A1D1344B8F1000F9CD1012EDC
:100EA800CFD00F2FAB633FF66DAF20A800F090F8BE
:100EB80068E7D9070DD420A800F08EF8AB6B002C9A
:100EC800F3D0640020AA4FF0000802EBC702013CEF
:100ED800D5E723F0010343F0020340F8483B00F054
:100EE8007BF8E8E723F0010343F0020340F8483BAE
:100EF80000F072F82B68B2E720A800F069F88BE7D9
:100F0800032E7FF44BAF97B2160C07EB1244102C4C
:100F18003FF644AF0368190706D523F008030360BA
:100F280000F5A87000F086F820A800F083F820AB40
:100F3800AA6BF90003EBC60303EBC707D41ABB423D
:100F480003EB040005D10A4420A8AA6300F050F876
:100F580018E7006843F8040BF1E7002E7FF41EAF92
:100F6800102A3FF61BAF0368DA0606D523F01003F4
:100F7800036000F5E87000F089F820AE304600F014
:100F880085F8AB6B0022012101FA02F020421CBF58
:100F980053F8040B46F822000132042AF4D13046F3
:100FA800AB6300F069F8EDE600F1340191E8380030
:100FB8009C46A6464CF8045D90E8FF0FE54600BD48
:100FC80090EC210B704700BF80EC210B704700BFED
:100FD80090EC200B704700BF80EC200B704700BFDF
:100FE800D0EC200B704700BFC0EC200B704700BF4F
:100FF800F0EC0201F0EC0211F0EC0221F0EC02310D
:10100800F0EC0241F0EC0251F0EC0261F0EC0271FC
:10101800F0EC0281F0EC0291F0EC02A1F0EC02B1EC
:10102800F0EC02C1F0EC02D1F0EC02E1F0EC02F1DC
:10103800704700BFE0EC0201E0EC0211E0EC022195
:10104800E0EC0231E0EC0241E0EC0251E0EC02613C
:10105800E0EC0271E0EC0281E0EC0291E0EC02A12C
:10106800E0EC02B1E0EC02C1E0EC02D1E0EC02E11C
:10107800E0EC02F1704700BFB0FC0181B0FC0191C7
:10108800B0FC01A1B0FC01B1704700BFA0FC018118
:10109800A0FC0191A0FC01A1A0FC01B1704700BF18
:1010A800EC4600B52DE900502DE9FF1F4FF0000375
:1010B8002DE90C0001A9FFF733FCDDF840E012B080
:1010C800704700BFEC4600B52DE900502DE9FF1F21
:1010D8004FF000032DE90C0001A9FFF757FCDDF8DC
:1010E80040E012B0704700BFEC4600B52DE9005053
:1010F8002DE9FF1F4FF000032DE90C0001A9FFF7B0
:1011080065FCDDF840E012B0704700BFEC4600B562
:101118002DE900502DE9FF1F4FF000032DE90C00C9
:1011280001ABFFF72AFCDDF840E012B0704700BFC2
:10113800EC4600B52DE900502DE9FF1F4FF00003E4
:101148002DE90C0001AAFFF797FCDDF840E012B08A
:10115800704700BF704700BF10F8012B11F8013B22
:10116800012A28BF9A42F7D0D01A7047034613F8CD
:10117800012B002AFBD1181A01387047034611F8D1
:10118800012B03F8012B002AF9D170472DE9F0470C
:1011980086468C460846089E154674461946002B16
:1011A80040F0C1808542B2FA82F245D94AB1C2F113
:1011B800200300FA02FC954094402EFA03F343EA18
:1011C8000C0C4FEA154EA8B2230CBCFBFEF80EFB24
:1011D80018CC08FB00F943EA0C43994528D9EB18C9
:1011E80008F1FF3704D2994502D9A8F102072B4428
:1011F800A3EB0903A4B2B3FBFEFC0EFB1C330CFBF0
:1012080000F044EA0344A04214D92C190CF1FF332E
:1012180004D2A04202D9ACF102032C44241A43EAB6
:1012280007401EB1D440002334607360BDE8F087E6
:101238004746DDE76346F1E792BB431B01214FEACE
:10124800154EAFB2200CB3FBFEFC0EFB1C330CFB9F
:1012580007F840EA0343984561D9EB180CF1FF30D1
:1012680004D2984502D9ACF102002B44A3EB080341
:10127800A4B2B3FBFEFC0EFB1C330CFB07F744EADD
:101288000344A7424DD92C190CF1FF3304D2A742CD
:1012980002D9ACF102032C44E41B43EA0040C0E746
:1012A800C2F120039540944020FA03F12EFA03F38B
:1012B8004FEA154E9040AFB20343B1FBFEFC0EFB64
:1012C8001C10190C0CFB07F841EA0041884522D98B
:1012D80069180CF1FF3004D2884502D9ACF102003C
:1012E8002944A1EB08019BB2B1FBFEFC0EFB1C11CB
:1012F8000CFB07F743EA01439F420ED9EB180CF1A8
:10130800FF3104D29F4202D9ACF102012B44DB1B0E
:1013180041EA004193E76046E3E76146F7E7604644
:10132800A4E76346B8E7834206D916B90021084600
:101338007CE7C6E900E0F9E7B3FA83F78FB983429F
:1013480001D3724508D8BEEB020460EB0303012009
:101358009C461EB9002169E73846FAE7C6E9004C01
:10136800F8E7C7F1200CBB400EFA07F522FA0CF497
:101378002EFA0CF1BA401C4320FA0CF3B8404FEA9D
:10138800144901431FFA84FEB3FBF9F809FB18302E
:101398000B0C08FB0EFA43EA00439A4540D9E318C0
:1013A80008F1FF3004D29A4502D9A8F1020023447B
:1013B800A3EB0A0389B2B3FBF9F809FB183308FB5E
:1013C8000EFE41EA03418E452CD9611808F1FF331E
:1013D80004D28E4502D9A8F10203214443EA004011
:1013E800A1EB0E01A0FB02984145CE46434602D32D
:1013F80006D14D4504D20138B9EB020E68EB04035F
:10140800002EA7D0B5EB0E0261EB030101FA0CFC2C
:1014180022FA07F3F9404CEA0303C6E9003199E7D9
:101428004046C5E74346D9E7027A03467AB9427A85
:1014380082B1013A42724268111D126802600322A9
:1014480041601A721A68100E12021A607047013A47
:10145800D2B2F6E7B02070471FB503AB0C22009359
:1014680000231946FFF7C0FA039805B05DF804FB9E
:10147800F2E72DE9F043054685B00E464FF0000827
:101488003046FFF7D1FFB028044615D1B8F1000F58
:101498000ED103AC43460E22414628460094FFF77E
:1014A800A3FA43460F22414628460094FFF7C0FAA4
:1014B800002005B0BDE8F08302061DD44FEA80097C
:1014C800002303AF0D225FFA89F9194628460097D1
:1014D800FFF78AFA09F10409039B14F0400F14BFBF
:1014E800A3EB09034B440393002300970D221946ED
:1014F8002846FFF79DFAC3E700F0F003802B18D1C8
:1015080004023046FFF790FF0443B4F5004F01D1C1
:101518000920CEE7240100232846A2B21946FFF786
:101528000FFC0028F4D114F4004F18BF4FF0010845
:10153800A6E7902B0DD100F00D030D2BE8D003AFDB
:10154800002300F00F02284619460097FFF74CFACF
:10155800CAE7A02B13D1C3434FF47F6203F00703FC
:101568001A41030702F47F6201D542F48042002346
:1015780019462846FFF7E4FB002881D0C8E7B02BBE
:1015880046D1B12808D13046FFF74EFF431E024628
:10159800DBB20E2BEBD9BBE7B22820D1002303AC7A
:1015A8000D222846194600940227FFF71DFA3046F7
:1015B800FFF73AFF00F07F0110F08003039A01FA69
:1015C80007F105D102F5017200940A4403928DE7F0
:1015D8000A44304607370392FFF726FFEAE7B328A5
:1015E8000BD13046FFF720FF0123020300F00F0064
:1015F80002F4702201300243BAE700F0FC03B42B76
:1016080086D000F007020123013242F40022AFE73E
:10161800C02B44D1C6280AD13046FFF705FF032363
:10162800020300F00F0002F470220130E3E7C7283C
:101638000BD13046FFF7F8FE431E0246DBB20E2BF5
:101648003FF666AF0023042193E700F0F803C02BB0
:1016580006D100F00F020323013242F4202287E76B
:10166800C8280DD13046FFF7DFFE00F0F00200F089
:101678000F0005231032013040EA0232012178E7D9
:10168800C9287FF445AF3046FFF7CEFE0523020395
:1016980000F00F0002F4702201300243EEE700F080
:1016A800F803D02B7FF434AF00F007020523013292
:1016B80042F40022E2E71FB503460846DA6C536895
:1016C8000832190202921B0E0322019101A98DF81A
:1016D8000C208DF80D30FFF7CCFE05B05DF804FB4B
:1016E80008B5FFF7C5FE806C08BD08B5FFF7C0FE5A
:1016F800C06CC379023300EB830008BD0000000012
:10170800436B5A6812681B691B68D2F80811A1B1AB
:101718000021C2F80811D2F80821596500B583B034
:1017280003F10800D3E916239FED097B8DED007BBB
:1017380007F0BCFE03B05DF804FB596D0131596533
:101748000429EBD101235360704700BFAFF3008039
:10175800000000000000000010B582B00369426874
:1017680014681A68002151651B6803F10800D3E961
:1017780016239FED057B8DED007B07F097FE042374
:10178800C4F8083302B010BD0000000000000000DB
:1017980070B590B00E46044606A909AD81E80C0064
:1017A8000023179928460F9309F03EFA9DF8583000
:1017B8004FF00001049520460393159B02939DF872
:1017C80050300193079B9FED0A0B0093069BB2686C
:1017D8001BF0B0FC04E0284619F099F81EF08CFCC8
:1017E800284619F094F8204610B070BDAFF3008079
:1017F800000000000000000070B590B00E460446DE
:1018080006A909AD81E80C000023179928460F9313
:101818000BF02EFA9DF858304FF000010495204641
:101828000393159B02939DF850300193079B9FEDFE
:101838000A0B0093069BB26819F034FA04E02846B4
:1018480019F065F81EF058FC284619F060F8204693
:1018580010B070BDAFF30080000000000000000071
:101868002DE9FF47804616460F46002900F0A28062
:10187800B1FA81F4341B002E04F10A04C0F2A280EC
:10188800304614F015FA0444304614F017FAA4EB65
:10189800060905466946304614F038FAA9EB0503EF
:1018A8006A4640467D3339461FF0AAFCA642824666
:1018B8000D4600F38380B9F13F0F00F381804FF0AC
:1018C800FF33A9F12000C9F1200103FA00F003FA5F
:1018D80009F223FA01F103FA09F3024328EA0303A0
:1018E8000A4327EA020213430CBF01200020002DFF
:1018F80000F08A80B5FA85F3E31A40F2FE7203F22B
:101908003E43934200F38980002B23EAE376D4BF59
:1019180001223246121BA2F23341A2F23447A2F24C
:101928005344C1F1200C2AFA01F325FA04F4C7F153
:10193800200E05FA0CFC25FA01F105FA0EFE43EA21
:101948000C03A2F2544CA2F2544223432AFA07F49D
:1019580025FA0CFC44EA0E0444EA0C04C7F1200CF6
:1019680014F0010F54D0A8B14FF0FF3000FA02F282
:1019780000FA07F4144320FA0CF2B840144303F0B9
:1019880001022AEA000A25EA04054AEA020A5AEA92
:10199800050A3DD0013341F10002C2F3130253EAB4
:1019A800020138D0184642EA065141EC100B04B047
:1019B800BDE8F087B0FA80F420345BE7012096E7B1
:1019C800002094E7C6F10009484614F077F9241A74
:1019D800484614F073F9A61B0546694648462E4446
:1019E80014F006FA6A46404606F17C0339461FF0B1
:1019F80007FC82460D464046394614F06FF981458A
:101A08008CBF0020012072E7BAFA8AF3203373E70B
:101A1800C1F31302C6E70136C4E79FED010BC6E721
:101A2800000000000000F07F012800D070474FF64A
:101A3800FF739942FAD110B5044C204607F060FFB5
:101A4800034A0449204615F00DFF10BD900B0020F5
:101A5800BC0B0020599A000010B586B000230593EE
:101A6800002102A800F028F801A800F033F802A825
:101A780014F0CBFB01A800F03FF84FF47A7102A8EC
:101A880014F0D7FB00F084F80446204600F008FA6A
:101A980023681B6805A9204698470598FEF7BCFCF3
:101AA80002460B46034815F067F84FF47A7014F0B5
:101AB8005CFBEAE7783C020003468C46044A92E85D
:101AC800030083E8030083F808C01846704700BF86
:101AD800C039020010B50446044B0360044A0321D0
:101AE800044815F0A6FD204610BD00BFEC350200E5
:101AF800943C02000C39020008B5006817F0C8FDD4
:101B080008B1002008BD034A0321034815F091FDE0
:101B1800F7E700BFB43C02000C390200014B036038
:101B2800704700BF0C40020010B50446034B036029
:101B38000C2118F0CDF8204610BD00BF0C40020063
:101B4800012800D070474FF6FF739942FAD110B5BB
:101B5800044C204607F0D4FE034A0449204615F0F9
:101B680081FE10BDA40B0020BC0B0020599A000078
:101B780003460246044942F8041B044903C982E8A3
:101B880003001846704700BF0C400200C839020025
:101B98000D4BD3E8AF3F13F0010F01D00B4870474E
:101BA80010B5094807F052FE08B9084810BD074C9F
:101BB8002046FFF7DDFF064A0649204615F052FE8B
:101BC800014818F087F8F0E7940B0020980B0020E4
:101BD800BC0B0020251B000008B5406817F058FD15
:101BE80028B9064A0121064815F023FD08BD054A13
:101BF8000321034815F01DFDF8E700BFD03C0200A3
:101C080004390200EC3C020008B5043014F05EFB15
:101C1800031E01DB002008BD034A0121034815F01B
:101C280012FD0120F7E700BF043D0200043902005D
:101C380000B583B000238DF807300DF10702D021DD
:101C4800FFF7E2FF9DF80730034A0321034815F028
:101C5800FAFC03B05DF804FB1C3D020004390200E5
:101C680010B584B004460023ADF80C30ADF8083048
:101C78008DF8073003AAE921FFF7C6FF80BB0DF1F5
:101C88000D02EA212046FFF7BFFF78BB9DF80D2023
:101C98009DF80C3043EA0223204A138002AA8A21C5
:101CA8002046FFF7B1FF38BB0DF109028B21204612
:101CB800FFF7AAFF30BB9DF809209DF8083043EADA
:101CC8000223174A13800DF107028C212046FFF7E3
:101CD8009BFFE8B99DF90720124B1A7004B010BD9C
:101CE800114A0121114815F0A4FCC8E7104A012146
:101CF8000E4815F09EFCC9E70E4A01210B4815F065
:101D080098FCD1E70C4A0121084815F092FCD2E76B
:101D18000A4A0121054815F08CFCDBE73E1F00202C
:101D28003C1F00204C1F0020343D020004390200F3
:101D3800743D0200B43D0200F43D0200343E02004E
:101D480070B582B005460E462E4B1B89ADF804309F
:101D580000248DF806408DF803409DF90330002BD0
:101D68000FDB0DF103021D212846FFF74DFF044646
:101D78000028F2D0244A0121244815F05AFC0124F5
:101D8800EBE7032301AA2221281D14F08FFA90BB48
:101D98009DF804309DF80520120142EA03329DF8AF
:101DA800063042EA13121A4B1B885B00C3EBE203AE
:101DB800184AB2F9001003FB01F15B1003FB03F3AF
:101DC8001A13154B93F900301B0102FB03F39B1305
:101DD80003EBE12303EB830380331B1207EE903AF6
:101DE800F8EEE77ADFED0D6A87EEA67A86ED007ADF
:101DF800204602B070BD0A4A0121044815F019FCBA
:101E08000124C5E7C8390200743E02000439020003
:101E18003E1F00203C1F00204C1F00200000C8422D
:101E28009C3E020070B584B004460D468DF80C1037
:101E380013788DF80D3000238DF80B3003890222BA
:101E480003A9406814F00EFA031E1BDB02260DF1ED
:101E58000B0229462046FFF7D7FE28B99DF80D202A
:101E68009DF80B309A420AD09DF80D309DF80B2052
:101E78000092084A0121084815F0F0FB0326304675
:101E880004B070BD054A0121034815F0DCFB0326A8
:101E9800DDE700BFE83E020004390200D03E020040
:101EA80010B584B0044600238DF80F308DF80E303D
:101EB8000DF10F027421FFF7A7FE9DF80F3003F014
:101EC800FC038DF80F3043F001038DF80E300DF14F
:101ED8000E0274212046FFF7A5FF0DF10F027421B1
:101EE8002046FFF791FE9DF80F209DF80E309A428C
:101EF80002D1062004B010BD0092034A0121034814
:101F080015F0ACFB0720F5E72C3F0200043902006E
:101F180010B582B0044600238DF807308DF80630DE
:101F280050238DF806300DF106027421FFF77AFF71
:101F38000DF1070274212046FFF766FE9DF8073071
:101F48009DF80620934216D002238DF806300DF135
:101F5800060272212046FFF765FF0DF10702722184
:101F68002046FFF751FE9DF807309DF80620934262
:101F780007D002B010BD064A0321064815F063FBDE
:101F8800E2E7054A0321034815F05DFBF1E700BFCE
:101F98007C3F020004390200C43F0200024A02608A
:101FA800024A0260704700BFF44302000C4002007E
:101FB80010B50446044B0360044B03600C2117F072
:101FC80087FE204610BD00BFF44302000C4002000B
:101FD80010B586B004460023ADF81430049303937B
:101FE80002930193009305AA8E21FFF70DFE0028A6
:101FF80040F0A7800DF115028F212046FFF704FE5F
:10200800002840F0A4809DF815209DF8143043EA7C
:1020180002237C4A138004AA90212046FFF7F4FD8E
:10202800002840F09A800DF1120291212046FFF716
:10203800EBFD002840F09780BDF912209DF8143080
:1020480043EA0223704A1380704A92212046FFF720
:10205800DBFD002840F08D8003AA94212046FFF77D
:10206800D3FD002840F08B800DF10E02952120460B
:10207800FFF7CAFD002840F08880BDF90E20BDF9A1
:102088000C3043EA0223624A138002AA96212046B2
:10209800FFF7BAFD00287ED10DF10A0297212046EC
:1020A800FFF7B2FD00287CD1BDF90A20BDF9083040
:1020B80043EA0223574A1380574A99212046FFF7DB
:1020C800A3FD002873D1554A98212046FFF79CFDAF
:1020D800002872D101AA9C212046FFF795FD00280F
:1020E80071D10DF106029D212046FFF78DFD0028D4
:1020F8006FD1BDF90620BDF9043043EA0223484AEE
:1021080013806A469E212046FFF77EFD002866D18F
:102118000DF102029D212046FFF776FD002864D1CB
:10212800BDF90220BDF9003043EA02233D4A13807D
:102138003D4AA0212046FFF767FD00285BD106B085
:1021480010BD3A4A01213A4815F073FA52E7394A64
:102158000121374815F06DFA55E7374A012134480F
:1021680015F067FA5FE7354A0121314815F061FA41
:1021780062E7334A01212E4815F05BFA6CE7314AD1
:1021880001212B4815F055FA6EE72F4A01212848FE
:1021980015F04FFA71E72D4A0121254815F049FA43
:1021A8007AE72B4A0121224815F043FA7CE7294AAD
:1021B80001211F4815F03DFA85E7274A01211C48EF
:1021C80015F037FA86E7254A0121194815F031FA42
:1021D80087E7234A0121164815F02BFA89E7214A97
:1021E8000121134815F025FA92E71F4A01211048EA
:1021F80015F01FFA94E71D4A01210D4815F019FA48
:102208009DE700BF4A1F0020481F0020501F0020E4
:10221800461F0020441F00204F1F00204E1F002093
:10222800421F0020401F00204D1F002028400200B0
:10223800FC38020064400200A0400200DC400200BA
:10224800184102005841020094410200D0410200A6
:102258000C4202004842020084420200C0420200CE
:10226800FC4202003843020074430200B0430200FB
:10227800012800D070474FF6FF739942FAD110B584
:10228800044C204607F03CFB034A0449204615F05D
:10229800E9FA10BDB80B0020BC0B0020599A0000C9
:1022A80010B50446FFF764FC014B2360204610BDBF
:1022B800F44302000D4BD3E8AF3F13F0010F01D0F8
:1022C8000B48704710B5094807F0C0FA08B9084824
:1022D80010BD074C2046FFF7E3FF064A0649204693
:1022E80015F0C0FA014817F0F5FCF0E7A80B00203C
:1022F800AC0B0020BC0B0020A51F00002DE9F04FFF
:1023080091B005920293134602F004020092C3F3BF
:10231800C20310F00302019240F02A8280468A46E6
:102328000133041D00284ED0B8F1000F05D0A4EBEE
:1023380008020432524500F21E82029A551E019A82
:1023480004920692039200264FF0FF3B0427B946F9
:10235800B8F1000F01D0029A22605A1E0792002B92
:1023680040F35C81059B13F0020228D00120A4EB06
:1023780008018B081AB1B1F5007F80F00282039939
:102388000F2900F20182B8F1000F00F05F81DBB283
:1023980001F140026A4402F8103C02F820BC00280F
:1023A80000F0508163F07F0301F140026A4402F8B3
:1023B800103C049B01330493039B013303930434BF
:1023C800002140463DE001F0070A5444CAF1080ADA
:1023D800AAE7002634E0002632E0002630E008278D
:1023E800B9462DE0252B2BD10BF1010B0126042733
:1023F800B94625E0472BEED82A2B14D32A3BDBB26B
:102408004FF0010C0CFA03F34FF6DA7C13EA0C0FC9
:1024180016D113F0625F40F0C18013F0010F40F055
:102428008D8000260CE0252B03D10BF1FF3B002605
:1024380006E001D9002603E0202B01D0232BCCD1C4
:1024480015466A1C6B78002B00F01981002EC9D044
:102458007A2BBED84C2BCDD34C3B2E2B62D80FF207
:10246800080C5CF823F000BF492400002D2500006B
:102478002D2500002D2500002D2500002D2500000C
:102488002D2500002D2500002D2500002D250000FC
:102498002D2500002D2500003D2500002D250000DC
:1024A8002D2500002D2500002D2500002D250000DC
:1024B8002D2500002D2500002D250000A525000054
:1024C8002D2500003D2500003D250000A525000024
:1024D800A5250000A5250000492400003D25000091
:1024E800E72300002D250000492400002D250000C9
:1024F800012600003D250000012600002D250000D2
:102508002D25000009260000372500003D25000084
:102518002D2500002D2500003D2500002D2500005B
:102528003125000000268BE70427B94688E70427F1
:10253800B94685E72B786C2B24D000263C44013C17
:10254800B4FBF7F407FB04F420B1231A4B445345BA
:1025580000F21481002958D1B9F1040F00F08780E6
:10256800B9F1080F40F013811A9B073323F00703D2
:1025780003F108051A9593ED007B08B184ED007B03
:1025880008345DE712F8023C6C2B03D000260427C0
:10259800B946D3E700260827B946CFE72B784C2B56
:1025A8001AD01A9B073323F0070303F108061A967B
:1025B800D3E90067073424F0070440B1231A08332D
:1025C800534513D82B784C2B13D0C4E90067083433
:1025D80000260827B94633E71A9B073323F0070379
:1025E80003F108061A96D3E90067E3E76FF01B00CA
:1025F800BBE0C4E90067EAE700260427B9469DE77F
:10260800314600260427B94698E780461A9B191DCB
:102618001A911B680293079B154699E6624B029A2A
:102628009A4204D3614B9A420AD3002300E0002364
:10263800002B7FF497AE059B03F00202002096E67C
:102648000123F5E7069B01330693B5E610B10AF1BD
:10265800010AB1E6009B13B10AF1020AACE602983E
:10266800FEF784FD0AEB000303F1020AA4E61A9BB5
:102678001D1D1A951B6800B123600434E0E68046EE
:10268800231AB3F5806F80F0858090B10022026034
:102698009B080370009B83B1069BC370049B88F85A
:1026A80002301BBB019DDDF80C90DDF810B0029FD5
:1026B8003DE05344A3F1080057E0069B4370EDE763
:1026C80001339842EED903F140026A4412F8101C13
:1026D80012F9102C002AF3DA01F07F01A4EB0802AA
:1026E8000132524559D804F8011BE9E7019B0398C8
:1026F800E7E7009B43B305F140036B4413F8203C24
:1027080004F8013B019EA4EB08033344013353450D
:1027180046D805F140036B4413F8103C04F8013B1C
:102728003246394620461EF0FAFB34440135A945A5
:1027380019D9BBF1000FDCD005F140036B4413F944
:10274800103C002BD5DAF1E705F140036B4413F890
:10275800103C58F82370002248F823203846FEF72A
:1027680005FD461CCFE7A4EB080011B0BDE8F08FCB
:102778006FF00D00F9E76FF01B00F6E76FF01B0034
:10278800F3E76FF01500F0E76FF01500EDE76FF075
:102798001500EAE76FF01500E7E76FF01B00E4E7C4
:1027A8006FF01B00E1E700BF243502003C7F020008
:1027B8002DE9F04F97B000AF8346BA61FB60D7F8B8
:1027C8008030C3F3C0033B62396111B914F04CF98E
:1027D80038619BF80260B14636B1D7F8803013F003
:1027E800010F0DD1002300E000239BF803207A623B
:1027F80042B1D7F8802012F0020F22D1002202E065
:102808000123F2E7002202B9EBB19BF80050AA00BD
:10281800BA60DBF804207A610BEB8505BA69F2B17E
:10282800002B40F00481B9F1000F00F00F81D7F8B8
:10283800803013F0040F40F00D810020F861064647
:10284800F9E00122DFE7BB691BB1FA68396958462C
:1028580098473C6920465C37BD46BDE8F08F3C6927
:10286800E3B94D4400233B6123E0044401350136BC
:102878004E451AD22A7800235BF822201946B869F7
:1028880014F007F9BAF1000FEFD0D7F8883098455F
:10289800EBD22AF8180008F10108E6E70026C7F885
:1028A8001C80B046D7F884A0E2E7C7F81080D7F8B4
:1028B8001C80D7F8803003F00503FB604FF0000A56
:1028C800A146C7F81CB09CE000253B6A7BB9002DE7
:1028D80079D0D7F8803013F0010F79D1FB68002B3D
:1028E8006FD10223A9EB030988E00125EDE75946DA
:1028F800786914F014F90028E9D06C46002387F8A9
:102908002C30022387F82D308AB0694611F1100265
:1029180037D012251AB1042D01DDB14B4B610023CC
:1029280087F82830022387F829306ABB112D45DD46
:10293800122362B1042087F82C00002087F82D00AC
:1029480087F82E00012087F82F00F86A08616FF3D6
:1029580000086FF341086FF382086FF3C50802217E
:1029680061F38818C3F30A0363F353286FF31F58FE
:10297800002341469B4800F057FDA546A9F10209EE
:102988003CE06FF00045C5E72B46082D01DD78696E
:1029980088610C2B01DDC1F81CB001F12003002077
:1029A80009E000F1300C07F1280EF4441CF830CC93
:1029B80003F801CB01300128F3D9B7E76FF01B0307
:1029C800B7E701238EE7D7F8803013F0020F15D050
:1029D800002322461946B86914F05BF8D7F884300A
:1029E80053B13B69D7F88820934205D2D7F88420A1
:1029F80022F8130001333B61013881440AF1010ACE
:102A080035467B6A9A4510D22E4616F802BB6B787B
:102A1800FA6952F82340744B9C42FFF455AF734B4C
:102A28009C42FFF462AF00254FE74C4612E707F1DE
:102A380044000023FB6118B14A4629461EF06FFA8C
:102A48004D444FF00008C7F804901EE00020F861DC
:102A58000646F0E7FE6107F134000026EBE70025A3
:102A68003B6A33BB002D3BD0D7F8803013F0010F01
:102A780026D0731C06F1300207F12801561806F813
:102A8800149CDEB208F1010825467B6A984549D2B4
:102A98002C4614F802AB95F801905BF82930524A9D
:102AA8009342DCD3514A934201D30025D8E701254C
:102AB800D6E75146786914F032F80028D2D0E1E719
:102AC800D7F8803013F0040FDCD0FA69531C303289
:102AD80007F128010A4402F8249CDBB2FB61D1E724
:102AE800D7F8803013F0020F09D0731C06F13002BA
:102AF80007F12801561806F8149CDEB2C2E7F969F6
:102B08004B1C01F1300207F12800024402F824AC02
:102B18008A1CD2B2FA6107F1580252FA83F303F819
:102B2800249CAFE7D7F804909BF8003087F854301E
:102B38009BF80130334487F85530D7F8803013F0CC
:102B4800020F0ED1FB69C3F3470387F85730D7F854
:102B5800803013F0010F06D113F0040F3AD100238F
:102B680002E00023F1E7002387F85630DBF8000085
:102B78003863786DCBF80000D7F80CA05246B968D6
:102B88005846BB699847041EFFF664AE386BCBF80D
:102B980000005246F96907F13400BB6998470028DC
:102BA8005DDB04EB0008B9684944786A01EB400131
:102BB80052463869411A2846BB699847041EFFF6F1
:102BC80049AE08EB04054FF00008C7F824B0B34637
:102BD800BC6922E0FB69C7E74FF000090AE000BFC3
:102BE8001444020014390200243502003C7F02001C
:102BF8004FF000095246012107F12C00A047002898
:102C08002FDB05444B4632465146204613F041FF20
:102C1800002828DB054408F10108D84518D208F136
:102C2800300307F12802134413F8143C87F82C30BA
:102C38007A6A52F82360D7F88430002BCCD0D7F8C2
:102C480088309845D4D2D7F8843033F81890D1E733
:102C5800FA6800210846BB6998472C46FAE50446FD
:102C6800F8E50446F6E50446F4E500BF014B1860B4
:102C7800704700BF0000002080B505460E46174685
:102C8800984606F0C7F803461EF082FD0446DFF8B2
:102C9800189049F80030424639463046A84754F85B
:102CA800090001F01FFD00BF080000002DE9F043F6
:102CB80083B0044608461546A38B13F0080F05D1C8
:102CC80003F0070600230093019354E0012909D07B
:102CD80043F02003A38385F31188BFF36F8F03B0FC
:102CE800BDE8F08343F01003A383F4E7204614F013
:102CF8007AFA42E0D4F818904A466946204614F019
:102D08008BFA4FF00008A38B03F00707B74269D08E
:102D1800A268002A66D0012243F00803A38385F342
:102D28001188BFF36F8F002A64D1009B2BB14B46EB
:102D38003A466946204614F0E8FAB8F1000F02D086
:102D480034492046C047EFF31185202383F31288C6
:102D5800BFF36F8FA38B23F00803A383A38B13F018
:102D6800100F4DD023F01003A3830120A68B06F08B
:102D780007060028AFD00228B8D00028ABD0013809
:102D880004282BD801A353F820F000BFFD2C000025
:102D9800E52D0000A92D0000BD2D0000D12D00005B
:102DA8002369D3F800800621204614F0F2F94FF089
:102DB8000009A8E72369D3F804800421204614F009
:102DC800E8F94FF000099EE72369D3F80880052148
:102DD800204614F0DEF94FF0000994E74FF00008A0
:102DE800C14690E7009A0AB1002295E7B8F1000FB2
:102DF80092D1B3E74A463946204614F0D2F994E70F
:102E080013F0200F04D023F02003A3830220ADE7A2
:102E18000020ABE74173010038B505460B4C00E0D4
:102E280010340B4B9C420FD263685B79002BF7D0B0
:102E38002946204614F04AFB0028F1D023681B6875
:102E4800294620469847EBE738BD00BF6C39020099
:102E58007C39020070B506460D46084C04E02A4647
:102E68003146204698471034054B9C4204D22368CB
:102E78009B69002BF3D1F6E770BD00BF6C390200E7
:102E88007C3902002DE9F041074605460AE007EAC9
:102E98000807144B03EB06135B68042219682046E5
:102EA80014F05EFBD5B195FAA5F6B6FA86F60D4C88
:102EB80004EB06140123B3406FEA030825EA03056F
:102EC800237B002BEED03301064AD3581B69002B15
:102ED800DDD0204698470028E4D1D8E73846BDE839
:102EE800F08100BF6C3902002DE9F04180460F46A1
:102EF8001D4BD3E8EF5F6A1CC3E8E12F0029F8D126
:102F08006DBB1A4C002607E0636804221968204646
:102F180014F026FB01361034154B9C4211D2237B4A
:102F2800002BF7D0204614F0C5FA23681B69002B44
:102F3800EAD0204698470028E6D00123B3401D4335
:102F4800E8E7B8F1000F0BD055B12846FFF79AFF14
:102F58000546002FF8D00A2014F0BEFAF4E7002541
:102F68002846BDE8F08100BFD40B00206C39020070
:102F78007C39020008B5064B186018B1054B1B6870
:102F8800092B00DC08BD044805F0A6FAFAE700BFE3
:102F9800C80B0020D00B00200802002008B502480A
:102FA80005F09AFA08BD00BF0802002030B589B0C4
:102FB80000220F490F4816F06CFE0F4D0022002327
:102FC800CDE90623002404940E230393029401946C
:102FD80000940A4B4FF440720949284616F07BFCCE
:102FE8000849284605F0F2FA204609B030BD00BF6E
:102FF800A52F0000180700201802002059330000F0
:10300800801F0020CC440200014B53F82000704779
:10301800E844020048B108B5054A1060054B19603C
:10302800084600F0F5FC002008BD6FF01500704759
:1030380004000020C40B002008B5054B1B781BB109
:10304800034B01221A7008BD024805F045FAF7E75C
:10305800511F00200802002008B50C4BD3E8EF1FD1
:103068000131C3E8E21F002AF8D130B9084816F048
:103078001CFE084805F030FA08BD074BD3E8EF1FDF
:103088000139C3E8E21F002AF0D0F7E7CC0B002093
:103098001807002008020020D00B0020044B002055
:1030A8000146D3E8EF0FC3E8E21F002AF9D17047C1
:1030B800CC0B002038B5FFF7F1FF0546094C00E0BE
:1030C8001034094B9C420BD263685B79002BF7D014
:1030D80023685B68002BF3D0294620469847EFE722
:1030E80038BD00BF6C3902007C390200034B1868F8
:1030F8000028D4BF00200120704700BFCC0B00205F
:1031080010B5044C0449204613F09EFE034B1C6086
:1031180010BD00BF64010020D4440200C00B002091
:1031280008B500230C4A13700C4A13600C4A13604C
:103138004FF400410B48FFF76DFFFFF7E1FF0A4A24
:1031480006E0094BD31A1B11013351680B71103279
:10315800064B9A42F5D308BD521F0020CC0B002025
:10316800D00B0020D97401006C3902007C390200B0
:1031780008B50146014814F0C5F908BD64010020EE
:1031880008B5024813F043FF08BD00BF64010020E2
:1031980008B50146024B186814F0BAF908BD00BF1B
:1031A800C00B002008B5024814F0B6F908BD00BFEE
:1031B8006401002010B582B000220023CDE900236D
:1031C800264B187808B902B010BD684614F0BCF94F
:1031D800044660B1FFF720FE2046FFF7D9FF204BD9
:1031E800D3E8EF1F0139C3E8E21F002AF8D1FFF73F
:1031F8007DFF58B91B4A1368516813F57A7341F17A
:10320800000113605160FFF7CDFFDCE716F032FDD7
:103218004A0142EAD06243011B1A62EB01029200A2
:1032280042EA93729B001B1842EB0102D20042EA69
:103238005372C3F3103343EA4243D20B094801687F
:1032480040685B1A62EB000240F2E9318B4272F18E
:103258000002CFD3FFF72EFFCCE700BF511F00209D
:10326800D00B0020100700200F4B1B7803B17047CC
:1032780010B500210120FFF737FE0C4C00E0103498
:103288000B4B9C4208D263685B79002BF7D023680C
:103298009B6820469847F2E7FFF78CFF0028FBD190
:1032A800014B01221A7010BD521F00206C39020018
:1032B8007C39020010B582B0184BD3E8EF2F511CAF
:1032C800C3E8E01F0028F8D1154B1B7863B9154BEC
:1032D8001B68B3B1BAB1092A13D1134816F0E5FC3B
:1032E800124805F0F9F80CE0EFF31184202383F37A
:1032F8001288BFF36F8FFFF75DFF84F31188BFF368
:103308006F8F02B010BD00220023CDE900234FF4D7
:1033180000420023044806F0C9F8F2E7D00B002069
:10332800521F0020C80B00201807002008020020A8
:1033380010B50446044B1B689847A0602146034813
:1033480014F006F910BD00BF04000020640100203D
:103358002DE9F04100210846FFF7C6FD804650B12F
:1033680040F2676600271EF013FA154B1858FFF74E
:1033780001FE002515E04FF0FF364FF0FF37F2E76A
:103388004046FFF77FFD804670B94FF0FF364FF09B
:10339800FF3709E02C4632463B460A4805F0E0F87C
:1033A8002546B8F1000FEBD1FFF704FF04460028CB
:1033B800F6D1002DEED000210846FFF74BFDEAE7D5
:1033C80008000000080200200248034BC01AC00889
:1033D800704700BF6C390200F438020010B50C4683
:1033E800FFF7F2FFA04203D9024B53F8340010BD97
:1033F8000020FCE7F438020000B589B00592069376
:103408000023079362B1074A0C9B02930B9B01931D
:103418000A9B009305ABFFF7CBF909B05DF804FBF5
:103428000022F1E77F7501002DE9F04F8BB004AF62
:1034380005461E468846C1F34A24002C00F08980C0
:1034480091460022FA603A617A6104230293FB18DC
:1034580001930A23009307F10C0321464846FFF71E
:10346800A7F9B0F5006F58D3D9F804106D460023BA
:103478003B7302237B738AB004AC14F1100217D09B
:1034880012201AB1042801DD3B4B636100233B7015
:1034980002237B70CAB10346082800DDA1610C2B0A
:1034A80002DD40F2FF73E36104F1200300210AE02A
:1034B8006FF00040E5E701F118063E4416F8186C75
:1034C80003F8016B01310129F5D9112822DD1223F6
:1034D80042B10421397300217973B9730121F97359
:1034E800F868206100216FF300016FF341016FF369
:1034F80082016FF3C501022060F38811C3F30A0348
:1035080063F353210023C1F313011C4814F0B3F8EB
:10351800AD462DE06FF01B03DAE760F35328C0F3E4
:103528000A0A0AEB1850173020F007008008FFF746
:103538001FFE8346B0B104230293FB1801930A23AC
:103548000093534600F1100221464846FFF754FF06
:1035580008E004EB1154173424F00704A008FFF71F
:1035680007FE8346334642462946584614F019F862
:103578001C37BD46BDE8F08F08450200343902000B
:103588002DE9F04F85B080460D4617461E46DDF8FA
:1035980038B0DDF84090B9F1000F41D0119B03938A
:1035A80000934B460F9A10210020FEF7A7FEB0F5B6
:1035B800006F2DD282460BEB0003173323F007036D
:1035C80000246FF300046FF341046FF3820468F37F
:1035D800C50467F3881460F353246BF31F549808E9
:1035E800FFF7C6FD074650B11030B9F1000F06D0FD
:1035F800119B00934B460F9A5146FEF77FFE3346C8
:1036080022462946384613F0CCFF05B0BDE8F08FB6
:1036180040F2FF73034A0221034814F014F8F4E758
:103628000020C7E74845020034390200406820B14D
:10363800034BC01A40F3CF0070474FF0FF3070477C
:10364800F43802000EB400B582B0014603AB53F85B
:10365800042B0193034801F0ABFB02B05DF804EBC7
:1036680003B07047B576010010B584B011F0440F6F
:1036780005D01A4B1B6833B9002004B010BD184997
:10368800FFF7E0FFF9E717490968B2FBF1F2B2FB6F
:10369800F3FC03FB1C224FF47A7E0EFB02F2B2FB12
:1036A800F3F403FB14210EFB01F1B1FBF3F10E4A15
:1036B800A2FB0C32D20A4FF4616303FB12CC0B4B12
:1036C800A3FB0CE35B0902910194C3EB0311ACEB80
:1036D800810100910649FFF7B5FFCEE7DC0B00201A
:1036E80080450200D80B0020C5B3A291898888883C
:1036F8008C45020061B108B52AB1064A52F8232068
:1037080012B9054A00E0044A0449FFF79BFF08BDC7
:10371800704700BF2C460200A8450200B0450200D1
:103728002DE9F04105461746069EDDF81C8081B953
:1037380000242EB1324611492846FFF783FF04447E
:10374800B8F1000F14D06FB1099B042B13D00C49AA
:1037580009E00C4B099A53F822200B49FFF772FF36
:103768000446E6E7064942462846FFF76BFF04444D
:103778002046BDE8F0810549F5E700BFC8450200CD
:10378800B845020040460200C0450200B4450200A8
:103798002DE9F04F87B005460C46049205939DF835
:1037A8004C7001F0020B01F0010AC1F3C00801F4EA
:1037B800807913F0D3FE18B3024616492846FFF75E
:1037C80041FF0646BBF1000F1CD13A465146284638
:1037D80013F093FFB9F1000F01D000231193039761
:1037E800129B0293119B0193109B00930023049A50
:1037F80041462846FFF794FF304407B0BDE8F08FF4
:103808000026DFE7059A21462846FFF72DFF0644E4
:10381800DBE700BFCC45020011F0100F0BD108B553
:1038280011F0200F03D00449FFF70CFF08BD03492E
:10383800FFF708FFFAE77047883C0200C051020012
:103848002DE9F04105460F46164698460699FFF7BA
:10385800E3FF0024444505DA24492846FFF7F2FE31
:103868000134F7E7002409E020492846FFF7EAFE7B
:103878000BE01F492846FFF7E5FE01340F2C0CDC4E
:10388800002C02DD14F0070FEED0B442F1D23A5DFD
:1038980018492846FFF7D6FEEFE717492846FFF7ED
:1038A800D1FE002409E011492846FFF7CBFE0BE0C2
:1038B80012492846FFF7C6FE01340F2C13DC002CF2
:1038C80002DD14F0070FEED0B44207D23A5D0C4B7C
:1038D8009B5C13F0970FEBD12E22E9E703492846AA
:1038E800FFF7B0FEE8E7BDE8F08100BFC44502007D
:1038F800D8450200D0450200DC450200E045020040
:10390800BE7402002DE9F04184B004469DF82C50A5
:103918000C9F0E9E95B9012B1ED019484FF0000838
:1039280027B13B462246174913F0C9F8C6B905BB6B
:10393800204613F0A4FE04B0BDE8F08103950A9870
:103948000290019300920B4600220F992046FFF740
:103958001FFF80460C48E3E70B484FF00008DFE7FD
:103968000F9B0093434632460D99204613F0DDFE27
:10397800DDE72A460F99204613F0CBFED8E700BFB3
:10398800E5760100B94D0000B57601002DE9F04358
:1039980083B00646056842F20F738B4228BF0B4678
:1039A800184A0521684610F0F9F804467368D3F8F8
:1039B80004900B27DFF8548005E04A463946404614
:1039C800A8473F1A8044002FF7D17368D3F80480C2
:1039D8006F4605E0424621463846A847241A074460
:1039E800002CF7D173685F681B24074E05E03A4640
:1039F80021463046A847241A0644002CF7D103B0C4
:103A0800BDE8F08398480200E44502000046020041
:103A1800074B01221A6004E04008054A13685B005E
:103A28001360044B9842F7D8034B1860704700BFE7
:103A3800D80B002040420F00DC0B002070B5064672
:103A48000D46002405E0315D04488368DB6998472A
:103A58000134AC42F7D3284670BD00BFEC350200F4
:103A6800014B036000207047A846020008B50348D0
:103A780013F082F8024813F07FF808BDA846020048
:103A8800E046020008B5024805F0A0FD08BD00BFE9
:103A980010470200B0F5680F17D00CD840F6BA638B
:103AA800984214D0B0F5683F13D03A2801D00120CD
:103AB800704700207047094B98420CD0084B984239
:103AC80001D0012070470020704700207047002077
:103AD8007047002070470020704700BF3A00003A46
:103AE8002C5F5CA928B308B54368B3F5683F0AD0D2
:103AF800B3F5680F14D012498B421FD0006804F048
:103B080095FC002014E003680022D3E8EF1F012988
:103B180003D1C3E8E02F0028F7D10DD1104607E004
:103B280003681B7803F580730020064A42F82300D7
:103B380008BD6FF4E04070470348F9E70348F7E72A
:103B48002C5F5CA900000350E98FFFFFEA8FFFFF9D
:103B580088B308B54368B3F5683F0FD0B3F5680F6D
:103B680019D016498B4224D000684FF0FF324FF02D
:103B7800FF3304F0DBFB68B111480BE00368012256
:103B8800D3E8EF1F002903D1C3E8E02F0028F7D1BD
:103B98000BD1002008BD03681B7803F58073094A20
:103BA80052F823301BB90020F4E70548F2E704482F
:103BB800F0E70548EEE76FF4E04070472C5F5CA93A
:103BC800E98FFFFF00000350EA8FFFFF10B504469E
:103BD800A8B16368B3F5683F10D0B3F5680F0DD08E
:103BE8000D4A93420AD013F4686F0DD021680B4830
:103BF80015F0B1FD00232360074B636010BD084B2F
:103C08005B6808489847E4E7236800221A605A600E
:103C18009A60DA601A61EFE72C5F5CA9081100204E
:103C2800900000201847020010B5044668B3606889
:103C3800B0F5683F28D0B0F5680F25D0174B9842EB
:103C480028D0FFF727FFC0B14FF0FF324FF0FF3306
:103C58002146134804F038FB08B923681BB9114BF7
:103C68005B6811489847236800221A605A609A6076
:103C7800DA601A614FF468636360206815F0ECFD40
:103C8800636843F03A03636010BD064B5B680748FE
:103C98009847CCE72368002BD3D1D5E72C5F5CA9E4
:103CA8000811002090000020404702001847020039
:103CB80008B5402314220449044815F03DFD044981
:103CC800044805F0F5FC08BD080C00200811002088
:103CD80070470200844702002DE9F04F87B000AF1B
:103CE8008146D0F800E0D0F804C085686E468AB0F6
:103CF8006B4613F1100200F0878014218AB1084640
:103D0800042903DDDFF83C82C3F81480082801DDAC
:103D1800C3F818E00C2801DDC3F81CC0102800DD2A
:103D28001D62132973DD14253AB105213975002167
:103D38007975B975F9757869186100216FF3000113
:103D48006FF341016FF382016FF3C501012363F340
:103D58008811C5F30A0565F353216FF31F5100233A
:103D68007348FFF761FBB546D9F80CE0D9F810C0E5
:103D7800D9F814506E468AB06B4613F1100249D038
:103D880014218AB10846042903DDDFF8BC81C3F891
:103D98001480082801DDC3F818E00C2801DDC3F8F9
:103DA8001CC0102800DD1D62132936DD14253AB128
:103DB8000521397500217975B975F9757869186122
:103DC80000216FF300016FF341016FF382016FF37C
:103DD800C5014FF0010868F38811C5F30A0565F3BA
:103DE80053216FF31F51524D00232846FFF71CFB48
:103DF800B546D9F81C304F4A4146284613F023FCF3
:103E08004FF0000B5D4633E06FF0004176E76FF04E
:103E18001B0589E76FF00041B3E76FF01B05C6E7A4
:103E28006FF0004046E027286BDD28213AB10A20D0
:103E3800387500207875B875F875786918616FF36A
:103E480000046FF341046FF382046FF3C504012388
:103E580063F38814C1F30A0161F353246FF31F5409
:103E6800002321463248FFF7DFFAD7F80CD0043593
:103E78000F2D49D805F1080359F823A005F10108C9
:103E880005F1090359F82330BB6005F1020C05F16F
:103E98000A0359F823307B6005F1030E05F10B0383
:103EA80059F823B0C7F80CD08EB06B4613F1100246
:103EB800B6D02820002AB6D00146042801DD1E4EBF
:103EC8005E61082900DD9D610C2901DDC3F81CA095
:103ED800102901DDC3F82080142901DDBE685E6267
:103EE800182901DDC3F828C01C2901DD7E68DE62BF
:103EF800202901DDC3F830E0242994DDC3F834B06B
:103F080091E76FF01B0191E7D9F86030084C0B4A34
:103F18000121204613F097FBD9F81830084A0121EF
:103F2800204613F090FB1C37BD46BDE8F08F00BF5C
:103F380054390200F44702000448020048480200CD
:103F48005848020094470200C447020038B50446A6
:103F58000D4611B10846FFF7BFFE012C04D02946D3
:103F6800204603F039FF38BDEFF30583103B034AC1
:103F78000121034813F067FBF1E700BF88480200FE
:103F88005439020030BFFFF7FDBF00BF38B5044603
:103F9800054D2A4605491CF0C2FF054A0021601953
:103FA8001CF0E4FF38BD00BF00000000C03902006B
:103FB8000800000070B50646064D074B1D444C1B13
:103FC8002046FFF7E3FF083CC6F8A44005F10800C7
:103FD80070BD00BF0000000008000000054B9A6992
:103FE8009B689A4204D0044A536843F08053536054
:103FF800704700BF8413002000ED00E081690D4B7D
:104008005A6942F480725A61BFF34F8FBFF36F8FC2
:1040180031F8021C5A6922F480725A61BFF34F8F3B
:10402800BFF36F8F4DF60273994201D0002070479D
:104038000120704700ED00E04FF0000C83F800C04D
:1040480002F07F4CBCF17F4F14D102F00C0CBCF194
:10405800080F04D012F0080F09D00846704708B5B9
:10406800054A0121054813F0E4FA002008BD0122A1
:104078001A707047002070479C48020054390200AB
:1040880008B5314A0121314813F0D3FA304B9B6A05
:1040980013F0007F26D11D202D4B9B6A13F0807FE3
:1040A80027D12B4B9B6A13F4801F29D1284B9B6A7D
:1040B80013F4002F2BD1264B9B6A13F4802F2DD19C
:1040C800234B9B6A13F4003F2FD1214B9B6A13F4B7
:1040D800803F31D11E4A936A6FEA03436FEA134364
:1040E800936208BD1B4A0121184813F0A2FA1E204A
:1040F800D2E7194A0121154813F09BFA1F20D0E78F
:10410800164A0121114813F094FA0220CEE7144A06
:1041180001210E4813F08DFA2120CCE7114A012124
:104128000A4813F086FA2220CAE70F4A01210748F5
:1041380013F07FFA2320C8E70C4A0121034813F043
:1041480078FA2420C6E700BFC848020054390200A4
:1041580000ED00E0E0480200F448020010490200C7
:104168003C4902005C49020084490200A04902005F
:1041780008B500230B70034A0121034813F059FACC
:1041880008BD00BFCC4902005439020090B583B085
:1041980000AF0F2923DC2F4C103900233B71022379
:1041A8007B718AB0EC461CF110021AD0122022B1A1
:1041B800042802DD284BCCF8143000233B7002237E
:1041C8007B70E2B10346082801DDCCF818400C2BBF
:1041D80001DDCCF81C100CF1200300210DE01F4C70
:1041E800DAE76FF00040E2E701F1080404EB070E9C
:1041F8001EF808EC03F801EB01310129F4D9112864
:1042080024DD12234AB10421397100217971B97171
:104218000121F9717868CCF8100000216FF30001D2
:104228006FF341016FF382016FF3C501012060F361
:104238008811C3F30A0363F353216FF31F5100235B
:104248000748FFF7F1F80C37BD4690BD6FF01B0328
:10425800D8E700BFF0490200244A0200084A0200D9
:1042680054390200F8B505460F461446394A01216B
:10427800394813F0DEF9394B9B6A13F0100F31D12E
:104288001026364B9B6A13F0080F32D1334B9B6ACA
:1042980013F0020F34D1314B9B6A13F0010F4BD14D
:1042A8002E4B9B6A13F0200F4DD12C4B9B6A13F0B9
:1042B800100F01D1294B9B6A284B9B6A13F0200FE2
:1042C80004D0264A536A23F400535362234A936A5C
:1042D80043F0FF0393620121284613F0CAFA2070C5
:1042E8003046F8BD1E4A01211B4813F0A2F91126D9
:1042F800C7E71C4A0121184813F09BF91226C5E7A5
:10430800194A0121144813F094F9144A536B926A1C
:1043180012F0800F01D11326BDE7144A01210E487F
:1043280013F091F937B10D4A936A23F08003936231
:104338001326B0E71326AEE70D4A0121064813F00D
:1043480078F91426ACE70B4A0121034813F071F9F8
:104358001526AAE7384A02005439020000ED00E0A9
:10436800504A0200844A0200984A0200B04A0200F9
:10437800C84A0200E84A0200F8B505460F46144646
:10438800374A0121374813F054F9374B9B6A13F425
:10439800805F25D11626344B9B6A13F4006F26D113
:1043A800314B9B6A13F4007F28D12F4B9B6A13F47F
:1043B800806F3FD12C4B9B6A13F4807F41D12A4BED
:1043C8009B6A13F4005F43D1274A936A43F47F43FF
:1043D80093620121284613F04CFA20703046F8BD4C
:1043E800224A01211F4813F024F91726D3E7204A4F
:1043F80001211C4813F01DF91826D1E71D4A012197
:10440800184813F016F9184A936B926A12F4004F81
:1044180001D11926C9E7184A0121124813F013F9E6
:1044280037B1114A936A23F4004393621926BCE713
:104438001926BAE7114A01210A4813F0FAF81A2690
:10444800B8E70F4A0121074813F0F3F81B26BBE72A
:104458000C4A0121034813F0ECF81C26B4E700BF0E
:10446800184B02005439020000ED00E0304B020006
:10447800844A0200444B0200604B0200784B020061
:10448800944B0200E84A020070B506460D462B4AD6
:1044980001212B4813F0CDF800232B70294BDC6A3F
:1044A80014F002040AD1274BDB6A002B0DDB254BE5
:1044B800DC6A14F080440ED1204670BD224A0121E6
:1044C8001F4813F0B6F80024F6E7204A01211C48DB
:1044D80013F0AFF8F0E71E4A0121194813F0A9F8C4
:1044E8003046FFF78BFD98B9164B9B6A13F0FF0F08
:1044F80016D1144B9C6A14F47F4418D1114B9B6A53
:10450800B3F5803FD8D33046FFF7BAFD0446D3E76A
:104518003368104A01210A4813F095F83468CBE74C
:104528002A4601213046FFF79DFE0446C4E72A4685
:1045380001213046FFF720FF0446BDE7AC4B0200DF
:104548005439020000ED00E0C44B0200E84B0200C1
:10455800F84B0200184C020030B59DB01A4B5C684D
:10456800C4F30804002383F31188BFF36F8F0DF1A0
:104578006E03FFF761FD05460DF16F02214613F04A
:104588007AF99DF86F300BB11DB030BD0446682232
:10459800294601A81CF0C3FC9DF86E304BB1089B5E
:1045A800C3F308025AB96FEA53236FEA4323089307
:1045B80005E0089B23F4FF7323F00103089301A986
:1045C8002046FFF7C3FCDFE700ED00E0064B5A6921
:1045D80042F010025A615A6942F480625A615A697B
:1045E80022F008025A61704700ED00E0EFF30880FE
:1045F800EFF3098101B57246FFF7AEFF01BD00BFB9
:10460800002080F31488BFF36F8F002080F30A889E
:1046180080F30B88104880F3088800200F49087041
:1046280002F05AF900200E490860BFF34F8F00F0DE
:104638002FF8202080F311880A484FF400614018B1
:1046480080F30988EFF314800221084380F314886B
:10465800BFF36F8F13F04AF9C02F0020591F0020B5
:1046680094ED00E080220020084BD3F89000C0F3BE
:104678000720002306E0054AC2F898300021C2F856
:10468800A01001338342F6DB704700BF00ED00E065
:1046980010B572B6002484F31388FFF7E5FF2346AC
:1046A80008E003F120010E4A4FF0FF3042F82100E4
:1046B8000133DBB20F2BF4D9002308E003F16001CA
:1046C800074A4FF0FF3042F821000133DBB20F2BCD
:1046D800F4D962B6BFF34F8FBFF36F8F10BD00BF21
:1046E80000E100E008B50A4B9B68834202D004F061
:1046F80097FB08BDEFF30583002BF8D0054B5A68EC
:1047080042F080525A605A6A22F400425A62EEE736
:104718008413002000ED00E025498A6882F8F1E062
:104728004FF030001044EFF3098C80E8F01F1EF0C2
:10473800100F03D102F1B00080EC108A202080F322
:104748001288BFF36F8F1B4F4FF000668A698A602B
:104758003E60D2F8A400184C206092F9F1E0D2F83B
:10476800A8000023C2F8A83080F311881EF0100FAB
:1047780003D00023E1EE103A03E002F1B00090EC20
:10478800108AEFF3148323F0040383F31488BFF330
:104798006F8F02F1300090E8F01F8CF3098802F166
:1047A800000004B513F0BDF8BDE8044070470000F0
:1047B8008413002004ED00E0281100201EF0040FEF
:1047C8000CBFEFF30880EFF30980816911F8021C30
:1047D8000229FFD001B5724613F038F801BD00BFB9
:1047E800002807DB00F01F02400901239340024A1A
:1047F80042F82030704700BF00E100E000280CDBE1
:1048080000F01F024009012393402030034A42F878
:104818002030BFF34F8FBFF36F8F704700E100E088
:10482800002808DB4901C9B200F1604000F5614089
:1048380080F80013704700F00F004901C9B2014B1E
:104848001954704714ED00E04209054B53F8222033
:1048580000F01F00012303FA00F01040704700BF6A
:1048680000E100E00C4BD3F8882022F47002C3F872
:104878008820D3F8882042F4A002C3F8882003F5E2
:1048880000734FF040425A63BFF34F8FBFF36F8FEF
:104898000023E1EE103A704700ED00E0044B23F0EE
:1048A8007F03044A9360BFF34F8FBFF36F8F704746
:1048B8000000000000ED00E010B4A2F1200411494E
:1048C80042F8081C21F0010142F8081C42F8203C7B
:1048D800019B42F81C3C029B42F8183C039B42F89F
:1048E800143C4FF0807342F8043C04650023C0F880
:1048F800A830C0F8F030FD2380F8F1305DF8044BA3
:10490800704700BF812C0000124B9B6883421BD16B
:10491800EFF30583DBB9EFF31182202383F31288C9
:10492800BFF36F8F037B23F002030373EFF314834A
:1049380023F0040383F31488BFF36F8F82F3118885
:10494800BFF36F8F002070476FF0150070476FF04E
:10495800150070478413002008B504460E46154616
:1049680012F0D1FF0A4B9C60D4F8A420094B1A60BE
:10497800D4F8943083F30B882C4686F309880020FA
:10498800054B98472046002100220023034C20476E
:10499800841300202811002035790100812C0000A3
:1049A800014B10221A61704700ED00E0002207E079
:1049B80003F1604303F56143202183F800130132BA
:1049C800442A09DC53B2002BF2DA03F00F0303493F
:1049D800194420230B76F2E7704700BFFCEC00E097
:1049E80008B5EFF30583103B044A02EBC30149689D
:1049F80052F833008847FFF7F1FA08BD2C36020059
:104A080010B584B00A4C23460A4A01210A4813F01B
:104A18009FF80023019302930393084B0193E41A30
:104A28000294012101A813F097F804B010BD00BF4B
:104A38000000072000000020344C0200180200206B
:104A4800024B034AC3F8C020704700BF00ED00E0E6
:104A5800AAFF4400034BC3F89800C3F89C10C3F89E
:104A6800A020704700ED00E00E4BC3F89800C3F893
:104A78009800D3F89C000A7A60F304020A72D3F80B
:104A8800A020C2F34202087A62F347100872D3F8F2
:104A98009C2022F01F020A60D3F8A03023F01F03E5
:104AA800CB60704700ED00E070B505460E46002467
:104AB80000E00134A6421EDD04EB44039A0005EB36
:104AC800830359680029F4D0A85812F09BFF04EB1F
:104AD80084030B4A42F8230010F1160F0CD0094B3F
:104AE8001B78984209DA04EB840302EB8301043152
:104AF800FFF7BAFFDDE7002070BD6FF01500FBE798
:104B08002C110020531F002010B504460A4BD3F87F
:104B18009030C3F30723013B984203D812F04CFFAF
:104B2800204610BD0346054A0121054812F08BFDB9
:104B38006FF01500F5E700BF00ED00E0444C0200FF
:104B48004C3902002DE9F04F87B08146009101935E
:104B58001446002648E03346614A0121614812F0B4
:104B680072FD6FF0150407E03B465F4A01215D487E
:104B780012F069FD6FF01504204607B0BDE8F08F0C
:104B8800D84564D12946C0B212F04DFF2BE0574AF0
:104B9800C2F89870D2F89C3003F01F0321F01F016F
:104BA8000B43C2F89C302946E0B212F03CFF0446A1
:104BB80010F1160FE0D0013415E0013B4B49C1F864
:104BC8009870D1F8A02002F01F0223F01F031343AE
:104BD800C1F8A0302946E0B212F025FF044610F1D2
:104BE800160FC9D001340136009B9E42C4DA06EB89
:104BF80046054FEA850A09EB85056F68002FF2D054
:104C0800019B23B1284612F0EBFE0028A3D03946B9
:104C180059F80A0012F0F6FE074610F1160FA3D055
:104C28008442A1DD314BC3F89800D3F89C2022F0D0
:104C38001F02C3F89800D3F8A03043F01F0859F8B2
:104C48000A306968194401F1FF3B934298D09342B6
:104C58009DD0D845B1D0013B2449C1F89870D1F80E
:104C6800A02002F01F0223F01F031343C1F8A03055
:104C78002946E0B212F0D7FE044610F1160F3FF4B1
:104C88007BAF0130194BC3F89870D3F89C109DF88E
:104C9800102061F304028DF81020D3F8A030C3F37C
:104CA8004203D2B263F347128DF8102059F80A3044
:104CB8006A681344029323F01F03A8EB0B084344CC
:104CC800013B23F01F03059302A9C0B2FFF71CFFA5
:104CD800044610F1160F3FF44FAF013483E700BFCD
:104CE8006C4C02004C390200904C020000ED00E0D0
:104CF80010B5034C01232278FFF724FF207010BD64
:104D0800531F0020044B0522C3F89420BFF34F8F94
:104D1800BFF36F8F704700BF00ED00E0BFF35F8FF8
:104D2800024B0022C3F89420704700BF00ED00E05A
:104D380038B51C4B1D681C4BD3F89030C3F30723C0
:104D48009D422BD8FFF7EAFFFFF77AFE002407E021
:104D5800144B596801EB0411204612F02DFE013462
:104D6800A542F5D81148057012F07CFE10F1160F17
:104D780013D00E4B1A780C4BD3F89030C3F307239B
:104D88009A4207DA084BC3F898200021C3F8A0100C
:104D98000132F0E7FFF7B6FF002038BD4FF0FF30D3
:104DA800FBE700BFB44C020000ED00E0531F0020F9
:104DB80030B587B00D461146002400940194029442
:104DC80003940494059402228DF80220044A019267
:104DD800049005951A4668460FF090FB07B030BD61
:104DE800697B010008B5024B1B689847002008BD85
:104DF80050110020034B1860034A937843F00203D4
:104E080093707047501100203000002008B5054805
:104E180011F0B2FE002383F31188BFF36F8F0423D0
:104E2800184602DFF44C020008B54FF0FF324FF08D
:104E3800FF33024812F0ABFE08BD00BF400000205F
:104E480008B5064921F00701C1F1005202F5E02238
:104E5800034811F07DFD002008BD00BFC72F0020CA
:104E68005411002038B50446FFF7DEFF224608211A
:104E7800084811F0E2FC054620B1074803F0D6FACD
:104E8800284638BD002CF8D01CF082FC034B0C22BD
:104E98001A50F2E754110020400000200C000000D6
:104EA80010B50446FFF7C0FF2146034811F075FC12
:104EB800024803F0BBFA10BD541100204000002046
:104EC80068B108B5064A074B1B680749A1FB0313DD
:104ED8009B0C00FB03F042F00103984708BD7047A4
:104EE800E03902006400002083DE1B4338B51A4B0A
:104EF8001B780133194AA2FB031202F4FE7101EB7D
:104F080092029C1AE5B213F07AFE154B1B782BB16E
:104F1800144A52F82530C01A07281AD94FF05023DE
:104F2800D3F8143163B14FF050230022C3F8142191
:104F3800D3F81431084B1D7015B9094B01221A70AA
:104F4800054B1C7813F05BFE064B43F82400012048
:104F580038BD0020FCE700BF551F0020CDCCCCCCCD
:104F6800541F00206011002000B583B00DF1070028
:104F780001F0D0FD114B98421CD1114B4FF48062C7
:104F8800C3F8B8254FF40062C3F83C250D499DF8D5
:104F9800070013F0F8FE0C499DF8070013F0EEFE29
:104FA8009DF807300120984001F0AEFD002003B0C5
:104FB8005DF804FB6FF00B00F9E700BF0000AD0BD4
:104FC80000A002502CA0025028A1025008B50121CF
:104FD800104BC3F80015104A0223C2F8D0360F4808
:104FE800D0F8003223F0E04343F04053C0F80032D9
:104FF800D0F8043223F0E04343F04053C0F80432C1
:10500800C2F80417C2F80419C2F8001B00F032F8FD
:1050180008BD00BF0010005000400050002584501B
:1050280000F01F0240090CD001280CD1074880323B
:1050380050F8223023F0E04343EA017140F822108F
:1050480070470348F3E70020F1E700BF00288450C9
:105058000025845038B50546002405E02946044B50
:10506800185DFFF7DDFF0134032CF7D938BD00BF09
:10507800044D020008B50249024812F06BF908BD58
:10508800084D0200741100200048704730120020BB
:10509800014BC01A40117047A811002038B50546C9
:1050A8000C46FFF7F5FF01464022034812F077FE51
:1050B80001462846A04738BD8C35020030B583B07C
:1050C80005460C46FFF7E4FF0146402300932346BC
:1050D800054A064812F07DFE011E01DB03B030BD13
:1050E8002846A047FAE700BF237E01008C3502005E
:1050F80008B5092817D8DFE800F0051C161616169B
:105108001616171200210D4812F0D7FD836813F008
:10511800070F08D10021094812F02FFE03E00221F1
:10512800064812F02AFE08BD0321044812F025FEA5
:10513800F9E70121014812F020FEF4E78C3502005E
:1051480010B582B0EFF31184202383F31288BFF3E4
:105158006F8F154A136843F00201116013F0010FB5
:1051680009D1002384F31188BFF36F8FB3B912F00C
:105178005CFE02B010BD0DF1070201214FF0502076
:1051880012F06CFD9DF80730012B01D00023E9E7F0
:10519800FFF77AFF12F0DFFD0123E3E70021034860
:1051A80012F0EBFDE5E700BF581200208C35020035
:1051B80010B5EFF31184202383F31288BFF36F8FA8
:1051C800074A136823F00201116013F0010F04D09D
:1051D80084F31188BFF36F8F10BD12F03AFEF7E722
:1051E8005812002070B582B00546012807D14FF04B
:1051F8005023D3F81C3403F00303022B36D014F0E9
:1052080056FB044610B92B4B1B7873B9EFF3118684
:10521800202383F31288BFF36F8F012494B94FF0D2
:1052280050230222C3F808230CE00026F6E7FCB15D
:10523800304612F09BFB4FF05023D3F81835DBB201
:10524800012B19D00DF1070200214FF0502012F068
:1052580005FD0028EBD09DF80730022B01D0012D69
:10526800E5D104B386F31188BFF36F8F02B070BD28
:10527800012012F002FEDEE74FF05023D3F804318C
:10528800002BDFD04FF050230022C3F80421D3F8BD
:1052980004210222C3F81825074A2021C2F88011E8
:1052A80001229A60CEE74FF050230222C3F804236C
:1052B800DCE700BF591F002000E100E000B585B021
:1052C800CDF800D0CDF804D0002302930123039336
:1052D8006B46074A12F099FD002805DB4FF480421F
:1052E8000023684603F03CF905B05DF804FB00BFF5
:1052F800AF7E010070B5064600220121052012F09C
:10530800E9FA114801F00EFC104B984219D101F04E
:105318001BFC0024032C12D82146304612F0CDFC89
:1053280005462146304612F0D5FC094912F012F81C
:10533800002805DB0123AB601C44E4B2EAE7002047
:1053480070BD6FF00400FBE7F95000000000AD0BE2
:10535800144D020010B504460E4B0121D3E8EF2F7F
:10536800C3E8E01F0028F9D11AB1631E012B0DD93B
:1053780010BD094812F0AEFC084900234B608B6051
:10538800CB6001238B6012F001F8EEE72046FFF7AF
:1053980029FFEDE7A41100208C35020094110020AC
:1053A80010B504460A2806D0E1B206488368DB69CE
:1053B8009847204610BD03488368DB690D2198474C
:1053C800F2E700BFEC35020010B5044C2046FFF7A9
:1053D80011FD2046FDF74AFC10BD00BFA95300008F
:1053E80008B5054814F054F918B1FFF7EDFF00208F
:1053F80008BD6FF01200FBE7EC350200F0B51C4663
:10540800059F069E00F01F0C400936D0012836D1B2
:10541800284D0CF1800355F8233091B3012092B345
:105428004FF0020E40EA0E0084B34FF00C0E40EA33
:105438000E0077B34FF4706E40EA0E0066B34FF477
:10544800403E40EA0E0023EA000041B30B7842B325
:1054580012785200134334B322789200134327B3CF
:105468003A781202134316B33278120413430343F3
:105478000CF1800C45F82C30F0BD0F4DC9E7002524
:10548800C7E70020CBE74FF0000ECBE74FF0000E48
:10549800CDE74FF0000ECFE74FF0000ED1E7002325
:1054A800D5E70022D6E70022D8E70022DAE7002273
:1054B800DCE700BF002884500025845000F01F035B
:1054C800400908D0012808D1054A803352F8230042
:1054D80000F001007047034AF7E70022F5E700BF34
:1054E800002884500025845028B1012801D10348A0
:1054F8007047002070470248704700BFAC35020073
:10550800CC3502002DE9F04786B088461646994604
:10551800446801F01F05237B45EA4315204612F035
:105528003BFD002864D0B6F5001F35D00DF10C0AFC
:105538000027039704974946304612F062FD8DF81C
:105548000C00009701970297CDF804A0A36823FAEE
:1055580008F313F0010F02D1B6F1A07F23D004F1B4
:1055680010060DF117022946304613F083FF234B2E
:10557800984237D010346A462946204613F06EFF09
:105588001E4B984237D101222946204613F08AFF44
:10559800002006B0BDE8F087294604F1100013F09A
:1055A80085FF0020F5E72846FFF788FF0028D6D1B9
:1055B8000DF11702294604F1100013F05BFF104BA0
:1055C800984203D00DF117030493D3E70DF11702A6
:1055D8004146204612F051FD084B9842F2D06FF038
:1055E8000B00D6E79DF81710304613F053FFC1E7BC
:1055F8006FF08500CDE76FF01500CAE70000AD0B2E
:105608000400AD0BF0B589B00F461446456801F0AB
:105618001F062B7B46EA4316104612F0C2FC8DF893
:105628001E0040F206332340B3F5837F53D016D8CB
:10563800062B4CD006D9B3F5807F0DD101238DF808
:105648001D3024E003B3022B03D104238DF81D3051
:105658001DE06FF0150038E06FF0150035E040F2FE
:10566800022293423BD0B3F5407F03D103238DF848
:105678001D300CE0B3F5007F03D102238DF81D30F7
:1056880005E06FF0150020E000238DF81D3014F4BC
:10569800002F28D06A680123BB409360284612F087
:1056A8007BFC40B310350DF11F023146284613F03C
:1056B800E1FE074614F4403F36D13146284613F040
:1056C800E5FE3C4B9F426DD0002009B0F0BD06239B
:1056D8008DF81D30DBE707238DF81D30D7E705234C
:1056E8008DF81D30D3E714F4802FD7D06A680123D2
:1056F800BB40D360D2E7C4F340438DF8083014F4BC
:10570800803F0CBF012300238DF810300024019442
:105718000DF11D0300930DF11E0304AA02A93046E2
:10572800FFF76CFE2046D0E702AA002302930393FA
:10573800049305930693059204AA3146284613F06C
:105748008DFE1C4B98421DD114F4003F1DD09DF8CE
:105758001D308DF8103014F4803F0CBF0123002356
:105768008DF811309DF81E308DF81230002304AAF0
:105778003146284613F076FE0E4B9842A1D06FF0C2
:105788001500A2E76FF015009FE700230493059327
:1057980006930DF11E03049304AA3146284613F01C
:1057A8005DFEE9E79DF81F10284613F073FE002000
:1057B8008BE700BF0000AD0B38B5044645682846A6
:1057C80012F0EAFB20B91049204612F094FB38BDCC
:1057D8001035284613F056FE0028F4D1002128463B
:1057E80013F04CFE094B98420AD10022084928467A
:1057F80013F03CFE002205210D2012F06BF8E2E7C1
:105808006FF00400E3E700BF698001000000AD0B02
:105818004380010008B50B690278012A0CD0022ADE
:105828000DD012B1074A1A6201E0074A1A6203F161
:10583800100002F051FE08BD044A1A62F7E7044A54
:105848001A62F4E70100AD0B0000AD0B0100AE0BCE
:105858000200AE0B2DE9F04F8DB002AFF86088461C
:105868009346BB6004693C6043689A6A7A619B8B83
:105878003B614FF0FF324FF0FF3312F021FC04F18F
:10588800100318467B600022002302F069FE002600
:105898003446BE613EE00122FA6101E00022FA616D
:1058A8006A6804EB020C3869844560D813F0010F6C
:1058B80000F0D1806B6823449CB2FB694BBB002C81
:1058C80040F0D18058F80AA0AB88297ABA680092CB
:1058D8005246F86800F04CF9031EBB61C0F2E48040
:1058E8004FF480420023786802F03AFEB86100283D
:1058F80040F0BD803B681A6A714B9A4240F0DC80E8
:105908002B7A13F0010F03D07B69534500F0B68062
:1059180000244E465E4580F0C78006EB46054FEAF8
:10592800850A08EB85052B7A13F0080F40F0B9803B
:1059380058F80A1001F0604206F10109D9450ED263
:1059480013F0020F0BD109EB490008EB8000007A35
:1059580010F0040F03D1584010F0010F9BD0002C19
:105968009CD1B2F1005F7BD00022FA6198E7FB6816
:1059780019686D46032387F82430052387F82530F6
:105988008CB002AE16F1100C24D01A20BCF1000F16
:1059980010D00346042803DDDFF82CE1C6F814E034
:1059A800082B00DDB4610C2B00DDF261102B01DD4A
:1059B8003B693362032387F82030052387F82130B9
:1059C800BCF1000F15D0142800DD716206F1280320
:1059D80000210CE06FF00040D8E701F1080207F160
:1059E8002004224412F8082C03F8012B0131012964
:1059F800F3D919282CDD1A23BCF1000F0CD006228C
:105A080087F82420002287F8252087F826200122FD
:105A180087F82720786A306100216FF300016FF35F
:105A280041016FF382016FF3C501012262F388110E
:105A3800C3F30A0363F353216FF31F510023624634
:105A48002048FDF7F1FCAD466FF01B03BB612BE06E
:105A58006FF01B03D0E77B69E0181BF060FA29E7B9
:105A68000023FB6129E72346D7F814A02DE7F8683F
:105A780000F02CF86FF00403BB6115E01D4607E049
:105A8800A41AA4B2291958F800001BF048FA013EDC
:105A980006EB4603980008EB83035A689442EFD25A
:105AA80036E76FF08503BB61F86812F00EFBB86942
:105AB8002C37BD46BDE8F08F6FF00403BB61F3E7F8
:105AC8000000AD0B2C390200E04D020070B54468AF
:105AD8002368D3F80855D3F80C65204602F010F86F
