:10000000E8370020F53A00009F510100E13A000076
:10001000E13A0000E13A0000E13A0000E13A000074
:10002000000000000000000000000000753C00001F
:10003000E13A0000000000000D3C0000E13A000041
:10004000053E0000053E0000053E0000053E0000A4
:10005000053E0000053E0000053E0000053E000094
:10006000053E0000053E0000053E0000053E000084
:10007000053E0000053E0000053E0000053E000074
:10008000053E0000053E0000053E0000053E000064
:10009000053E0000053E0000053E0000053E000054
:1000A000053E0000053E0000053E0000053E000044
:1000B000053E0000053E0000053E0000053E000034
:1000C000053E0000053E0000053E0000053E000024
:1000D000053E0000053E0000053E0000053E000014
:1000E000053E0000053E0000053E0000053E000004
:1000F000053E0000053E0000053E0000053E0000F4
:10010000053E0000053E0000053E0000053E0000E3
:10011000053E0000053E0000053E0000053E0000D3
:10012000053E0000053E0000053E0000053E0000C3
:10013000053E0000053E0000053E0000053E0000B3
:10014000053E0000053E0000053E0000053E0000A3
:04015000053E000068
:100154004FF0FF3C06E000BF4FF0010C02E000BF8F
:100164004FF0010C4DF804CD4FEA410C7FEA6C5C72
:100174004FEA430C18BF7FEA6C5C1BD001B050EA15
:10018400410C0CBF52EA430C91EA030F02BF90EA00
:10019400020F0020704710F1000F91EA030F58BFBF
:1001A400994208BF90422CBFD8176FEAE37040F021
:1001B400010070474FEA410C7FEA6C5C02D150EABF
:1001C400013C07D14FEA430C7FEA6C5CD6D152EA7A
:1001D400033CD3D05DF8040B704700BF844610463F
:1001E40062468C461946634600E000BF01B5FFF73E
:1001F400B7FF002848BF10F1000F01BD4DF808ED0E
:10020400FFF7F4FF0CBF012000205DF808FB00BFDE
:100214004DF808EDFFF7EAFF34BF012000205DF838
:1002240008FB00BF4DF808EDFFF7E0FF94BF012085
:1002340000205DF808FB00BF4DF808EDFFF7CEFF86
:1002440094BF012000205DF808FB00BF4DF808EDC5
:10025400FFF7C4FF34BF012000205DF808FB00BF96
:100264004FF0FF3C06E000BF4FF0010C02E000BF7E
:100274004FF0010C4DF804CD4FEA40024FEA410320
:100284007FEA226C18BF7FEA236C11D001B052EAD6
:10029400530C18BF90EA010F58BFB2EB030088BF9C
:1002A400C81738BF6FEAE17018BF40F0010070470B
:1002B4007FEA226C02D15FEA402C05D17FEA236CED
:1002C400E4D15FEA412CE1D05DF8040B704700BF34
:1002D400844608466146FFE70FB5FFF7C9FF0028CB
:1002E40048BF10F1000F0FBD4DF808EDFFF7F4FF04
:1002F4000CBF012000205DF808FB00BF4DF808ED9D
:10030400FFF7EAFF34BF012000205DF808FB00BFBF
:100314004DF808EDFFF7E0FF94BF012000205DF8E1
:1003240008FB00BF4DF808EDFFF7D2FF94BF012092
:1003340000205DF808FB00BF4DF808EDFFF7C8FF8B
:1003440034BF012000205DF808FB00BF53B94AB94F
:10035400002908BF00281CBF4FF0FF314FF0FF30C9
:1003640000F062BDADF1080C6DE904CE00F078FD3B
:10037400DDF804E0DDE9022304B0704703685A00A5
:100384004CBF43F0004323F00043184470472DE969
:10039400F0470646174641B301394FF00009884635
:1003A40009EB080404EBD474641006EBC4054FEAAB
:1003B400C40A2846FFF7E2FFA14204D1B84204D898
:1003C4002846BDE8F087B84204D9A1450DD004F110
:1003D400FF38E5E70AF108003044FFF7CFFF0138A2
:1003E400B842EDD204F10109DAE70025E8E7012873
:1003F40006D0022806D00028034818BF0020704702
:1004040002487047024870470D0A0000110A0000B4
:10041400150A00001F4B37B504468D1E4BB101A9C8
:100424002846AFF3008048B900230920236103B0B4
:1004340030BD1948194B1B1ADB10019301992A4648
:10044400FFF7A5FF01460028EED0FFF797FF4B68A2
:10045400A064012B1AD0002B01F1040010DBFFF77C
:100464008DFF0023C4E913030368002B0ADAC3F3E6
:100474000360FFF7BCFF03460028D5D00020D5E772
:100484000123EFE7FFF77AFF0346F7E70023052090
:10049400CCE700BF00000000F4FC0100B40A020035
:1004A4000368DA0710B5044605D49B0700F1480039
:1004B40018D500F0F7FB2368590703D404F1D000E2
:1004C40000F0F8FB23681A0703D404F5A87000F0C1
:1004D400F9FB2368DB0608D404F5E870BDE8104096
:1004E40000F034BC00F0D6FBE5E710BD09207047EE
:1004F4000346006800B118447047704770B505465C
:100504000C46216C2846FFF785FF064608B103F028
:10051400C5FE236C2246294601206B612B6998474E
:100524000828EED00728F2D13046216CFFF7E5FF0A
:10053400201D00F0A3FB2DE9F0470C1DADF5727DE5
:10054400D0F80C900746D0F818A0164603AD0DF16C
:1005540008080FCC0FC50FCC0FC50FCC0FC594E8FE
:100564000F0085E80F000025C8F800500936D8F8B8
:1005740040103846FFF74EFF0446F6B268BBD8F881
:1005840040304FF4F07241467AA87B611EF0C5F802
:100594003B697AAA394630469847889B0546C8F88D
:1005A40044303A463B4631460120CDE9008AC847EB
:1005B400C0B9C4B94FF4F0727AA9404626461EF079
:1005C400ACF8082DD2D0072D0CD12046D8F8401015
:1005D400FFF793FF03A800F051FB46F01006D8F88C
:1005E4003830DCE7092420460DF5727DBDE8F0873C
:1005F400406C7047F0B5CB6BF9B00D1D06460B642B
:100604000F4601AC0FCD0FC40FCD0FC40FCD0FC4D7
:1006140095E80F0084E80F004FF0FF330093109922
:100624003046FFF7F7FE78B933696A463146984792
:1006340008280446F3D06846FFF732FF062C03D19E
:1006440039463046FFF75AFF092079B0F0BD10B49F
:100654008261DA6BC16019461A64002210BC6AE731
:1006640070B543690446C6680D460B6426B1012281
:10067400FFF761FF03F012FE03690A4601460220F8
:100684009847072805D00828F4D129462046FFF7C3
:1006940035FF3046296CFFF730FF281D00F0EEFAD5
:1006A400C26802B9A6E7CA6B0A64002243E770472E
:1006B400836801460BB1012018477047012910B522
:1006C4000446084605D005D9C81E01288CBF02205F
:1006D400012010BD43B90F2A06D804EB8204029A04
:1006E400184661681160F4E70220F2E71FB503AB16
:1006F4000A46009300231946FFF7E0FF039805B06C
:100704005DF804FB012910B50446084605D005D957
:10071400C81E01288CBF0220012010BD43B90F2A36
:1007240006D8029904EB8204184609686160F4E76C
:100734000220F2E71FB503AB03920A46009300239D
:100744001946FFF7DFFF05B05DF804FBF0B5D36B86
:10075400ADF50F7D141D064613640F4617AD0FCC7F
:100764000FC50FCC0FC50FCC0FC594E80F0085E85B
:100774000F004FF0FF33169326996846FFF74AFEA1
:1007840090B90C2116A86A46FFF7D4FF394616A87B
:10079400B04748B9049B16AA69460820984705281B
:1007A400044602D00928E7D1092416A8FFF778FEE9
:1007B40020460DF50F7DF0BD2DE9F04FCD6C87B0CF
:1007C40017460C4655F8042B00F003099A46049585
:1007D4003BBB12028DF8153003230392B9F1020FCB
:1007E4008DF81430236D08BFA56B13F0010322D1DB
:1007F40000F0080800932B6843BB03A9384600F0B7
:10080400A2FC002840F0FB80009BDBB10F2138469E
:10081400FFF76CFF0E2102463846FFF78BFF794A3B
:1008240055E0130C12048DF81530DBB2039205EB7E
:1008340083050223D2E703A9384600F084FC00288C
:1008440040F0DD80082007B0BDE8F08FBAF1020F58
:10085400A26C4FF00F01384607BFD5F804B005F17C
:100864000806B5F802B02E1D18BF2B882BF0010521
:1008740001931544FFF73AFF019B854229D823F0E1
:1008840001022A44824294BF002201224FEA4B0013
:1008940003F0010300F0020040EA0305012D1AD021
:1008A400022D5ED0002D40F0AA80351DB9F1000F55
:1008B400A1D0002A9FD03046FFF760FDA56306460D
:1008C40020461CF09FFF002800F0998032460F213B
:1008D4003FE00022DAE7B9F1000F26D1002A3DD02B
:1008E40073683268991C4FEAD27200F0888004F170
:1008F40058010133029109D0301DFFF7F9FD02AB15
:10090400014620460FF08AFB054638B30D213846D0
:10091400FFF7ECFE022D029B206202D1E36204F198
:100924002C030620C4E909368DE7256A0D213846D3
:10093400FFF7DCFE854211D1A36A9E420ED13046F8
:10094400FFF71CFD0F2102463846FFF7F3FE22464F
:1009540000213846FFF7EEFE072074E706F108058C
:1009640049E7356825F00045B9F1000F2AD1A2B155
:10097400B8F1000F19D085B9CB4617E00BF1010B84
:10098400019B002206EB8B000293FFF7B1FD02AB43
:10099400014620460FF042FB58B13368002B00DAC1
:1009A4000436013506EB850525E7C34604F15803F3
:1009B4000193AB45E2D10D213846FFF797FE029B28
:1009C4002062AEE7D4F820B00D213846FFF78EFE42
:1009D4008345E2D1A36A9E42DFD14FF0000B04238A
:1009E400A562C4E90BB3F318636333685B4503DAA8
:1009F400681C06EB8000A3E701230093D1E70920DC
:100A040021E700BFE10001000023D5E60123D3E67E
:100A14000223D1E62DE9F0410546C2B014461E4634
:100A2400042925D8DFE811F005001C002400D600B5
:100A34000301EEB9836B92B20121043001FA06F787
:100A440017421CBF53F8047B40F826700136102E61
:100A5400F4D1A60400D4AB63002042B0BDE8F08119
:100A6400012E4FEA124794B204D13B19102B41D9FD
:100A74000220F2E7052EFBD107EB0408B8F1200FA2
:100A8400F6D80F2F4DD9002CE6D00368A04658079E
:100A940008D523F00403284640F8D03B00F00EF9B3
:100AA4000F2F48D9684600F009F9AB6B102F3A466E
:100AB40042A94FEA480838BF10221C4608F1FF3803
:100AC40001EBC2024FEA8801A2F5C472101F02EBC7
:100AD400880254F804CB40F804CF8242F9D10A1DAD
:100AE400012E134417D00F2FAB636FD9684600F063
:100AF400E1F8B1E7102FBBD00368DA0705D523F07E
:100B0400030340F8483B00F0C9F820A800F0C6F8F9
:100B1400AB6B002C3FD1043320A8AB6300F0BAF8D0
:100B24009AE7B8F1100F03682DD9DC07A8F1100873
:100B340042D45807ADD420A8C7F1100400F0B6F889
:100B4400684600F0BBF820AA6400AB6B02EBC70256
:100B5400013C101FA10002EB84021C4654F804CB94
:100B640040F804CF9042F9D10A1D1344B8F1000FA4
:100B74009CD1012ECFD00F2FAB633FF66DAF20A8D1
:100B840000F090F868E7D9070DD420A800F08EF89B
:100B9400AB6B002CF3D0640020AA4FF0000802EBEA
:100BA400C702013CD5E723F0010343F0020340F8F8
:100BB400483B00F07BF8E8E723F0010343F002032D
:100BC40040F8483B00F072F82B68B2E720A800F028
:100BD40069F88BE7032E7FF44BAF97B2160C07EB43
:100BE4001244102C3FF644AF0368190706D523F0CE
:100BF4000803036000F5A87000F086F820A800F050
:100C040083F820ABAA6BF90003EBC60303EBC70719
:100C1400D41ABB4203EB040005D10A4420A8AA63FA
:100C240000F050F818E7006843F8040BF1E7002ED1
:100C34007FF41EAF102A3FF61BAF0368DA0606D511
:100C440023F01003036000F5E87000F089F820AE8B
:100C5400304600F085F8AB6B0022012101FA02F066
:100C640020421CBF53F8040B46F822000132042A28
:100C7400F4D13046AB6300F069F8EDE600F13401DD
:100C840091E838009C46A6464CF8045D90E8FF0FB6
:100C9400E54600BD90EC210B704700BF80EC210BB2
:100CA400704700BF90EC200B704700BF80EC200B16
:100CB400704700BFD0EC200B704700BFC0EC200B86
:100CC400704700BFF0EC0201F0EC0211F0EC0221DD
:100CD400F0EC0231F0EC0241F0EC0251F0EC026174
:100CE400F0EC0271F0EC0281F0EC0291F0EC02A164
:100CF400F0EC02B1F0EC02C1F0EC02D1F0EC02E154
:100D0400F0EC02F1704700BFE0EC0201E0EC0211EC
:100D1400E0EC0221E0EC0231E0EC0241E0EC0251B3
:100D2400E0EC0261E0EC0271E0EC0281E0EC0291A3
:100D3400E0EC02A1E0EC02B1E0EC02C1E0EC02D193
:100D4400E0EC02E1E0EC02F1704700BFB0FC01818D
:100D5400B0FC0191B0FC01A1B0FC01B1704700BF2F
:100D6400A0FC0181A0FC0191A0FC01A1A0FC01B1A7
:100D7400704700BFEC4600B52DE900502DE9FF1F78
:100D84004FF000032DE90C0001A9FFF733FCDDF857
:100D940040E012B0704700BFEC4600B52DE90050AA
:100DA4002DE9FF1F4FF000032DE90C0001A9FFF707
:100DB40057FCDDF840E012B0704700BFEC4600B5C8
:100DC4002DE900502DE9FF1F4FF000032DE90C0021
:100DD40001A9FFF765FCDDF840E012B0704700BFE1
:100DE400EC4600B52DE900502DE9FF1F4FF000033C
:100DF4002DE90C0001ABFFF72AFCDDF840E012B04E
:100E0400704700BFEC4600B52DE900502DE9FF1FE7
:100E14004FF000032DE90C0001AAFFF797FCDDF861
:100E240040E012B0704700BF704700BF10F8012BBC
:100E340011F8013B012A28BF9A42F7D0D01A704713
:100E4400034613F8012B002AFBD1181A0138704706
:100E5400034611F8012B03F8012B002AF9D170473E
:100E64002DE9F04786468C460846089E154674468A
:100E74001946002B40F0C1808542B2FA82F245D96E
:100E84004AB1C2F1200300FA02FC954094402EFAC4
:100E940003F343EA0C0C4FEA154EA8B2230CBCFB37
:100EA400FEF80EFB18CC08FB00F943EA0C43994505
:100EB40028D9EB1808F1FF3704D2994502D9A8F1D3
:100EC40002072B44A3EB0903A4B2B3FBFEFC0EFB05
:100ED4001C330CFB00F044EA0344A04214D92C193F
:100EE4000CF1FF3304D2A04202D9ACF102032C442A
:100EF400241A43EA07401EB1D440002334607360CF
:100F0400BDE8F0874746DDE76346F1E792BB431B44
:100F140001214FEA154EAFB2200CB3FBFEFC0EFBD1
:100F24001C330CFB07F840EA0343984561D9EB18DE
:100F34000CF1FF3004D2984502D9ACF102002B44E5
:100F4400A3EB0803A4B2B3FBFEFC0EFB1C330CFBA7
:100F540007F744EA0344A7424DD92C190CF1FF3397
:100F640004D2A74202D9ACF102032C44E41B43EAA5
:100F74000040C0E7C2F120039540944020FA03F1F9
:100F84002EFA03F34FEA154E9040AFB20343B1FB80
:100F9400FEFC0EFB1C10190C0CFB07F841EA004187
:100FA400884522D969180CF1FF3004D2884502D94A
:100FB400ACF102002944A1EB08019BB2B1FBFEFC99
:100FC4000EFB1C110CFB07F743EA01439F420ED9A9
:100FD400EB180CF1FF3104D29F4202D9ACF10201AB
:100FE4002B44DB1B41EA004193E76046E3E761469B
:100FF400F7E76046A4E76346B8E7834206D916B923
:10100400002108467CE7C6E900E0F9E7B3FA83F774
:101014008FB9834201D3724508D8BEEB020460EB5A
:10102400030301209C461EB9002169E73846FAE70C
:10103400C6E9004CF8E7C7F1200CBB400EFA07F5EF
:1010440022FA0CF42EFA0CF1BA401C4320FA0CF3E9
:10105400B8404FEA144901431FFA84FEB3FBF9F880
:1010640009FB18300B0C08FB0EFA43EA00439A45BF
:1010740040D9E31808F1FF3004D29A4502D9A8F107
:1010840002002344A3EB0A0389B2B3FBF9F809FB7A
:10109400183308FB0EFE41EA03418E452CD9611832
:1010A40008F1FF3304D28E4502D9A8F1020321448A
:1010B40043EA0040A1EB0E01A0FB02984145CE4655
:1010C400434602D306D14D4504D20138B9EB020E92
:1010D40068EB0403002EA7D0B5EB0E0261EB03010D
:1010E40001FA0CFC22FA07F3F9404CEA0303C6E9BF
:1010F400003199E74046C5E74346D9E7027A0346FB
:101104007AB9427A82B1013A42724268111D126878
:101114000260032241601A721A68100E12021A60E9
:101124007047013AD2B2F6E7B02070471FB503AB5F
:101134000C22009300231946FFF7C0FA039805B068
:101144005DF804FBF2E72DE9F043054685B00E4651
:101154004FF000083046FFF7D1FFB028044615D100
:10116400B8F1000F0ED103AC43460E224146284687
:101174000094FFF7A3FA43460F2241462846009401
:10118400FFF7C0FA002005B0BDE8F08302061DD4C5
:101194004FEA8009002303AF0D225FFA89F919464B
:1011A40028460097FFF78AFA09F10409039B14F013
:1011B400400F14BFA3EB09034B4403930023009790
:1011C4000D2219462846FFF79DFAC3E700F0F00305
:1011D400802B18D104023046FFF790FF0443B4F586
:1011E400004F01D10920CEE7240100232846A2B2F2
:1011F4001946FFF70FFC0028F4D114F4004F18BF70
:101204004FF00108A6E7902B0DD100F00D030D2B34
:10121400E8D003AF002300F00F02284619460097D8
:10122400FFF74CFACAE7A02B13D1C3434FF47F62F4
:1012340003F007031A41030702F47F6201D542F465
:101244008042002319462846FFF7E4FB002881D09A
:10125400C8E7B02B46D1B12808D13046FFF74EFF7E
:10126400431E0246DBB20E2BEBD9BBE7B22820D1DA
:10127400002303AC0D222846194600940227FFF7E9
:101284001DFA3046FFF73AFF00F07F0110F08003AB
:10129400039A01FA07F105D102F5017200940A4498
:1012A40003928DE70A44304607370392FFF726FF7F
:1012B400EAE7B3280BD13046FFF720FF01230203EE
:1012C40000F00F0002F4702201300243BAE700F08C
:1012D400FC03B42B86D000F007020123013242F450
:1012E4000022AFE7C02B44D1C6280AD13046FFF70D
:1012F40005FF0323020300F00F0002F47022013003
:10130400E3E7C7280BD13046FFF7F8FE431E024639
:10131400DBB20E2B3FF666AF0023042193E700F007
:10132400F803C02B06D100F00F020323013242F46C
:10133400202287E7C8280DD13046FFF7DFFE00F0F2
:10134400F00200F00F0005231032013040EA0232AF
:10135400012178E7C9287FF445AF3046FFF7CEFE78
:101364000523020300F00F0002F47022013002434F
:10137400EEE700F0F803D02B7FF434AF00F007025F
:101384000523013242F40022E2E71FB50346084672
:10139400DA6C53680832190202921B0E032201917F
:1013A40001A98DF80C208DF80D30FFF7CCFE05B0A7
:1013B4005DF804FB08B5FFF7C5FE806C08BD08B5F1
:1013C400FFF7C0FEC06CC379023300EB830008BD95
:1013D40010B5074812F0C5FB064C204615F0D4FCA6
:1013E400054812F0BEFB204615F0CEFC10BD00BF30
:1013F4002013020020A1070018130200012800D0C6
:1014040070474FF6FF739942FAD110B5044C204649
:1014140006F0BEFE034A0449204613F0C4FE10BD84
:10142400500C0020540C0020E582000010B5074C3D
:1014340000220023204605F003FDA368DBB2044A22
:101444000321044813F0ADFD10BD00BF8802002045
:1014540008120200A80E020010B5064C204605F042
:10146400ABFCA368DBB2044A0321044813F099FDE2
:1014740010BD00BF8802002028120200A80E02003E
:101484002DE9F04186B000AF43E00346424A012112
:10149400424813F086FD50E06FF0004071E0404B8D
:1014A4003B61002509E0AB0003F1140118333B4410
:1014B40053F8083C4CF801300135002DF3D064E0BA
:1014C400C7F810807E61002109E08B0003F1180544
:1014D4002B463B4453F8083C4CF8053001310129B4
:1014E400F3D955E06FF01B0332B1002139610421B7
:1014F40039743869CCF810000021032060F3881196
:10150400C3F30A0363F353210023244801F084FA4C
:10151400A54603F001F803F00DF802F09FFCC7E9BB
:101524000001FFF783FF4FF0FF324FF0FF331D49F7
:101534001D4805F07DFA0028A7D11A4B1A6801321C
:101544001A605A6801325A609A6801329A60FFF749
:1015540083FF02F083FCC7E9020107F10801384662
:1015640013F0A1FE13F0A8FE80460E4644F6206058
:1015740012F001FB6C4688B0EC461CF110028BD0D3
:1015840010202AB18646042889DCBEF1080F97DCB6
:101594000F28A7DD1023A7E748120200A80E0200B7
:1015A4006C120200000000204C0200202DE9F043E0
:1015B40089B000AF8FE00346864A0121864813F0C4
:1015C400F0FCB4E06FF0004CBFE0844BBB6000263D
:1015D40009E0B30003F1140E20333B4453F8183CE4
:1015E40044F80E300136002EF3D0B4E0B860F96050
:1015F400002108E08B0003F1180020333B4453F82A
:10160400183C235001310129F4D9A8E06FF01B03E1
:10161400AAE06FF0004CC8E07149B9604FF0000EC9
:101624000BE04FEA8E0101F114082031394451F8DE
:10163400181C43F808100EF1010EBEF1000FF0D093
:10164400B9E0C7F808904FF0000E0BE04FEA8E01A6
:1016540001F118082031394451F8181C43F80810D6
:101664000EF1010EBEF1000FF0D0A7E0BE6000261F
:1016740009E0B10001F11C0E2031394451F8181C65
:1016840043F80E100136002EF3D09AE0BD6000201E
:1016940008E0810001F120052946394451F8181C5D
:1016A400595101300028F4D08EE06FF01B052AB1A7
:1016B4000021B96005213972B8681861002103233B
:1016C40063F38811C5F30A0565F3532100234248E7
:1016D40001F0A2F9A54615F04EFE4A0142EAD06295
:1016E40043011B1A62EB0102920042EA93729B00CF
:1016F4001B1842EB0102D20042EA5372C3F31033C7
:1017040043EA4243D20B3B607A60FFF78FFE00232B
:101714007B61BB61FB614FF0FF324FF0FF3307F198
:101724001401304805F0F0F900287FF444AFFFF7C6
:1017340093FE384612F035FA6D4688B06C4614F1C3
:1017440010023FF43FAF4FF0100C42B1E046BCF141
:10175400040F3FF73AAFB8F1080F3FF747AFBCF1BA
:101764000F0F7FF753AF10232AB10021B960042172
:101774003972B86820610021032060F38811C3F333
:101784000A0363F353210023134801F045F9AD46DE
:10179400D7F81490BE69FD696C468AB06B4613F1A4
:1017A40010023FF436AF4FF0140C6AB16046BCF13E
:1017B400040F3FF731AF08283FF743AF0C283FF73A
:1017C40055AF10283FF762AFBCF1130F7FF76DAF31
:1017D40014256CE790120200A80E0200B412020055
:1017E400D81202004C02002000B583B000F018F8B3
:1017F40000F02AF800F062F800F06AF84FF4803242
:101804000023CDE900234FF480420023034806F06F
:10181400B7FA002003B05DF804FB00BFB00100205C
:1018240008B5064B186815F0B5FA00B108BD044AAE
:101834000321044813F0ABFBF8E700BF0C000020C1
:1018440028130200B00E020008B5154815F0A2FADC
:1018540078B14FF4D011134812F0F5F9002813DBD6
:101864004FF4D011104812F0EEF9002812DB0120D9
:1018740008BD0B4815F08EFA0028EAD10B4A032163
:101884000B4813F084FBE4E70A4A0321084813F0E9
:101894007EFBE5E7084A0321054813F078FBE6E7F9
:1018A400340B020090130200881302004413020058
:1018B400A00E0200581302006C13020008B50022A7
:1018C4000621024812F0DAF908BD00BF340B020009
:1018D40008B500220721024812F0D0F908BD00BF64
:1018E400340B02002DE9F04F91B005920293134698
:1018F40002F004020092C3F3C20210F00303019346
:1019040040F02B8280468A460132041D00284FD0C5
:10191400B8F1000F05D0A4EB08030433534500F2DB
:101924001F82029B5D1E019B049306930393002672
:101934004FF0FF3B0427B946B8F1000F01D0029BDA
:101944002360531E0793002A40F35D81059B13F027
:10195400020228D00120A4EB08018B081AB1B1F5CA
:10196400007F80F0038203990F2900F20282B8F10C
:10197400000F00F06081DBB201F140026A4402F81A
:10198400103C02F820BC002800F0518163F07F0372
:1019940001F140026A4402F8103C049B01330493B1
:1019A400039B0133039304340022CC4640463DE0BC
:1019B40001F0070A5444CAF1080AA9E7002634E0F2
:1019C400002632E0002630E00827BC462DE0252919
:1019D4002BD10BF1010B01260427BC4625E0472936
:1019E400EED82A2914D32A39C9B24FF0010E0EFABF
:1019F40001F14FF6DA7E11EA0E0F16D111F0625F93
:101A040040F0C08011F0010F40F08C8000260CE003
:101A1400252903D10BF1FF3B002606E001D900265E
:101A240003E0202901D02329CCD11D466B1C697801
:101A3400002900F01981002EC9D07A29BED84C297A
:101A4400CDD34C392E2961D80FF2040E5EF821F063
:101A54002F1A0000111B0000111B0000111B0000B5
:101A6400111B0000111B0000111B0000111B0000C2
:101A7400111B0000111B0000111B0000111B0000B2
:101A8400211B0000111B0000111B0000111B000092
:101A9400111B0000111B0000111B0000111B000092
:101AA400111B0000891B0000111B0000211B0000FA
:101AB400211B0000891B0000891B0000891B0000FA
:101AC4002F1A0000211B0000CD190000111B00007B
:101AD4002F1A0000111B0000E51B0000211B000051
:101AE400E51B0000111B0000111B0000ED1B000092
:101AF4001B1B0000211B0000111B0000111B000018
:101B0400211B0000111B0000151B000000268CE7A0
:101B14000427BC4689E70427BC4686E729786C2954
:101B240024D000263C44013CB4FBF7F407FB04F446
:101B340020B1211A6144514500F21581002A58D17F
:101B4400BCF1040F00F08880BCF1080F40F0148150
:101B54001A99073121F0070101F108051A95D1E915
:101B6400008908B1C4E9008908345EE713F8021C4F
:101B74006C2903D000260427BC46D3E70026082797
:101B8400BC46CFE729784C291AD01A99073121F09D
:101B9400070101F108061A96D1E90067073424F019
:101BA400070440B1211A0831514513D829784C292A
:101BB40013D0C4E90067083400260827BC4634E77C
:101BC4001A99073121F0070101F108061A96D1E9A3
:101BD4000067E3E76FF01B00BCE0C4E90067EAE7D5
:101BE40000260427BC469DE7324600260427BC464F
:101BF40098E7E14680461A9A111D1A9112680292DA
:101C0400079A1D4698E6624B029A9A4204D3614BA6
:101C14009A420AD3002300E00023002B7FF496AEFF
:101C2400059B03F00202002095E60123F5E7069BDD
:101C340001330693B4E610B10AF1010AB0E6009B41
:101C440013B10AF1020AABE60298FFF7F9F80AEBBE
:101C5400000303F1020AA3E61A990D1D1A950968F7
:101C640000B121600434E0E68046231AB3F5806FA6
:101C740080F0858090B1002202609B080370009B75
:101C840083B1069BC370049B88F802301BBB019D83
:101C9400DDF80C90DDF810B0029F3DE05344A3F151
:101CA400080057E0069B4370EDE701339842EED9F4
:101CB40003F140026A4412F8101C12F9102C002A95
:101CC400F3DA01F07F01A4EB08020132524559D83E
:101CD40004F8011BE9E7019B0398E7E7009B43B382
:101CE40005F140036B4413F8203C04F8013B019ECA
:101CF400A4EB080333440133534546D805F14003AC
:101D04006B4413F8103C04F8013B32463946204634
:101D14001CF003FD34440135A94519D9BBF1000F6A
:101D2400DCD005F140036B4413F9103C002BD5DAE9
:101D3400F1E705F140036B4413F8103C58F82370A5
:101D4400002248F823203846FFF77AF8461CCFE7EC
:101D5400A4EB080011B0BDE8F08F6FF00D00F9E7B7
:101D64006FF01B00F6E76FF01B00F3E76FF0150050
:101D7400F0E76FF01500EDE76FF01500EAE76FF09C
:101D84001500E7E76FF01B00E4E76FF01B00E1E7E5
:101D9400B40A0200A44C02002DE9F04F97B000AF42
:101DA4008346BA613B61D7F88030C3F3C0033B621A
:101DB400F96011B912F007FBF8609BF80260B146B4
:101DC40036B1D7F8803013F0010F0DD1002300E0B5
:101DD40000239BF803207A6242B1D7F8802012F0E6
:101DE400020F22D1002202E00123F2E7002202B90D
:101DF400EBB19BF80050AA00BA60DBF804207A61CA
:101E04000BEB8505BA69F2B1002B40F00481B9F1FE
:101E1400000F00F00F81D7F8803013F0040F40F06A
:101E24000D810020F8610646F9E00122DFE7BB6975
:101E34001BB13A69F96858469847FC6820465C37F4
:101E4400BD46BDE8F08FFC68E3B94D4400233B6117
:101E540023E00444013501364E451AD22A78002382
:101E64005BF822201946B86912F0C2FABAF1000FE1
:101E7400EFD0D7F888309845EBD22AF8180008F14B
:101E84000108E6E70026C7F81C80B046D7F884A00E
:101E9400E2E7C7F81080D7F81C80D7F8803003F049
:101EA4000503FB604FF0000AA146C7F81CB09CE094
:101EB40000253B6A7BB9002D79D0D7F8803013F028
:101EC400010F79D1FB68002B6FD10223A9EB030921
:101ED40088E00125EDE75946786912F0CFFA002829
:101EE400E9D06C46002387F82C30022387F82D3084
:101EF4008AB0694611F1100237D012251AB1042DA7
:101F040001DDB34B4B61002387F82830022387F8A7
:101F140029306ABB112D45DD122362B1042087F8F4
:101F24002C00002087F82D0087F82E00012087F868
:101F34002F00F86A08616FF300086FF341086FF32C
:101F440082086FF3C508022161F38818C3F30A03FA
:101F540063F353286FF31F58002341469D4800F054
:101F64005BFDA546A9F102093CE06FF00045C5E719
:101F74002B46082D01DD786988610C2B01DDC1F841
:101F84001CB001F12003002009E000F1300C07F13E
:101F9400280EF4441CF830CC03F801CB013001289E
:101FA400F3D9B7E76FF01B03B7E701238EE7D7F840
:101FB400803013F0020F15D0002322461946B86969
:101FC40012F016FAD7F8843053B13B69D7F8882059
:101FD400934205D2D7F8842022F8130001333B61E1
:101FE400013881440AF1010A35467B6A9A4510D2C8
:101FF4002E4616F802BB6B78FA6952F82340764BEA
:102004009C42FFF455AF754B9C42FFF462AF002530
:102014004FE74C4612E707F144000023FB6118B177
:102024004A4629461CF079FB4D444FF00008C7F896
:1020340004901EE00020F8610646F0E7FE6107F117
:1020440034000026EBE700253B6A33BB002D3BD070
:10205400D7F8803013F0010F26D0731C06F130023C
:1020640007F12801561806F8149CDEB208F101089D
:1020740025467B6A98454AD22C4614F802AB95F85B
:1020840001905BF82930544A9342DCD3534A93427B
:1020940001D30025D8E70125D6E75146786912F027
:1020A400EDF90028D2D0E1E7D7F8803013F0040F1F
:1020B400DCD0FA69531C303207F128010A4402F8D3
:1020C400249CDBB2FB61D1E7D7F8803013F0020F18
:1020D40009D0731C06F1300207F12801561806F8DE
:1020E400149CDEB2C2E7F869431C00F1300107F129
:1020F40028028A1802F824AC02460232D2B2FA61EB
:1021040007F1580252FA83F303F8249CAEE7D7F898
:1021140004909BF8003087F854309BF80130334426
:1021240087F85530D7F8803013F0020F0ED1FB69D1
:10213400C3F3470387F85730D7F8803013F0010F03
:1021440006D113F0040F3ED1002302E00023F1E78F
:10215400002387F85630DBF800003863786DCBF83D
:102164000000D7F810804246B9685846D7F818A03E
:10217400D047041EFFF662AE386BCBF80000C7F8F8
:1021840010804246F96907F13400D04700285EDB2D
:1021940004EB0008B96849447B6A01EB4301D7F8B2
:1021A40010904A46FB68591A2846D047041EFFF689
:1021B40045AE08EB04054FF00008C7F824B0B34659
:1021C4005446CA4621E0FB69C3E74FF0000909E021
:1021D40098130200B80E0200B40A0200A44C0200D4
:1021E4004FF000095246012107F12C00A0470028B6
:1021F4002FDB05444B4632465146204612F0F8F890
:10220400002828DB054408F10108D84518D208F154
:10221400300307F12802134413F8143C87F82C30D8
:102224007A6A52F82360D7F88430002BCDD0D7F8DF
:1022340088309845D4D2D7F8843033F81890D1E751
:102244003A6900210846BB6998472C46F6E50446DE
:10225400F4E50446F2E50446F0E500BF014B1860DE
:10226400704700BF1000002080B505460E46174693
:10227400984605F03DFA03461CF060FD0446DFF87D
:10228400189049F80030424639463046A84754F879
:10229400090001F09FFC00BF080000002DE9F04395
:1022A40083B0044608461546A38B13F0080F05D1E6
:1022B40003F0070600230093019354E0012909D099
:1022C40043F02003A38385F31188BFF36F8F03B01A
:1022D400BDE8F08343F01003A383F4E7204612F033
:1022E40030FC42E0D4F818904A466946204612F081
:1022F40041FC4FF00008A38B03F00707B74269D0F5
:10230400A268002A66D0012243F00803A38385F360
:102314001188BFF36F8F002A64D1009B2BB14B4609
:102324003A466946204612F09EFCB8F1000F02D0EE
:1023340034492046C047EFF31185202383F31288E4
:10234400BFF36F8FA38B23F00803A383A38B13F036
:10235400100F4DD023F01003A3830120A68B06F0A9
:1023640007060028AFD00228B8D00028ABD0013827
:1023740004282BD801A353F820F000BFE922000061
:10238400D123000095230000A9230000BD230000F1
:102394002369D3F800800621204612F0A8FB4FF0F1
:1023A4000009A8E72369D3F804800421204612F029
:1023B4009EFB4FF000099EE72369D3F808800521AE
:1023C400204612F094FB4FF0000994E74FF0000808
:1023D400C14690E7009A0AB1002295E7B8F1000FD0
:1023E40092D1B3E74A463946204612F088FB94E777
:1023F40013F0200F04D023F02003A3830220ADE7C1
:102404000020ABE7994C010038B505460B4C00E0C1
:1024140010340B4B9C420FD263685B79002BF7D0CE
:102424002946204612F000FD0028F1D023681B68DD
:10243400294620469847EBE738BD00BF000F02004D
:10244400100F020070B506460D46084C04E02A46FB
:102454003146204698471034054B9C4204D22368E9
:102464009B69002BF3D1F6E770BD00BF000F02009B
:10247400100F02002DE9F041074605460AE007EA7D
:102484000807144B03EB06135B6804221968204603
:1024940012F014FDD5B195FAA5F6B6FA86F60D4CF0
:1024A40004EB06140123B3406FEA030825EA03058D
:1024B400237B002BEED03301064AD3581B69002B33
:1024C400DDD0204698470028E4D1D8E73846BDE857
:1024D400F08100BF000F02002DE9F04180460F4655
:1024E4001D4BD3E8EF5F6A1CC3E8E12F0029F8D144
:1024F4006DBB1A4C002607E0636804221968204665
:1025040012F0DCFC01361034154B9C4211D2237BB3
:10251400002BF7D0204612F07BFC23681B69002BAC
:10252400EAD0204698470028E6D00123B3401D4353
:10253400E8E7B8F1000F0BD055B12846FFF79AFF32
:102544000546002FF8D00A2012F074FCF4E70025A9
:102554002846BDE8F08100BF6C0C0020000F02008B
:10256400100F020008B5064B186018B1054B1B6824
:10257400092B00DC08BD044804F01EFCFAE700BF88
:10258400600C0020680C00207802002008B5024886
:1025940004F012FC08BD00BF7802002030B589B0F9
:1025A40000220F490F4814F0F5FE0F4D00220023BE
:1025B400CDE90623002404940E230393029401948A
:1025C40000940A4B4FF440720949284614F004FD64
:1025D4000849284604F06AFC204609B030BD00BF13
:1025E40091250000B0080020F803002045290000D0
:1025F400A827002050140200014B53F82000704714
:102604006C14020048B108B5054A1060054B196006
:10261400084600F0F5FC002008BD6FF01500704777
:10262400140000205C0C002008B5054B1B781BB17E
:10263400034B01221A7008BD024804F0BDFBF7E702
:10264400781F00207802002008B50C4BD3E8EF1F58
:102654000131C3E8E21F002AF8D130B9084814F068
:10266400A5FE084804F0A8FB08BD074BD3E8EF1FFC
:102674000139C3E8E21F002AF0D0F7E7640C002018
:10268400B008002078020020680C0020044B0020D1
:102694000146D3E8EF0FC3E8E21F002AF9D17047DF
:1026A400640C002038B5FFF7F1FF0546094C00E043
:1026B4001034094B9C420BD263685B79002BF7D032
:1026C40023685B68002BF3D0294620469847EFE740
:1026D40038BD00BF000F0200100F0200034B186842
:1026E4000028D4BF00200120704700BF640C0020E4
:1026F40010B5044C0449204612F054F8034B1C60F6
:1027040010BD00BF7001002058140200580C0020B6
:1027140008B500230C4A13700C4A13600C4A13606A
:102724004FF400410B48FFF76DFFFFF7E1FF0A4A42
:1027340006E0094BD31A1B11013351680B71103297
:10274400064B9A42F5D308BD791F0020640C002083
:10275400680C0020314E0100000F0200100F02002F
:1027640008B50146014812F07BFB08BD700100204A
:1027740008B5024812F0F9F808BD00BF7001002046
:1027840008B50146024B186812F070FB08BD00BF83
:10279400580C002008B5024812F06CFB08BD00BFBD
:1027A4007001002010B582B000220023CDE900237F
:1027B400264B187808B902B010BD684612F072FBB7
:1027C400044660B1FFF720FE2046FFF7D9FF204BF7
:1027D400D3E8EF1F0139C3E8E21F002AF8D1FFF75D
:1027E4007DFF58B91B4A1368516813F57A7341F198
:1027F400000113605160FFF7CDFFDCE714F0BBFD6F
:102804004A0142EAD06243011B1A62EB01029200C0
:1028140042EA93729B001B1842EB0102D20042EA87
:102824005372C3F3103343EA4243D20B094801689D
:1028340040685B1A62EB000240F2E9318B4272F1AC
:102844000002CFD3FFF72EFFCCE700BF781F002094
:10285400680C0020A80800200F4B1B7803B17047B8
:1028640010B500210120FFF737FE0C4C00E01034B6
:102874000B4B9C4208D263685B79002BF7D023682A
:102884009B6820469847F2E7FFF78CFF0028FBD1AE
:10289400014B01221A7010BD791F0020000F0200A5
:1028A400100F020010B582B0184BD3E8EF2F511C63
:1028B400C3E8E01F0028F8D1154B1B7863B9154B0A
:1028C4001B68B3B1BAB1092A13D1134814F06EFDD1
:1028D400124804F071FA0CE0EFF31184202383F31F
:1028E4001288BFF36F8FFFF75DFF84F31188BFF386
:1028F4006F8F02B010BD00220023CDE900234FF4F6
:1029040000420023044805F03BFAF2E7680C00207B
:10291400791F0020600C0020B008002078020020FD
:1029240010B50446044B1B689847A0602146034831
:1029340012F0BCFA10BD00BF14000020700100208A
:102944002DE9F04100210846FFF7C6FD804650B14D
:1029540040F2676600271CF0F1F9154B1858FFF791
:1029640001FE002515E04FF0FF364FF0FF37F2E788
:102974004046FFF77FFD804670B94FF0FF364FF0B9
:10298400FF3709E02C4632463B460A4804F058FA21
:102994002546B8F1000FEBD1FFF704FF04460028E9
:1029A400F6D1002DEED000210846FFF74BFDEAE7F3
:1029B40008000000780200200248034BC01AC00837
:1029C400704700BF000F0200A00E020010B50C46B5
:1029D400FFF7F2FFA04203D9024B53F8340010BDB5
:1029E4000020FCE7A00E020000B589B00592069312
:1029F4000023079362B1074A0C9B02930B9B01933C
:102A04000A9B009305ABFFF7C7F909B05DF804FB17
:102A14000022F1E7D74E01002DE9F04F8BB004AF4F
:102A240005461E468846C1F34A24002C00F08980DE
:102A340091460022FA603A617A6104230293FB18FA
:102A440001930A23009307F10C0321464846FFF73C
:102A5400A3F9B0F5006F58D3D9F804106D460023DC
:102A64003B7302237B738AB004AC14F1100217D0B9
:102A740012201AB1042801DD3B4B636100233B7033
:102A840002237B70CAB10346082800DDA1610C2B28
:102A940002DD40F2FF73E36104F1200300210AE048
:102AA4006FF00040E5E701F118063E4416F8186C93
:102AB40003F8016B01310129F5D9112822DD122314
:102AC40042B10421397300217973B9730121F97377
:102AD400F868206100216FF300016FF341016FF387
:102AE40082016FF3C501022060F38811C3F30A0366
:102AF40063F353210023C1F313011C4812F05CFA61
:102B0400AD462DE06FF01B03DAE760F35328C0F302
:102B14000A0A0AEB1850173020F007008008FFF764
:102B24001FFE8346B0B104230293FB1801930A23CA
:102B34000093534600F1100221464846FFF754FF24
:102B440008E004EB1154173424F00704A008FFF73D
:102B540007FE8346334642462946584612F0CFF9CB
:102B64001C37BD46BDE8F08F8C140200C80E02006D
:102B74002DE9F04F85B080460D4617461E46DDF818
:102B840038B0DDF84090B9F1000F41D0119B0393A8
:102B940000934B460F9A10210020FEF7A3FEB0F5D8
:102BA400006F2DD282460BEB0003173323F007038B
:102BB40000246FF300046FF341046FF3820468F39D
:102BC400C50467F3881460F353246BF31F54980807
:102BD400FFF7C6FD074650B11030B9F1000F06D01B
:102BE400119B00934B460F9A5146FEF77BFE3346EA
:102BF40022462946384612F082F905B0BDE8F08F26
:102C040040F2FF73034A0221034812F0CAF9F4E7C1
:102C14000020C7E7CC140200C80E0200406820B1AF
:102C2400034BC01A40F3CF0070474FF0FF3070479A
:102C3400A00E02000EB400B582B0014603AB53F8F7
:102C4400042B0193034801F0FBFA02B05DF804EB96
:102C540003B07047F34F010010B584B011F0440F76
:102C640005D01A4B1B6833B9002004B010BD1849B5
:102C7400FFF7E0FFF9E717490968B2FBF1F2B2FB8D
:102C8400F3FC03FB1C224FF47A7E0EFB02F2B2FB30
:102C9400F3F403FB14210EFB01F1B1FBF3F10E4A33
:102CA400A2FB0C32D20A4FF4616303FB12CC0B4B30
:102CB400A3FB0CE35B0902910194C3EB0311ACEB9E
:102CC400810100910649FFF7B5FFCEE7740C00209F
:102CD40004150200700C0020C5B3A291898888886D
:102CE4001015020061B108B52AB1064A52F8232032
:102CF40012B9054A00E0044A0449FFF79BFF08BDE6
:102D0400704700BFB01502002C15020034150200F4
:102D14002DE9F04105461746069EDDF81C8081B971
:102D240000242EB1324611492846FFF783FF04449C
:102D3400B8F1000F14D06FB1099B042B13D00C49C8
:102D440009E00C4B099A53F822200B49FFF772FF54
:102D54000446E6E7064942462846FFF76BFF04446B
:102D64002046BDE8F0810549F5E700BF4C15020097
:102D74003C150200C4150200441502003815020077
:102D84002DE9F04F87B005460C46049205939DF853
:102D94004C7001F0020B01F0010AC1F3C00801F408
:102DA400807912F089F818B3024616492846FFF7CD
:102DB40041FF0646BBF1000F1CD13A465146284656
:102DC40012F03CF9B9F1000F01D0002311930397DD
:102DD400129B0293119B0193109B00930023049A6E
:102DE40041462846FFF794FF304407B0BDE8F08F12
:102DF4000026DFE7059A21462846FFF72DFF064403
:102E0400DBE700BF5015020011F0100F0BD108B51D
:102E140011F0200F03D00449FFF70CFF08BD03494C
:102E2400FFF708FFFAE77047901602003C1F020004
:102E34002DE9F04105460F46164698460699FFF7D8
:102E4400E3FF0024444505DA24492846FFF7F2FE4F
:102E54000134F7E7002409E020492846FFF7EAFE99
:102E64000BE01F492846FFF7E5FE01340F2C0CDC6C
:102E7400002C02DD14F0070FEED0B442F1D23A5D1B
:102E840018492846FFF7D6FEEFE717492846FFF70B
:102E9400D1FE002409E011492846FFF7CBFE0BE0E0
:102EA40012492846FFF7C6FE01340F2C13DC002C10
:102EB40002DD14F0070FEED0B44207D23A5D0C4B9A
:102EC4009B5C13F0970FEBD12E22E9E703492846C8
:102ED400FFF7B0FEE8E7BDE8F08100BF4815020047
:102EE4005C1502005415020060150200641502000E
:102EF4003A4202002DE9F04184B004469DF82C507A
:102F04000C9F0E9E95B9012B1ED019484FF0000856
:102F140027B13B462246174911F080FAC6B905BBD2
:102F2400204612F04DF804B0BDE8F08103950A98EC
:102F34000290019300920B4600220F992046FFF75E
:102F44001FFF80460C48E3E70B484FF00008DFE71B
:102F54000F9B0093434632460D99204612F086F8A3
:102F6400DDE72A460F99204612F074F8D8E700BF2F
:102F74002350010045420000F34F01002DE9F043C6
:102F840083B00646056842F20F738B4228BF0B4696
:102F9400184A052168460FF075FA04467368D3F899
:102FA40004900B27DFF8508005E04A463946404636
:102FB400A8473F1A8044002FF7D17368D3F80480E0
:102FC4006F4605E0424621463846A847241A07447E
:102FD400002CF7D173685F681B24084E05E03A465D
:102FE40021463046A847241A0644002CF7D103B0E2
:102FF400BDE8F083C81702008415020068150200BA
:10300400074B01221A6004E04008054A13685B007C
:103014001360044B9842F7D8034B1860704700BF05
:10302400700C002040420F00740C002070B506465E
:103034000D46002405E0315D04488368DB69984748
:103044000134AC42F7D3284670BD00BF740B0200B4
:10305400014B0360002070472C16020008B503489A
:1030640011F039FA024811F036FA08BD2C160200A4
:103074006416020008B5024804F024FF08BD00BF2E
:1030840094160200B0F5680F17D00CD840F6BA6356
:10309400984214D0B0F5683F13D03A2801D00120EB
:1030A400704700207047094B98420CD0084B984257
:1030B40001D0012070470020704700207047002095
:1030C4007047002070470020704700BF3A00003A64
:1030D4002C5F5CA928B308B54368B3F5683F0AD0F0
:1030E400B3F5680F14D012498B421FD0006803F067
:1030F4000DFE002014E003680022D3E8EF1F01292D
:1031040003D1C3E8E02F0028F7D10DD1104607E022
:1031140003681B7803F580730020064A42F82300F5
:1031240008BD6FF4E04070470348F9E70348F7E748
:103134002C5F5CA900000350E98FFFFFEA8FFFFFBB
:1031440088B308B54368B3F5683F0FD0B3F5680F8B
:1031540019D016498B4224D000684FF0FF324FF04B
:10316400FF3303F053FD68B111480BE003680122FB
:10317400D3E8EF1F002903D1C3E8E02F0028F7D1DB
:103184000BD1002008BD03681B7803F58073094A3E
:1031940052F823301BB90020F4E70548F2E704484D
:1031A400F0E70548EEE76FF4E04070472C5F5CA958
:1031B400E98FFFFF00000350EA8FFFFF10B50446BC
:1031C400A8B16368B3F5683F10D0B3F5680F0DD0AC
:1031D4000D4A93420AD013F4686F0DD021680B484E
:1031E40013F03BFE00232360074B636010BD084BC4
:1031F4005B6808489847E4E7236800221A605A602D
:103204009A60DA601A61EFE72C5F5CA9A0110020D4
:10321400A00000209C16020010B5044668B3606844
:10322400B0F5683F28D0B0F5680F25D0174B984209
:1032340028D0FFF727FFC0B14FF0FF324FF0FF3324
:103244002146134803F0C2FB08B923681BB9114B8C
:103254005B6811489847236800221A605A609A6094
:10326400DA601A614FF468636360206813F076FED5
:10327400636843F03A03636010BD064B5B6807481C
:103284009847CCE72368002BD3D1D5E72C5F5CA902
:10329400A0110020A0000020C41602009C16020009
:1032A40008B5402314220449044813F0C7FD044917
:1032B400044804F079FE08BDA00C0020A0110020F1
:1032C400F4160200081702002DE9F04182B000AFA5
:1032D4000446D0F800E0D0F804C085686E468AB091
:1032E4006B4613F1100200F0888014218AB108465D
:1032F400042903DDDFF81C81C3F81480082801DDEC
:10330400C3F818E00C2801DDC3F81CC0102800DD48
:103314001D62132974DD14253AB105213971002188
:103324007971B971F9717868186100216FF300013E
:103334006FF341016FF382016FF3C501012363F35E
:103344008811C5F30A0565F353216FF31F51002358
:103354003148FFF761FBB546D4F80CC026696569AE
:10336400E8468AB06B4613F110024CD0142182B1A6
:103374000846042903DDDFF8A4E0C3F814E00828B4
:1033840001DDC3F818C00C2800DDDE61102800DD63
:103394001D6213293ADD14253AB105213971002142
:1033A4007971B971F9717868186100216FF30001BE
:1033B4006FF341016FF382016FF3C501012666F3D8
:1033C4008811C5F30A0565F353216FF31F51124D9C
:1033D40000232846FFF720FBC546E369104A31461F
:1033E400284611F0DEFDA3690E4A3146284611F045
:1033F400D8FD0837BD46BDE8F0816FF0004175E7A0
:103404006FF01B0588E76FF00041B0E76FF01B0514
:10341400C2E700BF18170200E80E020048170200B6
:10342400781702008817020038B504460D4611B11A
:103434000846FFF749FF012C04D02946204603F033
:1034440053F838BDEFF30583103B034A01210348C9
:1034540011F0A7FDF1E700BFB8170200E80E020063
:1034640030BFFFF7FDBF00BF38B50446054D2A46FF
:1034740005491BF052F9054A002160191BF074F943
:1034840038BD00BF00000000540F02000800000017
:1034940070B50646064D074B1D444C1B2046FFF7EE
:1034A400E3FF083CC6F8A44005F1080070BD00BF66
:1034B4000000000008000000054B5A699B689A420E
:1034C40004D0044A536843F080535360704700BFEC
:1034D400C413002000ED00E081690D4B5A6942F4E9
:1034E40080725A61BFF34F8FBFF36F8F31F8021CA4
:1034F4005A6922F480725A61BFF34F8FBFF36F8F02
:103504004DF60273994201D00020704701207047A4
:1035140000ED00E04FF0000C83F800C002F07F4C97
:10352400BCF17F4F14D102F00C0CBCF1080F04D095
:1035340012F0080F09D00846704708B5054A012162
:10354400054811F024FD002008BD01221A707047BF
:1035540000207047CC170200E80E020008B5314A7B
:103564000121314811F013FD304B9B6A13F0007FA9
:1035740026D11D202D4B9B6A13F0807F27D12B4B26
:103584009B6A13F4801F29D1284B9B6A13F4002FE4
:103594002BD1264B9B6A13F4802F2DD1234B9B6A8E
:1035A40013F4003F2FD1214B9B6A13F4803F31D198
:1035B4001E4A936A6FEA03436FEA1343936208BD9A
:1035C4001B4A0121184811F0E2FC1E20D2E7194AD7
:1035D4000121154811F0DBFC1F20D0E7164A012118
:1035E400114811F0D4FC0220CEE7144A01210E4800
:1035F40011F0CDFC2120CCE7114A01210A4811F039
:10360400C6FC2220CAE70F4A0121074811F0BFFC7B
:103614002320C8E70C4A0121034811F0B8FC2420F8
:10362400C6E700BFF8170200E80E020000ED00E054
:103634001018020024180200401802006C1802003E
:103644008C180200B4180200D018020008B5002338
:103654000B70034A0121034811F099FC08BD00BF17
:10366400FC180200E80E020090B583B000AF0F29E9
:1036740023DC2F4C103900233B7102237B718AB069
:10368400EC461CF110021AD0122022B1042802DDEB
:10369400284BCCF8143000233B7002237B70E2B13A
:1036A4000346082801DDCCF818400C2B01DDCCF8CA
:1036B4001C100CF1200300210DE01F4CDAE76FF021
:1036C4000040E2E701F1080404EB070E1EF808ECE1
:1036D40003F801EB01310129F4D9112824DD122367
:1036E4004AB10421397100217971B9710121F9714B
:1036F4007868CCF8100000216FF300016FF34101EA
:103704006FF382016FF3C501012060F38811C3F3E5
:103714000A0363F353216FF31F5100230748FFF794
:103724007BF90C37BD4690BD6FF01B03D8E700BF93
:10373400201902005419020038190200E80E020090
:10374400F8B505460F461446394A0121394811F0A7
:103754001EFC394B9B6A13F0100F31D11026364BE7
:103764009B6A13F0080F32D1334B9B6A13F0020F9C
:1037740034D1314B9B6A13F0010F4BD12E4B9B6A12
:1037840013F0200F4DD12C4B9B6A13F0100F01D175
:10379400294B9B6A284B9B6A13F0200F04D0264ABE
:1037A400536A23F400535362234A936A43F0FF039A
:1037B40093620121284611F0FDFC20703046F8BDCB
:1037C4001E4A01211B4811F0E2FB1126C7E71C4ADF
:1037D4000121184811F0DBFB1226C5E7194A012123
:1037E400144811F0D4FB144A536B926A12F0800F00
:1037F40001D11326BDE7144A01210E4811F0D1FB73
:1038040037B10D4A936A23F0800393621326B0E71D
:103814001326AEE70D4A0121064811F0B8FB142621
:10382400ACE70B4A0121034811F0B1FB1526AAE7C6
:1038340068190200E80E020000ED00E080190200A1
:10384400B4190200C8190200E0190200F8190200B4
:10385400181A0200F8B505460F461446374A0121E6
:10386400374811F094FB374B9B6A13F4805F25D1E2
:103874001626344B9B6A13F4006F26D1314B9B6A96
:1038840013F4007F28D12F4B9B6A13F4806F3FD130
:103894002C4B9B6A13F4807F41D12A4B9B6A13F40F
:1038A400005F43D1274A936A43F47F439362012123
:1038B400284611F07FFC20703046F8BD224A0121D1
:1038C4001F4811F064FB1726D3E7204A01211C4846
:1038D40011F05DFB1826D1E71D4A0121184811F0AB
:1038E40056FB184A936B926A12F4004F01D11926C1
:1038F400C9E7184A0121124811F053FB37B1114AA4
:10390400936A23F4004393621926BCE71926BAE7A5
:10391400114A01210A4811F03AFB1A26B8E70F4A66
:103924000121074811F033FB1B26BBE70C4A012198
:10393400034811F02CFB1C26B4E700BF481A020010
:10394400E80E020000ED00E0601A0200B419020063
:10395400741A0200901A0200A81A0200C41A020083
:10396400181A020070B506460D462B4A01212B4851
:1039740011F00DFB00232B70294BDC6A14F00204B8
:103984000AD1274BDB6A002B0DDB254BDC6A14F0D4
:1039940080440ED1204670BD224A01211F4811F0F7
:1039A400F6FA0024F6E7204A01211C4811F0EFFA48
:1039B400F0E71E4A0121194811F0E9FA3046FFF7F1
:1039C4008BFD98B9164B9B6A13F0FF0F16D1144B5D
:1039D4009C6A14F47F4418D1114B9B6AB3F5803F61
:1039E400D8D33046FFF7BAFD0446D3E73368104A0C
:1039F40001210A4811F0D5FA3468CBE72A4601219F
:103A04003046FFF79DFE0446C4E72A4601213046AE
:103A1400FFF720FF0446BDE7DC1A0200E80E0200AF
:103A240000ED00E0F41A0200181B0200281B02003B
:103A3400481B020030B58BB01F4B5D68C5F3080509
:103A4400002383F31188BFF36F8F0DF12603FFF773
:103A540061FD04460DF12702294611F0ADFB9DF8E6
:103A640027300BB10BB030BD05460DF1040C2068B6
:103A74006168A268E368ACE80F0020696169A26923
:103A8400E369ACE80F009DF826304BB1089BC3F303
:103A940008025AB96FEA53236FEA4323089305E0F7
:103AA400089B23F4FF7323F00103089301A928461C
:103AB400FFF7BAFCD6E700BF00ED00E0064B5A69F9
:103AC40042F010025A615A6942F480625A615A699A
:103AD40022F008025A61704700ED00E0EFF308801D
:103AE400EFF3098101B57246FFF7A4FF01BD00BFE2
:103AF400002080F31488BFF36F8F002080F30A88BE
:103B040080F30B88104880F3088800200F49087060
:103B140001F0F4FE00200E490860BFF34F8F00F05F
:103B24002FF8202080F311880A484FF400614018D0
:103B340080F30988EFF314800221084380F314888A
:103B4400BFF36F8F00F0E4F8E8370020811F0020F6
:103B540094ED00E0A82A0020084BD3F89000C0F3AD
:103B64000720002306E0054AC2F898300021C2F875
:103B7400A01001338342F6DB704700BF00ED00E084
:103B840010B572B6002484F31388FFF7E5FF2346CB
:103B940008E003F120010E4A4FF0FF3042F8210003
:103BA4000133DBB20F2BF4D9002308E003F16001E9
:103BB400074A4FF0FF3042F821000133DBB20F2BEC
:103BC400F4D962B6BFF34F8FBFF36F8F10BD00BF40
:103BD40000E100E008B50A4B9B68834202D003F081
:103BE4008DFD08BDEFF30583002BF8D0054B5A6813
:103BF40042F080525A605A6A22F400425A62EEE756
:103C0400C413002000ED00E016498A684FF030002C
:103C14001044EFF3098C80E8F01F202080F3128811
:103C2400BFF36F8F104F4FF000664A698A603E60A1
:103C3400D2F8A4000D4C2060D2F8A8000023C2F8EA
:103C4400A83080F3118802F1300090E8F01F8CF363
:103C5400098802F1000004B511F0E4FABDE804405B
:103C640070470000C413002004ED00E0C0110020E0
:103C74001EF0040F0CBFEFF30880EFF30980816995
:103C840011F8021C0229FFD001B5724611F07FFA27
:103C940001BD00BF002807DB00F01F02400901231B
:103CA4009340024A42F82030704700BF00E100E030
:103CB400002808DB4901C9B200F1604000F5614009
:103CC40080F80013704700F00F004901C9B2014B9E
:103CD4001954704714ED00E04209054B53F82220B3
:103CE40000F01F00012303FA00F01040704700BFEA
:103CF40000E100E0044B23F07F03044A9360BFF328
:103D04004F8FBFF36F8F70470000000000ED00E09D
:103D140008B5FFF7EFFF074AD2F8883023F47003A1
:103D2400C2F8883002F0A2FD03F04EFE00F04EF817
:103D340002F0F8FD00ED00E010B4A2F120040E49F9
:103D440042F8081C21F0010142F8081C42F8203C0A
:103D5400019B42F81C3C029B42F8183C039B42F82E
:103D6400143C4FF0807342F8043C04650023C0F80F
:103D7400A83010BC704700BF6D22000000B50E468D
:103D840015460B4B9860D0F8A4200A4B1A60D0F863
:103D9400943083F30B882C4686F309880020064B65
:103DA40098472046002100220023044C204700BFEE
:103DB400C4130020C0110020335201006D22000002
:103DC400014B10221A61704700ED00E0002207E069
:103DD40003F1604303F56143202183F800130132AA
:103DE400442A09DC53B2002BF2DA03F00F0303492F
:103DF400194420230B76F2E7704700BFFCEC00E087
:103E040008B5EFF30583103B044A02EBC30149688C
:103E140052F833008847FFF74FFB08BD940B0200AC
:103E2400074AD2F8FC3043F08073C2F8FC30054BEB
:103E340000225A601A6842F001021A60704700BFFB
:103E440000ED00E0001000E0034B00225A601A6805
:103E540042F001021A607047001000E0014B5868FC
:103E640000217047001000E008B501F037FD024B57
:103E74001868002108BD00BF7400002008B5FFF7D2
:103E8400F3FF024A0023FCF761FA08BD40420F0029
:103E940010B584B00A4C23460A4A01210A4811F09D
:103EA400FDFA0023019302930393084B0193E41A50
:103EB4000294012101A811F0F5FA04B010BD00BF6D
:103EC4000000072000000020641B0200980200206C
:103ED400024B034AC3F8C020704700BF00ED00E066
:103EE400AAFF4400034BC3F89800C3F89C10C3F81E
:103EF400A020704700ED00E00E4BC3F89800C3F813
:103F04009800D3F89C000A7A60F304020A72D3F88A
:103F1400A020C2F34202087A62F347100872D3F871
:103F24009C2022F01F020A60D3F8A03023F01F0364
:103F3400CB60704700ED00E070B505460E460024E6
:103F440000E00134A6421EDD04EB44039A0005EBB5
:103F5400830359680029F4D0A85811F0F9F904EB47
:103F640084030B4A42F8230010F1160F0CD0094BBE
:103F74001B78984209DA04EB840302EB83010431D1
:103F8400FFF7BAFFDDE7002070BD6FF01500FBE717
:103F9400C41100207A1F002010B504460A4BD3F840
:103FA4009030C3F30723013B984203D811F0AAF9D8
:103FB400204610BD0346054A0121054810F0F1FFD3
:103FC4006FF01500F5E700BF00ED00E0741B020080
:103FD400E00E02002DE9F04F87B081460091019375
:103FE4001446002648E03346614A0121614810F036
:103FF400D8FF6FF0150407E03B465F4A01215D4896
:1040040010F0CFFF6FF01504204607B0BDE8F08F25
:10401400D84564D12946C0B211F0ABF92BE0574A18
:10402400C2F89870D2F89C3003F01F0321F01F01EE
:104034000B43C2F89C302946E0B211F09AF90446C9
:1040440010F1160FE0D0013415E0013B4B49C1F8E3
:104054009870D1F8A02002F01F0223F01F0313432D
:10406400C1F8A0302946E0B211F083F9044610F1FA
:10407400160FC9D001340136009B9E42C4DA06EB08
:1040840046054FEA850A09EB85056F68002FF2D0D3
:10409400019B23B1284611F049F90028A3D03946E1
:1040A40059F80A0011F054F9074610F1160FA3D07D
:1040B4008442A1DD314BC3F89800D3F89C2022F050
:1040C4001F02C3F89800D3F8A03043F01F0859F832
:1040D4000A306968194401F1FF3B934298D0934236
:1040E4009DD0D845B1D0013B2449C1F89870D1F88E
:1040F400A02002F01F0223F01F031343C1F8A030D5
:104104002946E0B211F035F9044610F1160F3FF4D8
:104114007BAF0130194BC3F89870D3F89C109DF80D
:10412400102061F304028DF81020D3F8A030C3F3FB
:104134004203D2B263F347128DF8102059F80A30C3
:104144006A681344029323F01F03A8EB0B0843444B
:10415400013B23F01F03059302A9C0B2FFF71CFF24
:10416400044610F1160F3FF44FAF013483E700BF4C
:104174009C1B0200E00E0200C01B020000ED00E0E8
:1041840010B5034C01232278FFF724FF207010BDE3
:104194007A1F0020044B0522C3F89420BFF34F8FED
:1041A400BFF36F8F704700BF00ED00E0BFF35F8F78
:1041B400024B0022C3F89420704700BF00ED00E0DA
:1041C40038B51C4B1D681C4BD3F89030C3F3072340
:1041D4009D422BD8FFF7EAFFFFF77AFE002407E0A1
:1041E400144B596801EB0411204611F08BF801348B
:1041F400A542F5D81148057011F0DAF810F1160F40
:1042040013D00E4B1A780C4BD3F89030C3F307231A
:104214009A4207DA084BC3F898200021C3F8A0108B
:104224000132F0E7FFF7B6FF002038BD4FF0FF3052
:10423400FBE700BFE41B020000ED00E07A1F002052
:1042440030B587B00D4611460024009401940294C1
:1042540003940494059402228DF80220044A0192E6
:10426400049005951A4668460EF012FD07B030BD5D
:10427400B154010008B5024B1B689847002008BDE3
:10428400E8110020034B1860034A937843F00203BB
:1042940093707047E81100204000002008B50548DD
:1042A40010F019F9002383F31188BFF36F8F0423EF
:1042B400184602DF241C020008B54FF0FF324FF00D
:1042C400FF33024811F009F908BD00BF5000002077
:1042D40008B5064921F00701C1F1005202F5E022B8
:1042E40003480FF0E4FF002008BD00BFAF380020F2
:1042F400EC11002038B50446FFF7DEFF2246082102
:1043040008480FF049FF054620B1074802F0FEFCBB
:10431400284638BD002CF8D01AF010FD034B0C22AF
:104324001A50F2E7EC110020500000200C000000AD
:1043340010B50446FFF7C0FF214603480FF0DCFE2A
:10434400024802F0E3FC10BDEC11002050000020F4
:1043540068B108B5064A074B1B680749A1FB03135C
:104364009B0C00FB03F042F00103984708BD704723
:10437400700F02007400002083DE1B4338B51A4B13
:104384001B780133194AA2FB031202F4FE7101EBFC
:1043940092029C1AE5B212F09EF8154B1B782BB1D1
:1043A400144A52F82530C01A07281AD94FF050235E
:1043B400D3F8143163B14FF050230022C3F8142111
:1043C400D3F81431084B1D7015B9094B01221A702A
:1043D400054B1C7812F07FF8064B43F824000120AB
:1043E40038BD0020FCE700BF7C1F0020CDCCCCCC26
:1043F4007B1F0020F811002000B583B00DF10700E9
:1044040001F090FB114B98421CD1114B4FF4806288
:10441400C3F8B8254FF40062C3F83C250D499DF854
:10442400070012F01CF90C499DF8070012F012F96C
:104434009DF807300120984001F06EFB002003B086
:104444005DF804FB6FF00B00F9E700BF0000AD0B53
:1044540000A002502CA0025028A1025008B501214E
:10446400104BC3F80015104A0223C2F8D0360F4887
:10447400D0F8003223F0E04343F04053C0F8003258
:10448400D0F8043223F0E04343F04053C0F8043240
:10449400C2F80417C2F80419C2F8001B00F032F87D
:1044A40008BD00BF0010005000400050002584509B
:1044B40000F01F0240090CD001280CD107488032BB
:1044C40050F8223023F0E04343EA017140F822100F
:1044D40070470348F3E70020F1E700BF0028845049
:1044E4000025845038B50546002405E02946044BD0
:1044F400185DFFF7DDFF0134032CF7D938BD00BF89
:10450400341C020008B50249024810F0D1FB08BD72
:10451400381C02000C12002008B5054B1B7803B1AF
:1045240008BDFFF77DFC024B01221A70F8E700BFBB
:104534007D1F002008B5064BD3E8EF2F511CC3E8BC
:10454400E01F0028F8D102B108BDFFF77DFCFBE7AE
:104554002C12002000487047CC120020014BC01AD6
:10456400401170474412002038B505460C46FFF749
:10457400F5FF01464022034811F0B7F801462846EA
:10458400A04738BD140B020030B583B005460C4675
:10459400FFF7E4FF0146402300932346054A0648FB
:1045A40011F0BDF8011E01DB03B030BD2846A04761
:1045B400FAE700BF6B570100140B020008B5092885
:1045C40017D8DFE800F0051C161616161616171273
:1045D40000210D4811F017F8836813F0070F08D174
:1045E4000021094811F06FF803E00221064811F098
:1045F4006AF808BD0321044811F065F8F9E70121C0
:10460400014811F060F8F4E7140B020010B582B011
:10461400EFF31184202383F31288BFF36F8F154ABD
:10462400136843F00201116013F0010F09D1002354
:1046340084F31188BFF36F8FB3B911F09CF802B003
:1046440010BD0DF1070201214FF0502010F0ACFF16
:104654009DF80730012B01D00023E9E7FFF77AFF2B
:1046640011F01FF80123E3E70021034811F02BF8B0
:10467400E5E700BFF4120020140B020010B5EFF3BD
:104684001184202383F31288BFF36F8F074A1368C2
:1046940023F00201116013F0010F04D084F3118898
:1046A400BFF36F8F10BD11F07AF8F7E7F412002012
:1046B40070B582B00546012807D14FF05023D3F8D6
:1046C4001C3403F00303022B36D012F072FC0446B0
:1046D40010B92B4B1B7873B9EFF31186202383F3A6
:1046E4001288BFF36F8F012494B94FF05023022234
:1046F400C3F808230CE00026F6E7FCB1304610F0BE
:10470400B6FD4FF05023D3F81835DBB2012B19D086
:104714000DF1070200214FF0502010F045FF002852
:10472400EBD09DF80730022B01D0012DE5D104B365
:1047340086F31188BFF36F8F02B070BD012011F0B2
:1047440042F8DEE74FF05023D3F80431002BDFD0DA
:104754004FF050230022C3F80421D3F8042102228D
:10476400C3F81825074A2021C2F8801101229A6053
:10477400CEE74FF050230222C3F80423DCE700BF46
:10478400811F002000E100E000B585B0CDF800D025
:10479400CDF804D000230293012303936B46074A08
:1047A40010F0D9FF002805DB4FF48042002368464F
:1047B40002F046FB05B05DF804FB00BFF7570100AB
:1047C40070B5064600220121052010F01FFD114896
:1047D40001F0B0F9104B984219D101F0BDF9002451
:1047E400032C12D82146304610F00DFF0546214611
:1047F400304610F015FF094910F05AFA002805DB7D
:104804000123AB601C44E4B2EAE7002070BD6FF002
:104814000400FBE7C14500000000AD0B441C02008E
:1048240010B504460E4B0121D3E8EF2FC3E8E01F77
:104834000028F9D11AB1631E012B0DD910BD094806
:1048440010F0EEFE084900234B608B60CB6001231F
:104854008B6010F049FAEEE72046FFF729FFEDE7F9
:1048640040120020140B02003012002010B5044640
:104874000A2806D0E1B206488368DB6998472046D7
:1048840010BD03488368DB690D219847F2E700BF38
:10489400740B020010B5044C2046FFF7F3FC2046CD
:1048A400FDF7DCFC10BD00BF7148000008B50548E9
:1048B40012F070FA18B1FFF7EDFF002008BD6FF099
:1048C4001200FBE7740B0200F0B51C46059F069E20
:1048D40000F01F0C400936D0012836D1284D0CF1C8
:1048E400800355F8233091B3012092B34FF0020EA8
:1048F40040EA0E0084B34FF00C0E40EA0E0077B38A
:104904004FF4706E40EA0E0066B34FF4403E40EA46
:104914000E0023EA000041B30B7842B31278520030
:10492400134334B322789200134327B33A78120224
:10493400134316B332781204134303430CF1800C6F
:1049440045F82C30F0BD0F4DC9E70025C7E700201E
:10495400CBE74FF0000ECBE74FF0000ECDE74FF062
:10496400000ECFE74FF0000ED1E70023D5E7002279
:10497400D6E70022D8E70022DAE70022DCE700BF0E
:10498400002884500025845000F01F03400908D0FB
:10499400012808D1054A803352F8230000F00100B1
:1049A4007047034AF7E70022F5E700BF0028845068
:1049B4000025845028B1012801D103487047002004
:1049C40070470248704700BF340B0200540B0200CA
:1049D4002DE9F04786B0884616469946446801F0AA
:1049E4001F05237B45EA4315204610F07BFF002872
:1049F40064D0B6F5001F35D00DF10C0A00270397DB
:104A040004974946304610F0A2FF8DF80C00009739
:104A140001970297CDF804A0A36823FA08F313F0D2
:104A2400010F02D1B6F1A07F23D004F110060DF1DD
:104A340017022946304612F087F9234B984237D0A3
:104A440010346A462946204612F072F91E4B9842E9
:104A540037D101222946204612F08EF9002006B0F3
:104A6400BDE8F087294604F1100012F089F900200E
:104A7400F5E72846FFF788FF0028D6D10DF1170285
:104A8400294604F1100012F05FF9104B984203D04C
:104A94000DF117030493D3E70DF1170241462046A5
:104AA40010F091FF084B9842F2D06FF00B00D6E75C
:104AB4009DF81710304612F057F9C1E76FF08500E2
:104AC400CDE76FF01500CAE70000AD0B0400AD0B95
:104AD400F0B589B00F461446456801F01F062B7BDC
:104AE40046EA4316104610F002FF8DF81E0040F20D
:104AF40006332340B3F5837F53D016D8062B4CD00E
:104B040006D9B3F5807F0DD101238DF81D3024E043
:104B140003B3022B03D104238DF81D301DE06FF085
:104B2400150038E06FF0150035E040F202229342A0
:104B34003BD0B3F5407F03D103238DF81D300CE047
:104B4400B3F5007F03D102238DF81D3005E06FF02B
:104B5400150020E000238DF81D3014F4002F28D018
:104B64006A680123BB409360284610F0BBFE40B343
:104B740010350DF11F023146284612F0E5F80746BC
:104B840014F4403F36D13146284612F0E9F83C4B44
:104B94009F426DD0002009B0F0BD06238DF81D3072
:104BA400DBE707238DF81D30D7E705238DF81D308B
:104BB400D3E714F4802FD7D06A680123BB40D360B5
:104BC400D2E7C4F340438DF8083014F4803F0CBF9F
:104BD400012300238DF81030002401940DF11D03EE
:104BE40000930DF11E0304AA02A93046FFF76CFEE0
:104BF4002046D0E702AA002302930393049305936B
:104C04000693059204AA3146284612F091F81C4BEB
:104C140098421DD114F4003F1DD09DF81D308DF82D
:104C2400103014F4803F0CBF012300238DF81130A1
:104C34009DF81E308DF81230002304AA3146284610
:104C440012F07AF80E4B9842A1D06FF01500A2E74B
:104C54006FF015009FE700230493059306930DF16D
:104C64001E03049304AA3146284612F061F8E9E7CA
:104C74009DF81F10284612F077F800208BE700BF3C
:104C84000000AD0B38B504464568284610F02AFEEE
:104C940020B91049204610F0D4FD38BD10352846FF
:104CA40012F05AF80028F4D10021284612F050F8E6
:104CB400094B98420AD100220849284612F040F8CC
:104CC400002205210D2010F0A1FAE2E76FF00400A4
:104CD400E3E700BFB15901000000AD0B8B5901009F
:104CE40070B400F01F0C400919D0012819D10E4DE1
:104CF4000CF1800055F820600C4C344041EA42012C
:104D040041EA83039DF80C2043EA02239DF8102016
:104D140043EA0243234345F8203070BC7047044DF6
:104D2400E6E70025E4E700BF00288450F0F0FCFF2C
:104D34000025845000F01F01400906D0012806D147
:104D4400044A01238B4093607047034AF9E7002229
:104D5400F7E700BF002884500025845000F01F01AD
:104D6400400906D0012806D1044A01238B40D360B0
:104D74007047034AF9E70022F7E700BF0028845090
:104D8400002584502DE9F04F85B007468B469046A8
:104D9400002423E04FF0FF3535E0C8F80C55012618
:104DA40003963146B5F1FF3F16D0B1F1FF3F40F015
:104DB400138157F80A3013F4004F02D00126002261
:104DC400039200220192CDF80090C3F341233246AE
:104DD40003992846FFF784FF0134E4B25C4580F070
:104DE400FF804FEA840A57F82430C3F3C322C3F385
:104DF4000805082A00F2F6807E4911F8029040F274
:104E0400FF129542C6D01B0E222B00F2EE8001A2A7
:104E140052F823F09F4D0000A54E0000B34E000051
:104E2400BF4E0000CD4E0000DB4E0000E74E0000F8
:104E3400EF4F0000EF4F0000EF4F0000EF4F000076
:104E4400F54E0000094F0000EF4F0000EF4F000047
:104E5400EF4F0000EF4F0000EF4F0000EF4F000056
:104E6400EF4F0000EF4F0000EF4F00001D4F000018
:104E74002F4F0000414F0000534F0000EF4F000040
:104E8400EF4F0000EF4F0000654F0000754F00002A
:104E9400814F0000914F0000A14F0000B14F00006E
:104EA400C8F81455002603964FF0FF317AE7C8F886
:104EB400085501260396314674E7C8F810550026B4
:104EC40003964FF0FF316DE7C8F80855002601231B
:104ED4000393314666E7C8F80C5501260396002172
:104EE40060E7C8F81055002603964FF0FF3159E7E4
:104EF400C8F80855B9F1000F5ED0002603964FF0AC
:104F0400FF314FE7C8F80C55B9F1000F5CD000260B
:104F140003964FF0FF3145E7C8F8605557F80A107B
:104F2400C1F30041012603963CE7C8F8645557F8DD
:104F34000A10C1F300410126039633E7C8F8685507
:104F440057F80A10C1F30041012603962AE7C8F86E
:104F54006C5557F80A10C1F300410126039621E766
:104F6400C8F824550126002303934FF0FF3119E7B5
:104F7400C8F8285501260396314613E7C8F830557A
:104F84000126002303934FF0FF310BE7C8F8345593
:104F94000126002303934FF0FF3103E7C8F8385587
:104FA4000126002303934FF0FF31FBE6C8F83C557C
:104FB400012603963146F5E64E46CDF80C904FF0A7
:104FC400FF314FF00609EDE64E46CDF80C904FF058
:104FD400FF314FF00609E5E6284610F013FDE8E638
:104FE400002004E06FF0150001E06FF0850005B0CB
:104FF400BDE8F08F0C1D02002DE9F84305460F466D
:10500400466811F0D6FF20B9234B1B780BB300235D
:1050140000E00123D5F810906A68D2F80080F3B953
:10502400284610F028FE0446736813F0040F03D0DA
:105034004FF48003C8F80433F36A1F700122F16A45
:10504400284610F064FE84F31188BFF36F8FBDE827
:10505400F8830123DEE784F31188BFF36F8FEFF346
:105064001184202383F31288BFF36F8F284610F036
:1050740002FD0028EFD0D9F80030002BD4D0D3F8AB
:10508400A420002AD0D0D3F8B420002ACCDAD8F84F
:105094004C25C3F8B420C7E7811F00202DE9F04F49
:1050A40085B09846D0F810B0DBF80040D0F804A0E2
:1050B400DAF800509AF80830002B40F0B5808146A9
:1050C4000F46164694F86130002B40F0B08094F8F7
:1050D4006230002B40F0AE806365B8F1FF3F44D0EE
:1050E400B8F1040F16DDA3F1993383FB08234FEACB
:1050F400E870C0EB6300C117C90341EA5041C00323
:105104004E4BC0184E4A4FF0000341F10001FBF72B
:105114001DF901E000200146A065E165276466648D
:105124000023A364E3642365DAF8043013F0040F66
:1051340020D1DAF8043013F0040F02D094F8602080
:1051440052BBC5F83475C5F838650020C5F81001A0
:10515400D5F81031C5F84C01D5F84C31012384F849
:1051640061302B6005B0BDE8F08F00220023C4E954
:105174001623D3E7EFF311830393202383F31288D9
:10518400BFF36F8F0221484610F0B5FD039B83F3F4
:105194001188BFF36F8FCCE7B24228BF32469146E5
:1051A400DAF82810384619F0B8FA4F44B6EB090675
:1051B40014D0B8F1FF3FC4D00023C5F80831D5F8A6
:1051C400083104F10800D4E916234FF000084FF029
:1051D4000009CDE9008902F0D3FDB2E794F860201C
:1051E400A2EB0902D2B284F86020DAF8280000EBBE
:1051F400090119F09FFA0BF10803D3E8EF1F41F0FE
:105204000401C3E8E21F002AF7D145F30735002D56
:1052140008DB05F01F026D09012393404035094A5C
:1052240042F8253000209DE76FF085009AE76FF083
:105234000F0097E76FF00F0094E700BF3F420F00A5
:1052440040420F0000E100E0F0B583B004461D4683
:105254000669EFF31187202383F31288BFF36F8F5E
:105264003368D3F8A40000BBC3F8A4203368C3F8A0
:10527400A01001F06043B3F1005F1DD13368C3F89F
:10528400A8103368C3F8AC203146204610F05AFD0C
:1052940087F31188BFF36F8F204610F01BFC80B397
:1052A400B5F1FF3F10D100202CE087F31188BFF344
:1052B4006F8F6FF00F0025E033680022C3F8B02031
:1052C400204610F0B0FEDFE73468683425EAE5755F
:1052D400E917C90341EA5541ED030B4828180B4A65
:1052E4004FF0000341F10001FBF730F802460B4692
:1052F40000200021CDE90001204602F041FD0020FC
:1053040000E0002003B0F0BD3F420F0040420F0018
:1053140070B50446056943681E68286800220A4976
:10532400083012F037F82B68DC632868002207493C
:10533400683012F02FF82B68C3F89C40044BC6F871
:105344000433002070BD00BF8F6101008B5F01003A
:1053540014020A0038B505460C4601F10C0000F0B1
:10536400E1FB0C4B98420DD105F10C0205F590714F
:10537400207B11F079F9237B0120984000F0CCFBCD
:10538400002038BD044A012104480FF000FE6FF0EC
:105394000400F6E70000AD0B181D0200F80E020031
:1053A40038B5044645680121E86810F089FC636853
:1053B4001A682B69C2F824356B7DA97D0B43298BB0
:1053C4000B43297D0B43C2F86C3523691B6823B159
:1053D4002046FFF79DFF002803DB204610F011FF55
:1053E40000B138BD0249204610F014FBF9E700BFB4
:1053F400AF5D010021F07F4100F5A870014B43F837
:1054040020107047005001504FF480338340024A0B
:10541400C2F84433704700BF005001504FF480334A
:105424008340024AC2F84833704700BF005001501D
:10543400014BD3F804057047005001502DE9F8439F
:10544400054689469046FFF7E9FF284611F00BF818
:105454004E46032710E0FFF7EBFF0446494610F0E1
:10546400F1FFB0F5000F26D9284610F0FCFFB8F183
:10547400000F22D13E19013731462846FFF7BAFF03
:105484002846FFF7C1FFFFF7D3FF0446C11C30468F
:1054940010F0D8FF0A4B98420AD9284610F0D6FFDC
:1054A4000028D8D1B8F1000FE4D06FF0150000E067
:1054B4000020BDE8F8830020FBE76FF01500F8E753
:1054C400FDFF7F00034B044AC3F80823C3F84823B5
:1054D400704700BF0050015003000F0010B50123B6
:1054E40083406FEA030C0C4AD2E8EF1F01EA0C0E6A
:1054F400C2E8E4EF002CF7D14FF480328240074831
:10550400C0F80823BFF35F8FBFF36F8F0B4214BF44
:105514000120002010BD00BF2413002000500150C2
:105524004FF480338340124AD2F80423134201D14A
:105534000020704710B5044601238340DB430D4926
:10554400D1E8EF2F02EA0300C1E8EC0FBCF1000F31
:10555400F6D122FA04F313F0010F03D1204610F020
:1055640075FF18B1204610F07EFF012010BD00BF6A
:10557400005001502013002001B9704701238340DB
:105584000D4AD2E8EFCF4CEA030CC2E8E1CF002980
:10559400F7D14FF480338340084AC2F80433084BF0
:1055A400D3E8AF3FC34013F0010FE6D0054B4FF4EF
:1055B4000012C3F80021E0E724130020005001503A
:1055C4002013002000E100E038B5144610461946C7
:1055D40010F055FF02460D490B68E01A1B184C6881
:1055E40044F100040B604C60A2F50013B3F5400FC6
:1055F40009D2074B1B68190A1B06D41841F1000590
:10560400044BC3E9004502F0BDFA38BDB8090020D7
:1056140028130020C009002038B50D4B1C68250A4A
:105624002406BFF35F8FFFF703FF0346001945F11C
:105634000001B3F5801F0AD2064BD3E90023904240
:1056440071EB030303D210F1807041F1000138BD06
:1056540028130020C00900202DE9F0410646144615
:105664001D469DF820801046194610F008FF074695
:10567400FFF7D2FFA04271EB050319D2201A65EBA4
:1056840001011B4B984271F100012BD2194B03EB22
:105694000613D3E90223AB4208BFA24201D1002082
:1056A40014E0424639463046FFF7C8FE70B117E0B1
:1056B400B8F1000F19D10123B3400F4AD2E8EF0F1C
:1056C4001843C2E8E10F0029F8D10020094B320148
:1056D40003EB0616C6E9024506999950079B7360C9
:1056E400BDE8F0816FF01500FAE76FF01500F7E7F9
:1056F40001008000A80900202013002030B585B0E7
:10570400FFF7E0FE00231E4AC2F80835002B25DD12
:105714001B4C0225C4F804531A4B4FF40012C3F86F
:1057240080210022012115200FF070FD15200FF0BB
:1057340068FD0123A3602360134A136000240294CC
:105744000194124B0093124A0023204610F0A7FE46
:105754002846FFF765F8204605B030BD0D4A02EB38
:1057640003124FF0FF304FF0FF31C2E902014FF452
:1057740080329A400249C1F804230133C6E700BFCE
:105784000050015000E100E024130020CD5500003A
:10579400FFFF7F00A80900202DE9F04782B00446EE
:1057A400FFF7BEFE10B902B0BDE8F087FFF734FF83
:1057B40082460D4610F066FE0646154B03EB0413B5
:1057C400D3E90289C24575EB09050BD200253046A1
:1057D40010F060FE002DE6D0009742464B4620466E
:1057E400A847E0E70A4A230102EB0411D5584F68A1
:1057F4000020D0504FF0FF324FF0FF33C1E90223B5
:105804002046FFF70BFE204610F02DFEDFE700BF19
:10581400A809002010B50D4BD3F8043313F0020F80
:1058240003D10024002C0BDD10BD0221074810F029
:10583400D3FD0028F5D0064A136801331360F0E75E
:105844002046FFF7A9FF0134ECE700BF00500150E8
:105854002813002010B584B0B0F1FF3F18D0012800
:105864001BDD154B9842A8BF18460446134B012272
:105874001A70FFF7D1FE124B1A685B68801AB0F5F4
:10588400000F0CD20444B4F5000F09D30A4C07E00E
:105894000A4B00221A70084CEBE70124E6E7064C99
:1058A40000201219029001900649009143F100036F
:1058B40010F0F5FD04B010BDFFFF7F00801F002035
:1058C400B8090020CD55000008B5FFF7A5FE024B2E
:1058D4001B68C01A08BD00BFB80900204FF0502350
:1058E400D3F8582502F00302024BD340024A136056
:1058F400704700BF0020A1077400002008B510F015
:105904006EFE68B15D4BD3F8203A4BB95B4B0D2268
:10591400C3F8202A0122C3F81C290022C3F81C2939
:1059240000220BE002F160034FF47F0151F83310C1
:10593400DB0003F57F035B680B6001321F2A08D884
:1059440002F160034FF47F0151F83330B3F1FF3FAC
:10595400E8D110F01CFE30B1484B2922C3F80C27C3
:105964000322C3F83C2710F0C6FD40B1444B454A1E
:10597400C3F830254FF050230122C3F8582510F006
:10598400CEFD18B1404B0022C3F84C2510F0DFFDCA
:1059940068B14FF05023D3F8003413F0010F06D050
:1059A4004FF050230022C3F81421C3F8182110F03B
:1059B400E2FD60B14FF05023D3F8003413F0010F2F
:1059C40005D04FF050236FF00102C3F8002410F00B
:1059D400F2FD18B1294B6522C3F80C2710F013FE11
:1059E40020B1294BD3F82034002B30DB10F017FE04
:1059F400E8B1224B7E22C3F80C27C3F83C29234A82
:105A04007F23C2F818311E490023C1F8043EC1F8AF
:105A1400083E01F54821C1F81031C2F82431C2F81A
:105A24002C3102F5FF1202F58052C2F8A032184A56
:105A3400D2F88C3043F44063C2F88C30154A1168B4
:105A4400154BC3F84415D269C3F84C2508BD4FF073
:105A540050230322C3F8182501229A604FF05023E3
:105A6400D3F80431002BF9D04FF050230022C3F8AF
:105A740004210122DA60C3F81825B7E7004000507A
:105A8400009003504400EFBE00200350002000505B
:105A940000ED00E00080FF000060005010B50468D5
:105AA400ACB1B4FA84F3C3F11F03DBB201229A4010
:105AB40024EA0202D0E8EFCFA44504D1C0E8EE2FD7
:105AC400BEF1000FF6D1EAD10B70024810BD0248B6
:105AD400FCE700BF0000AD0B0200AD0B0368CB4038
