:020000040000FA
:10000000D02F0020F5480000C77B0100E148000028
:10001000E1480000E1480000E1480000E14800003C
:10002000000000000000000000000000B14A0000D5
:10003000E1480000000000000D4A0000E148000017
:10004000D54C0000D54C0000D54C0000D54C00002C
:10005000D54C0000D54C0000D54C0000D54C00001C
:10006000D54C0000D54C0000D54C0000D54C00000C
:10007000D54C0000D54C0000D54C0000D54C0000FC
:10008000D54C0000D54C0000D54C0000D54C0000EC
:10009000D54C0000D54C0000D54C0000D54C0000DC
:1000A000D54C0000D54C0000D54C0000D54C0000CC
:1000B000D54C0000D54C0000D54C0000D54C0000BC
:1000C000D54C0000D54C0000D54C0000D54C0000AC
:1000D000D54C0000D54C0000D54C0000D54C00009C
:1000E000D54C0000D54C0000D54C0000D54C00008C
:1000F000D54C0000D54C0000D54C0000D54C00007C
:10010000D54C0000D54C0000D54C0000D54C00006B
:10011000D54C0000D54C0000D54C0000D54C00005B
:10012000D54C0000D54C0000D54C0000D54C00004B
:10013000D54C0000D54C0000D54C0000D54C00003B
:10014000D54C0000D54C0000D54C0000D54C00002B
:04015000D54C00008A
:1001580081F0004102E000BF83F0004330B54FEA70
:1001680041044FEA430594EA050F08BF90EA020FDD
:100178001FBF54EA000C55EA020C7FEA645C7FEA70
:10018800655C00F0E2804FEA5454D4EB5555B8BF93
:100198006D420CDD2C4480EA020281EA030382EA04
:1001A800000083EA010180EA020281EA0303362D96
:1001B80088BF30BD11F0004F4FEA01314FF4801C69
:1001C8004CEA113102D0404261EB410113F0004F7B
:1001D8004FEA03334CEA133302D0524263EB430332
:1001E80094EA050F00F0A780A4F10104D5F1200ED0
:1001F8000DDB02FA0EFC22FA05F2801841F100012B
:1002080003FA0EF2801843FA05F359410EE0A5F1FE
:1002180020050EF1200E012A03FA0EFC28BF4CF02F
:10022800020C43FA05F3C01851EBE37101F00045E5
:1002380007D54FF0000EDCF1000C7EEB00006EEBF2
:100248000101B1F5801F1BD3B1F5001F0CD349087C
:100258005FEA30004FEA3C0C04F101044FEA4452D3
:1002680012F5800F80F09A80BCF1004F08BF5FEA5A
:10027800500C50F1000041EB045141EA050130BD3A
:100288005FEA4C0C404141EB0101013C28BFB1F54C
:10029800801FE9D291F0000F04BF01460020B1FA97
:1002A80081F308BF2033A3F10B03B3F120020CDA6A
:1002B8000C3208DD02F1140CC2F10C0201FA0CF048
:1002C80021FA02F10CE002F11402D8BFC2F1200CAD
:1002D80001FA02F120FA0CFCDCBF41EA0C01904063
:1002E800E41AA2BF01EB0451294330BD6FEA0404AC
:1002F8001F3C1CDA0C340EDC04F11404C4F1200297
:1003080020FA04F001FA02F340EA030021FA04F3A8
:1003180045EA030130BDC4F10C04C4F1200220FAFF
:1003280002F001FA04F340EA0300294630BD21FA3D
:1003380004F0294630BD94F0000F83F4801306BF03
:1003480081F480110134013D4EE77FEA645C18BFF7
:100358007FEA655C29D094EA050F08BF90EA020F8E
:1003680005D054EA000C04BF1946104630BD91EA86
:10037800030F1EBF0021002030BD5FEA545C05D189
:100388004000494128BF41F0004130BD14F58004C8
:100398003CBF01F5801130BD01F0004545F0FE413C
:1003A80041F470014FF0000030BD7FEA645C1ABF71
:1003B800194610467FEA655C1CBF0B46024650EAA8
:1003C800013406BF52EA033591EA030F41F40021D4
:1003D80030BD00BF90F0000F04BF0021704730B55A
:1003E8004FF4806404F132044FF000054FF000012F
:1003F80050E700BF90F0000F04BF0021704730B5F0
:100408004FF4806404F1320410F0004548BF4042C4
:100418004FF000013EE700BF42004FEAE2014FEA19
:1004280031014FEA02701FBF12F07F4393F07F4FF4
:1004380081F06051704732F07F4208BF704793F0F7
:100448007F4F04BF41F40021704730B54FF460740A
:1004580001F0004521F000411CE700BF50EA01020D
:1004680008BF704730B54FF000050AE050EA0102B6
:1004780008BF704730B511F0004502D5404261EB26
:1004880041014FF4806404F132045FEA915C3FF467
:10049800D8AE4FF003025FEADC0C18BF03325FEA04
:1004A800DC0C18BF033202EBDC02C2F1200300FAB5
:1004B80003FC20FA02F001FA03FE40EA0E0021FADA
:1004C80002F11444BDE600BF4FF0FF3C06E000BF58
:1004D8004FF0010C02E000BF4FF0010C4DF804CDC5
:1004E8004FEA410C7FEA6C5C4FEA430C18BF7FEA85
:1004F8006C5C1BD001B050EA410C0CBF52EA430CB3
:1005080091EA030F02BF90EA020F0020704710F132
:10051800000F91EA030F58BF994208BF90422CBFC1
:10052800D8176FEAE37040F0010070474FEA410CBA
:100538007FEA6C5C02D150EA013C07D14FEA430CD8
:100548007FEA6C5CD6D152EA033CD3D05DF8040B49
:10055800704700BF8446104662468C46194663467B
:1005680000E000BF01B5FFF7B7FF002848BF10F152
:10057800000F01BD4DF808EDFFF7F4FF0CBF012097
:1005880000205DF808FB00BF4DF808EDFFF7EAFF13
:1005980034BF012000205DF808FB00BF4DF808EDCE
:1005A800FFF7E0FF94BF012000205DF808FB00BFC3
:1005B8004DF808EDFFF7CEFF94BF012000205DF84D
:1005C80008FB00BF4DF808EDFFF7C4FF34BF01205A
:1005D80000205DF808FB00BF4FEA4102B2F1E0439A
:1005E80024BFB3F5001CDCF1FE5C0DD901F0004C12
:1005F8004FEAC0024CEA5070B2F1004F40EB830062
:1006080008BF20F00100704711F0804F21D113F18D
:100618003872BCBF01F00040704741F480114FEAC6
:100628005252C2F11802C2F1200C10FA0CF320FA4F
:1006380002F018BF40F001004FEAC1234FEAD3236C
:1006480003FA0CFC40EA0C0023FA02F34FEA4303D6
:10065800CCE77FEA625307D150EA01331EBF4FF05F
:10066800FE4040F44000704701F0004040F0FE407A
:1006780040F40000704700BF53B94AB9002908BFC9
:1006880000281CBF4FF0FF314FF0FF3000F062BD73
:10069800ADF1080C6DE904CE00F078FDDDF804E05A
:1006A800DDE9022304B0704703685A004CBF43F0E9
:1006B800004323F00043184470472DE9F0470646ED
:1006C800174641B301394FF00009884609EB080481
:1006D80004EBD474641006EBC4054FEAC40A284638
:1006E800FFF7E2FFA14204D1B84204D82846BDE88A
:1006F800F087B84204D9A1450DD004F1FF38E5E7E9
:100708000AF108003044FFF7CFFF0138B842EDD2B4
:1007180004F10109DAE70025E8E7012806D00228F4
:1007280006D00028034818BF0020704702487047C9
:10073800024870473D0D0000410D0000450D0000C6
:100748001F4B37B504468D1E4BB101A92846AFF3A0
:10075800008048B900230920236103B030BD19483F
:10076800194B1B1ADB10019301992A46FFF7A5FFC5
:1007780001460028EED0FFF797FF4B68A064012BD5
:100788001AD0002B01F1040010DBFFF78DFF0023C6
:10079800C4E913030368002B0ADAC3F30360FFF705
:1007A800BCFF03460028D5D00020D5E70123EFE79A
:1007B800FFF77AFF0346F7E700230520CCE700BFE1
:1007C80000000000D42A02008C3802000368DA070F
:1007D80010B5044605D49B0700F1480018D500F071
:1007E800F7FB2368590703D404F1D00000F0F8FBA5
:1007F80023681A0703D404F5A87000F0F9FB2368EE
:10080800DB0608D404F5E870BDE8104000F034BCFD
:1008180000F0D6FBE5E710BD0920704703460068E5
:1008280000B118447047704770B505460C46216CF6
:100838002846FFF785FF064608B104F05DFC236CE7
:100848002246294601206B612B6998470828EED07B
:100858000728F2D13046216CFFF7E5FF201D00F094
:10086800A3FB2DE9F0470C1DADF5727DD0F80C9077
:100878000746D0F818A0164603AD0DF108080FCCAE
:100888000FC50FCC0FC50FCC0FC594E80F0085E836
:100898000F000025C8F800500936D8F8401038462F
:1008A800FFF74EFF0446F6B268BBD8F840304FF465
:1008B800F07241467AA87B6120F0E4FC3B697AAA91
:1008C800394630469847889B0546C8F844303A462A
:1008D8003B4631460120CDE9008AC847C0B9C4B9B2
:1008E8004FF4F0727AA94046264620F0CBFC082D3A
:1008F800D2D0072D0CD12046D8F84010FFF793FF2F
:1009080003A800F051FB46F01006D8F83830DCE7B1
:10091800092420460DF5727DBDE8F087406C7047CC
:10092800F0B5CB6BF9B00D1D06460B640F4601AC54
:100938000FCD0FC40FCD0FC40FCD0FC495E80F0016
:1009480084E80F004FF0FF33009310993046FFF70B
:10095800F7FE78B933696A4631469847082804464D
:10096800F3D06846FFF732FF062C03D139463046EC
:10097800FFF75AFF092079B0F0BD10B48261DA6B35
:10098800C16019461A64002210BC6AE770B5436951
:100998000446C6680D460B6426B10122FFF761FFC5
:1009A80004F0AAFB03690A46014602209847072873
:1009B80005D00828F4D129462046FFF735FF3046F0
:1009C800296CFFF730FF281D00F0EEFAC26802B963
:1009D800A6E7CA6B0A64002243E7704783680146AA
:1009E8000BB1012018477047012910B50446084685
:1009F80005D005D9C81E01288CBF0220012010BDD2
:100A080043B90F2A06D804EB8204029A1846616893
:100A18001160F4E70220F2E71FB503AB0A46009322
:100A280000231946FFF7E0FF039805B05DF804FBC3
:100A3800012910B50446084605D005D9C81E012865
:100A48008CBF0220012010BD43B90F2A06D8029995
:100A580004EB8204184609686160F4E70220F2E7B3
:100A68001FB503AB03920A46009300231946FFF70C
:100A7800DFFF05B05DF804FBF0B5D36BADF50F7D76
:100A8800141D064613640F4617AD0FCC0FC50FCCC7
:100A98000FC50FCC0FC594E80F0085E80F004FF085
:100AA800FF33169326996846FFF74AFE90B90C2142
:100AB80016A86A46FFF7D4FF394616A8B04748B9C2
:100AC800049B16AA6946082098470528044602D0C0
:100AD8000928E7D1092416A8FFF778FE20460DF566
:100AE8000F7DF0BD2DE9F04FCD6C87B017460C4651
:100AF80055F8042B00F003099A4604953BBB1202F3
:100B08008DF8153003230392B9F1020F8DF81430D4
:100B1800236D08BFA56B13F0010322D100F008086C
:100B280000932B6843BB03A9384600F0A2FC0028B9
:100B380040F0FB80009BDBB10F213846FFF76CFFCC
:100B48000E2102463846FFF78BFF794A55E0130C11
:100B580012048DF81530DBB2039205EB83050223EE
:100B6800D2E703A9384600F084FC002840F0DD8075
:100B7800082007B0BDE8F08FBAF1020FA26C4FF061
:100B88000F01384607BFD5F804B005F10806B5F8D7
:100B980002B02E1D18BF2B882BF0010501931544B8
:100BA800FFF73AFF019B854229D823F001022A4426
:100BB800824294BF002201224FEA4B0003F0010356
:100BC80000F0020040EA0305012D1AD0022D5ED084
:100BD800002D40F0AA80351DB9F1000FA1D0002AE0
:100BE8009FD03046FFF760FDA563064620461FF0FC
:100BF80059FC002800F0998032460F213FE000227E
:100C0800DAE7B9F1000F26D1002A3DD073683268BF
:100C1800991C4FEAD27200F0888004F15801013320
:100C2800029109D0301DFFF7F9FD02AB01462046BD
:100C380010F02CFF054638B30D213846FFF7ECFEBF
:100C4800022D029B206202D1E36204F12C030620EC
:100C5800C4E909368DE7256A0D213846FFF7DCFE21
:100C6800854211D1A36A9E420ED13046FFF71CFD82
:100C78000F2102463846FFF7F3FE22460021384688
:100C8800FFF7EEFE072074E706F1080549E7356827
:100C980025F00045B9F1000F2AD1A2B1B8F1000F33
:100CA80019D085B9CB4617E00BF1010B019B002247
:100CB80006EB8B000293FFF7B1FD02AB014620461D
:100CC80010F0E4FE58B13368002B00DA0436013521
:100CD80006EB850525E7C34604F158030193AB45A8
:100CE800E2D10D213846FFF797FE029B2062AEE75E
:100CF800D4F820B00D213846FFF78EFE8345E2D1A7
:100D0800A36A9E42DFD14FF0000B0423A562C4E919
:100D18000BB3F318636333685B4503DA681C06EBAF
:100D28008000A3E701230093D1E7092021E700BF52
:100D3800551B01000023D5E60123D3E60223D1E6A3
:100D48002DE9F0410546C2B014461E46042925D8AF
:100D5800DFE811F005001C002400D6000301EEB9FD
:100D6800836B92B20121043001FA06F717421CBFC7
:100D780053F8047B40F826700136102EF4D1A604EF
:100D880000D4AB63002042B0BDE8F081012E4FEAE9
:100D9800124794B204D13B19102B41D90220F2E733
:100DA800052EFBD107EB0408B8F1200FF6D80F2F5A
:100DB8004DD9002CE6D00368A046580708D523F083
:100DC8000403284640F8D03B00F00EF90F2F48D90D
:100DD800684600F009F9AB6B102F3A4642A94FEA72
:100DE800480838BF10221C4608F1FF3801EBC20240
:100DF8004FEA8801A2F5C472101F02EB880254F86A
:100E080004CB40F804CF8242F9D10A1D012E1344C5
:100E180017D00F2FAB636FD9684600F0E1F8B1E740
:100E2800102FBBD00368DA0705D523F0030340F879
:100E3800483B00F0C9F820A800F0C6F8AB6B002CBE
:100E48003FD1043320A8AB6300F0BAF89AE7B8F1B1
:100E5800100F03682DD9DC07A8F1100842D45807F1
:100E6800ADD420A8C7F1100400F0B6F8684600F029
:100E7800BBF820AA6400AB6B02EBC702013C101F51
:100E8800A10002EB84021C4654F804CB40F804CFBE
:100E98009042F9D10A1D1344B8F1000F9CD1012EDC
:100EA800CFD00F2FAB633FF66DAF20A800F090F8BE
:100EB80068E7D9070DD420A800F08EF8AB6B002C9A
:100EC800F3D0640020AA4FF0000802EBC702013CEF
:100ED800D5E723F0010343F0020340F8483B00F054
:100EE8007BF8E8E723F0010343F0020340F8483BAE
:100EF80000F072F82B68B2E720A800F069F88BE7D9
:100F0800032E7FF44BAF97B2160C07EB1244102C4C
:100F18003FF644AF0368190706D523F008030360BA
:100F280000F5A87000F086F820A800F083F820AB40
:100F3800AA6BF90003EBC60303EBC707D41ABB423D
:100F480003EB040005D10A4420A8AA6300F050F876
:100F580018E7006843F8040BF1E7002E7FF41EAF92
:100F6800102A3FF61BAF0368DA0606D523F01003F4
:100F7800036000F5E87000F089F820AE304600F014
:100F880085F8AB6B0022012101FA02F020421CBF58
:100F980053F8040B46F822000132042AF4D13046F3
:100FA800AB6300F069F8EDE600F1340191E8380030
:100FB8009C46A6464CF8045D90E8FF0FE54600BD48
:100FC80090EC210B704700BF80EC210B704700BFED
:100FD80090EC200B704700BF80EC200B704700BFDF
:100FE800D0EC200B704700BFC0EC200B704700BF4F
:100FF800F0EC0201F0EC0211F0EC0221F0EC02310D
:10100800F0EC0241F0EC0251F0EC0261F0EC0271FC
:10101800F0EC0281F0EC0291F0EC02A1F0EC02B1EC
:10102800F0EC02C1F0EC02D1F0EC02E1F0EC02F1DC
:10103800704700BFE0EC0201E0EC0211E0EC022195
:10104800E0EC0231E0EC0241E0EC0251E0EC02613C
:10105800E0EC0271E0EC0281E0EC0291E0EC02A12C
:10106800E0EC02B1E0EC02C1E0EC02D1E0EC02E11C
:10107800E0EC02F1704700BFB0FC0181B0FC0191C7
:10108800B0FC01A1B0FC01B1704700BFA0FC018118
:10109800A0FC0191A0FC01A1A0FC01B1704700BF18
:1010A800EC4600B52DE900502DE9FF1F4FF0000375
:1010B8002DE90C0001A9FFF733FCDDF840E012B080
:1010C800704700BFEC4600B52DE900502DE9FF1F21
:1010D8004FF000032DE90C0001A9FFF757FCDDF8DC
:1010E80040E012B0704700BFEC4600B52DE9005053
:1010F8002DE9FF1F4FF000032DE90C0001A9FFF7B0
:1011080065FCDDF840E012B0704700BFEC4600B562
:101118002DE900502DE9FF1F4FF000032DE90C00C9
:1011280001ABFFF72AFCDDF840E012B0704700BFC2
:10113800EC4600B52DE900502DE9FF1F4FF00003E4
:101148002DE90C0001AAFFF797FCDDF840E012B08A
:10115800704700BF704700BF10F8012B11F8013B22
:10116800012A28BF9A42F7D0D01A7047034613F8CD
:10117800012B002AFBD1181A01387047034611F8D1
:10118800012B03F8012B002AF9D170472DE9F0470C
:1011980086468C460846089E154674461946002B16
:1011A80040F0C1808542B2FA82F245D94AB1C2F113
:1011B800200300FA02FC954094402EFA03F343EA18
:1011C8000C0C4FEA154EA8B2230CBCFBFEF80EFB24
:1011D80018CC08FB00F943EA0C43994528D9EB18C9
:1011E80008F1FF3704D2994502D9A8F102072B4428
:1011F800A3EB0903A4B2B3FBFEFC0EFB1C330CFBF0
:1012080000F044EA0344A04214D92C190CF1FF332E
:1012180004D2A04202D9ACF102032C44241A43EAB6
:1012280007401EB1D440002334607360BDE8F087E6
:101238004746DDE76346F1E792BB431B01214FEACE
:10124800154EAFB2200CB3FBFEFC0EFB1C330CFB9F
:1012580007F840EA0343984561D9EB180CF1FF30D1
:1012680004D2984502D9ACF102002B44A3EB080341
:10127800A4B2B3FBFEFC0EFB1C330CFB07F744EADD
:101288000344A7424DD92C190CF1FF3304D2A742CD
:1012980002D9ACF102032C44E41B43EA0040C0E746
:1012A800C2F120039540944020FA03F12EFA03F38B
:1012B8004FEA154E9040AFB20343B1FBFEFC0EFB64
:1012C8001C10190C0CFB07F841EA0041884522D98B
:1012D80069180CF1FF3004D2884502D9ACF102003C
:1012E8002944A1EB08019BB2B1FBFEFC0EFB1C11CB
:1012F8000CFB07F743EA01439F420ED9EB180CF1A8
:10130800FF3104D29F4202D9ACF102012B44DB1B0E
:1013180041EA004193E76046E3E76146F7E7604644
:10132800A4E76346B8E7834206D916B90021084600
:101338007CE7C6E900E0F9E7B3FA83F78FB983429F
:1013480001D3724508D8BEEB020460EB0303012009
:101358009C461EB9002169E73846FAE7C6E9004C01
:10136800F8E7C7F1200CBB400EFA07F522FA0CF497
:101378002EFA0CF1BA401C4320FA0CF3B8404FEA9D
:10138800144901431FFA84FEB3FBF9F809FB18302E
:101398000B0C08FB0EFA43EA00439A4540D9E318C0
:1013A80008F1FF3004D29A4502D9A8F1020023447B
:1013B800A3EB0A0389B2B3FBF9F809FB183308FB5E
:1013C8000EFE41EA03418E452CD9611808F1FF331E
:1013D80004D28E4502D9A8F10203214443EA004011
:1013E800A1EB0E01A0FB02984145CE46434602D32D
:1013F80006D14D4504D20138B9EB020E68EB04035F
:10140800002EA7D0B5EB0E0261EB030101FA0CFC2C
:1014180022FA07F3F9404CEA0303C6E9003199E7D9
:101428004046C5E74346D9E7027A03467AB9427A85
:1014380082B1013A42724268111D126802600322A9
:1014480041601A721A68100E12021A607047013A47
:10145800D2B2F6E7B02070471FB503AB0C22009359
:1014680000231946FFF7C0FA039805B05DF804FB9E
:10147800F2E72DE9F043054685B00E464FF0000827
:101488003046FFF7D1FFB028044615D1B8F1000F58
:101498000ED103AC43460E22414628460094FFF77E
:1014A800A3FA43460F22414628460094FFF7C0FAA4
:1014B800002005B0BDE8F08302061DD44FEA80097C
:1014C800002303AF0D225FFA89F9194628460097D1
:1014D800FFF78AFA09F10409039B14F0400F14BFBF
:1014E800A3EB09034B440393002300970D221946ED
:1014F8002846FFF79DFAC3E700F0F003802B18D1C8
:1015080004023046FFF790FF0443B4F5004F01D1C1
:101518000920CEE7240100232846A2B21946FFF786
:101528000FFC0028F4D114F4004F18BF4FF0010845
:10153800A6E7902B0DD100F00D030D2BE8D003AFDB
:10154800002300F00F02284619460097FFF74CFACF
:10155800CAE7A02B13D1C3434FF47F6203F00703FC
:101568001A41030702F47F6201D542F48042002346
:1015780019462846FFF7E4FB002881D0C8E7B02BBE
:1015880046D1B12808D13046FFF74EFF431E024628
:10159800DBB20E2BEBD9BBE7B22820D1002303AC7A
:1015A8000D222846194600940227FFF71DFA3046F7
:1015B800FFF73AFF00F07F0110F08003039A01FA69
:1015C80007F105D102F5017200940A4403928DE7F0
:1015D8000A44304607370392FFF726FFEAE7B328A5
:1015E8000BD13046FFF720FF0123020300F00F0064
:1015F80002F4702201300243BAE700F0FC03B42B76
:1016080086D000F007020123013242F40022AFE73E
:10161800C02B44D1C6280AD13046FFF705FF032363
:10162800020300F00F0002F470220130E3E7C7283C
:101638000BD13046FFF7F8FE431E0246DBB20E2BF5
:101648003FF666AF0023042193E700F0F803C02BB0
:1016580006D100F00F020323013242F4202287E76B
:10166800C8280DD13046FFF7DFFE00F0F00200F089
:101678000F0005231032013040EA0232012178E7D9
:10168800C9287FF445AF3046FFF7CEFE0523020395
:1016980000F00F0002F4702201300243EEE700F080
:1016A800F803D02B7FF434AF00F007020523013292
:1016B80042F40022E2E71FB503460846DA6C536895
:1016C8000832190202921B0E0322019101A98DF81A
:1016D8000C208DF80D30FFF7CCFE05B05DF804FB4B
:1016E80008B5FFF7C5FE806C08BD08B5FFF7C0FE5A
:1016F800C06CC379023300EB830008BD0000000012
:10170800436B5A6812681B691B68D2F80811A1B1AB
:101718000021C2F80811D2F80821596500B583B034
:1017280003F10800D3E916239FED097B8DED007BBB
:1017380008F032F803B05DF804FB596D01315965C2
:101748000429EBD101235360704700BFAFF3008039
:10175800000000000000000010B582B00369426874
:1017680014681A68002151651B6803F10800D3E961
:1017780016239FED057B8DED007B08F00DF8042303
:10178800C4F8083302B010BD0000000000000000DB
:1017980070B590B00E46044606A909AD81E80C0064
:1017A8000023179928460F9309F0B4FB9DF8583089
:1017B8004FF00001049520460393159B02939DF872
:1017C80050300193079B9FED0A0B0093069BB2686C
:1017D8001BF063FE04E0284619F04CFA1EF03FFEA9
:1017E800284619F047FA204610B070BDAFF30080C4
:1017F800000000000000000070B590B00E460446DE
:1018080006A909AD81E80C000023179928460F9313
:101818000BF0A4FB9DF858304FF0000104952046CA
:101828000393159B02939DF850300193079B9FEDFE
:101838000A0B0093069BB26819F0E7FB04E0284600
:1018480019F018FA1EF00BFE284619F013FA204674
:1018580010B070BDAFF30080000000000000000071
:101868002DE9FF47804616460F46002900F0A28062
:10187800B1FA81F4341B002E04F10A04C0F2A280EC
:10188800304614F08BFB0444304614F08DFBA4EB77
:10189800060905466946304614F0AEFBA9EB050378
:1018A8006A4640467D3339461FF05DFEA6428246B1
:1018B8000D4600F38380B9F13F0F00F381804FF0AC
:1018C800FF33A9F12000C9F1200103FA00F003FA5F
:1018D80009F223FA01F103FA09F3024328EA0303A0
:1018E8000A4327EA020213430CBF01200020002DFF
:1018F80000F08A80B5FA85F3E31A40F2FE7203F22B
:101908003E43934200F38980002B23EAE376D4BF59
:1019180001223246121BA2F23341A2F23447A2F24C
:101928005344C1F1200C2AFA01F325FA04F4C7F153
:10193800200E05FA0CFC25FA01F105FA0EFE43EA21
:101948000C03A2F2544CA2F2544223432AFA07F49D
:1019580025FA0CFC44EA0E0444EA0C04C7F1200CF6
:1019680014F0010F54D0A8B14FF0FF3000FA02F282
:1019780000FA07F4144320FA0CF2B840144303F0B9
:1019880001022AEA000A25EA04054AEA020A5AEA92
:10199800050A3DD0013341F10002C2F3130253EAB4
:1019A800020138D0184642EA065141EC100B04B047
:1019B800BDE8F087B0FA80F420345BE7012096E7B1
:1019C800002094E7C6F10009484614F0EDFA241AFD
:1019D800484614F0E9FAA61B0546694648462E44CF
:1019E80014F07CFB6A46404606F17C0339461FF03A
:1019F800BAFD82460D464046394614F0E5FA81455F
:101A08008CBF0020012072E7BAFA8AF3203373E70B
:101A1800C1F31302C6E70136C4E79FED010BC6E721
:101A2800000000000000F07F012800D070474FF64A
:101A3800FF739942FAD110B5044C204608F0D6F845
:101A4800034A0449204616F0C0F810BD900B002048
:101A5800C80B0020459D0000F0B589B0002307930E
:101A68000693002103A800F037F802A800F042F816
:101A780003A814F040FD02A800F04EF84FF47A7164
:101A880003A814F04CFD00F093F8064600F088FD1A
:101A98000746304600F022FA33681B6807A930462B
:101AA80098473B681B6806A9384698470798FEF789
:101AB800B3FC04460D460698FEF7AEFCCDE90001DE
:101AC80022462B46034815F00AFA4FF47A7014F0B0
:101AD800C2FCDEE7E83F020003468C46044A92E86F
:101AE800030083E8030083F808C01846704700BF66
:101AF800303D020010B50446044B0360044A03213C
:101B0800044815F049FF204610BD00BF54390200B3
:101B180020400200743C020008B5006817F06BFF13
:101B280008B1002008BD034A0321034815F034FF1B
:101B3800F7E700BF40400200743C0200014B03601D
:101B4800704700BFB043020010B50446034B036062
:101B58000C2118F070FA204610BD00BFB0430200F7
:101B6800012800D070474FF6FF739942FAD110B59B
:101B7800044C204608F03AF8034A0449204616F077
:101B880024F810BDA80B0020C80B0020459D0000BC
:101B980003460246044942F8041B044903C982E883
:101BA80003001846704700BFB0430200383D0200EA
:101BB8000D4BD3E8AF3F13F0010F01D00B4870472E
:101BC80010B5094807F0B8FF08B9084810BD074C18
:101BD8002046FFF7DDFF064A0649204615F0F5FFC7
:101BE800014818F02AFAF0E7940B0020980B00201F
:101BF800C80B0020451B000008B5406817F0FBFE25
:101C080028B9064A0121064815F0C6FE08BD054A4E
:101C18000321034815F0C0FEF8E700BF5C4002004E
:101C28006C3C02007840020008B5043014F0C4FC93
:101C3800031E01DB002008BD034A0121034815F0FB
:101C4800B5FE0120F7E700BF904002006C3C02009F
:101C580000B583B000238DF807300DF10702D021BD
:101C6800FFF7E2FF9DF80730034A0321034815F008
:101C78009DFE03B05DF804FBA84002006C3C020026
:101C880010B584B004460023ADF80C30ADF8083028
:101C98008DF8073003AAE921FFF7C6FF80BB0DF1D5
:101CA8000D02EA212046FFF7BFFF78BB9DF80D2003
:101CB8009DF80C3043EA0223204A138002AA8A21A5
:101CC8002046FFF7B1FF38BB0DF109028B212046F2
:101CD800FFF7AAFF30BB9DF809209DF8083043EABA
:101CE8000223174A13800DF107028C212046FFF7C3
:101CF8009BFFE8B99DF90720124B1A7004B010BD7C
:101D0800114A0121114815F047FEC8E7104A012180
:101D18000E4815F041FEC9E70E4A01210B4815F09F
:101D28003BFED1E70C4A0121084815F035FED2E701
:101D38000A4A0121054815F02FFEDBE74A1F00205B
:101D4800481F0020581F0020C04002006C3C0200C1
:101D5800004102004041020080410200C0410200EF
:101D680070B582B005460E46334B1B89ADF804307A
:101D780000248DF806408DF803409DF8033013F0D9
:101D8800200F0FD00DF103021D212846FFF74CFF4D
:101D980004460028F1D0294A0121294815F0FCFD04
:101DA8000124EAE7032301AA2221281D14F0F4FBE9
:101DB80000283AD19DF804209DF805301B0143EA1C
:101DC80002339DF8062043EA12131E4A1288520075
:101DD800C2EBE3021C4BB3F9001002FB01F15210F5
:101DE80002FB02F21213194B93F900301B0102FB9C
:101DF80003F39B1303EBE123154D2B60154A0321D5
:101E08000F4815F0D3FD2B6803EB830380331B12B7
:101E180007EE903AF8EEE77ADFED0F6A87EEA67ADA
:101E280086ED007A204602B070BD0C4A01210448B4
:101E380015F0B2FD0124BDE7383D02000042020062
:101E48006C3C02004A1F0020481F0020581F002039
:101E5800A40B00205C4202000000C8422842020095
:101E680070B584B004460D468DF80C1013788DF8C3
:101E78000D3000238DF80B300389022203A9406836
:101E880014F066FB031E1BDB02260DF10B0229462C
:101E98002046FFF7C9FE28B99DF80D209DF80B30A4
:101EA8009A420AD09DF80D309DF80B200092084AFE
:101EB8000121084815F085FD0326304604B070BDA1
:101EC800054A0121034815F071FD0326DDE700BF2F
:101ED8008C4202006C3C02007442020010B584B0CF
:101EE800044600238DF80F308DF80E300DF10F02E7
:101EF8007421FFF799FE9DF80F3003F0FC038DF86D
:101F08000F3043F001038DF80E300DF10E027421ED
:101F18002046FFF7A5FF0DF10F0274212046FFF7B9
:101F280083FE9DF80F209DF80E309A4202D10620BC
:101F380004B010BD0092034A0121034815F041FD89
:101F48000720F5E7D04202006C3C020010B582B0D1
:101F5800044600238DF807308DF8063050238DF89D
:101F680006300DF106027421FFF77AFF0DF1070222
:101F780074212046FFF758FE9DF807309DF806208B
:101F8800934216D002238DF806300DF10602722115
:101F98002046FFF765FF0DF1070272212046FFF783
:101FA80043FE9DF807309DF80620934207D002B003
:101FB80010BD064A0321064815F0F8FCE2E7054A79
:101FC8000321034815F0F2FCF1E700BF20430200AB
:101FD8006C3C020068430200024A0260024A026046
:101FE800704700BF98470200B043020010B504468E
:101FF800044B0360044B03600C2118F01CF82046C6
:1020080010BD00BF98470200B043020010B586B06B
:1020180004460023ADF8143004930393029301930C
:10202800009305AA8E21FFF7FFFD002840F02681C6
:102038000DF115028F212046FFF7F6FD002840F02C
:1020480023819DF815209DF8143043EA0223BB4AEA
:10205800138004AA90212046FFF7E6FD002840F0EF
:1020680019810DF1120291212046FFF7DDFD0028AC
:1020780040F01681BDF912209DF8143043EA02237E
:10208800AF4A1380AF4A92212046FFF7CDFD0028C2
:1020980040F00C8103AA94212046FFF7C5FD0028D3
:1020A80040F00A810DF10E0295212046FFF7BCFD94
:1020B800002840F00781BDF90E20BDF90C3043EA35
:1020C8000223A14A138002AA96212046FFF7ACFDFD
:1020D800002840F0FD800DF10A0297212046FFF705
:1020E800A3FD002840F0FA80BDF90A20BDF90830A8
:1020F80043EA0223954A1380954A99212046FFF71F
:1021080093FD002840F0F080924A98212046FFF77E
:102118008BFD002840F0EE8001AA9C212046FFF7A5
:1021280083FD002840F0EC800DF106029D21204639
:10213800FFF77AFD002840F0E980BDF90620BDF9D7
:10214800043043EA0223844A13806A469E212046CB
:10215800FFF76AFD002840F0DF800DF102029D21A3
:102168002046FFF761FD002840F0DC80BDF9022021
:10217800BDF9003043EA0223784A1380784AA02147
:102188002046FFF751FD002840F0D280754B93EDB3
:10219800007AB8EEC77AF6EE007A27EE277ADFEDF6
:1021A800727A37EE677A714B83ED007A67EE077AB9
:1021B800674A92F9002006EE902AF8EEE66A9FED4B
:1021C8006C6A66EE866A67EEA67A6A4AC2ED007A9B
:1021D8005E49B1F9001006EE901AF8EEE66A67EE6D
:1021E800266A76EEA66A77EEA67AC2ED007AF5EE52
:1021F800006A67EEA67A5449B1F9001006EE901A03
:10220800F8EEE66A9FED5C6A66EE866A77EEA67A75
:10221800C2ED007A4B4A92F9002007EE902AF8EEB8
:10222800E77A67EE277A67EE277ADFED546A67EE7A
:10223800A67A434AB2F9002006EE902AF8EEE66A3A
:1022480027EE267A77EE877A9FED4D7A67EE877AC2
:10225800C3ED007A9FED4B7A67EE877AB7EE007A86
:1022680077EE877A354A128807EE102AB8EE477A51
:1022780067EE877AC3ED007A06B010BD424A0121A5
:10228800424815F089FBD3E6414A01213F4815F041
:1022980083FBD6E63F4A01213C4815F07DFBE0E68A
:1022A8003D4A0121394815F077FBE3E63B4A012115
:1022B800364815F071FBEDE6394A0121334815F02F
:1022C8006BFBEFE6374A0121304815F065FBF2E673
:1022D800354A01212D4815F05FFBFCE6334A012100
:1022E8002A4815F059FBFFE6314A0121274815F025
:1022F80053FB09E72F4A0121244815F04DFB0BE752
:102308002D4A0121214815F047FB0DE72B4A0121F1
:102318001E4815F041FB10E7294A01211B4815F01A
:102328003BFB1AE7274A0121184815F035FB1DE742
:10233800254A0121154815F02FFB27E7561F0020D5
:10234800541F00205C1F0020521F0020501F002037
:102358005B1F00205A1F00204E1F00204C1F00202A
:10236800591F0020A40B002000007A47C00B002052
:1023780000000037BC0B00200000804700008038B8
:102388000000003600000038CC430200643C020024
:10239800084402004444020080440200BC44020095
:1023A800FC4402003845020074450200B0450200B2
:1023B800EC4502002846020064460200A0460200DE
:1023C800DC460200184702005447020070B582B08C
:1023D80005460E464E4B1B88ADF8043000248DF898
:1023E80006408DF803409DF8033013F0200F0FD0FE
:1023F8000DF103021D212846FFF716FC04460028AC
:10240800F1D0444A0121444815F0C6FA0124EAE70C
:10241800032301AA1F21281D14F012F9002870D1E6
:102428009DF804209DF805301B0143EA02339DF80E
:10243800062043EA121307EE903AF8EEE77A9FED8A
:10244800377A77EE677A364B93ED007ADFED356AA7
:1024580027EE267A77EEC77A9FED337A67EE877A8A
:10246800324B93ED007A87EE876A314BB3F900302F
:1024780007EE903AF8EEE77A67EE867A67EE867AA4
:102488009FED2C7A67EE877A2B4BB3F9003006EE76
:10249800903AF8EEE66A9FED297A66EE876A66EE6C
:1024A800866A9FED277A26EE077A67EE075A27EEA7
:1024B800257A244B1B7805EE903AF8EEE55A9FED05
:1024C800225A65EE855A27EE257A77EEA67A77EEB8
:1024D800877A1E4B93F9003007EE103AB8EEC77AA8
:1024E800DFED1B6A27EE267A77EE877A9FED197A59
:1024F80067EE877A77EE867AC6ED007A204602B0D4
:1025080070BD154A0121044815F046FA012487E7F1
:10251800443D020000420200643C02000000804981
:10252800BC0B0020000080390050C345C00B0020C0
:102538004C1F0020000000304E1F00200000003813
:102548000000803B591F0020000000375A1F002060
:10255800000000430000803D28420200012800D00E
:1025680070474FF6FF739942FAD110B5044C2046D4
:1025780007F03CFB034A0449204615F026FB10BD32
:10258800C40B0020C80B0020459D000010B5044670
:10259800FFF7FEFA014B2360204610BD9847020062
:1025A8000D4BD3E8AF3F13F0010F01D00B48704734
:1025B80010B5094807F0C0FA08B9084810BD074C1B
:1025C8002046FFF7E3FF064A0649204615F0FDFAC4
:1025D800014817F032FDF0E7AC0B0020B00B0020EB
:1025E800C80B0020E11F00002DE9F04F91B00592C3
:1025F8000293134602F004020092C3F3C20310F0E0
:102608000302019240F02A8280468A460133041D63
:1026180000284ED0B8F1000F05D0A4EB0802043210
:10262800524500F21E82029A551E019A04920692A1
:10263800039200264FF0FF3B0427B946B8F1000F7C
:1026480001D0029A22605A1E0792002B40F35C8147
:10265800059B13F0020228D00120A4EB08018B0887
:102668001AB1B1F5007F80F0028203990F2900F2B8
:102678000182B8F1000F00F05F81DBB201F1400286
:102688006A4402F8103C02F820BC002800F050818F
:1026980063F07F0301F140026A4402F8103C049B96
:1026A80001330493039B0133039304340021404610
:1026B8003DE001F0070A5444CAF1080AAAE70026D7
:1026C80034E0002632E0002630E00827B9462DE045
:1026D800252B2BD10BF1010B01260427B94625E048
:1026E800472BEED82A2B14D32A3BDBB24FF0010C30
:1026F8000CFA03F34FF6DA7C13EA0C0F16D113F039
:10270800625F40F0C18013F0010F40F08D80002619
:102718000CE0252B03D10BF1FF3B002606E001D985
:10272800002603E0202B01D0232BCCD115466A1CB0
:102738006B78002B00F01981002EC9D07A2BBED8F7
:102748004C2BCDD34C3B2E2B62D80FF2080C5CF8E7
:1027580023F000BF352700001928000019280000C1
:10276800192800001928000019280000192800005D
:10277800192800001928000019280000192800004D
:10278800192800002928000019280000192800002D
:10279800192800001928000019280000192800002D
:1027A80019280000192800009128000019280000A5
:1027B80029280000292800009128000091280000FD
:1027C800912800003527000029280000D3260000A2
:1027D800192800003527000019280000ED280000FE
:1027E80029280000ED2800001928000019280000F9
:1027F800F5280000232800002928000019280000D7
:102808001928000029280000192800001D280000A8
:1028180000268BE70427B94688E70427B94685E7E9
:102828002B786C2B24D000263C44013CB4FBF7F4F5
:1028380007FB04F420B1231A4B44534500F21481DA
:10284800002958D1B9F1040F00F08780B9F1080FB9
:1028580040F013811A9B073323F0070303F108059F
:102868001A9593ED007B08B184ED007B08345DE791
:1028780012F8023C6C2B03D000260427B946D3E794
:1028880000260827B946CFE72B784C2B1AD01A9B7D
:10289800073323F0070303F108061A96D3E9006704
:1028A800073424F0070440B1231A0833534513D8DA
:1028B8002B784C2B13D0C4E900670834002608276E
:1028C800B94633E71A9B073323F0070303F10806D9
:1028D8001A96D3E90067E3E76FF01B00BBE0C4E991
:1028E8000067EAE700260427B9469DE73146002637
:1028F8000427B94698E780461A9B191D1A911B6848
:102908000293079B154699E6624B029A9A4204D3B2
:10291800614B9A420AD3002300E00023002B7FF486
:1029280097AE059B03F00202002096E60123F5E727
:10293800069B01330693B5E610B10AF1010AB1E628
:10294800009B13B10AF1020AACE60298FEF70EFCEE
:102958000AEB000303F1020AA4E61A9B1D1D1A954F
:102968001B6800B123600434E0E68046231AB3F5FF
:10297800806F80F0858090B1002202609B08037010
:10298800009B83B1069BC370049B88F802301BBB75
:10299800019DDDF80C90DDF810B0029F3DE0534436
:1029A800A3F1080057E0069B4370EDE70133984216
:1029B800EED903F140026A4412F8101C12F9102CE7
:1029C800002AF3DA01F07F01A4EB08020132524534
:1029D80059D804F8011BE9E7019B0398E7E7009B36
:1029E80043B305F140036B4413F8203C04F8013B62
:1029F800019EA4EB080333440133534546D805F13F
:102A080040036B4413F8103C04F8013B3246394646
:102A180020461EF037FC34440135A94519D9BBF1CD
:102A2800000FDCD005F140036B4413F9103C002B78
:102A3800D5DAF1E705F140036B4413F8103C58F878
:102A48002370002248F823203846FEF78FFB461CE7
:102A5800CFE7A4EB080011B0BDE8F08F6FF00D00D0
:102A6800F9E76FF01B00F6E76FF01B00F3E76FF074
:102A78001500F0E76FF01500EDE76FF01500EAE7D5
:102A88006FF01500E7E76FF01B00E4E76FF01B003D
:102A9800E1E700BF8C380200E08202002DE9F04F28
:102AA80097B000AF8346BA61FB60D7F88030C3F3B4
:102AB800C0033B62396111B914F089F938619BF898
:102AC8000260B14636B1D7F8803013F0010F0DD14E
:102AD800002300E000239BF803207A6242B1D7F874
:102AE800802012F0020F22D1002202E00123F2E737
:102AF800002202B9EBB19BF80050AA00BA60DBF8DB
:102B080004207A610BEB8505BA69F2B1002B40F01D
:102B18000481B9F1000F00F00F81D7F8803013F06D
:102B2800040F40F00D810020F8610646F9E001220B
:102B3800DFE7BB691BB1FA683969584698473C69B1
:102B480020465C37BD46BDE8F08F3C69E3B94D448B
:102B580000233B6123E00444013501364E451AD277
:102B68002A7800235BF822201946B86914F044F942
:102B7800BAF1000FEFD0D7F888309845EBD22AF891
:102B8800180008F10108E6E70026C7F81C80B046DF
:102B9800D7F884A0E2E7C7F81080D7F81C80D7F8E8
:102BA800803003F00503FB604FF0000AA146C7F828
:102BB8001CB09CE000253B6A7BB9002D79D0D7F882
:102BC800803013F0010F79D1FB68002B6FD10223FD
:102BD800A9EB030988E00125EDE75946786914F067
:102BE80051F90028E9D06C46002387F82C300223DD
:102BF80087F82D308AB0694611F1100237D01225B6
:102C08001AB1042D01DDB14B4B61002387F8283040
:102C1800022387F829306ABB112D45DD122362B1E2
:102C2800042087F82C00002087F82D0087F82E0054
:102C3800012087F82F00F86A08616FF300086FF326
:102C480041086FF382086FF3C508022161F3881801
:102C5800C3F30A0363F353286FF31F580023414655
:102C68009B4800F057FDA546A9F102093CE06FF02A
:102C78000045C5E72B46082D01DD786988610C2BD6
:102C880001DDC1F81CB001F12003002009E000F1CA
:102C9800300C07F1280EF4441CF830CC03F801CBB3
:102CA80001300128F3D9B7E76FF01B03B7E7012319
:102CB8008EE7D7F8803013F0020F15D00023224694
:102CC8001946B86914F098F8D7F8843053B13B69BD
:102CD800D7F88820934205D2D7F8842022F8130029
:102CE80001333B61013881440AF1010A35467B6AA8
:102CF8009A4510D22E4616F802BB6B78FA6952F83C
:102D08002340744B9C42FFF455AF734B9C42FFF435
:102D180062AF00254FE74C4612E707F14400002355
:102D2800FB6118B14A4629461EF0ACFA4D444FF0F3
:102D38000008C7F804901EE00020F8610646F0E796
:102D4800FE6107F134000026EBE700253B6A33BB40
:102D5800002D3BD0D7F8803013F0010F26D0731C1C
:102D680006F1300207F12801561806F8149CDEB265
:102D780008F1010825467B6A984549D22C4614F883
:102D880002AB95F801905BF82930524A9342DCD3A4
:102D9800514A934201D30025D8E70125D6E7514689
:102DA800786914F06FF80028D2D0E1E7D7F88030BE
:102DB80013F0040FDCD0FA69531C303207F12801F4
:102DC8000A4402F8249CDBB2FB61D1E7D7F88030D3
:102DD80013F0020F09D0731C06F1300207F1280125
:102DE800561806F8149CDEB2C2E7F9694B1C01F1CB
:102DF800300207F12800024402F824AC8A1CD2B23F
:102E0800FA6107F1580252FA83F303F8249CAFE7FA
:102E1800D7F804909BF8003087F854309BF80130BD
:102E2800334487F85530D7F8803013F0020F0ED1AD
:102E3800FB69C3F3470387F85730D7F8803013F09E
:102E4800010F06D113F0040F3AD1002302E000234A
:102E5800F1E7002387F85630DBF800003863786D17
:102E6800CBF80000D7F80CA05246B9685846BB69A1
:102E78009847041EFFF664AE386BCBF80000524644
:102E8800F96907F13400BB69984700285DDB04EB5A
:102E98000008B9684944786A01EB4001524638692C
:102EA800411A2846BB699847041EFFF649AE08EB4D
:102EB80004054FF00008C7F824B0B346BC6922E007
:102EC800FB69C7E74FF000090AE000BFB8470200F6
:102ED8007C3C02008C380200E08202004FF00009BE
:102EE8005246012107F12C00A04700282FDB05449A
:102EF8004B4632465146204613F07EFF002828DB19
:102F0800054408F10108D84518D208F1300307F143
:102F18002802134413F8143C87F82C307A6A52F8C4
:102F28002360D7F88430002BCCD0D7F88830984568
:102F3800D4D2D7F8843033F81890D1E7FA68002152
:102F48000846BB6998472C46FAE50446F8E5044666
:102F5800F6E50446F4E500BF014B1860704700BF72
:102F68000000002080B505460E461746984606F034
:102F7800C7F803461EF0C0FD0446DFF8189049F86C
:102F88000030424639463046A84754F8090001F057
:102F98001FFD00BF080000002DE9F04383B0044680
:102FA80008461546A38B13F0080F05D103F0070652
:102FB80000230093019354E0012909D043F0200332
:102FC800A38385F31188BFF36F8F03B0BDE8F08347
:102FD80043F01003A383F4E7204614F0B7FA42E065
:102FE800D4F818904A466946204614F0C8FA4FF0BB
:102FF8000008A38B03F00707B74269D0A268002A2C
:1030080066D0012243F00803A38385F31188BFF338
:103018006F8F002A64D1009B2BB14B463A46694614
:10302800204614F025FBB8F1000F02D034492046A1
:10303800C047EFF31185202383F31288BFF36F8F06
:10304800A38B23F00803A383A38B13F0100F4DD099
:1030580023F01003A3830120A68B06F0070600289F
:10306800AFD00228B8D00028ABD0013804282BD81C
:1030780001A353F820F000BFE92F0000D130000071
:1030880095300000A9300000BD3000002369D3F856
:1030980000800621204614F02FFA4FF00009A8E717
:1030A8002369D3F804800421204614F025FA4FF050
:1030B80000099EE72369D3F808800521204614F00B
:1030C8001BFA4FF0000994E74FF00008C14690E75B
:1030D800009A0AB1002295E7B8F1000F92D1B3E740
:1030E8004A463946204614F00FFA94E713F0200FA9
:1030F80004D023F02003A3830220ADE70020ABE730
:10310800A776010038B505460B4C00E010340B4B90
:103118009C420FD263685B79002BF7D02946204682
:1031280014F087FB0028F1D023681B682946204645
:103138009847EBE738BD00BFD43C0200E43C0200EE
:1031480070B506460D46084C04E02A46314620462E
:1031580098471034054B9C4204D223689B69002B86
:10316800F3D1F6E770BD00BFD43C0200E43C020096
:103178002DE9F041074605460AE007EA0807144B1F
:1031880003EB06135B6804221968204614F09BFBC6
:10319800D5B195FAA5F6B6FA86F60D4C04EB0614E9
:1031A8000123B3406FEA030825EA0305237B002BBC
:1031B800EED03301064AD3581B69002BDDD02046D8
:1031C80098470028E4D1D8E73846BDE8F08100BF29
:1031D800D43C02002DE9F04180460F461D4BD3E850
:1031E800EF5F6A1CC3E8E12F0029F8D16DBB1A4CC8
:1031F800002607E0636804221968204614F063FB80
:1032080001361034154B9C4211D2237B002BF7D08A
:10321800204614F002FB23681B69002BEAD02046E5
:1032280098470028E6D00123B3401D43E8E7B8F1EA
:10323800000F0BD055B12846FFF79AFF0546002F1F
:10324800F8D00A2014F0FBFAF4E700252846BDE878
:10325800F08100BFE00B0020D43C0200E43C0200F7
:1032680008B5064B186018B1054B1B68092B00DC24
:1032780008BD044805F0A6FAFAE700BFD40B002001
:10328800DC0B00200802002008B5024805F09AFA75
:1032980008BD00BF0802002030B589B000220F49E0
:1032A8000F4816F0A9FE0F4D00220023CDE9062392
:1032B800002404940E2303930294019400940A4B6F
:1032C8004FF440720949284616F0B8FC08492846C8
:1032D80005F0F2FA204609B030BD00BF9132000077
:1032E800180700201802002045360000901F002013
:1032F80070480200014B53F8200070478C480200C8
:1033080048B108B5054A1060054B1960084600F039
:10331800F5FC002008BD6FF0150070470400002080
:10332800D00B002008B5054B1B781BB1034B0122BD
:103338001A7008BD024805F045FAF7E75D1F00203E
:103348000802002008B50C4BD3E8EF1F0131C3E891
:10335800E21F002AF8D130B9084816F059FE08488B
:1033680005F030FA08BD074BD3E8EF1F0139C3E871
:10337800E21F002AF0D0F7E7D80B0020180700203A
:1033880008020020DC0B0020044B00200146D3E893
:10339800EF0FC3E8E21F002AF9D17047D80B0020CD
:1033A80038B5FFF7F1FF0546094C00E01034094B2A
:1033B8009C420BD263685B79002BF7D023685B686B
:1033C800002BF3D0294620469847EFE738BD00BFC9
:1033D800D43C0200E43C0200034B18680028D4BF28
:1033E80000200120704700BFD80B002010B5044C06
:1033F8000449204613F0DBFE034B1C6010BD00BFE0
:103408006401002078480200CC0B002008B5002396
:103418000C4A13700C4A13600C4A13604FF40041B5
:103428000B48FFF76DFFFFF7E1FF0A4A06E0094B7B
:10343800D31A1B11013351680B711032064B9A4293
:10344800F5D308BD5E1F0020D80B0020DC0B002040
:103458003F780100D43C0200E43C020008B5014674
:10346800014814F002FA08BD6401002008B50248BA
:1034780013F080FF08BD00BF6401002008B50146B5
:10348800024B186814F0F7F908BD00BFCC0B0020F8
:1034980008B5024814F0F3F908BD00BF6401002024
:1034A80010B582B000220023CDE90023264B1878FE
:1034B80008B902B010BD684614F0F9F9044660B1C5
:1034C800FFF720FE2046FFF7D9FF204BD3E8EF1F78
:1034D8000139C3E8E21F002AF8D1FFF77DFF58B988
:1034E8001B4A1368516813F57A7341F100011360A0
:1034F8005160FFF7CDFFDCE716F06FFD4A0142EAA5
:10350800D06243011B1A62EB0102920042EA9372F5
:103518009B001B1842EB0102D20042EA5372C3F32C
:10352800103343EA4243D20B0948016840685B1AEA
:1035380062EB000240F2E9318B4272F10002CFD314
:10354800FFF72EFFCCE700BF5D1F0020DC0B00203B
:10355800100700200F4B1B7803B1704710B50021EE
:103568000120FFF737FE0C4C00E010340B4B9C4257
:1035780008D263685B79002BF7D023689B682046E4
:103588009847F2E7FFF78CFF0028FBD1014B012297
:103598001A7010BD5E1F0020D43C0200E43C0200FB
:1035A80010B582B0184BD3E8EF2F511CC3E8E01FC9
:1035B8000028F8D1154B1B7863B9154B1B68B3B1BC
:1035C800BAB1092A13D1134816F022FD124805F0A2
:1035D800F9F80CE0EFF31184202383F31288BFF38A
:1035E8006F8FFFF75DFF84F31188BFF36F8F02B011
:1035F80010BD00220023CDE900234FF40042002330
:10360800044806F0C9F8F2E7DC0B00205E1F002032
:10361800D40B0020180700200802002010B504462B
:10362800044B1B689847A0602146034814F043F9EF
:1036380010BD00BF04000020640100202DE9F04106
:1036480000210846FFF7C6FD804650B140F2676684
:1036580000271EF051FA154B1858FFF701FE0025F8
:1036680015E04FF0FF364FF0FF37F2E74046FFF71F
:103678007FFD804670B94FF0FF364FF0FF3709E005
:103688002C4632463B460A4805F0E0F82546B8F194
:10369800000FEBD1FFF704FF04460028F6D1002DF8
:1036A800EED000210846FFF74BFDEAE708000000CE
:1036B800080200200248034BC01AC008704700BF28
:1036C800D43C02005C3C020010B50C46FFF7F2FF48
:1036D800A04203D9024B53F8340010BD0020FCE788
:1036E8005C3C020000B589B005920693002307935D
:1036F80062B1074A0C9B02930B9B01930A9B0093B0
:1037080005ABFFF7CBF909B05DF804FB0022F1E740
:10371800E57801002DE9F04F8BB004AF05461E4651
:103728008846C1F34A24002C00F089809146002283
:10373800FA603A617A6104230293FB1801930A2321
:10374800009307F10C0321464846FFF7A7F9B0F5A7
:10375800006F58D3D9F804106D4600233B73022339
:103768007B738AB004AC14F1100217D012201AB17E
:10377800042801DD3B4B636100233B7002237B700F
:10378800CAB10346082800DDA1610C2B02DD40F216
:10379800FF73E36104F1200300210AE06FF00040A9
:1037A800E5E701F118063E4416F8186C03F8016BBA
:1037B80001310129F5D9112822DD122342B1042152
:1037C800397300217973B9730121F973F86820619D
:1037D80000216FF300016FF341016FF382016FF372
:1037E800C501022060F38811C3F30A0363F3532170
:1037F8000023C1F313011C4814F0F0F8AD462DE086
:103808006FF01B03DAE760F35328C0F30A0A0AEBE8
:103818001850173020F007008008FFF71FFE834676
:10382800B0B104230293FB1801930A230093534673
:1038380000F1100221464846FFF754FF08E004EB68
:103848001154173424F00704A008FFF707FE834635
:10385800334642462946584614F056F81C37BD46AA
:10386800BDE8F08FAC4802009C3C02002DE9F04F07
:1038780085B080460D4617461E46DDF838B0DDF89F
:103888004090B9F1000F41D0119B039300934B4630
:103898000F9A10210020FEF7A7FEB0F5006F2DD279
:1038A80082460BEB0003173323F0070300246FF362
:1038B80000046FF341046FF3820468F3C50467F3EF
:1038C800881460F353246BF31F549808FFF7C6FD60
:1038D800074650B11030B9F1000F06D0119B009384
:1038E8004B460F9A5146FEF77FFE3346224629463D
:1038F800384614F009F805B0BDE8F08F40F2FF73C0
:10390800034A0221034814F051F8F4E70020C7E7FE
:10391800EC4802009C3C0200406820B1034BC01AEE
:1039280040F3CF0070474FF0FF3070475C3C020017
:103938000EB400B582B0014603AB53F8042B0193D3
:10394800034801F0ABFB02B05DF804EB03B070472D
:103958001B7A010010B584B011F0440F05D01A4B42
:103968001B6833B9002004B010BD1849FFF7E0FF09
:10397800F9E717490968B2FBF1F2B2FBF3FC03FB64
:103988001C224FF47A7E0EFB02F2B2FBF3F403FB27
:1039980014210EFB01F1B1FBF3F10E4AA2FB0C322C
:1039A800D20A4FF4616303FB12CC0B4BA3FB0CE36D
:1039B8005B0902910194C3EB0311ACEB8101009107
:1039C8000649FFF7B5FFCEE7E80B002024490200BF
:1039D800E40B0020C5B3A291898888883049020089
:1039E80061B108B52AB1064A52F8232012B9054A2E
:1039F80000E0044A0449FFF79BFF08BD704700BF79
:103A0800D04902004C490200544902002DE9F04116
:103A180005461746069EDDF81C8081B900242EB1A4
:103A2800324611492846FFF783FF0444B8F1000FD6
:103A380014D06FB1099B042B13D00C4909E00C4B2F
:103A4800099A53F822200B49FFF772FF0446E6E76C
:103A5800064942462846FFF76BFF04442046BDE866
:103A6800F0810549F5E700BF6C4902005C49020096
:103A7800E449020064490200584902002DE9F04F68
:103A880087B005460C46049205939DF84C7001F0EA
:103A9800020B01F0010AC1F3C00801F4807913F0A8
:103AA80010FF18B3024616492846FFF741FF06469D
:103AB800BBF1000F1CD13A465146284613F0D0FFFF
:103AC800B9F1000F01D0002311930397129B0293C1
:103AD800119B0193109B00930023049A41462846AA
:103AE800FFF794FF304407B0BDE8F08F0026DFE70A
:103AF800059A21462846FFF72DFF0644DBE700BF5D
:103B08007049020011F0100F0BD108B511F0200F09
:103B180003D00449FFF70CFF08BD0349FFF708FF6E
:103B2800FAE77047B04A0200645502002DE9F041F7
:103B380005460F46164698460699FFF7E3FF002408
:103B4800444505DA24492846FFF7F2FE0134F7E731
:103B5800002409E020492846FFF7EAFE0BE01F4948
:103B68002846FFF7E5FE01340F2C0CDC002C02DDA3
:103B780014F0070FEED0B442F1D23A5D1849284646
:103B8800FFF7D6FEEFE717492846FFF7D1FE0024D6
:103B980009E011492846FFF7CBFE0BE012492846F9
:103BA800FFF7C6FE01340F2C13DC002C02DD14F0E5
:103BB800070FEED0B44207D23A5D0C4B9B5C13F072
:103BC800970FEBD12E22E9E703492846FFF7B0FE0D
:103BD800E8E7BDE8F08100BF684902007C490200BF
:103BE8007449020080490200844902006278020098
:103BF8002DE9F04184B004469DF82C500C9F0E9E90
:103C080095B9012B1ED019484FF0000827B13B4643
:103C18002246174913F006F9C6B905BB204613F02A
:103C2800E1FE04B0BDE8F08103950A980290019383
:103C380000920B4600220F992046FFF71FFF80468F
:103C48000C48E3E70B484FF00008DFE70F9B0093B1
:103C5800434632460D99204613F01AFFDDE72A46FF
:103C68000F99204613F008FFD8E700BF4B7A0100F0
:103C7800A55000001B7A01002DE9F04383B00646E9
:103C8800056842F20F738B4228BF0B46184A05217C
:103C9800684610F0F9F804467368D3F804900B27C7
:103CA800DFF8548005E04A4639464046A8473F1A9F
:103CB8008044002FF7D17368D3F804806F4605E07D
:103CC800424621463846A847241A0744002CF7D113
:103CD80073685F681B24074E05E03A462146304664
:103CE800A847241A0644002CF7D103B0BDE8F08396
:103CF8003C4C020088490200A4490200074B0122FB
:103D08001A6004E04008054A13685B001360044B1E
:103D18009842F7D8034B1860704700BFE40B0020A7
:103D280040420F00E80B002070B506460D460024FF
:103D380005E0315D04488368DB6998470134AC428B
:103D4800F7D3284670BD00BF54390200014B036009
:103D5800002070474C4A020008B5034813F0BFF82A
:103D6800024813F0BCF808BD4C4A0200844A02001D
:103D780008B5024805F0A0FD08BD00BFB44A02001E
:103D8800B0F5680F17D00CD840F6BA63984214D033
:103D9800B0F5683F13D03A2801D0012070470020C1
:103DA8007047094B98420CD0084B984201D001202B
:103DB800704700207047002070470020704700209F
:103DC80070470020704700BF3A00003A2C5F5CA99A
:103DD80028B308B54368B3F5683F0AD0B3F5680F50
:103DE80014D012498B421FD0006804F095FC0020C3
:103DF80014E003680022D3E8EF1F012903D1C3E8C8
:103E0800E02F0028F7D10DD1104607E003681B7892
:103E180003F580730020064A42F8230008BD6FF4BA
:103E2800E04070470348F9E70348F7E72C5F5CA9CF
:103E380000000350E98FFFFFEA8FFFFF88B308B542
:103E48004368B3F5683F0FD0B3F5680F19D016492A
:103E58008B4224D000684FF0FF324FF0FF3304F05C
:103E6800DBFB68B111480BE003680122D3E8EF1FC0
:103E7800002903D1C3E8E02F0028F7D10BD1002097
:103E880008BD03681B7803F58073094A52F823308C
:103E98001BB90020F4E70548F2E70448F0E70548B5
:103EA800EEE76FF4E04070472C5F5CA9E98FFFFFF5
:103EB80000000350EA8FFFFF10B50446A8B16368FD
:103EC800B3F5683F10D0B3F5680F0DD00D4A934293
:103ED8000AD013F4686F0DD021680B4815F0EEFD79
:103EE80000232360074B636010BD084B5B680848DC
:103EF8009847E4E7236800221A605A609A60DA60FB
:103F08001A61EFE72C5F5CA91411002090000020D3
:103F1800BC4A020010B5044668B36068B0F5683F53
:103F280028D0B0F5680F25D0174B984228D0FFF756
:103F380027FFC0B14FF0FF324FF0FF33214613483F
:103F480004F038FB08B923681BB9114B5B681148AA
:103F58009847236800221A605A609A60DA601A61EA
:103F68004FF468636360206815F029FE636843F0C6
:103F78003A03636010BD064B5B6807489847CCE777
:103F88002368002BD3D1D5E72C5F5CA9141100203E
:103F980090000020E44A0200BC4A020008B5402311
:103FA80014220449044815F07AFD0449044805F030
:103FB800F5FC08BD140C002014110020144B02005D
:103FC800284B02002DE9F04F87B000AF8146D0F8AA
:103FD80000E0D0F804C085686E468AB06B4613F1DD
:103FE800100200F0878014218AB10846042903DDF5
:103FF800DFF83C82C3F81480082801DDC3F818E014
:104008000C2801DDC3F81CC0102800DD1D6213292F
:1040180073DD14253AB10521397500217975B97513
:10402800F9757869186100216FF300016FF3410198
:104038006FF382016FF3C501012363F38811C5F3A0
:104048000A0565F353216FF31F5100237348FFF7E7
:1040580061FBB546D9F80CE0D9F810C0D9F814506E
:104068006E468AB06B4613F1100249D014218AB10A
:104078000846042903DDDFF8BC81C3F8148008284A
:1040880001DDC3F818E00C2801DDC3F81CC01028B6
:1040980000DD1D62132936DD14253AB10521397575
:1040A80000217975B975F9757869186100216FF380
:1040B80000016FF341016FF382016FF3C5014FF007
:1040C800010868F38811C5F30A0565F353216FF3F6
:1040D8001F51524D00232846FFF71CFBB546D9F85F
:1040E8001C304F4A4146284613F060FC4FF0000B45
:1040F8005D4633E06FF0004176E76FF01B0589E716
:104108006FF00041B3E76FF01B05C6E76FF00040A2
:1041180046E027286BDD28213AB10A2038750020AF
:104128007875B875F875786918616FF300046FF3DE
:1041380041046FF382046FF3C504012363F3881409
:10414800C1F30A0161F353246FF31F54002321467E
:104158003248FFF7DFFAD7F80CD004350F2D49D8CD
:1041680005F1080359F823A005F1010805F1090331
:1041780059F82330BB6005F1020C05F10A0359F820
:1041880023307B6005F1030E05F10B0359F823B0CA
:10419800C7F80CD08EB06B4613F11002B6D02820A9
:1041A800002AB6D00146042801DD1E4E5E610829AA
:1041B80000DD9D610C2901DDC3F81CA0102901DD7B
:1041C800C3F82080142901DDBE685E62182901DD6C
:1041D800C3F828C01C2901DD7E68DE62202901DDC4
:1041E800C3F830E0242994DDC3F834B091E76FF0C8
:1041F8001B0191E7D9F86030084C0B4A0121204691
:1042080013F0D4FBD9F81830084A0121204613F0DE
:10421800CDFB1C37BD46BDE8F08F00BFBC3C02009B
:10422800984B0200A84B0200EC4B0200FC4B02002A
:10423800384B0200684B020038B504460D4611B1F0
:104248000846FFF7BFFE012C04D02946204603F09C
:1042580039FF38BDEFF30583103B034A01210348BA
:1042680013F0A4FBF1E700BF2C4C0200BC3C020099
:1042780030BFFFF7FDBF00BF38B50446054D2A46DD
:1042880005491CF0FFFF054A002160191DF021F8BF
:1042980038BD00BF00000000283D020008000000F3
:1042A80070B50646064D074B1D444C1B2046FFF7CC
:1042B800E3FF083CC6F8A44005F1080070BD00BF44
:1042C8000000000008000000054B9A699B689A42AC
:1042D80004D0044A536843F080535360704700BFCA
:1042E8009013002000ED00E081690D4B5A6942F4FB
:1042F80080725A61BFF34F8FBFF36F8F31F8021C82
:104308005A6922F480725A61BFF34F8FBFF36F8FDF
:104318004DF60273994201D0002070470120704782
:1043280000ED00E04FF0000C83F800C002F07F4C75
:10433800BCF17F4F14D102F00C0CBCF1080F04D073
:1043480012F0080F09D00846704708B5054A012140
:10435800054813F021FB002008BD01221A707047A0
:1043680000207047404C0200BC3C020008B5314AAE
:104378000121314813F010FB304B9B6A13F0007F8A
:1043880026D11D202D4B9B6A13F0807F27D12B4B04
:104398009B6A13F4801F29D1284B9B6A13F4002FC2
:1043A8002BD1264B9B6A13F4802F2DD1234B9B6A6C
:1043B80013F4003F2FD1214B9B6A13F4803F31D176
:1043C8001E4A936A6FEA03436FEA1343936208BD78
:1043D8001B4A0121184813F0DFFA1E20D2E7194AB8
:1043E8000121154813F0D8FA1F20D0E7164A0121F9
:1043F800114813F0D1FA0220CEE7144A01210E48E1
:1044080013F0CAFA2120CCE7114A01210A4813F017
:10441800C3FA2220CAE70F4A0121074813F0BCFA61
:104428002320C8E70C4A0121034813F0B5FA2420D9
:10443800C6E700BF6C4C0200BC3C020000ED00E087
:10444800844C0200984C0200B44C0200E04C02007C
:10445800004D0200284D0200444D020008B500231B
:104468000B70034A0121034813F096FA08BD00BFF8
:10447800704D0200BC3C020090B583B000AF0F291C
:1044880023DC2F4C103900233B7102237B718AB047
:10449800EC461CF110021AD0122022B1042802DDC9
:1044A800284BCCF8143000233B7002237B70E2B118
:1044B8000346082801DDCCF818400C2B01DDCCF8A8
:1044C8001C100CF1200300210DE01F4CDAE76FF0FF
:1044D8000040E2E701F1080404EB070E1EF808ECBF
:1044E80003F801EB01310129F4D9112824DD122345
:1044F8004AB10421397100217971B9710121F97129
:104508007868CCF8100000216FF300016FF34101C7
:104518006FF382016FF3C501012060F38811C3F3C3
:104528000A0363F353216FF31F5100230748FFF772
:10453800F1F80C37BD4690BD6FF01B03D8E700BFFC
:10454800944D0200C84D0200AC4D0200BC3C020074
:10455800F8B505460F461446394A0121394813F083
:104568001BFA394B9B6A13F0100F31D11026364BCA
:104578009B6A13F0080F32D1334B9B6A13F0020F7A
:1045880034D1314B9B6A13F0010F4BD12E4B9B6AF0
:1045980013F0200F4DD12C4B9B6A13F0100F01D153
:1045A800294B9B6A284B9B6A13F0200F04D0264A9C
:1045B800536A23F400535362234A936A43F0FF0378
:1045C80093620121284613F007FB20703046F8BD9E
:1045D8001E4A01211B4813F0DFF91126C7E71C4AC0
:1045E8000121184813F0D8F91226C5E7194A012104
:1045F800144813F0D1F9144A536B926A12F0800FE1
:1046080001D11326BDE7144A01210E4813F0CEF953
:1046180037B10D4A936A23F0800393621326B0E7FB
:104628001326AEE70D4A0121064813F0B5F9142602
:10463800ACE70B4A0121034813F0AEF91526AAE7A7
:10464800DC4D0200BC3C020000ED00E0F44D02002D
:10465800284E02003C4E0200544E02006C4E0200EE
:104668008C4E0200F8B505460F461446374A01211C
:10467800374813F091F9374B9B6A13F4805F25D1C3
:104688001626344B9B6A13F4006F26D1314B9B6A74
:1046980013F4007F28D12F4B9B6A13F4806F3FD10E
:1046A8002C4B9B6A13F4807F41D12A4B9B6A13F4ED
:1046B800005F43D1274A936A43F47F439362012101
:1046C800284613F089FA20703046F8BD224A0121A5
:1046D8001F4813F061F91726D3E7204A01211C4827
:1046E80013F05AF91826D1E71D4A0121184813F08A
:1046F80053F9184A936B926A12F4004F01D11926A4
:10470800C9E7184A0121124813F050F937B1114A84
:10471800936A23F4004393621926BCE71926BAE783
:10472800114A01210A4813F037F91A26B8E70F4A47
:104738000121074813F030F91B26BBE70C4A012179
:10474800034813F029F91C26B4E700BFBC4E020049
:10475800BC3C020000ED00E0D44E0200284E0200EE
:10476800E84E0200044F02001C4F0200384F0200BE
:104778008C4E020070B506460D462B4A01212B4887
:1047880013F00AF900232B70294BDC6A14F0020499
:104798000AD1274BDB6A002B0DDB254BDC6A14F0B2
:1047A80080440ED1204670BD224A01211F4813F0D3
:1047B800F3F80024F6E7204A01211C4813F0ECF82E
:1047C800F0E71E4A0121194813F0E6F83046FFF7D2
:1047D8008BFD98B9164B9B6A13F0FF0F16D1144B3B
:1047E8009C6A14F47F4418D1114B9B6AB3F5803F3F
:1047F800D8D33046FFF7BAFD0446D3E73368104AEA
:1048080001210A4813F0D2F83468CBE72A4601217F
:104818003046FFF79DFE0446C4E72A46012130468C
:10482800FFF720FF0446BDE7504F0200BC3C0200E2
:1048380000ED00E0684F02008C4F02009C4F020020
:10484800BC4F020030B59DB01A4B5C68C4F3080435
:10485800002383F31188BFF36F8F0DF16E03FFF709
:1048680061FD05460DF16F02214613F0B7F99DF879
:104878006F300BB11DB030BD04466822294601A82F
:104888001CF000FD9DF86E304BB1089BC3F3080285
:104898005AB96FEA53236FEA4323089305E0089B4C
:1048A80023F4FF7323F00103089301A92046FFF7BF
:1048B800C3FCDFE700ED00E0064B5A6942F0100246
:1048C8005A615A6942F480625A615A6922F00802B0
:1048D8005A61704700ED00E0EFF30880EFF30981BB
:1048E80001B57246FFF7AEFF01BD00BF002080F39F
:1048F8001488BFF36F8F002080F30A8880F30B8839
:10490800104880F3088800200F49087002F05AF90F
:1049180000200E490860BFF34F8F00F02FF82020C9
:1049280080F311880A484FF40061401880F3098821
:10493800EFF314800221084380F31488BFF36F8FCC
:1049480013F087F9D02F0020651F002094ED00E0B8
:1049580090220020084BD3F89000C0F307200023D2
:1049680006E0054AC2F898300021C2F8A0100133C9
:104978008342F6DB704700BF00ED00E010B572B669
:10498800002484F31388FFF7E5FF234608E003F1CA
:1049980020010E4A4FF0FF3042F821000133DBB20C
:1049A8000F2BF4D9002308E003F16001074A4FF008
:1049B800FF3042F821000133DBB20F2BF4D962B685
:1049C800BFF34F8FBFF36F8F10BD00BF00E100E052
:1049D80008B50A4B9B68834202D004F097FB08BDD8
:1049E800EFF30583002BF8D0054B5A6842F080524C
:1049F8005A605A6A22F400425A62EEE79013002085
:104A080000ED00E025498A6882F8F1E04FF03000B7
:104A18001044EFF3098C80E8F01F1EF0100F03D14B
:104A280002F1B00080EC108A202080F31288BFF3D6
:104A38006F8F1B4F4FF000668A698A603E60D2F81C
:104A4800A400184C206092F9F1E0D2F8A8000023E5
:104A5800C2F8A83080F311881EF0100F03D000238D
:104A6800E1EE103A03E002F1B00090EC108AEFF3A7
:104A7800148323F0040383F31488BFF36F8F02F1C8
:104A8800300090E8F01F8CF3098802F1000004B5AB
:104A980013F0FAF8BDE804407047000090130020B6
:104AA80004ED00E0341100201EF0040F0CBFEFF3FA
:104AB8000880EFF30980816911F8021C0229FFD0F0
:104AC80001B5724613F075F801BD00BF002807DB79
:104AD80000F01F02400901239340024A42F82030A7
:104AE800704700BF00E100E000280CDB00F01F0267
:104AF8004009012393402030034A42F82030BFF395
:104B08004F8FBFF36F8F704700E100E0002808DB8C
:104B18004901C9B200F1604000F5614080F8001316
:104B2800704700F00F004901C9B2014B1954704792
:104B380014ED00E04209054B53F8222000F01F0055
:104B4800012303FA00F01040704700BF00E100E0C5
:104B58000C4BD3F8882022F47002C3F88820D3F8CD
:104B6800882042F4A002C3F8882003F500734FF0B0
:104B780040425A63BFF34F8FBFF36F8F0023E1EEBC
:104B8800103A704700ED00E0044B23F07F03044A1D
:104B98009360BFF34F8FBFF36F8F70470000000023
:104BA80000ED00E010B4A2F12004114942F8081CFD
:104BB80021F0010142F8081C42F8203C019B42F810
:104BC8001C3C029B42F8183C039B42F8143C4FF0F3
:104BD800807342F8043C04650023C0F8A830C0F88C
:104BE800F030FD2380F8F1305DF8044B704700BFCA
:104BF8006D2F0000124B9B6883421BD1EFF3058396
:104C0800DBB9EFF31182202383F31288BFF36F8F90
:104C1800037B23F002030373EFF3148323F00403ED
:104C280083F31488BFF36F8F82F31188BFF36F8FFC
:104C3800002070476FF0150070476FF0150070473F
:104C48009013002008B504460E46154613F00EF8DA
:104C58000A4B9C60D4F8A420094B1A60D4F894300D
:104C680083F30B882C4686F309880020054B984768
:104C78002046002100220023034C204790130020E7
:104C8800341100209B7C01006D2F0000014B102285
:104C98001A61704700ED00E0002207E003F160436D
:104CA80003F56143202183F800130132442A09DC0B
:104CB80053B2002BF2DA03F00F03034919442023FF
:104CC8000B76F2E7704700BFFCEC00E008B5EFF3A5
:104CD8000583103B044A02EBC301496852F83300CC
:104CE8008847FFF7F1FA08BD9439020010B584B07F
:104CF8000A4C23460A4A01210A4813F0DCF800232B
:104D0800019302930393084B0193E41A029401213F
:104D180001A813F0D4F804B010BD00BF00000720AC
:104D280000000020D84F020018020020024B034A5E
:104D3800C3F8C020704700BF00ED00E0AAFF4400A0
:104D4800034BC3F89800C3F89C10C3F8A020704721
:104D580000ED00E00E4BC3F89800C3F89800D3F8B4
:104D68009C000A7A60F304020A72D3F8A020C2F306
:104D78004202087A62F347100872D3F89C2022F0A6
:104D88001F020A60D3F8A03023F01F03CB607047DE
:104D980000ED00E070B505460E46002400E0013441
:104DA800A6421EDD04EB44039A0005EB8303596811
:104DB8000029F4D0A85812F0D8FF04EB84030B4A5A
:104DC80042F8230010F1160F0CD0094B1B789842BB
:104DD80009DA04EB840302EB83010431FFF7BAFF1D
:104DE800DDE7002070BD6FF01500FBE738110020EB
:104DF8005F1F002010B504460A4BD3F89030C3F368
:104E08000723013B984203D812F089FF204610BDC2
:104E18000346054A0121054812F0C8FD6FF0150048
:104E2800F5E700BF00ED00E0E84F0200B43C0200E7
:104E38002DE9F04F87B08146009101931446002672
:104E480048E03346614A0121614812F0AFFD6FF036
:104E5800150407E03B465F4A01215D4812F0A6FDB4
:104E68006FF01504204607B0BDE8F08FD84564D12F
:104E78002946C0B212F08AFF2BE0574AC2F8987050
:104E8800D2F89C3003F01F0321F01F010B43C2F836
:104E98009C302946E0B212F079FF044610F1160F53
:104EA800E0D0013415E0013B4B49C1F89870D1F8C6
:104EB800A02002F01F0223F01F031343C1F8A03003
:104EC8002946E0B212F062FF044610F1160FC9D06D
:104ED80001340136009B9E42C4DA06EB46054FEAD0
:104EE800850A09EB85056F68002FF2D0019B23B175
:104EF800284612F028FF0028A3D0394659F80A009E
:104F080012F033FF074610F1160FA3D08442A1DD3B
:104F1800314BC3F89800D3F89C2022F01F02C3F845
:104F28009800D3F8A03043F01F0859F80A30696890
:104F3800194401F1FF3B934298D093429DD0D84544
:104F4800B1D0013B2449C1F89870D1F8A02002F0F3
:104F58001F0223F01F031343C1F8A0302946E0B213
:104F680012F014FF044610F1160F3FF47BAF013026
:104F7800194BC3F89870D3F89C109DF8102061F372
:104F880004028DF81020D3F8A030C3F34203D2B244
:104F980063F347128DF8102059F80A306A681344F1
:104FA800029323F01F03A8EB0B084344013B23F0B3
:104FB8001F03059302A9C0B2FFF71CFF044610F1B6
:104FC800160F3FF44FAF013483E700BF10500200C3
:104FD800B43C02003450020000ED00E010B5034C70
:104FE80001232278FFF724FF207010BD5F1F0020E7
:104FF800044B0522C3F89420BFF34F8FBFF36F8F84
:10500800704700BF00ED00E0BFF35F8F024B002246
:10501800C3F89420704700BF00ED00E038B51C4B82
:105028001D681C4BD3F89030C3F307239D422BD83F
:10503800FFF7EAFFFFF77AFE002407E0144B5968F0
:1050480001EB0411204612F06AFE0134A542F5D89E
:105058001148057012F0B9FE10F1160F13D00E4B5F
:105068001A780C4BD3F89030C3F307239A4207DA27
:10507800084BC3F898200021C3F8A0100132F0E7CC
:10508800FFF7B6FF002038BD4FF0FF30FBE700BF49
:105098005850020000ED00E05F1F002030B587B0D7
:1050A8000D4611460024009401940294039404943C
:1050B800059402228DF80220044A01920490059575
:1050C8001A4668460FF090FB07B030BDCF7E01004E
:1050D80008B5024B1B689847002008BD5C110020EA
:1050E800034B1860034A937843F0020393707047A8
:1050F8005C1100203000002008B5054811F0EFFED3
:10510800002383F31188BFF36F8F0423184602DF4F
:105118009850020008B54FF0FF324FF0FF330248B5
:1051280012F0E8FE08BD00BF4000002008B506499F
:1051380021F00701C1F1005202F5E022034811F005
:10514800BAFD002008BD00BFD72F00206011002045
:1051580038B50446FFF7DEFF22460821084811F05B
:105168001FFD054620B1074803F0D6FA284638BD8A
:10517800002CF8D01CF0C0FC034B0C221A50F2E7AC
:1051880060110020400000200C00000010B504460B
:10519800FFF7C0FF2146034811F0B2FC024803F0B4
:1051A800BBFA10BD601100204000002068B108B5AE
:1051B800064A074B1B680749A1FB03139B0C00FB1E
:1051C80003F042F00103984708BD7047503D0200C4
:1051D8006400002083DE1B4338B51A4B1B7801336B
:1051E800194AA2FB031202F4FE7101EB92029C1A07
:1051F800E5B213F0B7FE154B1B782BB1144A52F8E1
:105208002530C01A07281AD94FF05023D3F8143183
:1052180063B14FF050230022C3F81421D3F814319E
:10522800084B1D7015B9094B01221A70054B1C78E3
:1052380013F098FE064B43F82400012038BD0020E7
:10524800FCE700BF611F0020CDCCCCCC601F002044
:105258006C11002000B583B00DF1070001F0D0FDFE
:10526800114B98421CD1114B4FF48062C3F8B825FA
:105278004FF40062C3F83C250D499DF8070013F070
:1052880035FF0C499DF8070013F02BFF9DF80730F8
:105298000120984001F0AEFD002003B05DF804FB4A
:1052A8006FF00B00F9E700BF0000AD0B00A0025043
:1052B8002CA0025028A1025008B50121104BC3F8B8
:1052C8000015104A0223C2F8D0360F48D0F8003231
:1052D80023F0E04343F04053C0F80032D0F80432E2
:1052E80023F0E04343F04053C0F80432C2F80417F7
:1052F800C2F80419C2F8001B00F032F808BD00BF5C
:1053080000100050004000500025845000F01F029B
:1053180040090CD001280CD10748803250F82230BF
:1053280023F0E04343EA017140F822107047034834
:10533800F3E70020F1E700BF0028845000258450DF
:1053480038B50546002405E02946044B185DFFF7EB
:10535800DDFF0134032CF7D938BD00BFA850020087
:1053680008B50249024812F0A8F908BDAC5002007D
:1053780080110020004870473C120020014BC01AE1
:1053880040117047B411002038B505460C46FFF7A8
:10539800F5FF01464022034812F0B4FE01462846B4
:1053A800A04738BDF438020030B583B005460C4636
:1053B800FFF7E4FF0146402300932346054A0648C9
:1053C80012F0BAFE011E01DB03B030BD2846A0472B
:1053D800FAE700BF89810100F438020008B50928FE
:1053E80017D8DFE800F0051C161616161616171241
:1053F80000210D4812F014FE836813F0070F08D13E
:105408000021094812F06CFE03E00221064812F060
:1054180067FE08BD0321044812F062FEF9E7012186
:10542800014812F05DFEF4E7F438020010B582B0CE
:10543800EFF31184202383F31288BFF36F8F154A8B
:10544800136843F00201116013F0010F09D1002322
:1054580084F31188BFF36F8FB3B912F099FE02B0CD
:1054680010BD0DF1070201214FF0502012F0A9FDE7
:105478009DF80730012B01D00023E9E7FFF77AFFF9
:1054880012F01CFE0123E3E70021034812F028FE76
:10549800E5E700BF64120020F438020010B5EFF30E
:1054A8001184202383F31288BFF36F8F074A136890
:1054B80023F00201116013F0010F04D084F3118866
:1054C800BFF36F8F10BD12F077FEF7E7641200206C
:1054D80070B582B00546012807D14FF05023D3F8A4
:1054E8001C3403F00303022B36D014F093FB04465C
:1054F80010B92B4B1B7873B9EFF31186202383F374
:105508001288BFF36F8F012494B94FF05023022201
:10551800C3F808230CE00026F6E7FCB1304612F089
:10552800D8FB4FF05023D3F81835DBB2012B19D034
:105538000DF1070200214FF0502012F042FD002823
:10554800EBD09DF80730022B01D0012DE5D104B333
:1055580086F31188BFF36F8F02B070BD012012F07F
:105568003FFEDEE74FF05023D3F80431002BDFD0A5
:105578004FF050230022C3F80421D3F8042102225B
:10558800C3F81825074A2021C2F8801101229A6021
:10559800CEE74FF050230222C3F80423DCE700BF14
:1055A800651F002000E100E000B585B0CDF800D00F
:1055B800CDF804D000230293012303936B46074AD6
:1055C80012F0D6FD002805DB4FF480420023684620
:1055D80003F03CF905B05DF804FB00BF158201003B
:1055E80070B5064600220121052012F026FB11485D
:1055F80001F00EFC104B984219D101F01BFC00245D
:10560800032C12D82146304612F00AFD05462146E1
:10561800304612F012FD094912F04FF8002805DB58
:105628000123AB601C44E4B2EAE7002070BD6FF0D0
:105638000400FBE7E55300000000AD0BB850020082
:1056480010B504460E4B0121D3E8EF2FC3E8E01F45
:105658000028F9D11AB1631E012B0DD910BD0948D4
:1056680012F0EBFC084900234B608B60CB600123F0
:105678008B6012F03EF8EEE72046FFF729FFEDE7D2
:10568800B0110020F4380200A011002010B5044623
:105698000A2806D0E1B206488368DB6998472046A5
:1056A80010BD03488368DB690D219847F2E700BF06
:1056B8005439020010B5044C2046FFF711FD20466E
:1056C800FDF74AFC10BD00BF9556000008B5054817
:1056D80014F091F918B1FFF7EDFF002008BD6FF045
:1056E8001200FBE754390200F0B51C46059F069EE0
:1056F80000F01F0C400936D0012836D1284D0CF196
:10570800800355F8233091B3012092B34FF0020E75
:1057180040EA0E0084B34FF00C0E40EA0E0077B357
:105728004FF4706E40EA0E0066B34FF4403E40EA14
:105738000E0023EA000041B30B7842B312785200FE
:10574800134334B322789200134327B33A781202F2
:10575800134316B332781204134303430CF1800C3D
:1057680045F82C30F0BD0F4DC9E70025C7E70020EC
:10577800CBE74FF0000ECBE74FF0000ECDE74FF030
:10578800000ECFE74FF0000ED1E70023D5E7002247
:10579800D6E70022D8E70022DAE70022DCE700BFDC
:1057A800002884500025845000F01F03400908D0C9
:1057B800012808D1054A803352F8230000F001007F
:1057C8007047034AF7E70022F5E700BF0028845036
:1057D8000025845028B1012801D1034870470020D2
:1057E80070470248704700BF14390200343902007C
:1057F8002DE9F04786B0884616469946446801F078
:105808001F05237B45EA4315204612F078FD002842
:1058180064D0B6F5001F35D00DF10C0A00270397A8
:1058280004974946304612F09FFD8DF80C0000970A
:1058380001970297CDF804A0A36823FA08F313F0A0
:10584800010F02D1B6F1A07F23D004F110060DF1AB
:1058580017022946304613F0C0FF234B984237D031
:1058680010346A462946204613F0ABFF1E4B984277
:1058780037D101222946204613F0C7FF002006B081
:10588800BDE8F087294604F1100013F0C2FF00209C
:10589800F5E72846FFF788FF0028D6D10DF1170253
:1058A800294604F1100013F098FF104B984203D0DA
:1058B8000DF117030493D3E70DF117024146204673
:1058C80012F08EFD084B9842F2D06FF00B00D6E72D
:1058D8009DF81710304613F090FFC1E76FF0850070
:1058E800CDE76FF01500CAE70000AD0B0400AD0B63
:1058F800F0B589B00F461446456801F01F062B7BAA
:1059080046EA4316104612F0FFFC8DF81E0040F2DE
:1059180006332340B3F5837F53D016D8062B4CD0DB
:1059280006D9B3F5807F0DD101238DF81D3024E011
:1059380003B3022B03D104238DF81D301DE06FF053
:10594800150038E06FF0150035E040F2022293426E
:105958003BD0B3F5407F03D103238DF81D300CE015
:10596800B3F5007F03D102238DF81D3005E06FF0F9
:10597800150020E000238DF81D3014F4002F28D0E6
:105988006A680123BB409360284612F0B8FC40B314
:1059980010350DF11F023146284613F01EFF074649
:1059A80014F4403F36D13146284613F022FF3C4BD1
:1059B8009F426DD0002009B0F0BD06238DF81D3040
:1059C800DBE707238DF81D30D7E705238DF81D3059
:1059D800D3E714F4802FD7D06A680123BB40D36083
:1059E800D2E7C4F340438DF8083014F4803F0CBF6D
:1059F800012300238DF81030002401940DF11D03BC
:105A080000930DF11E0304AA02A93046FFF76CFEAD
:105A18002046D0E702AA0023029303930493059338
:105A28000693059204AA3146284613F0CAFE1C4B79
:105A380098421DD114F4003F1DD09DF81D308DF8FB
:105A4800103014F4803F0CBF012300238DF811306F
:105A58009DF81E308DF81230002304AA31462846DE
:105A680013F0B3FE0E4B9842A1D06FF01500A2E7D9
:105A78006FF015009FE700230493059306930DF13B
:105A88001E03049304AA3146284613F09AFEE9E758
:105A98009DF81F10284613F0B0FE00208BE700BFCA
:105AA8000000AD0B38B504464568284612F027FCBF
:105AB80020B91049204612F0D1FB38BD10352846D0
:105AC80013F093FE0028F4D10021284613F089FE34
