:10000000583A0020E12B0000EDCB0000CD2B000082
:10001000CD2B0000CD2B0000CD2B0000CD2B000000
:10002000000000000000000000000000612D000042
:10003000CD2B000000000000F92C0000CD2B0000AB
:10004000152F0000152F0000152F0000152F0000A0
:10005000152F0000152F0000152F0000152F000090
:10006000152F0000152F0000152F0000152F000080
:10007000152F0000152F0000152F0000152F000070
:10008000152F0000152F0000152F0000152F000060
:10009000152F0000152F0000152F0000152F000050
:1000A000152F0000152F0000152F0000152F000040
:1000B000152F0000152F0000152F0000152F000030
:1000C000152F0000152F0000152F0000152F000020
:1000D000152F0000152F0000152F0000152F000010
:1000E000152F0000152F0000152F0000152F000000
:1000F000152F0000152F0000152F0000152F0000F0
:10010000152F0000152F0000152F0000152F0000DF
:10011000152F0000152F0000152F0000152F0000CF
:10012000152F0000152F0000152F0000152F0000BF
:10013000152F0000152F0000152F0000152F0000AF
:10014000152F0000152F0000152F0000152F00009F
:04015000152F000067
:1001540053B94AB9002908BF00281CBF4FF0FF312A
:100164004FF0FF3000F00CB8ADF1080C6DE904CE8F
:1001740000F010F8DDF804E0DDE9022304B0704774
:10018400704700BF034613F8012B002AFBD1181A4D
:10019400013870472DE9F04786468C460846089E8C
:1001A400154674461946002B40F0C1808542B2FAC8
:1001B40082F245D94AB1C2F1200300FA02FC95400B
:1001C40094402EFA03F343EA0C0C4FEA154EA8B2FE
:1001D400230CBCFBFEF80EFB18CC08FB00F943EA29
:1001E4000C43994528D9EB1808F1FF3704D29945F7
:1001F40002D9A8F102072B44A3EB0903A4B2B3FB71
:10020400FEFC0EFB1C330CFB00F044EA0344A0424A
:1002140014D92C190CF1FF3304D2A04202D9ACF149
:1002240002032C44241A43EA07401EB1D44000239D
:1002340034607360BDE8F0874746DDE76346F1E765
:1002440092BB431B01214FEA154EAFB2200CB3FB06
:10025400FEFC0EFB1C330CFB07F840EA03439845F5
:1002640061D9EB180CF1FF3004D2984502D9ACF1F6
:1002740002002B44A3EB0803A4B2B3FBFEFC0EFB69
:100284001C330CFB07F744EA0344A7424DD92C194D
:100294000CF1FF3304D2A74202D9ACF102032C447F
:1002A400E41B43EA0040C0E7C2F1200395409440B8
:1002B40020FA03F12EFA03F34FEA154E9040AFB241
:1002C4000343B1FBFEFC0EFB1C10190C0CFB07F8DE
:1002D40041EA0041884522D969180CF1FF3004D263
:1002E400884502D9ACF102002944A1EB08019BB274
:1002F400B1FBFEFC0EFB1C110CFB07F743EA0143A8
:100304009F420ED9EB180CF1FF3104D29F4202D95F
:10031400ACF102012B44DB1B41EA004193E7604648
:10032400E3E76146F7E76046A4E76346B8E783423C
:1003340006D916B9002108467CE7C6E900E0F9E7CA
:10034400B3FA83F78FB9834201D3724508D8BEEB61
:10035400020460EB030301209C461EB9002169E7F7
:100364003846FAE7C6E9004CF8E7C7F1200CBB4071
:100374000EFA07F522FA0CF42EFA0CF1BA401C43DB
:1003840020FA0CF3B8404FEA144901431FFA84FEE3
:10039400B3FBF9F809FB18300B0C08FB0EFA43EA1F
:1003A40000439A4540D9E31808F1FF3004D29A4536
:1003B40002D9A8F102002344A3EB0A0389B2B3FBD8
:1003C400F9F809FB183308FB0EFE41EA03418E4598
:1003D4002CD9611808F1FF3304D28E4502D9A8F153
:1003E4000203214443EA0040A1EB0E01A0FB029862
:1003F4004145CE46434602D306D14D4504D2013889
:10040400B9EB020E68EB0403002EA7D0B5EB0E0285
:1004140061EB030101FA0CFC22FA07F3F9404CEA00
:100424000303C6E9003199E74046C5E74346D9E7E7
:1004340010B507480BF00BF9064C20460EF04DFBA7
:1004440005480BF004F920460EF047FB10BD00BF31
:10045400A400010020A107009C00010010B5074C76
:1004640000220023204606F085FBA368DBB2044A81
:10047400032104480CF0AFFA10BD00BFE8010020CE
:1004840038FF0000C4FB000010B5064C204606F0FF
:100494002DFBA368DBB2044A032104480CF09BFA49
:1004A40010BD00BFE801002054FF0000C4FB0000A1
:1004B4002DE9F04786B000AFC7E06FF0004C60E074
:1004C4006B4A03216B480CF07CFA23E0BCF1130F58
:1004D4006FDD14213AB10520387400207874B874A3
:1004E400F874386918616FF300056FF341056FF311
:1004F40082056FF3C505032363F38815C1F30A036B
:1005040063F353256FF31F5500232946594801F01F
:10051400F9FAB5460134E4B2022C4DD8282007F08C
:10052400EBF980460028CBD0282200210EF043FFAF
:10053400042107F110000CF04CFD04EB440608EB19
:1005440086063B697360042107F110000CF041FD3D
:100554003B69B360042107F110000CF03AFD3B69DC
:10056400F360414644480EF053FC7168B068D6F815
:100574000C806E468AB06B4613F110029DD04FF08A
:10058400140C002AA2D0E646BCF1040F03DDDFF808
:10059400EC90C3F81490BEF1080F00DD9961BEF130
:1005A4000C0F00DDD861BEF1100F8FDDC3F8208081
:1005B4008CE76FF01B018DE7FFF766FF02F0D6FCB6
:1005C400C7E9040107F1100107F108000CF090FBE2
:1005D4000CF097FB6C4688B06B4613F1100240D0C8
:1005E40010265AB1B446042E03DDDFF894E0C3F8B4
:1005F40014E0BCF1080F01DD9861D9610F2E33DDE1
:1006040010213AB10420387100207871B871F87162
:10061400786818616FF3000A6FF3410A6FF3820A76
:100624006FF3C50A032363F3881AC1F30A0161F364
:10063400532A6FF31F5A002351460E4801F062FA01
:10064400A54644F620600BF00CF802F0CDFF02F052
:10065400D9FF02F08BFCC7E90201FFF7FFFE00247B
:100664005AE76FF00046BCE76FF01B01C9E700BF13
:1006740070FF0000C4FB0000F801002090FF0000A0
:10068400CCFF00002DE9F04F85B000AFAAE0674A27
:10069400012167480CF095F925E06FF0004148E02E
:1006A40013295CDD14213AB10520387100207871DA
:1006B400B871F871786818616FF300056FF341053C
:1006C4006FF382056FF3C505032363F38815C1F344
:1006D4000A0363F353256FF31F5500232946544837
:1006E40001F010FACD4640460EF00FFE0134E4B29C
:1006F400022C37D84FF0FF324FF0FF334D4806F04D
:10070400BBF980460028C2D004EB440300EB83030A
:10071400D3F804C0D3F808E004EB440300EB8303EC
:10072400D3F80CA0E9468AB06B4613F11002B4D09A
:100734001421002AB4D00846042903DDDFF8F8B0F8
:10074400C3F814B0082801DDC3F818C00C2801DD73
:10075400C3F81CE01028A3DDC3F820A0A0E76FF0C5
:100764001B01A0E7FFF790FE07F108000AF08FFFD6
:100774006C4688B06B4613F1100251D04FF0100C48
:1007840062B1E646BCF1040F03DDDFF8B080C3F8C4
:100794001480BEF1080F01DD9861D961BCF10F0F1F
:1007A40041DD10213AB10420387100207871B8710C
:1007B400F871786818616FF300066FF341066FF300
:1007C40082066FF3C506032363F38816C1F30A0197
:1007D40061F353266FF31F5600233146144801F08A
:1007E40091F9A5460EF046FD4A0142EAD062430162
:1007F4001B1A62EB0102920042EA93729B001B18DF
:1008040042EB0102D20042EA5372C3F3103343EACB
:100814004243D20BBB60FA60FFF720FE002467E777
:100824006FF0004CACE76FF01B01BBE7F0FF00007A
:10083400C4FB0000F8010020080001003C00010096
:1008440010B582B000F02AF800F03CF800F074F81B
:1008540000F05EF800F066F80C4C01222146D0202E
:1008640000F084F823780A4A03210A480CF0B3F80C
:100874004FF480320023CDE900234FF4804200235B
:10088400054806F0E1FF002002B010BD0C1E002058
:1008940060000100C4FB00003801002008B5064BCD
:1008A40018680EF020F900B108BD044A0321044879
:1008B4000CF087F8F8E700BF00000020AC0001004E
:1008C400CCFB000008B50D480EF00DF958B14FF4FB
:1008D400D0110B480AF026FF4FF4D01109480AF052
:1008E40021FF012008BD05480EF0FDF80028EED1D7
:1008F400054A032105480CF064F8E8E718F80000FD
:10090400EC000100E4000100C8000100BCFB000091
:1009140008B50022062102480AF01FFF08BD00BFE7
:1009240018F8000008B50022072102480AF015FF54
:1009340008BD00BF18F8000008B508480EF0D3F849
:1009440028B1074A032107480CF03BF808BD064AC2
:10095400012104480CF035F8F8E700BF98F80000CE
:1009640010010100D4FB0000F400010070B582B056
:100974000D4616468DF8070076230DF10701104841
:100984000AF00FFF041E0ADB7623324629460C4880
:100994000AF015FF041E0ADB002002B070BD2346D6
:1009A400084A012108480CF016F860B2F5E723461E
:1009B400064A012104480CF00EF860B2EDE700BFCE
:1009C40098F8000028010100D4FB00005801010040
:1009D4002DE9F04F91B005920293134602F0040200
:1009E4000092C3F3C20210F00303019340F02B8280
:1009F40080468A460132041D00284FD0B8F1000F0A
:100A040005D0A4EB08030433534500F21F82029B74
:100A14005D1E019B04930693039300264FF0FF3B56
:100A24000427B946B8F1000F01D0029B2360531E7E
:100A34000793002A40F35D81059B13F0020228D03E
:100A44000120A4EB08018B081AB1B1F5007F80F0F6
:100A5400038203990F2900F20282B8F1000F00F01B
:100A64006081DBB201F140026A4402F8103C02F8F2
:100A740020BC002800F0518163F07F0301F14002A3
:100A84006A4402F8103C049B01330493039B013332
:100A9400039304340022CC4640463DE001F0070AAB
:100AA4005444CAF1080AA9E7002634E0002632E0DB
:100AB400002630E00827BC462DE025292BD10BF178
:100AC400010B01260427BC4625E04729EED82A2934
:100AD40014D32A39C9B24FF0010E0EFA01F14FF6C0
:100AE400DA7E11EA0E0F16D111F0625F40F0C08079
:100AF40011F0010F40F08C8000260CE0252903D171
:100B04000BF1FF3B002606E001D9002603E0202973
:100B140001D02329CCD11D466B1C6978002900F033
:100B24001981002EC9D07A29BED84C29CDD34C398D
:100B34002E2961D80FF2040E5EF821F01B0B000081
:100B4400FD0B0000FD0B0000FD0B0000FD0B000081
:100B5400FD0B0000FD0B0000FD0B0000FD0B000071
:100B6400FD0B0000FD0B0000FD0B00000D0C000050
:100B7400FD0B0000FD0B0000FD0B0000FD0B000051
:100B8400FD0B0000FD0B0000FD0B0000FD0B000041
:100B9400750C0000FD0B00000D0C00000D0C000096
:100BA400750C0000750C0000750C00001B0B000098
:100BB4000D0C0000B90A0000FD0B00001B0B000027
:100BC400FD0B0000D10C00000D0C0000D10C000046
:100BD400FD0B0000FD0B0000D90C0000070C000009
:100BE4000D0C0000FD0B0000FD0B00000D0C0000BF
:100BF400FD0B0000010C000000268CE70427BC4616
:100C040089E70427BC4686E729786C2924D0002686
:100C14003C44013CB4FBF7F407FB04F420B1211A73
:100C24006144514500F21581002A58D1BCF1040FEA
:100C340000F08880BCF1080F40F014811A99073144
:100C440021F0070101F108051A95D1E9008908B1DD
:100C5400C4E9008908345EE713F8021C6C2903D048
:100C640000260427BC46D3E700260827BC46CFE766
:100C740029784C291AD01A99073121F0070101F17A
:100C840008061A96D1E90067073424F0070440B136
:100C9400211A0831514513D829784C2913D0C4E9B5
:100CA4000067083400260827BC4634E71A99073140
:100CB40021F0070101F108061A96D1E90067E3E77C
:100CC4006FF01B00BCE0C4E90067EAE700260427D4
:100CD400BC469DE7324600260427BC4698E7E14619
:100CE40080461A9A111D1A9112680292079A1D469B
:100CF40098E6624B029A9A4204D3614B9A420AD311
:100D0400002300E00023002B7FF496AE059B03F044
:100D14000202002095E60123F5E7069B01330693C2
:100D2400B4E610B10AF1010AB0E6009B13B10AF16E
:100D3400020AABE60298FFF725FA0AEB000303F177
:100D4400020AA3E61A990D1D1A95096800B12160DB
:100D54000434E0E68046231AB3F5806F80F0858082
:100D640090B1002202609B080370009B83B1069B34
:100D7400C370049B88F802301BBB019DDDF80C9006
:100D8400DDF810B0029F3DE05344A3F1080057E0A2
:100D9400069B4370EDE701339842EED903F140021C
:100DA4006A4412F8101C12F9102C002AF3DA01F02C
:100DB4007F01A4EB08020132524559D804F8011B03
:100DC400E9E7019B0398E7E7009B43B305F1400380
:100DD4006B4413F8203C04F8013B019EA4EB080388
:100DE40033440133534546D805F140036B4413F8AB
:100DF400103C04F8013B3246394620460EF0B4FA62
:100E040034440135A94519D9BBF1000FDCD005F1F3
:100E140040036B4413F9103C002BD5DAF1E705F1DC
:100E240040036B4413F8103C58F82370002248F830
:100E340023203846FFF7A6F9461CCFE7A4EB0800A9
:100E440011B0BDE8F08F6FF00D00F9E76FF01B00F3
:100E5400F6E76FF01B00F3E76FF01500F0E76FF0B3
:100E64001500EDE76FF01500EAE76FF01500E7E70E
:100E74006FF01B00E4E76FF01B00E1E788F7000068
:100E8400C01101002DE9F04F97B000AF8346BA615D
:100E94003B61D7F88030C3F3C0033B62F96011B9FA
:100EA4000AF0ABFFF8609BF80260B14636B1D7F8A0
:100EB400803013F0010F0DD1002300E000239BF8D4
:100EC40003207A6242B1D7F8802012F0020F22D1B7
:100ED400002202E00123F2E7002202B9EBB19BF801
:100EE4000050AA00BA60DBF804207A610BEB850598
:100EF400BA69F2B1002B40F00481B9F1000F00F09F
:100F04000F81D7F8803013F0040F40F00D810020DA
:100F1400F8610646F9E00122DFE7BB691BB13A69D3
:100F2400F96858469847FC6820465C37BD46BDE8DA
:100F3400F08FFC68E3B94D4400233B6123E0044493
:100F4400013501364E451AD22A7800235BF8222057
:100F54001946B8690AF066FFBAF1000FEFD0D7F866
:100F640088309845EBD22AF8180008F10108E6E722
:100F74000026C7F81C80B046D7F884A0E2E7C7F87B
:100F84001080D7F81C80D7F8803003F00503FB608D
:100F94004FF0000AA146C7F81CB09CE000253B6A4C
:100FA4007BB9002D79D0D7F8803013F0010F79D1B7
:100FB400FB68002B6FD10223A9EB030988E001250C
:100FC400EDE7594678690AF073FF0028E9D06C46CA
:100FD400002387F82C30022387F82D308AB0694625
:100FE40011F1100237D012251AB1042D01DDB34BD3
:100FF4004B61002387F82830022387F829306ABB25
:10100400112D45DD122362B1042087F82C00002045
:1010140087F82D0087F82E00012087F82F00F86A42
:1010240008616FF300086FF341086FF382086FF3F0
:10103400C508022161F38818C3F30A0363F3532834
:101044006FF31F58002341469D4800F05BFDA54601
:10105400A9F102093CE06FF00045C5E72B46082DD5
:1010640001DD786988610C2B01DDC1F81CB001F148
:101074002003002009E000F1300C07F1280EF444AD
:101084001CF830CC03F801CB01300128F3D9B7E7C1
:101094006FF01B03B7E701238EE7D7F8803013F016
:1010A400020F15D0002322461946B8690AF0BAFE89
:1010B400D7F8843053B13B69D7F88820934205D2DE
:1010C400D7F8842022F8130001333B6101388144AE
:1010D4000AF1010A35467B6A9A4510D22E4616F863
:1010E40002BB6B78FA6952F82340764B9C42FFF4BA
:1010F40055AF754B9C42FFF462AF00254FE74C4659
:1011040012E707F144000023FB6118B14A4629465F
:101114000EF02AF94D444FF00008C7F804901EE081
:101124000020F8610646F0E7FE6107F1340000266E
:10113400EBE700253B6A33BB002D3BD0D7F880306A
:1011440013F0010F26D0731C06F1300207F12801B9
:10115400561806F8149CDEB208F1010825467B6A8D
:1011640098454AD22C4614F802AB95F801905BF8E6
:101174002930544A9342DCD3534A934201D3002585
:10118400D8E70125D6E7514678690AF091FE002890
:10119400D2D0E1E7D7F8803013F0040FDCD0FA693D
:1011A400531C303207F128010A4402F8249CDBB2B4
:1011B400FB61D1E7D7F8803013F0020F09D0731C1C
:1011C40006F1300207F12801561806F8149CDEB225
:1011D400C2E7F869431C00F1300107F128028A18BC
:1011E40002F824AC02460232D2B2FA6107F1580284
:1011F40052FA83F303F8249CAEE7D7F804909BF8E3
:10120400003087F854309BF80130334487F8553068
:10121400D7F8803013F0020F0ED1FB69C3F34703F4
:1012240087F85730D7F8803013F0010F06D113F048
:10123400040F3ED1002302E00023F1E7002387F8E6
:101244005630DBF800003863786DCBF80000D7F82F
:1012540010804246B9685846D7F818A0D047041EF3
:10126400FFF662AE386BCBF80000C7F81080424638
:10127400F96907F13400D04700285EDB04EB00086D
:10128400B96849447B6A01EB4301D7F810904A4698
:10129400FB68591A2846D047041EFFF645AE08EBF2
:1012A40004054FF00008C7F824B0B3465446CA46B4
:1012B40021E0FB69C3E74FF0000909E08801010060
:1012C400DCFB000088F70000C01101004FF00009AA
:1012D4005246012107F12C00A04700282FDB0544CA
:1012E4004B463246514620460AF09CFD002828DB36
:1012F400054408F10108D84518D208F1300307F174
:101304002802134413F8143C87F82C307A6A52F8F4
:101314002360D7F88430002BCDD0D7F88830984597
:10132400D4D2D7F8843033F81890D1E73A69002141
:101334000846BB6998472C46F6E50446F4E504469E
:10134400F2E50446F0E500BF014B1860704700BFAA
:101354000400002080B505460E461746984605F061
:10136400C7FF03460EF004FA0446DFF8189049F864
:101374000030424639463046A84754F8090001F087
:101384009FFC00BF080000002DE9F04383B0044631
:1013940008461546A38B13F0080F05D103F0070682
:1013A40000230093019354E0012909D043F0200362
:1013B400A38385F31188BFF36F8F03B0BDE8F08377
:1013C40043F01003A383F4E720460BF0D4F842E083
:1013D400D4F818904A46694620460BF0E5F84FF0D9
:1013E4000008A38B03F00707B74269D0A268002A5C
:1013F40066D0012243F00803A38385F31188BFF369
:101404006F8F002A64D1009B2BB14B463A46694644
:1014140020460BF042F9B8F1000F02D034492046BF
:10142400C047EFF31185202383F31288BFF36F8F36
:10143400A38B23F00803A383A38B13F0100F4DD0C9
:1014440023F01003A3830120A68B06F007060028CF
:10145400AFD00228B8D00028ABD0013804282BD84C
:1014640001A353F820F000BFD5130000BD14000001
:101474008114000095140000A91400002369D3F816
:101484000080062120460BF04CF84FF00009A8E735
:101494002369D3F80480042120460BF042F84FF06E
:1014A40000099EE72369D3F80880052120460BF044
:1014B40038F84FF0000994E74FF00008C14690E770
:1014C400009A0AB1002295E7B8F1000F92D1B3E770
:1014D4004A46394620460BF02CF894E713F0200FC7
:1014E40004D023F02003A3830220ADE70020ABE760
:1014F400CDC6000038B505460B4C00E010340B4B4C
:101504009C420FD263685B79002BF7D029462046B2
:101514000BF0A4F90028F1D023681B682946204663
:101524009847EBE738BD00BF34FC000044FC0000E2
:1015340070B506460D46084C04E02A46314620465E
:1015440098471034054B9C4204D223689B69002BB6
:10155400F3D1F6E770BD00BF34FC000044FC00008A
:101564002DE9F041074605460AE007EA0807144B4F
:1015740003EB06135B680422196820460BF0B8F9E4
:10158400D5B195FAA5F6B6FA86F60D4C04EB061419
:101594000123B3406FEA030825EA0305237B002BEC
:1015A400EED03301064AD3581B69002BDDD0204608
:1015B40098470028E4D1D8E73846BDE8F08100BF59
:1015C40034FC00002DE9F04180460F461D4BD3E862
:1015D400EF5F6A1CC3E8E12F0029F8D16DBB1A4CF8
:1015E400002607E063680422196820460BF080F99E
:1015F40001361034154B9C4211D2237B002BF7D0BB
:1016040020460BF01FF923681B69002BEAD0204603
:1016140098470028E6D00123B3401D43E8E7B8F11A
:10162400000F0BD055B12846FFF79AFF0546002F4F
:10163400F8D00A200BF018F9F4E700252846BDE895
:10164400F08100BF6C0B002034FC000044FC00005F
:1016540008B5064B186018B1054B1B68092B00DC54
:1016640008BD044805F042FAFAE700BF600B002009
:10167400680B0020D801002008B5024805F036FAAE
:1016840008BD00BFD801002030B589B000220F4941
:101694000F480DF0FEFD0F4D00220023CDE9062377
:1016A400002404940E2303930294019400940A4B9F
:1016B4004FF44072094928460DF0EDFB08492846CD
:1016C40005F08EFA204609B030BD00BF7D1600003B
:1016D4002808002070030020311A0000182600207A
:1016E40040020100014B53F8200070475C020100E6
:1016F40048B108B5054A1060054B1960084600F06A
:10170400F5FC002008BD6FF01500704708000020AC
:101714005C0B002008B5054B1B781BB1034B012261
:101724001A7008BD024805F0E1F9F7E70D1E002024
:10173400D801002008B50C4BD3E8EF1F0131C3E8F2
:10174400E21F002AF8D130B908480DF0AEFD084870
:1017540005F0CCF908BD074BD3E8EF1F0139C3E806
:10176400E21F002AF0D0F7E7640B002028080020CD
:10177400D8010020680B0020044B00200146D3E868
:10178400EF0FC3E8E21F002AF9D17047640B002071
:1017940038B5FFF7F1FF0546094C00E01034094B5A
:1017A4009C420BD263685B79002BF7D023685B689B
:1017B400002BF3D0294620469847EFE738BD00BFF9
:1017C40034FC000044FC0000034B18680028D4BF1C
:1017D40000200120704700BF640B002010B5044CAA
:1017E400044920460AF0F8FC034B1C6010BD00BFFE
:1017F400F800002048020100580B002008B500231F
:101804000C4A13700C4A13600C4A13604FF40041E5
:101814000B48FFF76DFFFFF7E1FF0A4A06E0094BAB
:10182400D31A1B11013351680B711032064B9A42C3
:10183400F5D308BD0E1E0020640B0020680B0020A9
:1018440065C8000034FC000044FC000008B50146F3
:1018540001480BF01FF808BDF800002008B5024845
:101864000AF09DFD08BD00BFF800002008B5014640
:10187400024B18680BF014F808BD00BF580B002089
:1018840008B502480BF010F808BD00BFF8000020AE
:1018940010B582B000220023CDE90023264B18782E
:1018A40008B902B010BD68460BF016F8044660B1E2
:1018B400FFF720FE2046FFF7D9FF204BD3E8EF1FA8
:1018C4000139C3E8E21F002AF8D1FFF77DFF58B9B8
:1018D4001B4A1368516813F57A7341F100011360D0
:1018E4005160FFF7CDFFDCE70DF0C4FC4A0142EA8A
:1018F400D06243011B1A62EB0102920042EA937226
:101904009B001B1842EB0102D20042EA5372C3F35C
:10191400103343EA4243D20B0948016840685B1A1A
:1019240062EB000240F2E9318B4272F10002CFD344
:10193400FFF72EFFCCE700BF0D1E0020680B002030
:10194400200800200F4B1B7803B1704710B500210D
:101954000120FFF737FE0C4C00E010340B4B9C4287
:1019640008D263685B79002BF7D023689B68204614
:101974009847F2E7FFF78CFF0028FBD1014B0122C7
:101984001A7010BD0E1E002034FC000044FC000040
:1019940010B582B0184BD3E8EF2F511CC3E8E01FF9
:1019A4000028F8D1154B1B7863B9154B1B68B3B1EC
:1019B400BAB1092A13D113480DF077FC124805F087
:1019C40095F80CE0EFF31184202383F31288BFF31E
:1019D4006F8FFFF75DFF84F31188BFF36F8F02B041
:1019E40010BD00220023CDE900234FF40042002360
:1019F400044805F029FFF2E7680B00200E1E0020C2
:101A0400600B002028080020D801002010B50446EF
:101A1400044B1B689847A060214603480AF060FF06
:101A240010BD00BF08000020F80000202DE9F0419F
:101A340000210846FFF7C6FD804650B140F26766B4
:101A440000270DF095FE154B1858FFF701FE0025F1
:101A540015E04FF0FF364FF0FF37F2E74046FFF74F
:101A64007FFD804670B94FF0FF364FF0FF3709E035
:101A74002C4632463B460A4805F07CF82546B8F128
:101A8400000FEBD1FFF704FF04460028F6D1002D28
:101A9400EED000210846FFF74BFDEAE708000000FE
:101AA400D80100200248034BC01AC008704700BF89
:101AB40034FC0000BCFB000010B50C46FFF7F2FF3D
:101AC400A04203D9024B53F8340010BD0020FCE7B8
:101AD400BCFB000000B589B0059206930023079370
:101AE40062B1074A0C9B02930B9B01930A9B0093E0
:101AF40005ABFFF7C7F909B05DF804FB0022F1E775
:101B04000BC900002DE9F04F8BB004AF05461E460B
:101B14008846C1F34A24002C00F0898091460022B3
:101B2400FA603A617A6104230293FB1801930A2351
:101B3400009307F10C0321464846FFF7A3F9B0F5DB
:101B4400006F58D3D9F804106D4600233B73022369
:101B54007B738AB004AC14F1100217D012201AB1AE
:101B6400042801DD3B4B636100233B7002237B703F
:101B7400CAB10346082800DDA1610C2B02DD40F246
:101B8400FF73E36104F1200300210AE06FF00040D9
:101B9400E5E701F118063E4416F8186C03F8016BEA
:101BA40001310129F5D9112822DD122342B1042182
:101BB400397300217973B9730121F973F8682061CD
:101BC40000216FF300016FF341016FF382016FF3A2
:101BD400C501022060F38811C3F30A0363F35321A0
:101BE4000023C1F313011C480AF00DFFAD462DE09C
:101BF4006FF01B03DAE760F35328C0F30A0A0AEB19
:101C04001850173020F007008008FFF71FFE8346A6
:101C1400B0B104230293FB1801930A2300935346A3
:101C240000F1100221464846FFF754FF08E004EB98
:101C34001154173424F00704A008FFF707FE834665
:101C440033464246294658460AF073FE1C37BD46C1
:101C5400BDE8F08F7C020100FCFB00002DE9F04F91
:101C640085B080460D4617461E46DDF838B0DDF8CF
:101C74004090B9F1000F41D0119B039300934B4660
:101C84000F9A10210020FEF7A3FEB0F5006F2DD2AD
:101C940082460BEB0003173323F0070300246FF392
:101CA40000046FF341046FF3820468F3C50467F31F
:101CB400881460F353246BF31F549808FFF7C6FD90
:101CC400074650B11030B9F1000F06D0119B0093B4
:101CD4004B460F9A5146FEF77BFE33462246294671
:101CE40038460AF026FE05B0BDE8F08F40F2FF73D7
:101CF400034A022103480AF06EFEF4E70020C7E716
:101D0400BC020100FCFB0000406820B1034BC01A78
:101D140040F3CF0070474FF0FF307047BCFB00002A
:101D24000EB400B582B0014603AB53F8042B019303
:101D3400034801F00DFB02B05DF804EB03B07047FB
:101D440041CA000010B584B011F0440F05D01A4BFD
:101D54001B6833B9002004B010BD1849FFF7E0FF39
:101D6400F9E717490968B2FBF1F2B2FBF3FC03FB94
:101D74001C224FF47A7E0EFB02F2B2FBF3F403FB57
:101D840014210EFB01F1B1FBF3F10E4AA2FB0C325C
:101D9400D20A4FF4616303FB12CC0B4BA3FB0CE39D
:101DA4005B0902910194C3EB0311ACEB8101009137
:101DB4000649FFF7B5FFCEE7740B0020F4020100DB
:101DC400700B0020C5B3A2918988888800030100A4
:101DD40061B108B52AB1064A52F8232012B9054A5E
:101DE40000E0044A0449FFF79BFF08BD704700BFA9
:101DF400A00301001C030100240301002DE9F041AC
:101E040005461746069EDDF81C8081B900242EB1D4
:101E1400324611492846FFF783FF0444B8F1000F06
:101E240014D06FB1099B042B13D00C4909E00C4B5F
:101E3400099A53F822200B49FFF772FF0446E6E79C
:101E4400064942462846FFF76BFF04442046BDE896
:101E5400F0810549F5E700BF3C0301002C030100B4
:101E6400B403010034030100280301002DE9F04FFD
:101E740087B005460C46049205939DF84C7001F01A
:101E8400020B01F0010AC1F3C00801F480790AF0E1
:101E94002DFD18B3024616492846FFF741FF0646B2
:101EA400BBF1000F1CD13A46514628460AF0EDFD1D
:101EB400B9F1000F01D0002311930397129B0293F1
:101EC400119B0193109B00930023049A41462846DA
:101ED400FFF794FF304407B0BDE8F08F0026DFE73A
:101EE400059A21462846FFF72DFF0644DBE700BF8D
:101EF4004003010011F0100F0BD108B511F0200FB1
:101F040003D00449FFF70CFF08BD0349FFF708FF9E
:101F1400FAE7704780040100E40E01002DE9F04166
:101F240005460F46164698460699FFF7E3FF002438
:101F3400444505DA24492846FFF7F2FE0134F7E761
:101F4400002409E020492846FFF7EAFE0BE01F4978
:101F54002846FFF7E5FE01340F2C0CDC002C02DDD3
:101F640014F0070FEED0B442F1D23A5D1849284676
:101F7400FFF7D6FEEFE717492846FFF7D1FE002406
:101F840009E011492846FFF7CBFE0BE01249284629
:101F9400FFF7C6FE01340F2C13DC002C02DD14F015
:101FA400070FEED0B44207D23A5D0C4B9B5C13F0A2
:101FB400970FEBD12E22E9E703492846FFF7B0FE3D
:101FC400E8E7BDE8F08100BF380301004C030100DD
:101FD400440301005003010054030100B110010047
:101FE4002DE9F04184B004469DF82C500C9F0E9EC0
:101FF40095B9012B1ED019484FF0000827B13B4674
:102004002246174909F024FFC6B905BB20460AF049
:10201400FEFC04B0BDE8F08103950A980290019398
:1020240000920B4600220F992046FFF71FFF8046BF
:102034000C48E3E70B484FF00008DFE70F9B0093E1
:10204400434632460D9920460AF037FDDDE72A461D
:102054000F9920460AF025FDD8E700BF71CA000099
:102064005533000041CA00002DE9F04383B0064611
:10207400056842F20F738B4228BF0B46184A0521AC
:10208400684608F0C7F904467368D3F804900B2730
:10209400DFF8508005E04A4639464046A8473F1AD3
:1020A4008044002FF7D17368D3F804806F4605E0AD
:1020B400424621463846A847241A0744002CF7D143
:1020C40073685F681B24084E05E03A462146304693
:1020D400A847241A0644002CF7D103B0BDE8F083C6
:1020E400B80501007403010058030100074B0122E5
:1020F4001A6004E04008054A13685B001360044B4F
:102104009842F7D8034B1860704700BF700B00204B
:1021140040420F00740B002070B506460D460024A3
:1021240005E0315D04488368DB6998470134AC42BB
:10213400F7D3284670BD00BF78F80000014B036058
:10214400002070471C04010008B5034809F0DDFEB7
:10215400024809F0DAFE08BD1C0401005404010021
:1021640008B5024805F04CFC08BD00BF840401001A
:10217400B0F5680F17D00CD840F6BA63984214D063
:10218400B0F5683F13D03A2801D0012070470020F1
:102194007047094B98420CD0084B984201D001205B
:1021A40070470020704700207047002070470020CF
:1021B40070470020704700BF3A00003A2C5F5CA9CA
:1021C40028B308B54368B3F5683F0AD0B3F5680F80
:1021D40014D012498B421FD0006804F0F7FB002092
:1021E40014E003680022D3E8EF1F012903D1C3E8F8
:1021F400E02F0028F7D10DD1104607E003681B78C3
:1022040003F580730020064A42F8230008BD6FF4EA
:10221400E04070470348F9E70348F7E72C5F5CA9FF
:1022240000000350E98FFFFFEA8FFFFF88B308B572
:102234004368B3F5683F0FD0B3F5680F19D016495A
:102244008B4224D000684FF0FF324FF0FF3304F08C
:102254003DFB68B111480BE003680122D3E8EF1F8E
:10226400002903D1C3E8E02F0028F7D10BD10020C7
:1022740008BD03681B7803F58073094A52F82330BC
:102284001BB90020F4E70548F2E70448F0E70548E5
:10229400EEE76FF4E04070472C5F5CA9E98FFFFF25
:1022A40000000350EA8FFFFF10B50446A8B163682D
:1022B400B3F5683F10D0B3F5680F0DD00D4A9342C3
:1022C4000AD013F4686F0DD021680B480CF06EFC33
:1022D40000232360074B636010BD084B5B6808480C
:1022E4009847E4E7236800221A605A609A60DA602B
:1022F4001A61EFE72C5F5CA9A01000207C0000208D
:102304008C04010010B5044668B36068B0F5683FFA
:1023140028D0B0F5680F25D0174B984228D0FFF786
:1023240027FFC0B14FF0FF324FF0FF33214613486F
:1023340004F09AFA08B923681BB9114B5B68114879
:102344009847236800221A605A609A60DA601A611A
:102354004FF46863636020680CF0A9FC636843F081
:102364003A03636010BD064B5B6807489847CCE7A7
:102374002368002BD3D1D5E72C5F5CA9A0100020E3
:102384007C000020B40401008C04010008B5402343
:102394001422044904480CF0FAFB0449044805F0EB
:1023A400F3FB08BDA00B0020A0100020E4040100F2
:1023B400F80401002DE9F04182B000AF0446D0F8E2
:1023C40000E0D0F804C085686E468AB06B4613F10D
:1023D400100200F0888014218AB10846042903DD24
:1023E400DFF81C81C3F81480082801DDC3F818E065
:1023F4000C2801DDC3F81CC0102800DD1D62132960
:1024040074DD14253AB10521397100217971B9714E
:10241400F9717868186100216FF300016FF34101CD
:102424006FF382016FF3C501012363F38811C5F3D0
:102434000A0565F353216FF31F5100233148FFF759
:1024440061FBB546D4F80CC026696569E8468AB0D4
:102454006B4613F110024CD0142182B108460429B2
:1024640003DDDFF8A4E0C3F814E0082801DDC3F8B5
:1024740018C00C2800DDDE61102800DD1D62132960
:102484003ADD14253AB10521397100217971B97108
:10249400F9717868186100216FF300016FF341014D
:1024A4006FF382016FF3C501012666F38811C5F34A
:1024B4000A0565F353216FF31F51124D002328467B
:1024C400FFF720FBC546E369104A314628460AF067
:1024D40082FAA3690E4A314628460AF07CFA083784
:1024E400BD46BDE8F0816FF0004175E76FF01B0554
:1024F40088E76FF00041B0E76FF01B05C2E700BF4B
:10250400080501001CFC00003805010068050100F5
:102514007805010038B504460D4611B10846FFF7A9
:1025240049FF012C04D02946204603F02BFF38BD77
:10253400EFF30583103B034A012103480AF04BFAE9
:10254400F1E700BFA80501001CFC000030BFFFF745
:10255400FDBF00BF38B50446054D2A4605490CF0B9
:1025640003FF054A002160190CF025FF38BD00BFA8
:102574000000000088FC00000400000070B506465E
:10258400064D074B1D444C1B2046FFF7E3FF083C58
:10259400C6F8A44005F1080070BD00BF00000000AB
:1025A40004000000054B5A699B689A4204D0044A0F
:1025B400536843F080535360704700BF10130020EA
:1025C40000ED00E081690D4B5A6942F480725A6152
:1025D400BFF34F8FBFF36F8F31F8021C5A6922F497
:1025E40080725A61BFF34F8FBFF36F8F4DF6027342
:1025F400994201D0002070470120704700ED00E0AF
:102604004FF0000C83F800C002F07F4CBCF17F4F08
:1026140014D102F00C0CBCF1080F04D012F0080F16
:1026240009D00846704708B5054A012105480AF053
:10263400C8F9002008BD01221A70704700207047B5
:10264400BC0501001CFC000008B5314A01213148D9
:102654000AF0B7F9304B9B6A13F0007F26D11D2096
:102664002D4B9B6A13F0807F27D12B4B9B6A13F46D
:10267400801F29D1284B9B6A13F4002F2BD1264BA2
:102684009B6A13F4802F2DD1234B9B6A13F4003FD4
:102694002FD1214B9B6A13F4803F31D11E4A936A98
:1026A4006FEA03436FEA1343936208BD1B4A012197
:1026B40018480AF086F91E20D2E7194A0121154864
:1026C4000AF07FF91F20D0E7164A012111480AF0C9
:1026D40078F90220CEE7144A01210E480AF071F974
:1026E4002120CCE7114A01210A480AF06AF9222084
:1026F400CAE70F4A012107480AF063F92320C8E713
:102704000C4A012103480AF05CF92420C6E700BF03
:10271400E80501001CFC000000ED00E000060100DB
:1027240014060100300601005C0601007C0601006D
:10273400A4060100C006010008B500230B70034A7B
:10274400012103480AF03DF908BD00BFEC06010071
:102754001CFC000090B583B000AF0F2923DC2F4C84
:10276400103900233B7102237B718AB0EC461CF1C3
:1027740010021AD0122022B1042802DD284BCCF812
:10278400143000233B7002237B70E2B10346082817
:1027940001DDCCF818400C2B01DDCCF81C100CF139
:1027A400200300210DE01F4CDAE76FF00040E2E760
:1027B40001F1080404EB070E1EF808EC03F801EB22
:1027C40001310129F4D9112824DD12234AB104214D
:1027D400397100217971B9710121F9717868CCF8E6
:1027E400100000216FF300016FF341016FF38201C8
:1027F4006FF3C501012060F38811C3F30A0363F387
:1028040053216FF31F5100230748FFF77BF90C375F
:10281400BD4690BD6FF01B03D8E700BF1007010051
:1028240044070100280701001CFC0000F8B5054618
:102834000F461446394A012139480AF0C2F8394B87
:102844009B6A13F0100F31D11026364B9B6A13F09C
:10285400080F32D1334B9B6A13F0020F34D1314B42
:102864009B6A13F0010F4BD12E4B9B6A13F0200F80
:102874004DD12C4B9B6A13F0100F01D1294B9B6A4D
:10288400284B9B6A13F0200F04D0264A536A23F482
:1028940000535362234A936A43F0FF039362012176
:1028A40028460AF0A7F920703046F8BD1E4A0121D7
:1028B4001B480AF086F81126C7E71C4A012118486C
:1028C4000AF07FF81226C5E7194A012114480AF0D4
:1028D40078F8144A536B926A12F0800F01D11326D0
:1028E400BDE7144A01210E480AF075F837B10D4AC4
:1028F400936A23F0800393621326B0E71326AEE7AE
:102904000D4A012106480AF05CF81426ACE70B4A8C
:10291400012103480AF055F81526AAE758070100D3
:102924001CFC000000ED00E070070100A40701009A
:10293400B8070100D0070100E807010008080100FA
:10294400F8B505460F461446374A012137480AF0C0
:1029540038F8374B9B6A13F4805F25D11626344B25
:102964009B6A13F4006F26D1314B9B6A13F4007FEA
:1029740028D12F4B9B6A13F4806F3FD12C4B9B6A59
:1029840013F4807F41D12A4B9B6A13F4005F43D137
:10299400274A936A43F47F439362012128460AF04D
:1029A40029F920703046F8BD224A01211F480AF057
:1029B40008F81726D3E7204A01211C480AF001F839
:1029C4001826D1E71D4A0121184809F0FAFF184AD0
:1029D400936B926A12F4004F01D11926C9E7184A81
:1029E4000121124809F0F7FF37B1114A936A23F421
:1029F400004393621926BCE71926BAE7114A01215C
:102A04000A4809F0DEFF1A26B8E70F4A01210748F1
:102A140009F0D7FF1B26BBE70C4A0121034809F044
:102A2400D0FF1C26B4E700BF380801001CFC0000DE
:102A340000ED00E050080100A40701006408010053
:102A44008008010098080100B4080100080801008A
:102A540070B506460D462B4A01212B4809F0B1FFFB
:102A640000232B70294BDC6A14F002040AD1274B93
:102A7400DB6A002B0DDB254BDC6A14F080440ED19D
:102A8400204670BD224A01211F4809F09AFF002404
:102A9400F6E7204A01211C4809F093FFF0E71E4A9B
:102AA4000121194809F08DFF3046FFF78BFD98B9D5
:102AB400164B9B6A13F0FF0F16D1144B9C6A14F447
:102AC4007F4418D1114B9B6AB3F5803FD8D330466D
:102AD400FFF7BAFD0446D3E73368104A01210A48D8
:102AE40009F079FF3468CBE72A4601213046FFF725
:102AF4009DFE0446C4E72A4601213046FFF720FF25
:102B04000446BDE7CC0801001CFC000000ED00E019
:102B1400E40801000809010018090100380901004E
:102B240030B58BB01F4B5D68C5F30805002383F3F4
:102B34001188BFF36F8F0DF12603FFF761FD044683
:102B44000DF1270229460AF057F89DF827300BB1FA
:102B54000BB030BD05460DF1040C20686168A26815
:102B6400E368ACE80F0020696169A269E369ACE835
:102B74000F009DF826304BB1089BC3F308025AB9E5
:102B84006FEA53236FEA4323089305E0089B23F479
:102B9400FF7323F00103089301A92846FFF7BAFC49
:102BA400D6E700BF00ED00E0064B5A6942F0100280
:102BB4005A615A6942F480625A615A6922F00802E1
:102BC4005A61704700ED00E0EFF30880EFF30981EC
:102BD40001B57246FFF7A4FF01BD00BF002080F3DA
:102BE4001488BFF36F8F002080F30A8880F30B886A
:102BF400104880F3088800200F49087002F04CF94F
:102C040000200E490860BFF34F8F00F02FF82020FA
:102C140080F311880A484FF40061401880F3098852
:102C2400EFF314800221084380F31488BFF36F8FFD
:102C340000F0F6F8583A0020161E002094ED00E04B
:102C440018290020084BD3F89000C0F30720002374
:102C540006E0054AC2F898300021C2F8A0100133FA
:102C64008342F6DB704700BF00ED00E010B572B69A
:102C7400002484F31388FFF7E5FF234608E003F1FB
:102C840020010E4A4FF0FF3042F821000133DBB23D
:102C94000F2BF4D9002308E003F16001074A4FF039
:102CA400FF3042F821000133DBB20F2BF4D962B6B6
:102CB400BFF34F8FBFF36F8F10BD00BF00E100E083
:102CC40008B50A4B9B68834202D004F017FB08BD89
:102CD400EFF30583002BF8D0054B5A6842F080527D
:102CE4005A605A6A22F400425A62EEE71013002036
:102CF40000ED00E016498A684FF030001044EFF30D
:102D0400098C80E8F01F202080F31288BFF36F8FB6
:102D1400104F4FF000664A698A603E60D2F8A40002
:102D24000D4C2060D2F8A8000023C2F8A83080F32C
:102D3400118802F1300090E8F01F8CF3098802F149
:102D4400000004B509F093FFBDE80440704700009B
:102D54001013002004ED00E0C01000201EF0040F4A
:102D64000CBFEFF30880EFF30980816911F8021CAE
:102D74000229FFD001B5724609F030FF01BD00BF42
:102D8400002807DB00F01F02400901239340024A98
:102D940042F82030704700BF00E100E000280CDB5F
:102DA40000F01F024009012393402030034A42F8F7
:102DB4002030BFF34F8FBFF36F8F704700E100E007
:102DC400002808DB4901C9B200F1604000F5614008
:102DD40080F80013704700F00F004901C9B2014B9D
:102DE4001954704714ED00E04209054B53F82220B2
:102DF40000F01F00012303FA00F01040704700BFE9
:102E040000E100E0044B23F07F03044A9360BFF326
:102E14004F8FBFF36F8F70470000000000ED00E09C
:102E240008B5FFF7EFFF074AD2F8883023F47003A0
:102E3400C2F8883003F068FC04F02CFB00F04EF874
:102E440003F0BEFC00ED00E010B4A2F120040E4932
:102E540042F8081C21F0010142F8081C42F8203C09
:102E6400019B42F81C3C029B42F8183C039B42F82D
:102E7400143C4FF0807342F8043C04650023C0F80E
:102E8400A83010BC704700BF5913000000B50E46AF
:102E940015460B4B9860D0F8A4200A4B1A60D0F862
:102EA400943083F30B882C4686F309880020064B64
:102EB40098472046002100220023044C204700BFED
:102EC40010130020C01000207DCC00005913000016
:102ED400014B10221A61704700ED00E0002207E068
:102EE40003F1604303F56143202183F800130132A9
:102EF400442A09DC53B2002BF2DA03F00F0303492E
:102F0400194420230B76F2E7704700BFFCEC00E085
:102F140008B5EFF30583103B044A02EBC30149688B
:102F240052F833008847FFF73DFB08BDB8F80000AE
:102F3400074AD2F8FC3043F08073C2F8FC30054BEA
:102F440000225A601A6842F001021A60704700BFFA
:102F540000ED00E0001000E0034B00225A601A6804
:102F640042F001021A607047001000E0014B5868FB
:102F740000217047001000E008B501F07DFF024B0E
:102F84001868002108BD00BF5400002008B5FFF7F1
:102F9400F3FF024A0023FDF7DBF808BD40420F00AF
:102FA40010B584B00A4C23460A4A01210A4809F0A4
:102FB4009AFF0023019302930393084B0193E41AAD
:102FC4000294012101A809F092FF04B010BD00BFD2
:102FD4000000072000000020540901001002002016
:102FE400024B034AC3F8C020704700BF00ED00E065
:102FF400AAFF4400034BC3F89800C3F89C10C3F81D
:10300400A020704700ED00E00E4BC3F89800C3F811
:103014009800D3F89C000A7A60F304020A72D3F889
:10302400A020C2F34202087A62F347100872D3F870
:103034009C2022F01F020A60D3F8A03023F01F0363
:10304400CB60704700ED00E070B505460E460024E5
:1030540000E00134A6421EDD04EB44039A0005EBB4
:10306400830359680029F4D0A85809F096FE04EBAC
:1030740084030B4A42F8230010F1160F0CD0094BBD
:103084001B78984209DA04EB840302EB83010431D0
:10309400FFF7BAFFDDE7002070BD6FF01500FBE716
:1030A400C41000200F1E002010B504460A4BD3F8AC
:1030B4009030C3F30723013B984203D809F047FE3D
:1030C400204610BD0346054A0121054809F083FC4A
:1030D4006FF01500F5E700BF00ED00E064090100A2
:1030E40014FC00002DE9F04F87B081460091019354
:1030F4001446002648E03346614A0121614809F03C
:103104006AFC6FF0150407E03B465F4A01215D4805
:1031140009F061FC6FF01504204607B0BDE8F08F9C
:10312400D84564D12946C0B209F048FE2BE0574A7D
:10313400C2F89870D2F89C3003F01F0321F01F01ED
:103144000B43C2F89C302946E0B209F037FE04462E
:1031540010F1160FE0D0013415E0013B4B49C1F8E2
:103164009870D1F8A02002F01F0223F01F0313432C
:10317400C1F8A0302946E0B209F020FE044610F15F
:10318400160FC9D001340136009B9E42C4DA06EB07
:1031940046054FEA850A09EB85056F68002FF2D0D2
:1031A400019B23B1284609F0E6FD0028A3D0394647
:1031B40059F80A0009F0F1FD074610F1160FA3D0E3
:1031C4008442A1DD314BC3F89800D3F89C2022F04F
:1031D4001F02C3F89800D3F8A03043F01F0859F831
:1031E4000A306968194401F1FF3B934298D0934235
:1031F4009DD0D845B1D0013B2449C1F89870D1F88D
:10320400A02002F01F0223F01F031343C1F8A030D3
:103214002946E0B209F0D2FD044610F1160F3FF43E
:103224007BAF0130194BC3F89870D3F89C109DF80C
:10323400102061F304028DF81020D3F8A030C3F3FA
:103244004203D2B263F347128DF8102059F80A30C2
:103254006A681344029323F01F03A8EB0B0843444A
:10326400013B23F01F03059302A9C0B2FFF71CFF23
:10327400044610F1160F3FF44FAF013483E700BF4B
:103284008C09010014FC0000B009010000ED00E00D
:1032940010B5034C01232278FFF724FF207010BDE2
:1032A4000F1E0020044B0522C3F89420BFF34F8F58
:1032B400BFF36F8F704700BF00ED00E0BFF35F8F77
:1032C400024B0022C3F89420704700BF00ED00E0D9
:1032D40038B51C4B1D681C4BD3F89030C3F307233F
:1032E4009D422BD8FFF7EAFFFFF77AFE002407E0A0
:1032F400144B596801EB0411204609F028FD0134F0
:10330400A542F5D81148057009F077FD10F1160FA4
:1033140013D00E4B1A780C4BD3F89030C3F3072319
:103324009A4207DA084BC3F898200021C3F8A0108A
:103334000132F0E7FFF7B6FF002038BD4FF0FF3051
:10334400FBE700BFD409010000ED00E00F1E0020E0
:1033540030B587B00D4611460024009401940294C0
:1033640003940494059402228DF80220044A0192E5
:10337400049005951A46684607F012F907B030BD67
:10338400FBCE000008B5024B1B689847002008BD1F
:10339400D8100020034B1860034A937843F00203CB
:1033A40093707047D81000203400002008B50649F7
:1033B40021F00701C1F1005202F5E022034808F0B0
:1033C40090FC002008BD00BF5F4A0020DC100020F4
:1033D40068B108B5064A074B1B680749A1FB0313EC
:1033E4009B0C00FB03F042F00103984708BD7047B3
:1033F400A0FC00005400002083DE1B4338B51A4BA8
:103404001B780133194AA2FB031202F4FE7101EB8B
:1034140092029C1AE5B20AF01FFE154B1B782BB1E1
:10342400144A52F82530C01A07281AD94FF05023ED
:10343400D3F8143163B14FF050230022C3F81421A0
:10344400D3F81431084B1D7015B9094B01221A70B9
:10345400054B1C780AF000FE064B43F824000120BB
:1034640038BD0020FCE700BF111E0020CDCCCCCC21
:10347400101E0020E810002000B583B00DF10700F5
:1034840001F01EFE114B98421CD1114B4FF4806287
:10349400C3F8B8254FF40062C3F83C250D499DF8E4
:1034A40007000AF09DFE0C499DF807000AF093FE00
:1034B4009DF807300120984001F0FCFD002003B086
:1034C4005DF804FB6FF00B00F9E700BF0000AD0BE3
:1034D40000A002502CA0025028A1025008B50121DE
:1034E400104BC3F80015104A0223C2F8D0360F4817
:1034F400D0F8003223F0E04343F04053C0F80032E8
:10350400D0F8043223F0E04343F04053C0F80432CF
:10351400C2F80417C2F80419C2F8001B00F032F80C
:1035240008BD00BF0010005000400050002584502A
:1035340000F01F0240090CD001280CD1074880324A
:1035440050F8223023F0E04343EA017140F822109E
:1035540070470348F3E70020F1E700BF00288450D8
:103564000025845038B50546002405E02946044B5F
:10357400185DFFF7DDFF0134032CF7D938BD00BF18
:10358400100A010008B50249024809F0ABF808BD69
:10359400140A0100FC100020F0B583B005460C4667
:1035A40016468AB20F4883681B6829469847034623
:1035B400C00F01D103B0F0BD56B11846FAE70AF0C6
:1035C4004BFD01903A4601A9A8190BF0CDFE3E44EB
:1035D400A64204D2A71B042FF1D90427EFE7002049
:1035E400E8E700BF58F8000008B5054B1B7803B1A5
:1035F40008BDFFF79DFC024B01221A70F8E700BFDB
:10360400121E002008B5064BD3E8EF2F511CC3E867
:10361400E01F0028F8D102B108BDFFF79DFCFBE7CD
:103624001C11002000487047BC110020014BC01A37
:10363400401170473411002038B505460C46FFF799
:10364400F5FF01464022034809F069FD014628467A
:10365400A04738BDF8F7000030B583B005460C46E6
:10366400FFF7E4FF0146402300932346054A06483A
:1036740009F06FFD011E01DB03B030BD2846A047F1
:10368400FAE700BF9FD10000F8F7000008B5092849
:1036940017D8DFE800F0051C1616161616161712B2
:1036A40000210D4809F0C9FC836813F0070F08D105
:1036B4000021094809F021FD03E00221064809F030
:1036C4001CFD08BD0321044809F017FDF9E7012199
:1036D400014809F012FDF4E7F8F7000010B582B0D4
:1036E400EFF31184202383F31288BFF36F8F154AFD
:1036F400136843F00201116013F0010F09D1002394
:1037040084F31188BFF36F8FB3B909F04EFD02B093
:1037140010BD0DF1070201214FF0502009F05EFCAD
:103724009DF80730012B01D00023E9E7FFF77AFF6A
:1037340009F0D1FC0123E3E70021034809F0DDFC93
:10374400E5E700BFE4110020F8F7000010B5EFF33F
:103754001184202383F31288BFF36F8F074A136801
:1037640023F00201116013F0010F04D084F31188D7
:10377400BFF36F8F10BD09F02CFDF7E7E4110020B3
:1037840070B582B00546012807D14FF05023D3F815
:103794001C3403F00303022B36D00BF069FB044600
:1037A40010B92B4B1B7873B9EFF31186202383F3E5
:1037B4001288BFF36F8F012494B94FF05023022273
:1037C400C3F808230CE00026F6E7FCB1304609F004
:1037D40073FA4FF05023D3F81835DBB2012B19D00C
:1037E4000DF1070200214FF0502009F0F7FB0028EB
:1037F400EBD09DF80730022B01D0012DE5D104B3A5
:1038040086F31188BFF36F8F02B070BD012009F0F9
:10381400F4FCDEE74FF05023D3F80431002BDFD063
:103824004FF050230022C3F80421D3F804210222CC
:10383400C3F81825074A2021C2F8801101229A6092
:10384400CEE74FF050230222C3F80423DCE700BF85
:10385400161E002000E100E000B585B0CDF800D0D0
:10386400CDF804D000230293012303936B46074A47
:1038740009F08BFC002805DB4FF4804200236846E6
:1038840003F078F905B05DF804FB00BF2BD200000B
:1038940070B5064600220121052009F0DCF9114823
:1038A40001F016FC104B984219D101F023FC0024BE
:1038B400032C12D82146304609F0BFFB05462146A9
:1038C400304609F0C7FB094908F00CFF002805DB66
:1038D4000123AB601C44E4B2EAE7002070BD6FF042
:1038E4000400FBE7913600000000AD0B200A010044
:1038F40010B504460E4B0121D3E8EF2FC3E8E01FB7
:103904000028F9D11AB1631E012B0DD910BD094845
:1039140009F0A0FB084900234B608B60CB600123B6
:103924008B6008F0FBFEEEE72046FFF729FFEDE78A
:1039340030110020F8F700002011002010B50446D3
:103944000A2806D0E1B206488368DB699847204616
:1039540010BD03488368DB690D219847F2E700BF77
:1039640078F8000010B5044C2046FFF713FD2046FC
:10397400FDF7EAFC10BD00BF4139000008B5054859
:103984000BF0B1F818B1FFF7EDFF002008BD6FF0A0
:103994001200FBE778F80000F0B51C46059F069E70
:1039A40000F01F0C400936D0012836D1284D0CF107
:1039B400800355F8233091B3012092B34FF0020EE7
:1039C40040EA0E0084B34FF00C0E40EA0E0077B3C9
:1039D4004FF4706E40EA0E0066B34FF4403E40EA86
:1039E4000E0023EA000041B30B7842B31278520070
:1039F400134334B322789200134327B33A78120264
:103A0400134316B332781204134303430CF1800CAE
:103A140045F82C30F0BD0F4DC9E70025C7E700205D
:103A2400CBE74FF0000ECBE74FF0000ECDE74FF0A1
:103A3400000ECFE74FF0000ED1E70023D5E70022B8
:103A4400D6E70022D8E70022DAE70022DCE700BF4D
:103A5400002884500025845000F01F03400908D03A
:103A6400012808D1054A803352F8230000F00100F0
:103A74007047034AF7E70022F5E700BF00288450A7
:103A84000025845028B1012801D103487047002043
:103A940070470248704700BF18F8000038F800006B
:103AA4002DE9F04786B0884616469946446801F0E9
:103AB4001F05237B45EA4315204609F05FFC0028D7
:103AC40064D0B6F5001F35D00DF10C0A002703971A
:103AD40004974946304609F086FC8DF80C0000979F
:103AE40001970297CDF804A0A36823FA08F313F012
:103AF400010F02D1B6F1A07F23D004F110060DF11D
:103B04001702294630460AF0E0FE234B984237D08C
:103B140010346A46294620460AF0CBFE1E4B9842D2
:103B240037D10122294620460AF0E7FE002006B0DC
:103B3400BDE8F087294604F110000AF0E2FE0020F7
:103B4400F5E72846FFF788FF0028D6D10DF11702C4
:103B5400294604F110000AF0B8FE104B984203D035
:103B64000DF117030493D3E70DF1170241462046E4
:103B740009F075FC084B9842F2D06FF00B00D6E7C1
:103B84009DF8171030460AF0B0FEC1E76FF08500CB
:103B9400CDE76FF01500CAE70000AD0B0400AD0BD4
:103BA400F0B589B00F461446456801F01F062B7B1B
:103BB40046EA4316104609F0E6FB8DF81E0040F273
:103BC40006332340B3F5837F53D016D8062B4CD04D
:103BD40006D9B3F5807F0DD101238DF81D3024E083
:103BE40003B3022B03D104238DF81D301DE06FF0C5
:103BF400150038E06FF0150035E040F202229342E0
:103C04003BD0B3F5407F03D103238DF81D300CE086
:103C1400B3F5007F03D102238DF81D3005E06FF06A
:103C2400150020E000238DF81D3014F4002F28D057
:103C34006A680123BB409360284609F09FFB40B3A8
:103C440010350DF11F02314628460AF03EFE0746A4
:103C540014F4403F36D1314628460AF042FE3C4B2C
:103C64009F426DD0002009B0F0BD06238DF81D30B1
:103C7400DBE707238DF81D30D7E705238DF81D30CA
:103C8400D3E714F4802FD7D06A680123BB40D360F4
:103C9400D2E7C4F340438DF8083014F4803F0CBFDE
:103CA400012300238DF81030002401940DF11D032D
:103CB40000930DF11E0304AA02A93046FFF76CFE1F
:103CC4002046D0E702AA00230293039304930593AA
:103CD4000693059204AA314628460AF0EAFD1C4BD5
:103CE40098421DD114F4003F1DD09DF81D308DF86D
:103CF400103014F4803F0CBF012300238DF81130E1
:103D04009DF81E308DF81230002304AA314628464F
:103D14000AF0D3FD0E4B9842A1D06FF01500A2E734
:103D24006FF015009FE700230493059306930DF1AC
:103D34001E03049304AA314628460AF0BAFDE9E7B3
:103D44009DF81F1028460AF0D0FD00208BE700BF25
:103D54000000AD0B38B504464568284609F00EFB53
:103D640020B91049204609F0B8FA38BD1035284664
:103D74000AF0B3FD0028F4D1002128460AF0A9FD79
:103D8400094B98420AD10022084928460AF099FDB5
:103D9400002205210D2008F05EFFE2E76FF0040029
:103DA400E3E700BF49D400000000AD0B23D40000BA
:103DB40008B50B690278012A0CD0022A0DD012B181
:103DC400074A1A6201E0074A1A6203F1100002F07E
:103DD4008DFE08BD044A1A62F7E7044A1A62F4E742
:103DE4000100AD0B0000AD0B0100AE0B0200AE0BE9
:103DF4002DE9F04F8DB002AFF86088469346BB6062
:103E040005693D6043689A6A7A619B8B3B614FF018
:103E1400FF324FF0FF3309F045FB05F1100318465C
:103E24007B600022002302F0A5FE00263446BE611A
:103E340040E00122FA6101E00022FA6120466A684A
:103E440004EB020CD7F810E0F44560D813F0010F2E
:103E540000F0D1806B6823449CB2FB694BBB002CFF
:103E640040F0D18058F80AA0AB88297ABA68009249
:103E74005246F86800F04CF9031EBB61C0F2E480BE
:103E84004FF480420023786802F074FEB861002881
:103E940040F0BD803B681A6A714B9A4240F0DC8066
:103EA4002B7A13F0010F03D07B69534500F0B680E1
:103EB40000244E465E4580F0C78006EB46054FEA77
:103EC400850A08EB85052B7A13F0080F40F0B980BA
:103ED40058F80A1001F0604206F10109D9450ED2E2
:103EE40013F0020F0BD109EB490008EB8000007AB4
:103EF40010F0040F03D1584010F0010F99D0002C9A
:103F04009AD1B2F1005F7BD00022FA6196E7FB6898
:103F140019686D46032387F82430052387F8253074
:103F24008CB002AE16F1100C24D01A20BCF1000F94
:103F340010D00346042803DDDFF828E1C6F814E0B6
:103F4400082B00DDB4610C2B00DDF261102B01DDC8
:103F54003B693362032387F82030052387F8213037
:103F6400BCF1000F15D0142800DD716206F128039E
:103F740000210CE06FF00040D8E701F1080207F1DE
:103F84002004224412F8082C03F8012B01310129E2
:103F9400F3D919282CDD1A23BCF1000F0CD006220A
:103FA40087F82420002287F8252087F8262001227C
:103FB40087F82720786A306100216FF300016FF3DE
:103FC40041016FF382016FF3C501012262F388118D
:103FD400C3F30A0363F353216FF31F5100236246B3
:103FE4002148FDF78FFDAD466FF01B03BB612BE04D
:103FF4006FF01B03D0E77B6918440BF0B5F929E790
:104004000023FB6129E72346D7F814A02DE7F868BD
:1040140000F02CF86FF00403BB6115E01D4607E0C7
:10402400A41AA4B2291958F800000BF09DF9013E16
:1040340006EB4603980008EB83035A689442EFD2D8
:1040440036E76FF08503BB61F86809F030FAB869A8
:104054002C37BD46BDE8F08F6FF00403BB61F3E776
:104064000000AD0B040B0100F4FB000070B54468C4
:104074002368D3F80855D3F80C65204602F016F8E7
:104084003146284602F0E6F805460021606A09F048
:1040940025FA204601F0FAFF034B9D4201D100208E
:1040A40070BD6FF00F00FBE70000AD0B08B543686F
:1040B40011F0010F24D1C1F34201022912D00329C6
:1040C40017D0012907D0104A0121104808F079FCC3
:1040D4006FF0150005E01B684FF0CC72C3F824257F
:1040E400002008BD1B684FF0C862C3F824250020D7
:1040F400F7E71B684FF07F62C3F824250020F0E740
:104104006FF01500EDE700BF380C0100F4FB000070
:1041140010B588B040680024039404940594069470
:10412400079401F001048DF80C40BDF828408DF887
:104134000D4004930692828D9A4210D311F0020F1F
:1041440016D0002203A902F005F80D4B984214D0B2
:104154000B3398420ED06FF0040008B010BD0092EB
:10416400084A0121084808F041FC6FF01B00F4E7FD
:104174002022E7E76FF00F00EFE70020EDE700BF34
:104184000000AD0B4C0C0100F4FB0000B0B582B094
:1041940000AF05464468236A98470121606A09F024
:1041A4009DF92B46A26904F10801204601F028FF7D
:1041B4002E4B984206D12E49284609F07DF908373E
:1041C400BD46B0BD29686D4600233B7102237B7157
:1041D40088B06C4614F1100211D00E201AB10428D4
:1041E40001DD244B636100233B7002237B709AB191
:1041F400082800DDA16104F11C0300210AE06FF02E
:104204000040EBE701F1080CBC441CF808CC03F8AF
:1042140001CB01310129F5D90D2824DD0E2342B14A
:104224000321397100217971B9710121F97178681B
:10423400206100216FF300016FF341016FF38201EC
:104244006FF3C501012060F38811C3F30A0363F31C
:1042540053216FF31F5100230748FDF753FCAD466C
:104264006FF00400ABE76FF01B03D8E70000AD0B61
:1042740029D50000940C0100F4FB000070B400F098
:104284001F0C400919D0012819D10E4D0CF18000E2
:1042940055F820600C4C344041EA420141EA830362
:1042A4009DF80C2043EA02239DF8102043EA0243C0
:1042B400234345F8203070BC7047044DE6E70025E1
:1042C400E4E700BF00288450F0F0FCFF0025845090
:1042D40000F01F01400906D0012806D1044A012339
:1042E4008B4093607047034AF9E70022F7E700BF69
:1042F400002884500025845000F01F01400906D096
:10430400012806D1044A01238B40D3607047034A35
:10431400F9E70022F7E700BF002884500025845005
:104324002DE9F04F85B007468B469046002423E0E4
:104334004FF0FF3535E0C8F80C5501260396314699
:10434400B5F1FF3F16D0B1F1FF3F40F0138157F8AC
:104354000A3013F4004F02D00126002203920022F7
:104364000192CDF80090C3F34123324603992846C5
:10437400FFF784FF0134E4B25C4580F0FF804FEA2C
:10438400840A57F82430C3F3C322C3F30805082A68
:1043940000F2F6807E4911F8029040F2FF12954235
:1043A400C6D01B0E222B00F2EE8001A252F823F09D
:1043B4003B430000414400004F4400005B440000C4
:1043C4006944000077440000834400008B450000EA
:1043D4008B4500008B4500008B4500009144000094
:1043E400A54400008B4500008B4500008B45000070
:1043F4008B4500008B4500008B4500008B45000079
:104404008B4500008B450000B9440000CB440000FC
:10441400DD440000EF4400008B4500008B450000A4
:104424008B45000001450000114500001D450000BA
:104434002D4500003D4500004D450000C8F81455C9
:10444400002603964FF0FF317AE7C8F80855012695
:104454000396314674E7C8F81055002603964FF0CA
:10446400FF316DE7C8F80855002601230393314650
:1044740066E7C8F80C5501260396002160E7C8F8E2
:104484001055002603964FF0FF3159E7C8F8085538
:10449400B9F1000F5ED0002603964FF0FF314FE7CD
:1044A400C8F80C55B9F1000F5CD0002603964FF004
:1044B400FF3145E7C8F8605557F80A10C1F30041C9
:1044C400012603963CE7C8F8645557F80A10C1F36F
:1044D40000410126039633E7C8F8685557F80A10D7
:1044E400C1F30041012603962AE7C8F86C5557F832
:1044F4000A10C1F300410126039621E7C8F82455A8
:104504000126002303934FF0FF3119E7C8F828551B
:1045140001260396314613E7C8F8305501260023D7
:1045240003934FF0FF310BE7C8F8345501260023FD
:1045340003934FF0FF3103E7C8F8385501260023F1
:1045440003934FF0FF31FBE6C8F83C550126039670
:104554003146F5E64E46CDF80C904FF0FF314FF062
:104564000609EDE64E46CDF80C904FF0FF314FF0C2
:104574000609E5E6284609F006F8E8E6002004E026
:104584006FF0150001E06FF0850005B0BDE8F08F15
:10459400B40C01002DE9F84305460F4646680AF0BD
:1045A40067FC20B9234B1B780BB3002300E00123E5
:1045B400D5F810906A68D2F80080F3B9284609F05B
:1045C4001BF90446736813F0040F03D04FF48003FF
:1045D400C8F80433F36A1F700122F16A284609F00F
:1045E40057F984F31188BFF36F8FBDE8F883012373
:1045F400DEE784F31188BFF36F8FEFF31184202378
:1046040083F31288BFF36F8F284608F0F5FF002864
:10461400EFD0D9F80030002BD4D0D3F8A420002A4E
:10462400D0D0D3F8B420002ACCDAD8F84C25C3F87B
:10463400B420C7E7161E00202DE9F04F85B0984638
:10464400D0F810B0DBF80040D0F804A0DAF800503D
:104654009AF80830002B40F0B58081460F46164684
:1046640094F86130002B40F0B08094F86230002B55
:1046740040F0AE806365B8F1FF3F44D0B8F1040F59
:1046840016DDA3F1993383FB08234FEAE870C0EBEE
:104694006300C117C90341EA5041C0034E4BC0181F
:1046A4004E4A4FF0000341F10001FBF751FD01E0D8
:1046B40000200146A065E165276466640023A364C5
:1046C400E3642365DAF8043013F0040F20D1DAF838
:1046D400043013F0040F02D094F8602052BBC5F8E4
:1046E4003475C5F838650020C5F81001D5F81031C7
:1046F400C5F84C01D5F84C31012384F861302B60A6
:1047040005B0BDE8F08F00220023C4E91623D3E7E7
:10471400EFF311830393202383F31288BFF36F8F86
:104724000221484609F0A8F8039B83F31188BFF3DC
:104734006F8FCCE7B24228BF32469146DAF8281090
:1047440038460AF011FE4F44B6EB090614D0B8F10E
:10475400FF3FC4D00023C5F80831D5F8083104F16F
:104764000800D4E916234FF000084FF00009CDE902
:10477400008903F069F8B2E794F86020A2EB09021B
:10478400D2B284F86020DAF8280000EB09010AF0BC
:10479400F8FD0BF10803D3E8EF1F41F00401C3E86F
:1047A400E21F002AF7D145F30735002D08DB05F099
:1047B4001F026D09012393404035094A42F8253010
:1047C40000209DE76FF085009AE76FF00F0097E7F0
:1047D4006FF00F0094E700BF3F420F0040420F000C
:1047E40000E100E0F0B583B004461D460669EFF32E
:1047F4001187202383F31288BFF36F8F3368D3F8B4
:10480400A40000BBC3F8A4203368C3F8A01001F0CF
:104814006043B3F1005F1DD13368C3F8A810336857
:10482400C3F8AC203146204609F04DF887F31188CF
:10483400BFF36F8F204608F00EFF80B3B5F1FF3F42
:1048440010D100202CE087F31188BFF36F8F6FF035
:104854000F0025E033680022C3F8B020204609F099
:10486400A3F9DFE73468683425EAE575E917C90375
:1048740041EA5541ED030B4828180B4A4FF0000359
:1048840041F10001FBF764FC02460B4600200021C5
:10489400CDE90001204602F0D7FF002000E000200F
:1048A40003B0F0BD3F420F0040420F0070B5044614
:1048B400056943681E68286800220A4908300AF01E
:1048C400E8FC2B68DC6328680022074968300AF09A
:1048D400E0FC2B68C3F89C40044BC6F8043300206A
:1048E40070BD00BF11DD00000DDB000014020A00E2
:1048F40038B505460C4601F10C0000F0E1FB0C4B09
:1049040098420DD105F10C0205F59071207B09F058
:104914006CFC237B0120984000F0CCFB002038BDC8
:10492400044A0121044808F04CF86FF00400F6E74B
:104934000000AD0BC00C01002CFC000038B504468F
:1049440045680121E86808F07CFF63681A682B69F0
:10495400C2F824356B7DA97D0B43298B0B43297D3C
:104964000B43C2F86C3523691B6823B12046FFF75B
:104974009DFF002803DB204609F004FA00B138BD8E
:104984000249204608F007FEF9E700BF31D90000CC
:1049940021F07F4100F5A870014B43F820107047C7
:1049A400005001504FF480338340024AC2F844332C
:1049B400704700BF005001504FF480338340024AD7
:1049C400C2F84833704700BF00500150014BD3F880
:1049D40004057047005001502DE9F8430546894607
:1049E4009046FFF7E9FF284609F0FEFA4E460327F2
:1049F40010E0FFF7EBFF0446494609F0E4FAB0F58E
:104A0400000F26D9284609F0EFFAB8F1000F22D199
:104A14003E19013731462846FFF7BAFF2846FFF70B
:104A2400C1FFFFF7D3FF0446C11C304609F0CBFA9F
:104A34000A4B98420AD9284609F0C9FA0028D8D165
:104A4400B8F1000FE4D06FF0150000E00020BDE8DD
:104A5400F8830020FBE76FF01500F8E7FDFF7F0007
:104A6400034B044AC3F80823C3F84823704700BF24
:104A74000050015003000F0010B5012383406FEA7A
:104A8400030C0C4AD2E8EF1F01EA0C0EC2E8E4EF73
:104A9400002CF7D14FF4803282400748C0F8082335
:104AA400BFF35F8FBFF36F8F0B4214BF0120002051
:104AB40010BD00BF48120020005001504FF4803355
:104AC4008340124AD2F80423134201D100207047D4
:104AD40010B5044601238340DB430D49D1E8EF2F91
:104AE40002EA0300C1E8EC0FBCF1000FF6D122FA90
:104AF40004F313F0010F03D1204609F068FA18B14A
:104B0400204609F071FA012010BD00BF0050015089
:104B14004412002001B97047012383400D4AD2E8B2
:104B2400EFCF4CEA030CC2E8E1CF0029F7D14FF4F0
:104B340080338340084AC2F80433084BD3E8AF3FBC
:104B4400C34013F0010FE6D0054B4FF40012C3F835
:104B54000021E0E7481200200050015044120020D8
:104B640000E100E038B514461046194609F048FA49
:104B740002460D490B68E01A1B184C6844F1000406
:104B84000B604C60A2F50013B3F5400F09D2074B3C
:104B94001B68190A1B06D41841F10005044BC3E92C
:104BA400004502F055FD38BD300900204C120020AC
:104BB4003809002038B50D4B1C68250A2406BFF3BC
:104BC4005F8FFFF703FF0346001945F10001B3F5BA
:104BD400801F0AD2064BD3E90023904271EB0303F2
:104BE40003D210F1807041F1000138BD4C12002055
:104BF400380900202DE9F041064614461D469DF86B
:104C040020801046194609F0FBF90746FFF7D2FF4A
:104C1400A04271EB050319D2201A65EB01011B4B6D
:104C2400984271F100012BD2194B03EB0613D3E91F
:104C34000223AB4208BFA24201D1002014E0424645
:104C440039463046FFF7C8FE70B117E0B8F1000FDF
:104C540019D10123B3400F4AD2E8EF0F1843C2E839
:104C6400E10F0029F8D10020094B320103EB0616AD
:104C7400C6E9024506999950079B7360BDE8F08127
:104C84006FF01500FAE76FF01500F7E701008000F8
:104C9400200900204412002030B585B0FFF7E0FE63
:104CA40000231E4AC2F80835002B25DD1B4C0225C3
:104CB400C4F804531A4B4FF40012C3F880210022A5
:104CC4000121152007F0C7FF152007F0BAFF0123C3
:104CD400A3602360134A1360002402940194124BCE
:104CE4000093124A0023204609F09AF92846FEF759
:104CF400FFFD204605B030BD0D4A02EB03124FF014
:104D0400FF304FF0FF31C2E902014FF480329A4084
:104D14000249C1F804230133C6E700BF0050015023
:104D240000E100E048120020694B0000FFFF7F0013
:104D3400200900202DE9F04782B00446FFF7BEFEAB
:104D440010B902B0BDE8F087FFF734FF82460D4684
:104D540009F059F90646154B03EB0413D3E902890C
:104D6400C24575EB09050BD20025304609F053F90D
:104D7400002DE6D0009742464B462046A847E0E780
:104D84000A4A230102EB0411D5584F680020D05081
:104D94004FF0FF324FF0FF33C1E902232046FFF703
:104DA4000BFE204609F020F9DFE700BF20090020B0
:104DB40010B50D4BD3F8043313F0020F03D10024C4
:104DC400002C0BDD10BD0221074809F0C6F80028AD
:104DD400F5D0064A136801331360F0E72046FFF765
:104DE400A9FF0134ECE700BF005001504C12002031
:104DF40010B584B0B0F1FF3F18D001281BDD154B6E
:104E04009842A8BF18460446134B01221A70FFF7B4
:104E1400D1FE124B1A685B68801AB0F5000F0CD2F1
:104E24000444B4F5000F09D30A4C07E00A4B0022EE
:104E34001A70084CEBE70124E6E7064C002012192F
:104E4400029001900649009143F1000309F0E8F84B
:104E540004B010BDFFFF7F00151E002030090020A4
:104E6400694B000008B5FFF7A5FE024B1B68C01A8A
:104E740008BD00BF300900204FF05023D3F8582557
:104E840002F00302024BD340024A1360704700BF92
:104E94000020A1075400002008B509F061F968B1A9
:104EA4005D4BD3F8203A4BB95B4B0D22C3F8202A53
:104EB4000122C3F81C290022C3F81C2900220BE09C
:104EC40002F160034FF47F0151F83310DB0003F566
:104ED4007F035B680B6001321F2A08D802F160036C
:104EE4004FF47F0151F83330B3F1FF3FE8D109F0BB
:104EF4000FF930B1484B2922C3F80C270322C3F819
:104F04003C2709F0B9F840B1444B454AC3F8302571
:104F14004FF050230122C3F8582509F0C1F818B105
:104F2400404B0022C3F84C2509F0D2F868B14FF089
:104F34005023D3F8003413F0010F06D04FF0502360
:104F44000022C3F81421C3F8182109F0D5F860B180
:104F54004FF05023D3F8003413F0010F05D04FF075
:104F640050236FF00102C3F8002409F0E5F818B1EA
:104F7400294B6522C3F80C2709F006F920B1294B07
:104F8400D3F82034002B30DB09F00AF9E8B1224BC6
:104F94007E22C3F80C27C3F83C29234A7F23C2F896
:104FA40018311E490023C1F8043EC1F8083E01F53A
:104FB4004821C1F81031C2F82431C2F82C3102F56D
:104FC400FF1202F58052C2F8A032184AD2F88C308F
:104FD40043F44063C2F88C30154A1168154BC3F88A
:104FE4004415D269C3F84C2508BD4FF05023032261
:104FF400C3F8182501229A604FF05023D3F80431E6
:10500400002BF9D04FF050230022C3F804210122D1
:10501400DA60C3F81825B7E7004000500090035049
:105024004400EFBE002003500020005000ED00E0DB
:105034000080FF000060005010B50468ACB1B4FA01
:1050440084F3C3F11F03DBB201229A4024EA020273
:10505400D0E8EFCFA44504D1C0E8EE2FBEF1000F95
:10506400F6D1EAD10B70024810BD0248FCE700BF3C
:105074000000AD0B0200AD0B0368CB4013F0010F31
:1050840011D100B5026801238B401343D0E8EFCF60
:10509400944504D1C0E8EE3FBEF1000FF6D1F1D142
:1050A40002485DF804FB0248704700BF0000AD0BE6
:1050B4000400AD0B014BC3F80405704700700150A8
:1050C40008B50146014809F036F908BD580000202A
:1050D400054B1B792BB9044B186001221A71034844
:1050E40070470348704700BF501200200000AD0B0A
:1050F4000C00AD0B08B5084B1B680BB109F0B0F8F8
:1051040009F0ACF84FF05023C3F818050122C3F896
:105114001425C3F8802508BD5012002000B583B0C3
:10512400032818D8DFE800F01A026D6700224FF454
:105134008073012003F1502300211960196802F1E2
:10514400502201211160354A1268002A5FD04FF0C5
:105154005023C3F8040303B05DF804FB4FF050235D
:10516400D3F81824D3F8183403F003038DF8073068
:1051740012F4803F15D14FF05023D3F8143413F0B8
:10518400010F13D109F06AF88DF807009DF8072084
:105194004FF05023C3F8182508224FF482730220DD
:1051A400C8E70DF1070009F0ADF8EFE74FF0502321
:1051B400D3F81C3403F003038DF807300DF1070016
:1051C40009F0A0F80028E1D0144B1B682BB14FF074
:1051D40050230222C3F80423BDE74FF05023D3F831
:1051E4000431002BF9D04FF050230022C3F80421DE
:1051F400D3F80431AFE718224FF490734FF4807062
:1052040098E720224FF492734FF4007092E71A68E3
:10521400002AFCD000221A601B689CE75012002070
:1052240010B54FF05023D3F8044302E0194B1B6828
:10523400984774B3B4FA84F0C0F11F00012282408D
:1052440083009BB203F580739BB2C0B292B224EA8E
:10525400020403F1502319680029EAD000211960DF
:105264001B684FF05023C3F80823022ADED1D3F879
:105274001814D3F8183403F00303012BD6D14FF0DC
:1052840050230221C3F81815C3F8042301229A609D
:10529400CFE710BD5012002008B50079024B03EB94
:1052A4000010FFF7C9FE08BD6000002070B400F0D4
:1052B4001F0C400919D0012819D10E4D0CF18000A2
:1052C40055F820600C4C344041EA420141EA830322
:1052D4009DF80C2043EA02239DF8102043EA024380
:1052E400234345F8203070BC7047044DE6E70025A1
:1052F400E4E700BF00288450F0F0FCFF0025845050
:10530400F0B51C46059F069E00F01F0C400936D0E0
:10531400012836D1284D0CF1800355F8233091B380
:10532400012092B34FF0020E40EA0E0084B34FF016
:105334000C0E40EA0E0077B34FF4706E40EA0E0094
:1053440066B34FF4403E40EA0E0023EA000041B346
:105354000B7842B312785200134334B3227892008C
:10536400134327B33A781202134316B33278120464
:10537400134303430CF1800C45F82C30F0BD0F4D62
:10538400C9E70025C7E70020CBE74FF0000ECBE7C5
:105394004FF0000ECDE74FF0000ECFE74FF0000EB8
:1053A400D1E70023D5E70022D6E70022D8E7002280
:1053B400DAE70022DCE700BF00288450002584508F
:1053C40000F01F02400907D0012807D1044B1869D7
:1053D400D04000F001007047024BF8E70023F6E7E5
:1053E400002884500025845000F01F03400908D091
:1053F400012808D1054A803352F82300C0F3014044
:105404007047034AF7E70022F5E700BF00288450FD
:105414000025845000B583B084468E460C4B93E837
:10542400030002AB03E90300634609E002A901EBB0
:10543400830151F8081C086A42F8040B086201331E
:105444000CEB0E009842F1D803B05DF804FB00BFEA
:1054540090FC000000F01F01400906D0012806D18D
:10546400044A01238B4013627047034AF9E7002280
:10547400F7E700BF00288450002584504309034AFD
:10548400D35C00F01F001844C0B27047540D0100F3
:105494000048704758120020004870476C0D010006
:1054A4002DE9F04184B005460C4616461F460846D1
:1054B400FFF7E4FF804656B32146284609F020F85A
:1054C40028B12146284608F0DBFF002843D12146B5
:1054D400284608F0E4FF10B17378012B3BD0012378
:1054E4008DF80F30002301930096B31C721C0DF14C
:1054F4000F012046FFF704FF2879FFF7C9FF08F1E1
:10550400080230F8123043F0030320F81230002F61
:105514003BD02146284608F0F3FF002837D13E78D7
:105524002B6806F5A272002143F8221043F82210DA
:105534002879FFF7ADFF08F1080230F8123023F0A4
:105544002003DB04DB0C20F812307B782BB91148E4
:1055540004B0BDE8F0811048FAE7BA780092224618
:105564003146286808F004FF2879FFF791FF0246C6
:1055740008F1080032F810307603B6B2334343F032
:10558400200322F810300348E2E70248E0E702482B
:10559400DEE700BF0000AD0B0400AD0B70B506469E
:1055A4000D46144608F06CFF68B13079FFF770FFC0
:1055B40006462846FFF762FF083036F810305B0BCA
:1055C4002370024870BD0248FCE700BF0000AD0B29
:1055D4000400AD0B30B583B005460191002400E012
:1055E4000134012C18D80E4B1B5D03F0070202A9ED
:1055F40001EBD30313F8043CD34013F0010FEFD0B5
:1056040005EB840201212046FFF704FF55F82430FE
:10561400002BE5D0012000E0002003B030BD00BF26
:10562400640D010008B50079024B03EB8000FFF71D
:1056340003FD08BD700000202DE9F04182B005464D
:10564400884616461F4609F09BF8AEB33A463146E3
:10565400284608F0B1FF041E20DB2879FFF718FF65
:1056640040F834602879FFF713FF00EBC40047606B
:105674002879FFF70DFF05464046FFF7FFFE083087
:1056840035F81030E4B26402A4B2234343F48073C7
:1056940025F81030094802B0BDE8F0812879FFF7F9
:1056A400F7FE0DF107017830FFF7C6FC034B984273
:1056B400F1D19DF80740D0E70048ECE70000AD0BBE
:1056C4002DE9F04784B006460C4690460846FFF79D
:1056D400D5FE07463079FFF7DBFE0546D8F8009083
:1056E400B9F1000F21D02146304608F0F8FE002819
:1056F40043D100238DF80E308DF80F3001930093C1
:105704004B460DF10F020DF10E012046FFF7F8FD97
:1057140007F1080235F8123023F002039BB225F892
:10572400123043F0010325F81230D8F80430BBB12D
:1057340093F80090D3F804A02146304608F0C0FE48
:10574400E8B1BAF1000F61D1083735F8173023F00A
:105754001C039BB225F8173043EA890325F8173058
:10576400D8F80820002A55D05368126821463046DC
:10577400FFF762FF04B0BDE8F0872748FAE707F1B6
:10578400080235F8123023F02003DB04DB0C25F883
:105794001230BAF1000FD7D0B9F1030F38D8D8F8C6
:1057A40004305B6893F800A0B9F1000F08D13368A6
:1057B4000AF5A27A002243F82A2043F82A20C3E7F4
:1057C400484608F0A5FE034631680AF5A27C51F864
:1057D4002C2022F0030241F82C2022465146306846
:1057E40008F0ADFD0AF13C0305EB43039C8007F18F
:1057F400080235F812304FEA4A3A1FFA8AFA43EAA5
:105804000A0343F0200325F812309DE70248B1E76C
:105814000148AFE70148ADE70400AD0B0000AD0B54
:1058240038B505460C4608F01CFE08B9074838BDD3
:105834002146284608F09DFE2146284608F0CBFF65
:10584400204608F0F2FD0248F1E700BF0400AD0B6A
:105854000000AD0B08B50079024B03EB8000FFF7A5
:105864000BFC08BD70000020F0B583B005460E4661
:105874000079FFF70DFE90F88C3013B10D4803B09A
:10588400F0BD044660220021103009F094FD2F6819
:105894002879FFF701FE03680093002332464FF096
:1058A4000041384608F0B9FF012384F88C30A3671F
:1058B4000148E4E70C00AD0B0000AD0B2DE9F04707
:1058C40082B081460F4690460023009301935168AD
:1058D4006846FFF77FFE4CE094FAA4F4B4FA84F42B
:1058E40004F01F05254B9B5D45EA43152846FFF749
:1058F400C5FD083037F810A0CAF3820A0DEB860301
:10590400E00804F007041A5C0121A14022EA010224
:105914001A542846FFF768FD03465246294638467E
:1059240008F0F8FE2846FFF795FD02AB03EB86036B
:1059340053F8084C002CCFD10136012E0DD8104B52
:105944009B5D08F10402D90803F00703525C22FAB4
:1059540003F313F0010FEFD0E7E700224FF000410B
:10596400484608F041FDD8F804106846FFF732FEB7
:1059740008B10026E1E702B0BDE8F087680D010038
:10598400640D0100F8B504460E461148081A114B7F
:10599400A3FB00304009FFF77FFD0746D4F804134A
:1059A400C9B2026841F00041204608F01DFD051E01
:1059B40005DB2A463146204608F059FFF8BD3A4631
:1059C40031462046FFF77AFF25F00045F1E700BF96
:1059D40058120020398EE33808B502490248FFF70F
:1059E400D1FF08BD5812002000D0005038B5012363
:1059F4000360A1B104460D464B680BB90123436112
:105A04000020074B034053B92A460649204608F0B4
:105A14007CFF10F4007FF4D001236361F1E738BD0B
:105A240002000400020204000123836000293CD028
:105A340070B505460E464B680BB90123436100203F
:105A44001A4C044084BB32461949284608F05DFFCD
:105A540010F4007FF4D0D5F86031ABB9D5F800125A
:105A640001222A626A612046002BE9D011F4807F6A
:105A7400E6D0D5F848010028E2D00023C5F8483123
:105A8400D5F848312046DBE70023C5F86031D5F866
:105A94006031D5F8001211F4007F02D04FF080730A
:105AA400E2E74FF08073DBE770BD7047020004004B
:105AB4000202040070B400F01F0C400919D0012840
:105AC40019D10E4D0CF1800055F820600C4C344077
:105AD40041EA420141EA83039DF80C2043EA022390
