:1000000020240020890E000085590000750E000094
:10001000750E0000750E0000750E0000750E0000D4
:1000200000000000000000000000000009100000B7
:10003000750E000000000000A10F0000750E00000A
:100040009911000099110000991100009911000008
:1000500099110000991100009911000099110000F8
:1000600099110000991100009911000099110000E8
:1000700099110000991100009911000099110000D8
:1000800099110000991100009911000099110000C8
:1000900099110000991100009911000099110000B8
:1000A00099110000991100009911000099110000A8
:1000B0009911000099110000991100009911000098
:1000C0009911000099110000991100009911000088
:1000D0009911000099110000991100009911000078
:1000E0009911000099110000991100009911000068
:1000F0009911000099110000991100009911000058
:100100009911000099110000991100009911000047
:100110009911000099110000991100009911000037
:100120009911000099110000991100009911000027
:100130009911000099110000991100009911000017
:100140009911000099110000991100009911000007
:040150009911000001
:1001540053B94AB9002908BF00281CBF4FF0FF312A
:100164004FF0FF3000F00CB8ADF1080C6DE904CE8F
:1001740000F018F8DDF804E0DDE9022304B070476C
:10018400704700BF034611F8012B03F8012B002A26
:10019400F9D17047034613F8012B002AFBD1181A32
:1001A400013870472DE9F04786468C460846089E7C
:1001B400154674461946002B40F0C1808542B2FAB8
:1001C40082F245D94AB1C2F1200300FA02FC9540FB
:1001D40094402EFA03F343EA0C0C4FEA154EA8B2EE
:1001E400230CBCFBFEF80EFB18CC08FB00F943EA19
:1001F4000C43994528D9EB1808F1FF3704D29945E7
:1002040002D9A8F102072B44A3EB0903A4B2B3FB60
:10021400FEFC0EFB1C330CFB00F044EA0344A0423A
:1002240014D92C190CF1FF3304D2A04202D9ACF139
:1002340002032C44241A43EA07401EB1D44000238D
:1002440034607360BDE8F0874746DDE76346F1E755
:1002540092BB431B01214FEA154EAFB2200CB3FBF6
:10026400FEFC0EFB1C330CFB07F840EA03439845E5
:1002740061D9EB180CF1FF3004D2984502D9ACF1E6
:1002840002002B44A3EB0803A4B2B3FBFEFC0EFB59
:100294001C330CFB07F744EA0344A7424DD92C193D
:1002A4000CF1FF3304D2A74202D9ACF102032C446F
:1002B400E41B43EA0040C0E7C2F1200395409440A8
:1002C40020FA03F12EFA03F34FEA154E9040AFB231
:1002D4000343B1FBFEFC0EFB1C10190C0CFB07F8CE
:1002E40041EA0041884522D969180CF1FF3004D253
:1002F400884502D9ACF102002944A1EB08019BB264
:10030400B1FBFEFC0EFB1C110CFB07F743EA014397
:100314009F420ED9EB180CF1FF3104D29F4202D94F
:10032400ACF102012B44DB1B41EA004193E7604638
:10033400E3E76146F7E76046A4E76346B8E783422C
:1003440006D916B9002108467CE7C6E900E0F9E7BA
:10035400B3FA83F78FB9834201D3724508D8BEEB51
:10036400020460EB030301209C461EB9002169E7E7
:100374003846FAE7C6E9004CF8E7C7F1200CBB4061
:100384000EFA07F522FA0CF42EFA0CF1BA401C43CB
:1003940020FA0CF3B8404FEA144901431FFA84FED3
:1003A400B3FBF9F809FB18300B0C08FB0EFA43EA0F
:1003B40000439A4540D9E31808F1FF3004D29A4526
:1003C40002D9A8F102002344A3EB0A0389B2B3FBC8
:1003D400F9F809FB183308FB0EFE41EA03418E4588
:1003E4002CD9611808F1FF3304D28E4502D9A8F143
:1003F4000203214443EA0040A1EB0E01A0FB029852
:100404004145CE46434602D306D14D4504D2013878
:10041400B9EB020E68EB0403002EA7D0B5EB0E0275
:1004240061EB030101FA0CFC22FA07F3F9404CEAF0
:100434000303C6E9003199E74046C5E74346D9E7D7
:1004440010B5064C4FF0FF324FF0FF33204603F057
:100454009BFAE168024805F0F3F810BDF0000020B3
:100464005880000010B5044C204603F00DFBE168F1
:10047400024805F0E5F810BDF0000020708000008F
:1004840010B58AB007F0FBFA4A0142EAD062430190
:100494001B1A62EB0102920042EA93729B001B1842
:1004A40042EB0102D20042EA5372C3F3103343EA2F
:1004B4004243D20B0093019200F0BAF8FFF7C0FF59
:1004C4000DF1080C164C0FCCACE80F0094E80F00AB
:1004D400ACE807002CF8023B1B0C8CF80030114CE4
:1004E4001F220021204607F01FFB02A92046FFF728
:1004F40049FE02A8FFF74EFE0146204600F06EF8C2
:10050400FFF7B0FF084C204606F0F3FF00F09AF81E
:10051400204606F0EEFF684604F0FDFEB2E700BF99
:100524008C800000B005002040420F0010B58AB056
:1005340007F0A5FA4A0142EAD06243011B1A62EBB2
:100544000102920042EA93729B001B1842EB0102E3
:10055400D20042EA5372C3F3103343EA4243D20B4C
:100564000093019200F078F80DF1080C144C0FCCB4
:10057400ACE80F0094E80F00ACE807002CF8023B4D
:100584001B0C8CF80030FFF75BFF0E4C02A92046D1
:10059400FFF7F8FD02A8FFF7FDFD0146204600F035
:1005A4001DF8FFF75FFF084C204606F0A2FF00F09D
:1005B4005DF8204606F09DFF684604F0ACFEB7E700
:1005C400AC800000B005002040420F0008B5024B8B
:1005D400186806F094FF08BD0000002010B584469A
:1005E4000A46044B186883685C684FF0FF33614621
:1005F400A04710BD0000002008B50A4806F07FFFA0
:1006040058B14FF4D011084804F0DBFE4FF4D01178
:10061400064804F0D6FE012008BD024806F06FFF2C
:10062400EFE700BFA47C0000EC800000E480000041
:1006340008B501220621024804F0DEFE08BD00BF11
:10064400A47C000008B500220621024804F0D4FE70
:1006540008BD00BFA47C000008B5012207210248A0
:1006640004F0CAFE08BD00BFA47C000008B5002247
:100674000721024804F0C0FE08BD00BFA47C0000AE
:1006840008B5024B1B68984708BD00BF0400002052
:10069400014B1860704700BF0400002000B585B00E
:1006A4000A460023009301930293039302238DF8D7
:1006B4000230044B01930146684604F0D1FB05B0B7
:1006C4005DF804FB8506000080B505460E46174616
:1006D400984603F0ABFE034607F0A0FA0446DFF8A1
:1006E400189049F80030424639463046A84754F835
:1006F400090000F039FC00BF080000002DE9F043B8
:1007040083B0044608461546238B13F0080F05D121
:1007140003F0070600230093019354E0012909D054
:1007240043F02003238385F31188BFF36F8F03B055
:10073400BDE8F08343F010032383F4E7204604F07C
:10074400B7FF42E0D4F814904A466946204604F0C4
:10075400C8FF4FF00008238B03F00707B74269D0A6
:10076400A268002A66D0012243F00803238385F39C
:100774001188BFF36F8F002A64D1009B2BB14B46C5
:100784003A466946204605F025F8B8F1000F02D034
:1007940034492046C047EFF31185202383F31288A0
:1007A400BFF36F8F238B23F008032383238B13F072
:1007B400100F4DD023F0100323830120268B06F065
:1007C40007060028AFD00228B8D00028ABD00138E3
:1007D40004282BD801A353F820F000BF49070000D8
:1007E40031080000F5070000090800001D0800009A
:1007F4002369D3F800800621204604F02FFF4FF030
:100804000009A8E72369D3F804800421204604F0F2
:1008140025FF4FF000099EE72369D3F808800521DE
:10082400204604F01BFF4FF0000994E74FF0000846
:10083400C14690E7009A0AB1002295E7B8F1000F8B
:1008440092D1B3E74A463946204604F00FFF94E7B5
:1008540013F0200F04D023F0200323830220ADE7FC
:100864000020ABE707580000014B036000207047ED
:10087400F480000008B5034804F0E2FE024804F0E6
:10088400DFFE08BDF48000002C81000008B502489A
:1008940004F0A4F908BD00BF5C810000B0F5680F46
:1008A40017D00CD840F6BA63984214D0B0F5683F1C
:1008B40013D03A2801D00120704700207047094B1B
:1008C40098420CD0084B984201D001207047002078
:1008D40070470020704700207047002070470020B8
:1008E400704700BF3A00003A2C5F5CA928B308B5F2
:1008F4004368B3F5683F0AD0B3F5680F14D01249C2
:100904008B421FD0006803F0BFF8002014E0036896
:100914000022D3E8EF1F012903D1C3E8E02F002808
:10092400F7D10DD1104607E003681B7803F58073F7
:100934000020064A42F8230008BD6FF4E0407047E7
:100944000348F9E70348F7E72C5F5CA9000003506C
:10095400E98FFFFFEA8FFFFF88B308B54368B3F55B
:10096400683F0FD0B3F5680F19D016498B4224D0D5
:1009740000684FF0FF324FF0FF3303F005F868B121
:1009840011480BE003680122D3E8EF1F002903D1CB
:10099400C3E8E02F0028F7D10BD1002008BD03687D
:1009A4001B7803F58073094A52F823301BB90020E1
:1009B400F4E70548F2E70448F0E70548EEE76FF48A
:1009C400E04070472C5F5CA9E98FFFFF00000350F3
:1009D400EA8FFFFF10B50446A8B16368B3F5683F1A
:1009E40010D0B3F5680F0DD00D4A93420AD013F41A
:1009F400686F0DD021680B4806F0E6FD00232360E4
:100A0400074B636010BD084B5B6808489847E4E7F0
:100A1400236800221A605A609A60DA601A61EFE76C
:100A24002C5F5CA9D00A00207400002064810000BF
:100A340010B5044668B36068B0F5683F28D0B0F5D7
:100A4400680F25D0174B984228D0FFF727FFC0B175
:100A54004FF0FF324FF0FF332146134802F062FF9C
:100A640008B923681BB9114B5B6811489847236880
:100A740000221A605A609A60DA601A614FF468635F
:100A84006360206806F021FE636843F03A03636004
:100A940010BD064B5B6807489847CCE72368002BDA
:100AA400D3D1D5E72C5F5CA9D00A002074000020C4
:100AB4008C8100006481000008B54023142204499D
:100AC400044806F073FD0449044804F0F9F808BD2D
:100AD400D0050020D00A0020BC810000D081000095
:100AE40030BFFFF7FDBF00BF38B50446054D2A46A9
:100AF400054906F0F2FF054A0021601907F014F8D1
:100B040038BD00BF00000000388000000400000071
:100B140070B50646064D074B1D444C1B2046FFF797
:100B2400E3FF083CC6F8A44005F1080070BD00BF0F
:100B34000000000004000000054B5A699B689A42BB
:100B440004D0044A536843F080535360704700BF95
:100B5400C80C002000ED00E038B51446264B9B6A13
:100B640013F0100F1AD11025234B9B6A13F0080FB2
:100B740000D01225204B9B6A13F0020F11D01E4B9C
:100B84005A6B9B6A13F0800F0AD0002930D01A4A9E
:100B9400936A23F080039362132502E01125E3E7AF
:100BA4001325154B9B6A13F0010F00D01425124B2B
:100BB4009B6A13F0200F1DD10F4B9B6A13F0100F8B
:100BC40001D10D4B9B6A0C4B9B6A13F0200F04D090
:100BD400094A536A23F400535362074A936A43F061
:100BE400FF039362012104F0D1FE2070284638BD32
:100BF4001325D6E71525DFE700ED00E038B51546E7
:100C0400204B9B6A13F4805F19D116241D4B9B6AF9
:100C140013F4006F00D018241A4B9B6A13F4007F5E
:100C240010D0184B9A6B9B6A13F4004F09D0D9B1BA
:100C3400144A936A23F400439362192402E01724AC
:100C4400E4E719240F4B9B6A13F4806F00D01A2435
:100C54000C4B9B6A13F4807F08D10A4B9B6A13F4F4
:100C6400005F04D01C2402E01924EBE71B24054A8E
:100C7400936A43F47F439362012104F087FE287052
:100C8400204638BD00ED00E01A4B9B6A13F0007F4C
:100C94002BD11D20174B9B6A13F0807F00D01F209F
:100CA400144B9B6A13F4801F00D00220114B9B6AE3
:100CB40013F4002F00D021200E4B9B6A13F4802FD5
:100CC40000D022200B4B9B6A13F4003F00D023205A
:100CD400084B9B6A13F4803F09D1064A936A6FEA72
:100CE40003436FEA1343936270471E20D2E7242024
:100CF400F3E700BF00ED00E081690D4B5A6942F44F
:100D040080725A61BFF34F8FBFF36F8F31F8021CAB
:100D14005A6922F480725A61BFF34F8FBFF36F8F09
:100D24004DF60273994201D00020704701207047AC
:100D340000ED00E038B5054600230B701A4BD86A65
:100D440010F002002DD10C46DB6A002B2ADB164B77
:100D5400D86A10F0804025D02846FFF7CDFF08B1AF
:100D640028681FE0104B9B6A13F0FF0F0DD10E4B48
:100D7400986A10F47F400ED10B4B9B6AB3F5803F09
:100D840010D32846FFF780FF0CE0224601212846B5
:100D9400FFF7E2FE06E0224601212846FFF72EFF78
:100DA40000E0002038BD00BF00ED00E030B58BB09E
:100DB4000C46264B5968C1F30801002383F31188BC
:100DC400BFF36F8F02F07F43B3F17F4F15D102F071
:100DD4000C03082B14D012F0080F0BD000250DF1D2
:100DE4002702204604F0D7FD86469DF8273053B1EC
:100DF4000BB030BD04460125F1E700252C46EEE793
:100E040000252C46EBE70DF1040C20686168A2680C
:100E1400E368ACE80F0020696169A269E369ACE8A2
:100E24000F0045B1C3F308025AB96FEA53236FEABE
:100E34004323089305E0089B23F4FF7323F0010385
:100E4400089301A9704604F08CFDD1E700ED00E0A1
:100E5400064B5A6942F010025A615A6942F48062A0
:100E64005A615A6922F008025A61704700ED00E0A5
:100E7400EFF30880EFF3098101B57246FFF796FF9F
:100E840001BD00BF002080F31488BFF36F8F0020E2
:100E940080F30A8880F30B88104880F308880020C8
:100EA4000F49087001F00EFE00200E490860BFF3E0
:100EB4004F8F00F02FF8202080F311880A484FF458
:100EC4000061401880F30988EFF31480022108437D
:100ED40080F31488BFF36F8F00F0E4F8202400201F
:100EE400DA0E002094ED00E0E0160020084BD3F861
:100EF4009000C0F30720002306E0054AC2F89830AA
:100F04000021C2F8A01001338342F6DB704700BF12
:100F140000ED00E010B572B6002484F31388FFF7E7
:100F2400E5FF234608E003F120010E4A4FF0FF30AD
:100F340042F821000133DBB20F2BF4D9002308E07F
:100F440003F16001074A4FF0FF3042F821000133FA
:100F5400DBB20F2BF4D962B6BFF34F8FBFF36F8FA1
:100F640010BD00BF00E100E008B50A4B9B68834256
:100F740002D003F061FA08BDEFF30583002BF8D02B
:100F8400054B5A6842F080525A605A6A22F4004271
:100F94005A62EEE7C80C002000ED00E016498A68AA
:100FA4004FF030001044EFF3098C80E8F01F20204C
:100FB40080F31288BFF36F8F104F4FF000664A69B9
:100FC4008A603E60D2F8A4000D4C2060D2F8A800DC
:100FD4000023C2F8A83080F3118802F1300090E8B1
:100FE400F01F8CF3098802F1000004B504F007FD3A
:100FF400BDE8044070470000C80C002004ED00E088
:10100400EC0A00201EF0040F0CBFEFF30880EFF38E
:101014000980816911F8021C0229FFD001B57246CA
:1010240004F0A8FC01BD00BF002807DB00F01F028C
:10103400400901239340024A42F82030704700BF20
:1010440000E100E0002808DB4901C9B200F160407A
:1010540000F5614080F80013704700F00F0049016B
:10106400C9B2014B1954704714ED00E04209054B15
:1010740053F8222000F01F00012303FA00F010406F
:10108400704700BF00E100E0044B23F07F03044AF3
:101094009360BFF34F8FBFF36F8F70470000000062
:1010A40000ED00E008B5FFF7EFFF074AD2F88830FB
:1010B40023F47003C2F8883002F086FB03F022FBAD
:1010C40000F04EF802F0DCFB00ED00E010B4A2F1F9
:1010D40020040E4942F8081C21F0010142F8081CC2
:1010E40042F8203C019B42F81C3C029B42F8183C0D
:1010F400039B42F8143C4FF0807342F8043C0465AF
:101104000023C0F8A83010BC704700BFCD06000013
:1011140000B50E4615460B4B9860D0F8A4200A4B38
:101124001A60D0F8943083F30B882C4686F3098830
:101134000020064B98472046002100220023044C3F
:10114400204700BFC80C0020EC0A00200D5A000004
:10115400CD060000014B10221A61704700ED00E03B
:10116400002207E003F1604303F56143202183F883
:1011740000130132442A09DC53B2002BF2DA03F0E3
:101184000F030349194420230B76F2E7704700BF8D
:10119400FCEC00E008B5EFF30583103B044A02EBD6
:1011A400C301496852F833008847FFF7C5FC08BDFE
:1011B400047D000010B584B00A4C23460A4A01217C
:1011C4000A4804F036FD0023019302930393084B6D
:1011D4000193E41A0294012101A804F02EFD04B045
:1011E40010BD00BF0000072000000020E0810000C7
:1011F40040010020024B034AC3F8C020704700BFDF
:1012040000ED00E0AAFF4400034BC3F89800C3F8C4
:101214009C10C3F8A020704700ED00E00E4BC3F80B
:101224009800C3F89800D3F89C000A7A60F304028B
:101234000A72D3F8A020C2F34202087A62F347107C
:101244000872D3F89C2022F01F020A60D3F8A03061
:1012540023F01F03CB60704700ED00E0084BD3F888
:101264009030C3F30723013B984205D810B50446D8
:1012740004F010FC204610BD6FF01500704700BF4D
:1012840000ED00E02DE9F04F87B081460091019315
:101294001446002734E0C34565D12946C0B204F0A2
:1012A4001FFC2CE0584AC2F89860D2F89C3003F036
:1012B4001F0321F01F010B43C2F89C302946E0B202
:1012C40004F00EFC044610F1160F00F09680013471
:1012D40015E0013B4C49C1F89860D1F8A02002F018
:1012E4001F0223F01F031343C1F8A0302946E0B2C4
:1012F40004F0F6FB044610F1160F7ED001340137DA
:10130400009B9F4279DA07EB47054FEA850A09EB10
:1013140085056E68002EF2D0019B23B1284604F0A7
:10132400CDFB002865D0314659F80A0004F0FAFBD9
:10133400064610F1160F5FD0844262DD324BC3F8CB
:101344009800D3F89C2022F01F02C3F89800D3F829
:10135400A03043F01F0859F80A306968194401F1B4
:10136400FF3B934297D093429CD0C345B1D0013BFD
:101374002549C1F89860D1F8A02002F01F0223F09B
:101384001F031343C1F8A0302946E0B204F0A8FBC0
:10139400044610F1160F30D001301B4BC3F898608F
:1013A400D3F89C109DF8102061F304028DF81020EE
:1013B400D3F8A030C3F34203D2B263F347128DF8DB
:1013C400102059F80A306A681344029323F01F036B
:1013D400A8EB0B084344013B23F01F03059302A928
:1013E400C0B2FFF73BFF044610F1160F05D00134DD
:1013F40085E76FF0150400E00446204607B0BDE819
:10140400F08F6FF01504F8E700ED00E010B5034C21
:1014140001232278FFF736FF207010BDD40E002080
:1014240070B505460E46002400E00134A6421EDDD8
:1014340004EB44039A0005EB830359680029F4D0B4
:10144400A85804F06FFB04EB84030B4A42F8230012
:1014540010F1160F0CD0094B1B78984209DA04EBF3
:10146400840302EB83010431FFF7D8FEDDE700209B
:1014740070BD6FF01500FBE7F00A0020D40E0020C9
:10148400044B0522C3F89420BFF34F8FBFF36F8F33
:10149400704700BF00ED00E0BFF35F8F024B0022F6
:1014A400C3F89420704700BF00ED00E038B51C4B32
:1014B4001D681C4BD3F89030C3F307239D422BD8EF
:1014C400FFF7EAFFFFF796FE002407E0144B596884
:1014D40001EB0411204604F0DDFA0134A542F5D8ED
:1014E4001148057004F02FFB10F1160F13D00E4BAA
:1014F4001A780C4BD3F89030C3F307239A4207DAD7
:10150400084BC3F898200021C3F8A0100132F0E77B
:10151400FFF7B6FF002038BD4FF0FF30FBE700BFF8
:10152400EC81000000ED00E0D40E002008B5024B71
:101534001B689847002008BD040B0020034B18606B
:10154400034A937843F0020393707047040B00201E
:101554002800002008B5064921F00701C1F1005216
:1015640002F5E022034803F0EBFF002008BD00BFB2
:1015740027240020080B002068B108B5064A074B51
:101584001B680749A1FB03139B0C00FB03F042F00B
:101594000103984708BD70475080000048000020B0
:1015A40083DE1B4338B51A4B1B780133194AA2FB5F
:1015B400031202F4FE7101EB92029C1AE5B205F0EB
:1015C4003FFB154B1B782BB1144A52F82530C01A37
:1015D40007281AD94FF05023D3F8143163B14FF0D0
:1015E40050230022C3F81421D3F81431084B1D7082
:1015F40015B9094B01221A70054B1C7805F020FB24
:10160400064B43F82400012038BD0020FCE700BF4E
:10161400D60E0020CDCCCCCCD50E0020140B00204F
:1016240000B583B00DF1070001F060FB114B984247
:101634001CD1114B4FF48062C3F8B8254FF40062FB
:10164400C3F83C250D499DF8070005F0BDFB0C4986
:101654009DF8070005F0B3FB9DF807300120984082
:1016640001F03EFB002003B05DF804FB6FF00B00BB
:10167400F9E700BF0000AD0B00A002502CA00250FF
:1016840028A1025008B50121104BC3F80015104AD7
:101694000223C2F8D0360F48D0F8003223F0E043DA
:1016A40043F04053C0F80032D0F8043223F0E04352
:1016B40043F04053C0F80432C2F80417C2F80419C6
:1016C400C2F8001B00F032F808BD00BF0010005043
:1016D400004000500025845000F01F0240090CD047
:1016E40001280CD10748803250F8223023F0E0431F
:1016F40043EA017140F8221070470348F3E70020E1
:10170400F1E700BF002884500025845038B5054611
:10171400002405E02946044B185DFFF7DDFF013482
:10172400032CF7D938BD00BF2482000008B5024954
:10173400024804F074F808BD28820000280B002039
:1017440000487047D00B0020034BC01A8010034B95
:1017540003FB00F0704700BF580B0020B76DDBB6E9
:1017640038B505460C46FFF7EFFF01464022034813
:1017740004F070FB01462846A04738BD847C000075
:1017840030B583B005460C46FFF7DEFF0146402323
:1017940000932346054A064804F076FB011E01DB4C
:1017A40003B030BD2846A047FAE700BFD55E00006D
:1017B400847C000008B5092817D8DFE800F0051C70
:1017C400161616161616171200210D4804F0D0FA34
:1017D400836813F0070F08D10021094804F028FB9F
:1017E40003E00221064804F023FB08BD032104485A
:1017F40004F01EFBF9E70121014804F019FBF4E7AA
:10180400847C000010B582B0EFF31184202383F3AD
:101814001288BFF36F8F154A136843F002011160F9
:1018240013F0010F09D1002384F31188BFF36F8FE4
:10183400B3B904F055FB02B010BD0DF1070201214C
:101844004FF0502004F065FA9DF80730012B01D0C9
:101854000023E9E7FFF774FF04F0D8FA0123E3E774
:101864000021034804F0E4FAE5E700BFF80B002088
:10187400847C000010B5EFF31184202383F31288D5
:10188400BFF36F8F074A136823F00201116013F04E
:10189400010F04D084F31188BFF36F8F10BD04F0DF
:1018A40033FBF7E7F80B002070B582B0054601283A
:1018B40007D14FF05023D3F81C3403F00303022B59
:1018C40036D005F01EFF044610B92B4B1B7873B9B4
:1018D400EFF31186202383F31288BFF36F8F012463
:1018E40094B94FF050230222C3F808230CE00026D9
:1018F400F6E7FCB1304604F0A7F84FF05023D3F8D4
:101904001835DBB2012B19D00DF1070200214FF07D
:10191400502004F0FEF90028EBD09DF80730022B8C
:1019240001D0012DE5D104B386F31188BFF36F8F85
:1019340002B070BD012004F0FBFADEE74FF0502343
:10194400D3F80431002BDFD04FF050230022C3F82A
:101954000421D3F804210222C3F81825074A2021C0
:10196400C2F8801101229A60CEE74FF05023022280
:10197400C3F80423DCE700BFDA0E002000E100E036
:1019840000B585B0CDF800D0CDF804D00023029383
:10199400012303936B46074A04F092FA002805DBFF
:1019A4004FF480420023684602F008F905B05DF860
:1019B40004FB00BF615F000070B5064600220121F0
:1019C400052004F010F8114801F098F9104B9842E2
:1019D40019D101F0A5F90024032C12D82146304670
:1019E40004F0C6F905462146304604F0CCF909490D
:1019F40003F015FF002805DB0123AB601C44E4B2AF
:101A0400EAE7002070BD6FF00400FBE7B91700009F
:101A14000000AD0B3482000010B504460E4B0121CA
:101A2400D3E8EF2FC3E8E01F0028F9D11AB1631EF1
:101A3400012B0DD910BD094804F0A5F9084900236C
:101A44004B608B60CB6001238B6003F005FFEEE7F6
:101A54002046FFF729FFEDE7540B0020847C0000AB
:101A6400440B002010B504460A2806D0E1B206480B
:101A74008368DB699847204610BD03488368DB69A7
:101A84000D219847F2E700BFE47C000010B5044C38
:101A94002046FFF753FD2046FEF7FAFD10BD00BFB8
:101AA400691A000008B5054805F029FD18B1FFF7CB
:101AB400EDFF002008BD6FF01200FBE7E47C00009E
:101AC400F0B51C46059F069E00F01F0C400936D059
:101AD400012836D1284D0CF1800355F8233091B3F9
:101AE400012092B34FF0020E40EA0E0084B34FF08F
:101AF4000C0E40EA0E0077B34FF4706E40EA0E000D
:101B040066B34FF4403E40EA0E0023EA000041B3BE
:101B14000B7842B312785200134334B32278920004
:101B2400134327B33A781202134316B332781204DC
:101B3400134303430CF1800C45F82C30F0BD0F4DDA
:101B4400C9E70025C7E70020CBE74FF0000ECBE73D
:101B54004FF0000ECDE74FF0000ECFE74FF0000E30
:101B6400D1E70023D5E70022D6E70022D8E70022F8
:101B7400DAE70022DCE700BF002884500025845007
:101B840000F01F03400908D0012808D1054A80331A
:101B940052F8230000F001007047034AF7E70022DF
:101BA400F5E700BF002884500025845028B101289F
:101BB40001D103487047002070470248704700BFB6
:101BC400A47C0000C47C00002DE9F04786B0884660
:101BD40016469946446801F01F05237B45EA4315E0
:101BE400204604F034FA002864D0B6F5001F35D03E
:101BF4000DF10C0A0027039704974946304604F078
:101C04005BFA8DF80C00009701970297CDF804A0B9
:101C1400A36823FA08F313F0010F02D1B6F1A07FF1
:101C240023D004F110060DF117022946304605F0C1
:101C340040FC234B984237D010346A46294620464C
:101C440005F02BFC1E4B984237D101222946204631
:101C540005F047FC002006B0BDE8F087294604F1F2
:101C6400100005F042FC0020F5E72846FFF788FF46
:101C74000028D6D10DF11702294604F1100005F011
:101C840018FC104B984203D00DF117030493D3E7CB
:101C94000DF117024146204604F04AFA084B9842D7
:101CA400F2D06FF00B00D6E79DF81710304605F020
:101CB40010FCC1E76FF08500CDE76FF01500CAE7AF
:101CC4000000AD0B0400AD0BF0B589B00F4614460F
:101CD400456801F01F062B7B46EA4316104604F0C4
:101CE400BBF98DF81E0040F206332340B3F5837F21
:101CF40053D016D8062B4CD006D9B3F5807F0DD11E
:101D040001238DF81D3024E003B3022B03D10423F7
:101D14008DF81D301DE06FF0150038E06FF01500F0
:101D240035E040F2022293423BD0B3F5407F03D129
:101D340003238DF81D300CE0B3F5007F03D102239B
:101D44008DF81D3005E06FF0150020E000238DF8BC
:101D54001D3014F4002F28D06A680123BB4093601F
:101D6400284604F074F940B310350DF11F023146D2
:101D7400284605F09EFB074614F4403F36D1314611
:101D8400284605F0A2FB3C4B9F426DD0002009B0D1
:101D9400F0BD06238DF81D30DBE707238DF81D30D9
:101DA400D7E705238DF81D30D3E714F4802FD7D05F
:101DB4006A680123BB40D360D2E7C4F340438DF883
:101DC400083014F4803F0CBF012300238DF8103039
:101DD400002401940DF11D0300930DF11E0304AAC8
:101DE40002A93046FFF76CFE2046D0E702AA002382
:101DF40002930393049305930693059204AA314630
:101E0400284605F04AFB1C4B98421DD114F4003FB0
:101E14001DD09DF81D308DF8103014F4803F0CBF98
:101E2400012300238DF811309DF81E308DF81230F7
:101E3400002304AA3146284605F033FB0E4B984292
:101E4400A1D06FF01500A2E76FF015009FE7002303
:101E54000493059306930DF11E03049304AA3146DB
:101E6400284605F01AFBE9E79DF81F10284605F0FF
:101E740030FB00208BE700BF0000AD0B38B50446F3
:101E84004568284604F0E3F820B91049204604F0D8
:101E94008DF838BD1035284605F013FB0028F4D121
:101EA4000021284605F009FB094B98420AD100227B
:101EB4000849284605F0F9FA002205210D2003F00F
:101EC40092FDE2E76FF00400E3E700BF1B6100004E
:101ED4000000AD0BF560000070B400F01F0C400969
:101EE40019D0012819D10E4D0CF1800055F820604D
:101EF4000C4C344041EA420141EA83039DF80C2032
:101F040043EA02239DF8102043EA0243234345F8A1
:101F1400203070BC7047044DE6E70025E4E700BFBD
:101F240000288450F0F0FCFF0025845000F01F01CD
:101F3400400906D0012806D1044A01238B4093604E
:101F44007047034AF9E70022F7E700BF00288450EE
:101F54000025845000F01F01400906D0012806D155
:101F6400044A01238B40D3607047034AF9E70022F7
:101F7400F7E700BF00288450002584502DE9F04F76
:101F840085B007468B469046002423E04FF0FF358A
:101F940035E0C8F80C55012603963146B5F1FF3FEC
:101FA40016D0B1F1FF3F40F0138157F80A3013F413
:101FB400004F02D001260022039200220192CDF8A4
:101FC4000090C3F34123324603992846FFF784FF68
:101FD4000134E4B25C4580F0FF804FEA840A57F88C
:101FE4002430C3F3C322C3F30805082A00F2F680A1
:101FF4007E4911F8029040F2FF129542C6D01B0EA2
:10200400222B00F2EE8001A252F823F0971F000069
:102014009D200000AB200000B7200000C520000078
:10202400D3200000DF200000E7210000E7210000AA
:10203400E7210000E7210000ED200000012100005D
:10204400E7210000E7210000E7210000E72100006C
:10205400E7210000E7210000E7210000E72100005C
:10206400E72100001521000027210000392100008C
:102074004B210000E7210000E7210000E7210000D8
:102084005D2100006D2100007921000089210000FC
:1020940099210000A9210000C8F8145500260396D0
:1020A4004FF0FF317AE7C8F8085501260396314608
:1020B40074E7C8F81055002603964FF0FF316DE71A
:1020C400C8F80855002601230393314666E7C8F88B
:1020D4000C5501260396002160E7C8F81055002628
:1020E40003964FF0FF3159E7C8F80855B9F1000FCE
:1020F4005ED0002603964FF0FF314FE7C8F80C5529
:10210400B9F1000F5CD0002603964FF0FF3145E78C
:10211400C8F8605557F80A10C1F300410126039628
:102124003CE7C8F8645557F80A10C1F3004101268A
:10213400039633E7C8F8685557F80A10C1F300410D
:10214400012603962AE7C8F86C5557F80A10C1F31C
:1021540000410126039621E7C8F8245501260023EF
:1021640003934FF0FF3119E7C8F828550126039669
:10217400314613E7C8F830550126002303934FF086
:10218400FF310BE7C8F834550126002303934FF0C1
:10219400FF3103E7C8F838550126002303934FF0B5
:1021A400FF31FBE6C8F83C55012603963146F5E6B7
:1021B4004E46CDF80C904FF0FF314FF00609EDE696
:1021C4004E46CDF80C904FF0FF314FF00609E5E68E
:1021D400284603F0CCFFE8E6002004E06FF0150089
:1021E40001E06FF0850005B0BDE8F08FB482000017
:1021F4002DE9F84305460F46466805F082FA20B9F2
:10220400234B1B780BB3002300E00123D5F8109077
:102214006A68D2F80080F3B9284604F0E1F804466D
:10222400736813F0040F03D04FF48003C8F8043329
:10223400F36A1F700122F16A284604F01DF984F341
:102244001188BFF36F8FBDE8F8830123DEE784F3C1
:102254001188BFF36F8FEFF31184202383F3128867
:10226400BFF36F8F284603F0BBFF0028EFD0D9F8E7
:102274000030002BD4D0D3F8A420002AD0D0D3F837
:10228400B420002ACCDAD8F84C25C3F8B420C7E728
:10229400DA0E00202DE9F04F85B09846D0F810B042
:1022A400DBF80040D0F804A0DAF800509AF80830BF
:1022B400002B40F0B58081460F46164694F86130F5
:1022C400002B40F0B08094F86230002B40F0AE80D8
:1022D4006365B8F1FF3F44D0B8F1040F16DDA3F1F4
:1022E400993383FB08234FEAE870C0EB6300C117FE
:1022F400C90341EA5041C0034E4BC0184E4A4FF047
:10230400000341F10001FDF723FF01E00020014635
:10231400A065E165276466640023A364E364236520
:10232400DAF8043013F0040F20D1DAF8043013F093
:10233400040F02D094F8602052BBC5F83475C5F878
:1023440038650020C5F81001D5F81031C5F84C01E6
:10235400D5F84C31012384F861302B6005B0BDE819
:10236400F08F00220023C4E91623D3E7EFF311838F
:102374000393202383F31288BFF36F8F022148460F
:1023840004F06EF8039B83F31188BFF36F8FCCE7DF
:10239400B24228BF32469146DAF82810384605F092
:1023A4009CFB4F44B6EB090614D0B8F1FF3FC4D0F0
:1023B4000023C5F80831D5F8083104F10800D4E940
:1023C40016234FF000084FF00009CDE9008902F010
:1023D40075FBB2E794F86020A2EB0902D2B284F84C
:1023E4006020DAF8280000EB090105F083FB0BF10B
:1023F4000803D3E8EF1F41F00401C3E8E21F002AF9
:10240400F7D145F30735002D08DB05F01F026D09F0
:10241400012393404035094A42F8253000209DE7C6
:102424006FF085009AE76FF00F0097E76FF00F00E9
:1024340094E700BF3F420F0040420F0000E100E07C
:10244400F0B583B004461D460669EFF311872023D7
:1024540083F31288BFF36F8F3368D3F8A40000BBF3
:10246400C3F8A4203368C3F8A01001F06043B3F1AB
:10247400005F1DD13368C3F8A8103368C3F8AC20DB
:102484003146204604F013F887F31188BFF36F8FA9
:10249400204603F0D4FE80B3B5F1FF3F10D10020F5
:1024A4002CE087F31188BFF36F8F6FF00F0025E0E6
:1024B40033680022C3F8B020204604F069F9DFE74E
:1024C4003468683425EAE575E917C90341EA5541DA
:1024D400ED030B4828180B4A4FF0000341F10001AB
:1024E400FDF736FE02460B4600200021CDE900012F
:1024F400204602F0E3FA002000E0002003B0F0BD23
:102504003F420F0040420F0070B50446056943681E
:102514001E68286800220A49083005F0BFFA2B68B3
:10252400DC63286800220749683005F0B7FA2B6895
:10253400C3F89C40044BC6F80433002070BD00BFB0
:10254400F9680000F566000014020A0038B5054673
:102554000C4601F10C0000F0C9FB0A4B98420DD166
:1025640005F10C0205F59071207B04F032FC237B0D
:102574000120984000F0B4FB002038BD6FF0040047
:10258400FBE700BF0000AD0B38B5044645680121E8
:10259400E86803F04AFF63681A682B69C2F82435B7
:1025A4006B7DA97D0B43298B0B43297D0B43C2F81B
:1025B4006C3523691B6823B12046FFF7A5FF00286B
:1025C40003DB204604F0D2F900B138BD02492046AD
:1025D40003F0D5FDF9E700BF1965000021F07F4144
:1025E40000F5A870014B43F82010704700500150CB
:1025F4004FF480338340024AC2F84433704700BF2B
:10260400005001504FF480338340024AC2F84833EB
:10261400704700BF00500150014BD3F804057047C8
:10262400005001502DE9F843054689469046FFF7CE
:10263400E9FF284604F0CCFA4E46032710E0FFF7E2
:10264400EBFF0446494604F0B2FAB0F5000F26D970
:10265400284604F0BDFAB8F1000F22D13E19013723
:1026640031462846FFF7BAFF2846FFF7C1FFFFF7B8
:10267400D3FF0446C11C304604F099FA0A4B984231
:102684000AD9284604F097FA0028D8D1B8F1000FE7
:10269400E4D06FF0150000E00020BDE8F8830020CE
:1026A400FBE76FF01500F8E7FDFF7F00034B044ADA
:1026B400C3F80823C3F84823704700BF00500150F3
:1026C40003000F0010B5012383406FEA030C0C4A8A
:1026D400D2E8EF1F01EA0C0EC2E8E4EF002CF7D1B8
:1026E4004FF4803282400748C0F80823BFF35F8F5D
:1026F400BFF36F8F0B4214BF0120002010BD00BF39
:10270400280C0020005001504FF480338340124ABB
:10271400D2F80423134201D10020704710B50446B7
:1027240001238340DB430D49D1E8EF2F02EA030084
:10273400C1E8EC0FBCF1000FF6D122FA04F313F058
:10274400010F03D1204604F036FA18B1204604F0F4
:102754003FFA012010BD00BF00500150240C00209E
:1027640001B97047012383400D4AD2E8EFCF4CEA08
:10277400030CC2E8E1CF0029F7D14FF48033834042
:10278400084AC2F80433084BD3E8AF3FC34013F000
:10279400010FE6D0054B4FF40012C3F80021E0E727
:1027A400280C002000500150240C002000E100E01F
:1027B40038B514461046194604F016FA02460D4977
:1027C4000B68E01A1B184C6844F100040B604C6061
:1027D400A2F50013B3F5400F09D2074B1B68190A81
:1027E4001B06D41841F10005044BC3E9004502F06F
:1027F40067F838BD700300202C0C002078030020FB
:1028040038B50D4B1C68250A2406BFF35F8FFFF70C
:1028140003FF0346001945F10001B3F5801F0AD2F6
:10282400064BD3E90023904271EB030303D210F16A
:10283400807041F1000138BD2C0C00207803002089
:102844002DE9F041064614461D469DF820801046A9
:10285400194604F0C9F90746FFF7D2FFA04271EB0D
:10286400050319D2201A65EB01011B4B984271F143
:1028740000012BD2194B03EB0613D3E90223AB421D
:1028840008BFA24201D1002014E042463946304636
:10289400FFF7C8FE70B117E0B8F1000F19D101239A
:1028A400B3400F4AD2E8EF0F1843C2E8E10F002902
:1028B400F8D10020094B320103EB0616C6E90245A4
:1028C40006999950079B7360BDE8F0816FF015007D
:1028D400FAE76FF01500F7E70100800060030020BD
:1028E400240C002030B585B0FFF7E0FE00231E4A1B
:1028F400C2F80835002B25DD1B4C0225C4F804530F
:102904001A4B4FF40012C3F8802100220121152034
:1029140003F069F8152003F061F80123A360236034
:10292400134A1360002402940194124B0093124A38
:102934000023204604F068F92846FFF76DF8204686
:1029440005B030BD0D4A02EB03124FF0FF304FF0DB
:10295400FF31C2E902014FF480329A400249C1F8C2
:1029640004230133C6E700BF0050015000E100E03A
:10297400280C0020B5270000FFFF7F006003002023
:102984002DE9F04782B00446FFF7BEFE10B902B04D
:10299400BDE8F087FFF734FF82460D4604F027F9BF
:1029A4000646154B03EB0413D3E90289C24575EBC4
:1029B40009050BD20025304604F021F9002DE6D09C
:1029C400009742464B462046A847E0E70A4A2301BF
:1029D40002EB0411D5584F680020D0504FF0FF325D
:1029E4004FF0FF33C1E902232046FFF70BFE2046D8
:1029F40004F0EEF8DFE700BF6003002010B50D4BD4
:102A0400D3F8043313F0020F03D10024002C0BDDA0
:102A140010BD0221074804F094F80028F5D0064AB6
:102A2400136801331360F0E72046FFF7A9FF013470
:102A3400ECE700BF005001502C0C002010B584B00E
:102A4400B0F1FF3F18D001281BDD154B9842A8BFF9
:102A540018460446134B01221A70FFF7D1FE124B9D
:102A64001A685B68801AB0F5000F0CD20444B4F500
:102A7400000F09D30A4C07E00A4B00221A70084CD5
:102A8400EBE70124E6E7064C0020121902900190BE
:102A94000649009143F1000304F0B6F804B010BDF8
:102AA400FFFF7F00D90E002070030020B52700002F
:102AB40008B5FFF7A5FE024B1B68C01A08BD00BF8E
:102AC4007003002008B504F03FF968B15D4BD3F8FA
:102AD400203A4BB95B4B0D22C3F8202A0122C3F8DC
:102AE4001C290022C3F81C2900220BE002F1600318
:102AF4004FF47F0151F83310DB0003F57F035B686B
:102B04000B6001321F2A08D802F160034FF47F01E1
:102B140051F83330B3F1FF3FE8D104F0EDF830B1B0
:102B2400484B2922C3F80C270322C3F83C2704F09E
:102B340097F840B1444B454AC3F830254FF0502331
:102B44000122C3F8582504F09FF818B1404B002225
:102B5400C3F84C2504F0B0F868B14FF05023D3F813
:102B6400003413F0010F06D04FF050230022C3F8B5
:102B74001421C3F8182104F0B3F860B14FF05023C6
:102B8400D3F8003413F0010F05D04FF050236FF049
:102B94000102C3F8002404F0C3F818B1294B6522DC
:102BA400C3F80C2704F0E4F820B1294BD3F82034FF
:102BB400002B30DB04F0E8F8E8B1224B7E22C3F8A6
:102BC4000C27C3F83C29234A7F23C2F818311E4935
:102BD4000023C1F8043EC1F8083E01F54821C1F8BC
:102BE4001031C2F82431C2F82C3102F5FF1202F57B
:102BF4008052C2F8A032184AD2F88C3043F44063B1
:102C0400C2F88C30154A1168154BC3F84415D269C3
:102C1400C3F84C2508BD4FF050230322C3F81825F0
:102C240001229A604FF05023D3F80431002BF9D0DD
:102C34004FF050230022C3F804210122DA60C3F8C4
:102C44001825B7E700400050009003504400EFBE41
:102C5400002003500020005000ED00E00080FF0041
:102C64000060005010B50468ACB1B4FA84F3C3F149
:102C74001F03DBB201229A4024EA0202D0E8EFCF1C
:102C8400A44504D1C0E8EE2FBEF1000FF6D1EAD17D
:102C94000B70024810BD0248FCE700BF0000AD0BFA
:102CA4000200AD0B0368CB4013F0010F11D100B546
:102CB400026801238B401343D0E8EFCF944504D13D
:102CC400C0E8EE3FBEF1000FF6D1F1D102485DF845
:102CD40004FB0248704700BF0000AD0B0400AD0BBD
:102CE400014BC3F8040570470070015008B5014654
:102CF400014804F014F908BD4C000020054B1B7971
:102D04002BB9044B186001221A7103487047034819
:102D1400704700BF300C00200000AD0B0C00AD0B61
:102D240008B5084B1B680BB104F08EF804F08AF860
:102D34004FF05023C3F818050122C3F81425C3F833
:102D4400802508BD300C002000B583B0032818D8B6
:102D5400DFE800F01A026D6700224FF4807301204F
:102D640003F1502300211960196802F15022012156
:102D74001160354A1268002A5FD04FF05023C3F81F
:102D8400040303B05DF804FB4FF05023D3F8182478
:102D9400D3F8183403F003038DF8073012F4803F9E
:102DA40015D14FF05023D3F8143413F0010F13D17D
:102DB40004F048F88DF807009DF807204FF05023E1
:102DC400C3F8182508224FF482730220C8E70DF1D6
:102DD400070004F08BF8EFE74FF05023D3F81C34CE
:102DE40003F003038DF807300DF1070004F07EF8BB
:102DF4000028E1D0144B1B682BB14FF05023022262
:102E0400C3F80423BDE74FF05023D3F80431002B5B
:102E1400F9D04FF050230022C3F80421D3F8043131
:102E2400AFE718224FF490734FF4807098E7202294
:102E34004FF492734FF4007092E71A68002AFCD0A2
:102E440000221A601B689CE7300C002010B54FF07C
:102E54005023D3F8044302E0194B1B68984774B31A
:102E6400B4FA84F0C0F11F000122824083009BB2B7
:102E740003F580739BB2C0B292B224EA020403F158
:102E8400502319680029EAD0002119601B684FF00B
:102E94005023C3F80823022ADED1D3F81814D3F838
:102EA400183403F00303012BD6D14FF05023022131
:102EB400C3F81815C3F8042301229A60CFE710BDA4
:102EC400300C002008B50079024B03EB0010FFF72B
:102ED400C9FE08BD5400002070B400F01F0C400966
:102EE40019D0012819D10E4D0CF1800055F820603D
:102EF4000C4C344041EA420141EA83039DF80C2022
:102F040043EA02239DF8102043EA0243234345F891
:102F1400203070BC7047044DE6E70025E4E700BFAD
:102F240000288450F0F0FCFF00258450F0B51C46C6
:102F3400059F069E00F01F0C400936D0012836D1AB
:102F4400284D0CF1800355F8233091B3012092B33E
:102F54004FF0020E40EA0E0084B34FF00C0E40EA2C
:102F64000E0077B34FF4706E40EA0E0066B34FF470
:102F7400403E40EA0E0023EA000041B30B7842B31E
:102F840012785200134334B322789200134327B3C8
:102F94003A781202134316B33278120413430343EC
:102FA4000CF1800C45F82C30F0BD0F4DC9E700251D
:102FB400C7E70020CBE74FF0000ECBE74FF0000E41
:102FC400CDE74FF0000ECFE74FF0000ED1E700231E
:102FD400D5E70022D6E70022D8E70022DAE700226C
:102FE400DCE700BF002884500025845000F01F0255
:102FF400400907D0012807D1044B1869D04000F0DC
:1030040001007047024BF8E70023F6E700288450DC
:103014000025845000F01F03400908D0012808D17E
:10302400054A803352F82300C0F301407047034A35
:10303400F7E70022F5E700BF0028845000258450FC
:1030440000B583B084468E460C4B93E8030002AB74
:1030540003E90300634609E002A901EB830151F887
:10306400081C086A42F8040B086201330CEB0E00DA
:103074009842F1D803B05DF804FB00BF4080000023
:1030840000F01F01400906D0012806D1044A01239B
:103094008B4013627047034AF9E70022F7E700BF49
:1030A40000288450002584504309034AD35C00F06F
:1030B4001F001844C0B270472483000000487047C2
:1030C400380C0020004870473C8300002DE9F04193
:1030D40084B005460C4616461F460846FFF7E4FF33
:1030E400804656B32146284603F0FEFF28B1214608
:1030F400284603F0B9FF002843D12146284603F0AF
:10310400C2FF10B17378012B3BD001238DF80F302F
:10311400002301930096B31C721C0DF10F0120468D
:10312400FFF704FF2879FFF7C9FF08F1080230F818
:10313400123043F0030320F81230002F3BD0214615
:10314400284603F0D1FF002837D13E782B6806F5D6
:10315400A272002143F8221043F822102879FFF7C5
:10316400ADFF08F1080230F8123023F02003DB042D
:10317400DB0C20F812307B782BB9114804B0BDE881
:10318400F0811048FAE7BA7800922246314628685E
:1031940003F0E2FE2879FFF791FF024608F10800E8
:1031A40032F810307603B6B2334343F0200322F8EA
:1031B40010300348E2E70248E0E70248DEE700BFD8
:1031C4000000AD0B0400AD0B70B506460D46144669
:1031D40003F04AFF68B13079FFF770FF06462846CE
:1031E400FFF762FF083036F810305B0B237002489B
:1031F40070BD0248FCE700BF0000AD0B0400AD0B3E
:1032040030B583B005460191002400E00134012C5F
:1032140018D80E4B1B5D03F0070202A901EBD30380
:1032240013F8043CD34013F0010FEFD005EB8402F4
:1032340001212046FFF704FF55F82430002BE5D088
:10324400012000E0002003B030BD00BF3483000043
:1032540008B50079024B03EB8000FFF703FD08BDBE
:10326400640000202DE9F04182B0054688461646E8
:103274001F4604F079F8AEB33A463146284603F0C7
:103284008FFF041E20DB2879FFF718FF40F8346015
:103294002879FFF713FF00EBC40047602879FFF794
:1032A4000DFF05464046FFF7FFFE083035F81030A5
:1032B400E4B26402A4B2234343F4807325F81030CB
:1032C400094802B0BDE8F0812879FFF7F7FE0DF157
:1032D40007017830FFF7C6FC034B9842F1D19DF803
:1032E4000740D0E70048ECE70000AD0B2DE9F047BC
:1032F40084B006460C4690460846FFF7D5FE0746BE
:103304003079FFF7DBFE0546D8F80090B9F1000FDD
:1033140021D02146304603F0D6FE002843D10023B5
:103324008DF80E308DF80F30019300934B460DF15C
:103334000F020DF10E012046FFF7F8FD07F1080218
:1033440035F8123023F002039BB225F8123043F013
:10335400010325F81230D8F80430BBB193F800907B
:10336400D3F804A02146304603F09EFEE8B1BAF13A
:10337400000F61D1083735F8173023F01C039BB2D6
:1033840025F8173043EA890325F81730D8F80820C0
:10339400002A55D05368126821463046FFF762FF71
:1033A40004B0BDE8F0872748FAE707F1080235F8CA
:1033B400123023F02003DB04DB0C25F81230BAF1C1
:1033C400000FD7D0B9F1030F38D8D8F804305B68B0
:1033D40093F800A0B9F1000F08D133680AF5A27A76
:1033E400002243F82A2043F82A20C3E7484603F082
:1033F40083FE034631680AF5A27C51F82C2022F0A2
:10340400030241F82C2022465146306803F08BFD1C
:103414000AF13C0305EB43039C8007F1080235F8ED
:1034240012304FEA4A3A1FFA8AFA43EA0A0343F08F
:10343400200325F812309DE70248B1E70148AFE7C1
:103444000148ADE70400AD0B0000AD0B38B50546EF
:103454000C4603F0FAFD08B9074838BD2146284652
:1034640003F07BFE2146284603F0A9FF204603F023
:10347400D0FD0248F1E700BF0400AD0B0000AD0B26
:1034840008B50079024B03EB8000FFF70BFC08BD85
:1034940064000020F0B583B005460E460079FFF7BE
:1034A4000DFE90F88C3013B10D4803B0F0BD044606
:1034B40060220021103004F037FB2F682879FFF7D1
:1034C40001FE03680093002332464FF00041384662
:1034D40003F097FF012384F88C30A3670148E4E7E5
:1034E4000C00AD0B0000AD0B2DE9F04782B0814616
:1034F4000F46904600230093019351686846FFF7F6
:103504007FFE4CE094FAA4F4B4FA84F404F01F05AA
:10351400254B9B5D45EA43152846FFF7C5FD08305A
:1035240037F810A0CAF3820A0DEB8603E00804F012
:1035340007041A5C0121A14022EA01021A54284618
:10354400FFF768FD034652462946384603F0D6FE87
:103554002846FFF795FD02AB03EB860353F8084CAE
:10356400002CCFD10136012E0DD8104B9B5D08F1F4
:103574000402D90803F00703525C22FA03F313F0A0
:10358400010FEFD0E7E700224FF00041484603F077
:103594001FFDD8F804106846FFF732FE08B1002674
:1035A400E1E702B0BDE8F08738830000348300000F
:1035B400F8B504460E461148081A114BA3FB003017
:1035C4004009FFF77FFD0746D4F80413C9B2026827
:1035D40041F00041204603F0FBFC051E05DB2A46B2
:1035E4003146204603F037FFF8BD3A4631462046BF
:1035F400FFF77AFF25F00045F1E700BF380C002003
:10360400398EE33808B502490248FFF7D1FF08BDF7
:10361400380C002000D00050034B00E02033034A54
:103624009342FBD3704700BF847C0000047D0000FC
:1036340038B5EFF31185202383F31288BFF36F8F1E
:10364400054B9C6803F073FF85F31188BFF36F8FFC
:103654002046FDF789FC38BDC80C002038B5054666
:103664000B4B53F8204002E02368984708346B1C46
:10367400074A52F82330A34209D960680028F3D0DE
:10368400037F13F0010FF1D103F054FFEEE738BDCF
:103694005483000010B586B0B023104C03FB0044E3
:1036A40000EB800C0E4B03EB8C030E4A05920122B7
:1036B40004920F22039200220292019200930A4B79
:1036C4004FF4A072094901EB8C11204600F09EFAD8
:1036D400637B23F00403637306B010BD80030020F2
:1036E400C80C00204483000089760000E01E0020FE
:1036F40008B553EA020102D100F074FE08BD024984
:10370400183001F03BF8F9E7C978000010B586B02D
:10371400184C14E0636A0593236A0493E3690393E2
:10372400A36902936369019323690093E368A26820
:103734006168206800F06AFA23685C6530340E4BD7
:103744009C42E7D300F068FD0A4C00E030340A4B99
:103754009C420BD2A26AE36AB3F1FF3F08BFB2F105
:10376400FF3FF3D02068FFF7C3FFEFE700F06CFDE5
:1037740006B010BD307F0000907F000008B50B4BF1
:1037840001221A700320FFF769FF02F067FAFDF7C0
:1037940071F80420FFF762FFFFF7B8FF01F0DEFDC8
:1037A400034A137B23F00103137308BDDA0E0020D0
:1037B4003004002008B50146014A0248FDF7A8FC80
:1037C400813700003004002008B50348034A121A68
:1037D400002103F0C6FE08BD40010020DC0E0020DD
:1037E40010B50446FFF756FFB0230A4903FB041142
:1037F400094A04EB840302EB8303D9601C74074B6E
:1038040003EBC42303F5006304EB840402EB84029A
:10381400536010BD80030020C80C0020E016002077
:1038240070B586B000F048FD104D114B5D61114B31
:1038340005930123049300240394029401940094B7
:103844000D4B4FF480620D49284600F0DFF906461F
:103854006B7B23F004036B73284603F0CBFF2046F5
:10386400FFF7BEFF304606B070BD00BF3004002035
:10387400C80C00204C830000813700002020002069
:1038840008B50020FFF7EAFE1A4B03F5006282F345
:10389400088883F30A88184CE02384F82230002334
:1038A400E37723766376A37684F82030626A42F461
:1038B400E022626284F82330FDF7CAFAFDF74AFC7D
:1038C4004FF0FF33A362E362FDF7F0FDFDF772FCF6
:1038D4000A4800F0FDF9FFF79FFEFDF7D3FE012033
:1038E400FFF7BCFE0220FFF7B9FEFFF799FFFFF7D1
:1038F40061FF00BFE016002000ED00E0E0040020BE
:1039040010B5064C002000E01C34054B9C4204D248
:10391400204603F02EFE0028F6DA10BDDC0000205D
:10392400DC00002030B583B00D46EFF31181202474
:1039340084F31288BFF36F8FC46864B12C6023686A
:10394400C360836901338361002081F31188BFF36D
:103954006F8F03B030BD00F1080C53EA020404D1A8
:1039640000232B606FF00B00EFE7009201930246F7
:10397400604600F063FB0028EBD1024B9B681B6997
:103984002B60E6E7C80C00202DE9F04182B0044624
:10399400EFF31187202181F31288BFF36F8FC16881
:1039A40099B9002950D1364B9B6893F90E302361A5
:1039B4000131E160324B9B68A36087F31188BFF348
:1039C4006F8F002002B0BDE8F08116461D46826864
:1039D4002B4B9B689A42E4D055EA060136D092F903
:1039E4000E80414693F90E0003F059FE804534DC05
:1039F4004FF000080096019522463946214800F010
:103A04001DFB0028DED0EFF31185202383F31288F9
:103A1400BFF36F8FA36843B323689C4223D013B3CF
:103A2400216993F90E0003F03AFE0146204603F0A3
:103A340041FEE8B9B8F1000F1AD185F31188BFF33C
:103A44006F8F6FF00A00BDE72369B0E787F3118831
:103A5400BFF36F8F6FF00F00B4E70146204603F009
:103A640029FE8046C6E72169E0E7B8F1000FE4D0FB
:103A74002946044800F0A4FB6FF00A00A2E700BF47
:103A8400C80C0020EC0C0020F8B58368002B47D04C
:103A94000446264A9268934245D1C368012B04D94F
:103AA400013BC36000252846F8BDEFF311862023AF
:103AB40083F31288BFF36F8F016903F0FBFD27685E
:103AC400BC420CD03D1E18BF012557B9A760CDB923
:103AD4000023E36086F31188BFF36F8FE3E70027C9
:103AE400F0E77A683B6813605A6000233B607B60B0
:103AF4007A7B22F002027A73BB6007F1180003F0AC
:103B04008BFFE3E797F90E3023610025C7F8AC502B
:103B1400384603F06FFE3146054800F051FBC2E71A
:103B24006FF01505BFE74FF0FF35BCE7C80C002068
:103B3400EC0C0020F8B50446EFF31187202383F33F
:103B44001288BFF36F8F0568A84212D02E1E18BFCB
:103B5400012685B906BBA368E268934224D00122FA
:103B64001344A36000230BBB87F31188BFF36F8F4B
:103B7400F8BD0025EAE76A682B6813605A600023E1
:103B84002B606B606A7B22F002026A73AB6005F102
:103B9400180003F041FFDDE70023C5F8AC302846E8
:103BA40003F028FE0123DEE70022D9E73946024864
:103BB40000F006FBDCE700BFEC0C002010B582B07F
:103BC400EFF31181202484F31288BFF36F8F84688C
:103BD40044B1013C846081F31188BFF36F8F0020EE
:103BE40002B010BD53EA020406D0009201930246CB
:103BF400054800F023FAF3E781F31188BFF36F8FD0
:103C04006FF00F00ECE700BFEC0C00202DE9F04F43
:103C140085B004460F4615461E46DDF838A0DDF88B
:103C24003C90DDF84080DDF84CB000F1580383652A
:103C3400C365129B0422119903F069FD2A46394693
:103C4400204603F049FD0546CDF80880CDF80490E0
:103C5400CDF800A03346024639462046FDF736FA31
:103C6400002363652666C4F864A0C4F86890C4F8A9
:103C74006C80EFF31182202383F31288BFF36F8FDC
:103C8400124B196A21671C6282F31188BFF36F8F8C
:103C9400BBF1000F13D01F22594604F1740003F046
:103CA4004BFF002384F89330084B9B685BB1D3F837
:103CB400A030C4F8A030284605B0BDE8F08F00233A
:103CC40084F87430F0E7C4F8A030F4E7C80C00209E
:103CD4000123437303730023C0F89430C0F8983071
:103CE400C0F8A030014B9860704700BFC80C00209A
:103CF4000A4A9368C3F8A8006FF00A01C3F8AC102D
:103D040007494B6843F080534B60002383F31188C9
:103D1400BFF36F8F9368D3F8AC007047C80C0020D2
:103D240000ED00E0437B90F90D20002A51DB13F0F5
:103D34001F0F4ED110B563F07F034373254A52F829
:103D4400183F93420ED100230CE05A68426003608E
:103D5400106058601EE01A461E49C9698A420FD095
:103D64001B687BB173B190F90E1093F90E20914248
:103D7400F1D0521A002AE8DC1A46002BECD1F0E705
:103D84000023EEE7134BDA6903F118010160426086
:103D94001060D8610F4B53F8184F9C420ED06CB191
:103DA4000C4B9B685A7B12F01F0F0AD1DA897F2AC9
:103DB40007D9A2692AB9074A536109E0054BDC68AF
:103DC400EEE7A34202D0204600F01EFC014B5C61EA
:103DD40010BD7047C80C002010B5437B90F90D202E
:103DE400002A14DB154B9A6853F8184F9C4219D0DB
:103DF400C4B1824219D0537B13F01F0F15D1D3895C
:103E04007F2B12D9A36983B90C4B5A6114E003F0D8
:103E14007F0343734268036813605A60002303609E
:103E24004360DFE7054BDC68E3E7A24202D02046AB
:103E340000F0EAFB014B5C6110BD00BFC80C002020
:103E44002DE9F84305460C46404B9E68737B13F0FE
:103E5400600F28D013F0200F2AD008271F4222D148
:103E64003B43737313F0800F24D1082F2DD04FF0F0
:103E74000009364B53F8188F98454BD0B8F1000F12
:103E840048D0324B9B68434502D0404600F0BCFB0F
:103E94002E4BC3F81480102F05D0304600F014FCCC
:103EA400B9F1000F3AD184F31188BFF36F8F46E064
:103EB4001027D3E703F07F037373726833681360CA
:103EC4005A60002333607360CFE7B3685BB17268F4
:103ED400336813605A60002333607360727B22F08E
:103EE40002027273B360304603F050FC06F15800CE
:103EF40003F051FC154B9B689E4202D04FF0000921
:103F0400B7E7EFF3058313B94FF00009B1E74FF0BA
:103F14000109AEE70D4BD3F80C80B2E70C48FFF76C
:103F2400D7FEC0E7EFF31184202383F31288BFF395
:103F34006F8F03F0B2FB84F31188BFF36F8F6B7B39
:103F440013F0600FEED1BDE8F88300BFC80C002069
:103F5400E0040020B3F1FF3F08BFB2F1FF3F00D1FE
:103F6400704708B50249183000F008FC08BD00BFCE
:103F7400C978000010B5437B90F90D20002A0ADBB4
:103F8400437B63F07F0343732B4A52F8183F9342F9
:103F940019D1002317E003F07F03437342680368D9
:103FA40013605A60002303604360E9E75A68426083
:103FB4000360106058601EE01A461F49C9698A42AE
:103FC4000FD01B687BB173B190F90E1093F90E20DA
:103FD4009142F1D0521A002AE8DC1A46002BECD1A7
:103FE400F0E70023EEE7144BDA6903F118010160EE
:103FF40042601060D861104B9A6853F8184F9C4285
:104004000ED06CB182420ED0537B13F01F0F0AD135
:10401400D3897F2B07D9A3692BB9074B5A6109E0D0
:10402400054BDC68EEE7A24202D0204600F0ECFA31
:10403400014B5C6110BD00BFC80C002010B50C46DC
:1040440011460A4882680A4B1A60EFF31183202351
:1040540083F31288BFF36F8FDDE90223806803F0D6
:10406400BDFB2046FFF744FE10BD00BFC80C002076
:10407400EC0C00202DE9F04104460E460023EFF33A
:104084001185202282F31288BFF36F8F1F4650E000
:1040940003F07F0363736268236813605A6000232C
:1040A4002360636071B2A173637B63F07F03637306
:1040B400424A52F8183F93420ED100230CE05A684A
:1040C4006260236014605C601CE01A463B48C0696F
:1040D40082420DD01B686BB163B193F90E209142FB
:1040E400F3D0521A002AEADC1A46002BEED1F2E78A
:1040F4000023F0E7314BDA6903F1180121606260B3
:104104001460DC612D4B53F8188F984520D0B8F11A
:10411400000F1DD0294B9B68984502D0404600F003
:1041240073FA264BC3F8148085F31188BFF36F8F9D
:104134000123002B3FD1637B03F01F02002A0CBF35
:1041440001270027A4D013F0020F05D1A673EBE7D3
:104154001A4BD3F80C80DDE7A1686268236813600A
:104164005A6000232360636070B2A0730B689942A5
:104174000DD100230BE05A686260236014605C6018
:10418400D2E79C464A6894450DD01B686BB163B175
:1041940093F90E209042F4D0121A002AEBDC9C46CC
:1041A400002BEFD1F2E70023F0E74B682160636056
:1041B4001C604C60B8E73846BDE8F081C80C0020AC
:1041C40008B50B4659B9EFF3058242B9064A50695E
:1041D4009268904203D00846FFF78AFD03E083F318
:1041E4001188BFF36F8F08BDC80C002008B50346C3
:1041F40050B9EFF305823AB9064A5169926891427F
:1042040002D0FFF775FD03E083F31188BFF36F8FCE
:1042140008BD00BFC80C00200023EFF31181202249
:1042240082F31288BFF36F8F09E0064B9A68D37B41
:10423400013BD37381F31188BFF36F8F0123002BEC
:10424400F3D07047C80C002038B50023EFF3118574
:10425400202282F31288BFF36F8F0EE0154BDC68C7
:1042640017E0A24202D0204600F0CEF9114B5C6167
:1042740085F31188BFF36F8F0123BBB90D4B9A6887
:10428400D17B0131D17353F8184F9C42E6D0002CF6
:10429400E4D0537B13F01F0FE3D1D3897F2BE0D9F4
:1042A400A369002BDDD1034B5A61E1E703F035FB31
:1042B40038BD00BFC80C002008B5024803F038FB25
:1042C40008BD00BFDC0C002038B5EFF311842023B7
:1042D40083F31288BFF36F8F224B9A68DB699A428B
:1042E40005D01368516812680A60516006E0002323
:1042F400F8E71C4AD269934212D01B6893B1194A59
:10430400906890F90E1093F90E209142F1D0521A50
:10431400002AEEDD5A6842600360106058600AE0CB
:104324000023EBE70F4B9A68D96903F1180010607A
:1043340051600A60DA610B4B53F8185F9D420DD04F
:1043440065B1084B9B689D4202D0284600F05CF999
:10435400044B5D612046FFF7CBFC38BD014BDD68A3
:10436400EFE700BFC80C0020F8B551EA000328D0DD
:1043740005460C46EFF31187202383F31288BFF31D
:104384006F8F154EB068154B1860FFF725FDB068A8
:104394002A4623461249183000F0F0F90446B26860
:1043A400537B43F0040353733846FFF7A1FCB3680F
:1043B4009A6ADB6AB3F1004F08BF002A05D00020D7
:1043C400F8BDFFF781FF0020FAE703F054FB201A41
:1043D4000028F5DC0020F3E7C80C0020EC0C0020DA
:1043E400C978000038B5EFF31185202383F31288D0
:1043F400BFF36F8F437B13F0040F04D185F311884F
:10440400BFF36F8F38BD0446183003F005FB637BA0
:1044140023F0040363732046FFF784FC2946024813
:10442400FFF7CEFEEEE700BFEC0C0020014B9868CE
:10443400704700BFC80C00202DE9F843037B03F04C
:104444000107EFF31186202383F31288BFF36F8FE4
:10445400457B15F0080F1AD10446B14600F15808FF
:1044640003F060F910B345F020056573EFF305839D
:104474009BB131462046FFF7E3FC67B1002383F389
:104484001188BFF36F8F0423184602DF03E086F31D
:104494001188BFF36F8FBDE8F88341463D4B9868A0
:1044A40003F042F93046FFF723FCE6E745F0080342
:1044B400637313F0800F33D1A3685BB16268236820
:1044C40013605A60002323606360627B22F002025F
:1044D4006273A36004F1180003F09EFA404603F0EF
:1044E4005AF92C4B9A68944227D00026294B53F84A
:1044F400185F9D4228D03DB3AA4202D0284600F05E
:1045040083F8244B5D61204600F0DEF8FEB9214BB0
:104514009B689C421FD089F31188BFF36F8FACE76F
:1045240005F07F0545F0080565736268236813602C
:104534005A60002323606360BEE7EFF305830BB981
:104544000026D3E70126D1E7124BDD68D4E71248F1
:10455400FFF7BEFBDBE7EFF30583002BDBD1237B07
:1045640013F0010F12D089F31188BFF36F8F00236A
:1045740083F31188BFF36F8F0423184602DFEFF330
:104584001189202383F31288BFF36F8F4846FFF706
:10459400AFFB72E7C80C0020E0040020044BC01AF3
:1045A400C010044B03FB00F0034B01221A54704764
:1045B40090050020ABAAAAAAF00C0020C3897F2B87
:1045C40011D80E4B1B687BB190F90E200C4B1B6865
:1045D4009A420CDB437B13F01F0F0AD1094B98421C
:1045E40009D0012300E0002303F0010070470023F9
:1045F400FAE70023F8E70023F6E700BF680000208D
:10460400F40C00208003002070B505460D4B1E7C81
:1046140006EB46030C4C04EBC304204603F0FCF900
:104624000A4B00229A552846FFF7C8FF00B970BD0F
:10463400074B1A68013AD3170649204600F09EF842
:10464400F5E700BFC80C002090050020F00C002006
:1046540068000020A145000038B5EFF31185202340
:1046640083F31288BFF36F8F144B9C68144B1B6841
:10467400A34217D0124B00221A60104B1B7C114A24
:10468400D35C53B12046FFF799FF30B1637B13F03D
:104694001F0F0FD02046FFF7B7FF85F31188BFF334
:1046A4006F8F38BD2046FFF7AFFF85F31188BFF346
:1046B4006F8FF6E72046FFF75DFCEBE7C80C0020A0
:1046C400EC0C0020F00C0020EFF31181202383F385
:1046D4001288BFF36F8F0A4B1B6A834204D11A6F8F
:1046E400074B1A6207E0134613B11A6F8242FAD1DC
:1046F4000BB1026F1A6781F31188BFF36F8F704794
:10470400C80C002008B50648064A121A064902F0E9
:104714002CFF0648064A121A064902F026FF08BD75
:104724000000002040010020088400000000002058
:104734000000002008840000034B1868984200D051
:1047440070470020FCE700BF6C00002030B1044A31
:104754005268904201D0006870470020704700BF43
:104764006C00002008B5044B1B680BB1002008BD89
:10477400FEF79EF9FBE700BFF80C00202DE9F04F8F
:1047840083B00193B3F1FF3F08BFB2F1FF3F0DD0F7
:104794000446914681600023EFF3118A202282F3BC
:1047A4001288BFF36F8F1D461E4635E000252E4646
:1047B4002846314603B0BDE8F08FFFF7D3FF8046AB
:1047C4000135019B43F10006451946EBE07625616E
:1047D4006661384A13685268ED1846EB02064FF0DA
:1047E400010B41E0C91A67EB0202016142614368AF
:1047F400636020601C60446005E02F4B5A682360AE
:10480400626014605C60FFF797FF844240D08AF3D3
:104814001188BFF36F8F0123002BC9D14D46019E30
:104824006FF00103B3EB09034FF0FF3363EB0603AF
:10483400002BC2DB1F4B19685B686918019A43EBB4
:1048440002036FF00102521A4FF0FF3161EB0303D0
:1048540010461946012A73F1000301DA01200021F0
:10486400206161614FF0000BFFF766FF0028C4D0A0
:1048740001694769236962698B4272EB070EB1DBF8
:104884005B1A62EB070223616261FFF75FFFEDE7EA
:104894000A4B1B68002BBAD1BBF1000F06D040466F
:1048A40003F09FF80021FEF7C9F8B0E7FFF75AFFBD
:1048B4008046F4E7A80500206C000020F80C0020D6
:1048C40070B5EFF31186202383F31288BFF36F8F43
:1048D4002A4B1860FFF730FF044623E0284A136888
:1048E40051685B1941EBE5711360516000220023AC
:1048F400C4E90423204603F05DF886F31188BFF36E
:104904006F8FA36820469847EFF31186202383F323
:104914001288BFF36F8F194A13685B1B1360FFF78C
:104924000BFF04463CB125696169144B1A68D3171F
:10493400AA428B41D2DA44B1236962690F490968FA
:104944005B1A62EBE172236162610D4A0B4D2868C8
:10495400136851681B1841EBE07113605160002427
:104964002C60204603F03DF82146FEF767F886F3F5
:104974001188BFF36F8FFFF76FFE70BDF80C002036
:10498400A805002010B50022EFF31184202383F33F
:104994001288BFF36F8F134611460CE0FFF7E2FE57
:1049A400074A13685168C31841EBE07184F3118816
:1049B400BFF36F8F0122002AF0D0184610BD00BF4C
:1049C400A8050020F8B5EFF31183202282F31288A2
:1049D400BFF36F8F026822B183F31188BFF36F8F27
:1049E400F8BD04461D46826AC36A52EA030105D033
:1049F400B3F1FF3F08BFB2F1FF3F27D1236B01336F
:104A04002363236A6BB185F31188BFF36F8F236A25
:104A140020469847EFF31185202383F31288BFF3D0
:104A24006F8F04F11803A469A3423FD0002C3DD03A
:104A3400204602F0FAFE0023C4F8AC3085F3118856
:104A4400BFF36F8F204602F0D5FEC9E716461F4616
:104A5400012A73F1000301DA01260027013E47F120
:104A6400FF3703F00CF8013041F10001801947EBE6
:104A74000101012871F1000108DA6FF001024FF021
:104A8400FF330D492046FFF779FEB7E702F0F7FF41
:104A9400013041F10001801947EB01036FF001027D
:104AA400121A4FF0FF3161EB0303EAE785F3118833
:104AB400BFF36F8F94E700BFC9490000F8B51D46E6
:104AC400EFF31187202383F31288BFF36F8FB5F1BF
:104AD400FF3F08BFB2F1FF3F1FD0064614462946E8
:104AE4006FF00102121B4FF0FF3262EB0502002A45
:104AF40018DB304602F090FFDDE90623C6E90A23FD
:104B04000023336322462B460B493046FFF736FE1B
:104B140087F31188BFF36F8FF8BD87F31188BFF354
:104B24006F8FF9E7012C71F1000101DA01240025EE
:104B3400013C45F1FF35DCE7C949000010B50A4CDA
:104B440023681BB101232360002010BD00F0F4F89A
:104B54000028F7D00138072803D8044B53F8200065
:104B640010BD034810BD00BFFC0C00206C83000086
:104B7400FE8FFFFFBFF34F8F0549064BCA6802F44F
:104B8400E0621343CB60BFF34F8F00BFFDE700BF6C
:104B940000ED00E00400FA0530B44FF0FE320025C9
:104BA4000B4B0C4C0C494968C3F80024C3F804248B
:104BB400C3F80824C3F80C24C3F81024C3F814243D
:104BC400C3F81824C3F81C24C4F8005530BC0847A3
:104BD400005084500040845074000020024BD0E9FF
:104BE4000012C3E9001270477400002010B5044697
:104BF40050B1636813F0685F05D0064A934202D04F
:104C040000236260236010BD034B04485B6898472F
:104C1400EFE700BF2C5F5CA9740000208C830000C8
:104C2400C8B143680D4A934213D013F0685F0ED0A5
:104C3400012350E8002F194640E8001C9CF0000FA7
:104C4400F7D1012AF5D0BFF35F8F002070470448E5
:104C54007047044870476FF4E04070472C5F5CA9CC
:104C6400E98FFFFFEA8FFFFF034680B142680949DD
:104C74008A420AD012F0685F05D0BFF35F8F00222A
:104C840010461A60704704487047044870476FF430
:104C9400E04070472C5F5CA9E98FFFFFEA8FFFFFBC
:104CA40010B5044620B10023034A2360626010BD9E
:104CB4000248FFF771FFF6E73A00003AB4830000B8
:104CC40070B5194CD0F804C00668C4F804C0D0F814
:104CD40008C0C068C4F808C0E06026600868134BC8
:104CE400134D18604868D5F818215860886812F088
:104CF400685F9860C8680969D860196112D0002398
:104D04000C4A05F58A70C5F81431C5F8B831C5F8F0
:104D14001821C5F8BC21B047236805F5DC70BDE84F
:104D24007040184770BD00BF900000207C00002038
:104D3400140D00202C5F5CA908B500F011F830B9FF
:104D440000F010F838B9054AC2F80C0A08BD00F0A2
:104D540037F8032008BD042008BD00BF005084506C
:104D64000020704710B5114800F048F800B110BD9C
:104D74000F4800F043F80028F9D10E4C204600F00B
:104D84003DF80028F3D10C4B0C481C6000F036F8B9
:104D940001460028EBD100F02DF8044608B1204666
:104DA40010BD00F03FF82046FAE700BFD000002015
:104DB400CC000020C8000020C0000020C400002057
:104DC40008B5084800F024F8074800F021F807481F
:104DD40000F01EF8064800F01BF8BDE8084000F09B
:104DE4000BB800BFD0000020CC000020C800002079
:104DF400C400002000207047704700BF08B5034B73
:104E040002681B6810689847002008BD90000020C5
:104E140008B5034B02685B6810689847002008BD1A
:104E24009000002070B5094C094D2069AB68984783
:104E340018B1084B08485B6898470021074AEB689B
:104E440011602069BDE87040184700BF7C00002055
:104E54009000002074000020D8830000100D002072
:104E64002DE9F04F43688DB0154680460293837850
:104E74009A0740F10D8100240E78002E00F00A817B
:104E8400252E0BD04B1C0393013441463046029B24
:104E940098470028C0F2F6800399EDE74E788B1C02
:104EA400252E0393F0D00027B946BB46BBF11F0F54
:104EB40038D8A6F12003102B0AD8DFE803F02A091A
:104EC40009300909092109090928092D09091F00BF
:104ED400A6F13003092B33D92A2E37D11BF0400F0A
:104EE40055F8043B40F08280002BA7BF4BF0200B09
:104EF4009946C3F100094BF0280B01E04BF0010B7C
:104F0400039B13F8016B0393002ECFD130E04BF0D9
:104F1400020B4BF0040BF3E74BF0080BF0E74BF0FC
:104F2400100BEDE7BBF17F0F19D8A6F13003092B65
:104F3400D2D81BF0400F03D00A2101FB0737DFE76B
:104F44000A214BF0200B01FB0939D9E72E2E06D19B
:104F54001BF0400F40F09E804BF0400BD0E76C2ECE
:104F640031D02BD8682E36D06A2E3CD04C2E3AD075
:104F7400002F46F02003B8BF2BF04002A3F16501D7
:104F8400BCBF00271FFA82FB022901D9612B2FD154
:104F940007350727DFF8ACA225F0070508351BF015
:104FA400080F66D00AEB070B56465E4563D1A4EBA7
:104FB4000A0AA9EB070906EB0A026FE1742E9FD0D7
:104FC4007A2E9DD0D4E71BF0800F18BF4BF4007BE2
:104FD4004BF0800B94E71BF4807F18BF4BF4007BED
:104FE4004BF4807B8CE74BF4207B89E71F4687E7F3
:104FF400A6F16301122900F2F080DFE811F013003A
:105004004F00EE00EE00EE00EE004F00EE00EE006A
:10501400EE00EE00EE00FE00E900EE00EE001B00E4
:10502400EE00AF0055F8043B01270DF1180A8DF886
:105034001830B4E755F804AB834BBAF1000F08BF3E
:105044009A461BF0400F504614BF39464FF0FF31CB
:1050540002F082FD0746A2E741462020029B9847C2
:1050640000280FDB013EB742F6D34C44B146A41BE3
:1050740098E74E46F7E7414616F8010B029B98471E
:10508400002892DA98F8023043F0040388F80230DA
:105094004FF0FF3420460DB0BDE8F08F1BF0800FB9
:1050A40034D01BF4007F2CD0073525F00705AA4621
:1050B40069685AF8080B2BF010050029ADB237DAED
:1050C400404245F4806561EB41010DF1180B0A2360
:1050D4005A4602F04DFDA0EB0B0301936B0662D51B
:1050E400019B25F001019F4289B240F3A180002E6B
:1050F40000F0998015F0100240F09C80BB460D46EC
:1051040023E0AA465AF8040BC117D4E7AA461BF4B5
:10511400807F5AF8041B01D10846F5E71BF4007F91
:1051240019BF48B241F3C01108B241F3C031C2E71C
:1051340050EA0103C9D11BF0400FC6D0002FC4D1DF
:105144002BF01102BB46019795B240F2064115EAD5
:1051540001021CBF0BF1010B00222CE02BF010020A
:105164000A231FFA82FB1BF0800C49D01BF4007148
:1051740015BF0735AA4625F007055AF8040B1EBFCC
:10518400AA4669685AF8080B50EA010545D12BF084
:1051940016051BF0400FADB242D0002F40D12BF0CA
:1051A4001702019795B215F0100248D0019B002E0A
:1051B40042D103F1010B29075AD4EB0706D5D9458F
:1051C4006FDDA9EB0B030199CB465F185B4649E001
:1051D4004BF0100B10237826C5E7782B04D1C6F1C9
:1051E400780343F01003BEE741462520029B98470D
:1051F4000028FFF647AF023447E608230026B2E74B
:10520400AA461BF480715AF8040BBDD01BF400713C
:105214001ABFC0B2614680B2B6E72BF0060295B25F
:105224000DF1180B54E725F01105BB46ADB28CE720
:105234000D46B8E73B460D4603F1020BBBE7DDF82C
:1052440004B082E7FF830000F8830000CDE9043254
:1052540041462020029B98470028FFF613AF049B89
:10526400059A01339945F1DCA4EB0B019B46CC185C
:105274000AB341463020029B98470028FFF602AF4C
:105284008EB901342744391B019B994224DC1D4605
:1052940055BB019AA9EB0B09554622441446914487
:1052A40033E0019F92E7023441463046029B98471F
:1052B4000028E7DAE6E640F206410D42E2D015F0B6
:1052C400020F04F10104414614BF2B20202015F4E1
:1052D400806F18BF2D20E9E741463020029B01343E
:1052E40098470028CFDACDE606AB013D4146585D2C
:1052F400029B98470028CBDAC4E641462020029B53
:10530400013498470028FFF6BDAEA9EB0403002B37
:10531400F3DCC1E5704710B5044602F0B0FB8E46DD
:105324004A0142EAD06243011B1A62EB0102920075
:1053340042EA93729B001B1842EB0101C90041EA47
:105344005371C3F3103343EA4143C90B20686268C5
:10535400181A2360616061EB020110BD08B5FBF708
:1053640035F9FBF749F9FBF76DF9FBF77FF90020F5
:1053740008BD38B513468568046912F4801F07D048
:1053840012F4402F04D012F0010F01D082F4402314
:1053940023F4801213F0010F0AD023684FF0010C9C
:1053A4000CFA01FC43EA0C0323602B68984738BDD0
:1053B40023684FF0010C0CFA01FC23EA0C03236070
:1053C400F3E708B503468C4600681979DA8842EA9F
:1053D4000C02FFF7CEFF08BD08B532B1012303FA72
:1053E40001F18368DB68984708BD012303FA01F1E2
:1053F40083681B699847F7E710B503691C680123A4
:105404008B401C4202D0B2FA82F25209FFF7E4FF49
:1054140010BD00EBC1018368B3F5004F0AD322B17C
:105424004B6843F001034B6070474B6823F0010362
:105434004B60704722B14B8843F001034B807047A7
:105444004B8823F001034B807047131D50F8233021
:10545400DBB9C3684FF0010C0CFA02FC43EA0C03FD
:10546400C360043240F8221000EBC1038268B2F535
:10547400004F06D399608268B2F5004F03D3D96018
:1054840070479980F7E7D980704710B500EBC30CDB
:105494008468B4F5004F1CD3DCF8082000EBC10E7F
:1054A400B4F5004F18D3CEF808208468B4F5004F43
:1054B40015D3CEF80C3000EBC2028368B3F5004F6D
:1054C40010D3D1608368B3F5004F0DD3CCF8081026
:1054D40010BDBCF80420E1E7AEF80420E5E7AEF81F
:1054E4000630E8E7D180EDE7ACF80410F0E708B542
:1054F4008368B3F5004F07D300EBC102526852082A
:10550400012A02D0002200E00022A2B900EBC1026D
:10551400B3F5004F10D352685208B3F5004F0DD3C2
:1055240008230833A2EBD3020132B2FA82F2C2F1A9
:105534001F02FFF78AFF08BD5288EDE70423F0E756
:10554400F8B5B2F5802F23D30823D21ACC1D24F04A
:10555400070401EB020C2CF0070CACEB040C4FEA33
:10556400DC010460A1600023E360BCF5802F11D34B
:1055740008230833A1EBD3030133B3FA83F3C3F154
:10558400200EC3F124039B00DE1DF508002308E070
:105594000423DAE70423ECE71A1D002044F8220070
:1055A40001337345F8DB6B00BCF5802F32D36360A5
:1055B400BCF5802F30D300232360BCF5802F2ED37D
:1055C400636843F0010363604A1B570026F0070336
:1055D400E018BCF5802F27D34760A068B0F5004FD2
:1055E40024D3E5502CF00703A444A068B0F5004F81
:1055F4001ED30020CCF80400A068B0F5004F1BD3E4
:10560400E25001222046FFF704FF29462046FFF717
:105614006EFFF8BD6380CBE700232380CDE763886A
:1056240043F001036380CFE74780D6E7E552D9E72B
:105634000020ACF80200DFE7E252E2E70020704706
:105644000FB400B583B004A951F8040B0191FBF722
:1056540025F803B05DF804EB04B0704701F00701CE
:10566400038B23F007030B43038370472DE9F041B9
:1056740006460F469046816821B10C683CB131B9A9
:105684000C4604E00C4602E0234621461C4669B160
:105694004D6843463A463046A847002CF4D0236868
:1056A400002BF2D0002CF0D12346EEE7BDE8F081C8
:1056B400038B13F0070303D102680AB10320704778
:1056C400022B03D0012B06D000207047428B002A06
:1056D400F8D10420704703680BB1052070470020FF
:1056E400704710B504468C46038B002A07DB03F091
:1056F40007035A1F012A0ED9042B36D010BDD0E956
:1057040000018CE80300002323606360012120462C
:10571400FFF7A4FFF2E7D0E900018CE803000022C0
:1057240022606260062B1BD1DCF8003053B1628B1F
:10573400013262831A461B68002BF7D0002AF5D188
:105744001346F3E702212046FFF788FF2046FFF7C0
:10575400AFFF0028D2D0238B43F020032383CDE76F
:1057640000212046FFF77AFFF0E70021FFF776FFDC
:105774002046FFF79DFF0028C0D0238B43F0200371
:105784002383BBE750B110B50C4651B1081D00F09E
:10579400C2F810B9A368032B06D810BD6FF015002A
:1057A40070476FF01500F8E76FF01500F5E72DE985
:1057B400F04107460C4616461D461946201D00F0CA
:1057C400C1F828B180462B46324621463846C047A8
:1057D400BDE8F0812DE9F04180460C4617461E468F
:1057E40004E033463A464046FFF7E1FF216831B111
:1057F4000D68256063688B42F3D16560F1E7BDE80D
:10580400F08108B5EFF311824FF0200C8CF312886D
:10581400BFF36F8F41610121FAF770FF08BD0346A2
:1058240070B181B10A688AB14A6892B100201860E7
:1058340058609860D8601861586198611961704720
:105844006FF0150070476FF0150070476FF015008A
:1058540070476FF01500704770B505460E46FFF7A8
:1058640091FF041E2EDBEFF31182202383F31288B1
:10587400BFF36F8FB5F818C00CF0070C6B8B4FF6A5
:10588400FF718B422CD06446BCF1020F08D0BCF1EE
:10589400060F19D8DFE80CF01E1818181E2A1E006F
:1058A40001336B8301230021084628B100203060B6
:1058B400686808B306606E6009BB82F31188BFF3A1
:1058C4006F8F0BBB204670BD6FF004040023194694
:1058D4001846EAE7BCFA8CF1490900230120E4E701
:1058E4006FF00A04002319461846DEE76FF08504BA
:1058F400002319461846D8E76E602E60DCE70221C3
:105904002846FAF7FBFEDDE70023624631462846C7
:10591400FFF74DFFD6E7024658B1436803F003038F
:10592400012B03D0032B07D1036843B100209060FF
:1059340070476FF0150070476FF0150070476FF0F7
:10594400150070470346426802F003028160032A8F
:1059540003D1006800225A6070470020FAE77047BC
:10596400FEE708B5012802D0FDF762FE08BDEFF39B
:105974000583F9E708B501460068FFF7F2FF08BDA3
:1059840008B5FBF7ADF8FBF7D7F808BD0020704762
:1059940000230B70704708B500231370CB1E092B2E
:1059A4001AD8DFE803F005090D111919191919148A
:1059B4001146FBF7BFF910E00021FBF7CDF80CE02E
:1059C4000021FBF71BF908E0FBF75EF905E011463F
:1059D400FFF7DEFF002000E0002008BD08B540B25C
:1059E400FBF722FB08BD08B5013140B2FBF72AFBE7
:1059F40008BD08B500210120FFF7B3FF08BDD0F8AA
:105A0400943083F30B88704761B662B680F31188D3
:105A1400BFF36F8F704708B572B6002383F3118804
:105A2400BFF36F8F00F016F950B1BFF34F8F30BF43
:105A340000BF00BF00BF00BF00BF00BF00BF00BF6A
:105A440062B6BFF36F8F08BD10B5044672B600236B
:105A540083F31188BFF36F8F00F0FCF850B1BFF3EC
:105A64004F8F20BF00BF00BF00BF00BF00BF00BFFB
:105A740000BF00BF84F31188BFF36F8F62B610BDFF
:105A840040E800F010F4803F01D0C0B270476FF0DE
:105A94001500704708B50B6823F01F0C0B7A03F050
:105AA4001F0ECA6822F01F025B0942EA430242F059
:105AB40001024CEA0E01FBF7A7FB08BD43681F2B4C
:105AC40008D913F01F0F07D1036813F01F0F05D077
:105AD4000020704700207047002070470120704765
