:1000000098230020792900009F82000065290000C4
:1000100065290000652900006529000065290000A8
:10002000000000000000000000000000F92A0000AD
:100030006529000000000000912A000065290000E9
:10004000892C0000892C0000892C0000892C0000DC
:10005000892C0000892C0000892C0000892C0000CC
:10006000892C0000892C0000892C0000892C0000BC
:10007000892C0000892C0000892C0000892C0000AC
:10008000892C0000892C0000892C0000892C00009C
:10009000892C0000892C0000892C0000892C00008C
:1000A000892C0000892C0000892C0000892C00007C
:1000B000892C0000892C0000892C0000892C00006C
:1000C000892C0000892C0000892C0000892C00005C
:1000D000892C0000892C0000892C0000892C00004C
:1000E000892C0000892C0000892C0000892C00003C
:1000F000892C0000892C0000892C0000892C00002C
:10010000892C0000892C0000892C0000892C00001B
:10011000892C0000892C0000892C0000892C00000B
:10012000892C0000892C0000892C0000892C0000FB
:10013000892C0000892C0000892C0000892C0000EB
:10014000892C0000892C0000892C0000892C0000DB
:04015000892C0000F6
:1001540053B94AB9002908BF00281CBF4FF0FF312A
:100164004FF0FF3000F00CB8ADF1080C6DE904CE8F
:1001740000F010F8DDF804E0DDE9022304B0704774
:10018400704700BF034613F8012B002AFBD1181A4D
:10019400013870472DE9F04786468C460846089E8C
:1001A400154674461946002B40F0C1808542B2FAC8
:1001B40082F245D94AB1C2F1200300FA02FC95400B
:1001C40094402EFA03F343EA0C0C4FEA154EA8B2FE
:1001D400230CBCFBFEF80EFB18CC08FB00F943EA29
:1001E4000C43994528D9EB1808F1FF3704D29945F7
:1001F40002D9A8F102072B44A3EB0903A4B2B3FB71
:10020400FEFC0EFB1C330CFB00F044EA0344A0424A
:1002140014D92C190CF1FF3304D2A04202D9ACF149
:1002240002032C44241A43EA07401EB1D44000239D
:1002340034607360BDE8F0874746DDE76346F1E765
:1002440092BB431B01214FEA154EAFB2200CB3FB06
:10025400FEFC0EFB1C330CFB07F840EA03439845F5
:1002640061D9EB180CF1FF3004D2984502D9ACF1F6
:1002740002002B44A3EB0803A4B2B3FBFEFC0EFB69
:100284001C330CFB07F744EA0344A7424DD92C194D
:100294000CF1FF3304D2A74202D9ACF102032C447F
:1002A400E41B43EA0040C0E7C2F1200395409440B8
:1002B40020FA03F12EFA03F34FEA154E9040AFB241
:1002C4000343B1FBFEFC0EFB1C10190C0CFB07F8DE
:1002D40041EA0041884522D969180CF1FF3004D263
:1002E400884502D9ACF102002944A1EB08019BB274
:1002F400B1FBFEFC0EFB1C110CFB07F743EA0143A8
:100304009F420ED9EB180CF1FF3104D29F4202D95F
:10031400ACF102012B44DB1B41EA004193E7604648
:10032400E3E76146F7E76046A4E76346B8E783423C
:1003340006D916B9002108467CE7C6E900E0F9E7CA
:10034400B3FA83F78FB9834201D3724508D8BEEB61
:10035400020460EB030301209C461EB9002169E7F7
:100364003846FAE7C6E9004CF8E7C7F1200CBB4071
:100374000EFA07F522FA0CF42EFA0CF1BA401C43DB
:1003840020FA0CF3B8404FEA144901431FFA84FEE3
:10039400B3FBF9F809FB18300B0C08FB0EFA43EA1F
:1003A40000439A4540D9E31808F1FF3004D29A4536
:1003B40002D9A8F102002344A3EB0A0389B2B3FBD8
:1003C400F9F809FB183308FB0EFE41EA03418E4598
:1003D4002CD9611808F1FF3304D28E4502D9A8F153
:1003E4000203214443EA0040A1EB0E01A0FB029862
:1003F4004145CE46434602D306D14D4504D2013889
:10040400B9EB020E68EB0403002EA7D0B5EB0E0285
:1004140061EB030101FA0CFC22FA07F3F9404CEA00
:100424000303C6E9003199E74046C5E74346D9E7E7
:10043400B0B582B000AF0B78022B05D0052B00F0CD
:10044400D1800837BD46B0BDCB68012BF9D14A68CD
:100454008B68D35C312B2DD0322BF2D1654806F05A
:10046400EEFE0721644806F0BDFE003818BF0120E7
:10047400624B187000287ED061496D4600233B71A1
:1004840002237B7188B06C4614F1100275D00E20E3
:100494001AB1042801DD5B4B636100233B70022326
:1004A4007B70002A76D0082800DDA16104F11C03CA
:1004B40000216DE0544806F0C2FE06214E4806F0C5
:1004C40091FE003818BF0120504B1870E0B14C4920
:1004D4006D4600233B7102237B7188B06C4614F196
:1004E400100213D00E201AB1042801DD484B6361B9
:1004F40000233B7002237B70AAB1082800DDA161B0
:1005040004F11C0300210CE04249E1E76FF00040D4
:10051400E9E701F1080CBC441CF808CC03F801CB52
:1005240001310129F5D90D2822DD0E2342B1032121
:10053400397100217971B9710121F97178682061EB
:1005440000216FF300016FF341016FF382016FF338
:10055400C501032060F38811C3F30A0363F3532135
:100564006FF31F5100232C4801F098F9AD4668E75A
:100574006FF01B03DAE727497FE76FF0004087E756
:1005840001F1080CBC441CF808CC03F801CB013180
:100594000129F5D90D2822DD0E2342B10321397139
:1005A40000217971B9710121F97178682061002104
:1005B4006FF300016FF341016FF382016FF3C50123
:1005C400032060F38811C3F30A0363F353216FF329
:1005D4001F510023104801F061F9AD4631E76FF077
:1005E4001B03DAE78368DC680A2302220B49A0476D
:1005F40027E700BFD8AA000040A600004813002047
:10060400E8A9000000AA0000E0AA000049130020A5
:10061400F0A90000ECA900002CA90000F8090020B2
:1006240010B5424809F0FCFB002841D04FF4D0112A
:100634003F4806F0C0FD002845DB4FF4D0113D488B
:1006440006F0B9FD002844DB3B4B186809F0E8FBD1
:10065400002844D0384B186883681B681BB10022FB
:100664003649984720B1364A0321364807F00FFD32
:10067400314B18688368DC680A2302223249A04798
:10068400002832D12C4B186883685C684FF0FF3324
:100694006D222E49A04770BB244C0022062120461F
:1006A40006F0C0FD00220721204606F0BBFD31E024
:1006B4001E4809F0B5FB0028B8D1254A032121487A
:1006C40007F0E5FCB2E7234A03211E4807F0DFFCEC
:1006D400B3E7214A03211B4807F0D9FCB4E71F4ABA
:1006E4000321184807F0D3FCB4E71D4A0321154839
:1006F40007F0CDFCC6E71B4A0321124807F0C7FCEC
:10070400CAE7184A03210F4807F0C1FC41F28830B8
:1007140006F09FFD084B186883685C684FF0FF3350
:100724006D220A49A0470028EBD1EFE740A600005C
:10073400E0AA0000D8AA00007000002035040000E0
:1007440060AA00002CA90000F80900200000002085
:1007540010AA000024AA000038AA00004CAA000035
:100764008CAA0000B0AA00002DE9F04F91B00592C8
:100774000293134602F004020092C3F3C20210F083
:100784000303019340F02B8280468A460132041D04
:1007940000284FD0B8F1000F05D0A4EB08030433B0
:1007A400534500F21F82029B5D1E019B0493069336
:1007B400039300264FF0FF3B0427B946B8F1000F1E
:1007C40001D0029B2360531E0793002A40F35D81EE
:1007D400059B13F0020228D00120A4EB08018B082A
:1007E4001AB1B1F5007F80F0038203990F2900F25A
:1007F4000282B8F1000F00F06081DBB201F1400227
:100804006A4402F8103C02F820BC002800F0518130
:1008140063F07F0301F140026A4402F8103C049B38
:1008240001330493039B0133039304340022CC4625
:1008340040463DE001F0070A5444CAF1080AA9E71A
:10084400002634E0002632E0002630E00827BC46CB
:100854002DE025292BD10BF1010B01260427BC46E1
:1008640025E04729EED82A2914D32A39C9B24FF0F2
:10087400010E0EFA01F14FF6DA7E11EA0E0F16D1CF
:1008840011F0625F40F0C08011F0010F40F08C80E5
:1008940000260CE0252903D10BF1FF3B002606E0DE
:1008A40001D9002603E0202901D02329CCD11D46FB
:1008B4006B1C6978002900F01981002EC9D07A29AF
:1008C400BED84C29CDD34C392E2961D80FF2040E51
:1008D4005EF821F0B30800009509000095090000B6
:1008E400950900009509000095090000950900008C
:1008F400950900009509000095090000950900007C
:1009040095090000A509000095090000950900005B
:10091400950900009509000095090000950900005B
:1009240095090000950900000D0A000095090000D2
:10093400A5090000A50900000D0A00000D0A000029
:100944000D0A0000B3080000A509000051080000CA
:1009540095090000B308000095090000690A000029
:10096400A5090000690A0000950900009509000026
:10097400710A00009F090000A50900009509000004
:1009840095090000A50900009509000099090000D7
:1009940000268CE70427BC4689E70427BC4686E783
:1009A40029786C2924D000263C44013CB4FBF7F49C
:1009B40007FB04F420B1211A6144514500F215816A
:1009C400002A58D1BCF1040F00F08880BCF1080F54
:1009D40040F014811A99073121F0070101F108054B
:1009E4001A95D1E9008908B1C4E9008908345EE7A1
:1009F40013F8021C6C2903D000260427BC46D3E755
:100A040000260827BC46CFE729784C291AD01A9922
:100A1400073121F0070101F108061A96D1E90067B0
:100A2400073424F0070440B1211A0831514513D882
:100A340029784C2913D0C4E9006708340026082714
:100A4400BC4634E71A99073121F0070101F1080681
:100A54001A96D1E90067E3E76FF01B00BCE0C4E934
:100A64000067EAE700260427BC469DE732460026D5
:100A74000427BC4698E7E14680461A9A111D1A914C
:100A840012680292079A1D4698E6624B029A9A42AD
:100A940004D3614B9A420AD3002300E00023002BC5
:100AA4007FF496AE059B03F00202002095E6012335
:100AB400F5E7069B01330693B4E610B10AF1010A87
:100AC400B0E6009B13B10AF1020AABE60298FFF705
:100AD40059FB0AEB000303F1020AA3E61A990D1D60
:100AE4001A95096800B121600434E0E68046231AAF
:100AF400B3F5806F80F0858090B1002202609B087E
:100B04000370009B83B1069BC370049B88F802307A
:100B14001BBB019DDDF80C90DDF810B0029F3DE099
:100B24005344A3F1080057E0069B4370EDE70133FB
:100B34009842EED903F140026A4412F8101C12F9EB
:100B4400102C002AF3DA01F07F01A4EB0802013231
:100B5400524559D804F8011BE9E7019B0398E7E7DC
:100B6400009B43B305F140036B4413F8203C04F8A5
:100B7400013B019EA4EB080333440133534546D89B
:100B840005F140036B4413F8103C04F8013B324672
:100B94003946204609F062FC34440135A94519D987
:100BA400BBF1000FDCD005F140036B4413F9103C9A
:100BB400002BD5DAF1E705F140036B4413F8103C40
:100BC40058F82370002248F823203846FFF7DAFA51
:100BD400461CCFE7A4EB080011B0BDE8F08F6FF01E
:100BE4000D00F9E76FF01B00F6E76FF01B00F3E769
:100BF4006FF01500F0E76FF01500EDE76FF01500EA
:100C0400EAE76FF01500E7E76FF01B00E4E76FF029
:100C14001B00E1E7C8A50000B0B700002DE9F04FC4
:100C240097B000AF8346BA613B61D7F88030C3F315
:100C3400C0033B62F96011B906F044FCF8609BF80C
:100C44000260B14636B1D7F8803013F0010F0DD1F0
:100C5400002300E000239BF803207A6242B1D7F816
:100C6400802012F0020F22D1002202E00123F2E7D9
:100C7400002202B9EBB19BF80050AA00BA60DBF87D
:100C840004207A610BEB8505BA69F2B1002B40F0C0
:100C94000481B9F1000F00F00F81D7F8803013F010
:100CA400040F40F00D810020F8610646F9E00122AE
:100CB400DFE7BB691BB13A69F96858469847FC6895
:100CC40020465C37BD46BDE8F08FFC68E3B94D446F
:100CD40000233B6123E00444013501364E451AD21A
:100CE4002A7800235BF822201946B86906F0FFFB36
:100CF400BAF1000FEFD0D7F888309845EBD22AF834
:100D0400180008F10108E6E70026C7F81C80B04681
:100D1400D7F884A0E2E7C7F81080D7F81C80D7F88A
:100D2400803003F00503FB604FF0000AA146C7F8CA
:100D34001CB09CE000253B6A7BB9002D79D0D7F824
:100D4400803013F0010F79D1FB68002B6FD102239F
:100D5400A9EB030988E00125EDE75946786906F017
:100D64000CFC0028E9D06C46002387F82C300223C1
:100D740087F82D308AB0694611F1100237D0122558
:100D84001AB1042D01DDB34B4B61002387F82830E1
:100D9400022387F829306ABB112D45DD122362B185
:100DA400042087F82C00002087F82D0087F82E00F7
:100DB400012087F82F00F86A08616FF300086FF3C9
:100DC40041086FF382086FF3C508022161F38818A4
:100DD400C3F30A0363F353286FF31F5800234146F8
:100DE4009D4800F05BFDA546A9F102093CE06FF0C7
:100DF4000045C5E72B46082D01DD786988610C2B79
:100E040001DDC1F81CB001F12003002009E000F16C
:100E1400300C07F1280EF4441CF830CC03F801CB55
:100E240001300128F3D9B7E76FF01B03B7E70123BB
:100E34008EE7D7F8803013F0020F15D00023224636
:100E44001946B86906F053FBD7F8843053B13B69AF
:100E5400D7F88820934205D2D7F8842022F81300CB
:100E640001333B61013881440AF1010A35467B6A4A
:100E74009A4510D22E4616F802BB6B78FA6952F8DE
:100E84002340764B9C42FFF455AF754B9C42FFF4D4
:100E940062AF00254FE74C4612E707F144000023F8
:100EA400FB6118B14A46294609F0D8FA4D444FF07F
:100EB4000008C7F804901EE00020F8610646F0E739
:100EC400FE6107F134000026EBE700253B6A33BBE3
:100ED400002D3BD0D7F8803013F0010F26D0731CBF
:100EE40006F1300207F12801561806F8149CDEB208
:100EF40008F1010825467B6A98454AD22C4614F825
:100F040002AB95F801905BF82930544A9342DCD344
:100F1400534A934201D30025D8E70125D6E7514629
:100F2400786906F02AFB0028D2D0E1E7D7F88030B0
:100F340013F0040FDCD0FA69531C303207F1280196
:100F44000A4402F8249CDBB2FB61D1E7D7F8803075
:100F540013F0020F09D0731C06F1300207F12801C7
:100F6400561806F8149CDEB2C2E7F869431C00F177
:100F7400300107F128028A1802F824AC0246023232
:100F8400D2B2FA6107F1580252FA83F303F8249CAF
:100F9400AEE7D7F804909BF8003087F854309BF8FC
:100FA4000130334487F85530D7F8803013F0020FFE
:100FB4000ED1FB69C3F3470387F85730D7F8803065
:100FC40013F0010F06D113F0040F3ED1002302E009
:100FD4000023F1E7002387F85630DBF8000038637C
:100FE400786DCBF80000D7F810804246B9685846AF
:100FF400D7F818A0D047041EFFF662AE386BCBF8C2
:101004000000C7F810804246F96907F13400D04760
:1010140000285EDB04EB0008B96849447B6A01EBF5
:101024004301D7F810904A46FB68591A2846D0471E
:10103400041EFFF645AE08EB04054FF00008C7F8A0
:1010440024B0B3465446CA4621E0FB69C3E74FF0D7
:10105400000909E0F0AA000034A90000C8A50000B6
:10106400B0B700004FF000095246012107F12C00EF
:10107400A04700282FDB05444B4632465146204604
:1010840006F035FA002828DB054408F10108D845A4
:1010940018D208F1300307F12802134413F8143C62
:1010A40087F82C307A6A52F82360D7F88430002B02
:1010B400CDD0D7F888309845D4D2D7F8843033F8D7
:1010C4001890D1E73A6900210846BB6998472C4635
:1010D400F6E50446F4E50446F2E50446F0E500BF0F
:1010E400014B1860704700BF7400002080B50546AE
:1010F4000E461746984605F095F8034609F058FA47
:101104000446DFF8189049F8003042463946304624
:10111400A84754F8090001F09FFC00BF0800000034
:101124002DE9F04383B0044608461546238B13F09B
:10113400080F05D103F0070600230093019354E040
:10114400012909D043F02003238385F31188BFF3D9
:101154006F8F03B0BDE8F08343F010032383F4E7FB
:10116400204606F06DFD42E0D4F814904A466946E4
:10117400204606F07EFD4FF00008238B03F007079E
:10118400B74269D0A268002A66D0012243F008035E
:10119400238385F31188BFF36F8F002A64D1009BEA
:1011A4002BB14B463A466946204606F0DBFDB8F1C2
:1011B400000F02D034492046C047EFF311852023A5
:1011C40083F31288BFF36F8F238B23F008032383E9
:1011D400238B13F0100F4DD023F010032383012031
:1011E400268B06F007060028AFD00228B8D00028C6
:1011F400ABD0013804282BD801A353F820F000BF4A
:101204006D11000055120000191200002D1200008B
:10121400411200002369D3F800800621204606F01D
:10122400E5FC4FF00009A8E72369D3F80480042102
:10123400204606F0DBFC4FF000099EE72369D3F853
:1012440008800521204606F0D1FC4FF0000994E700
:101254004FF00008C14690E7009A0AB1002295E7D2
:10126400B8F1000F92D1B3E74A463946204606F05A
:10127400C5FC94E713F0200F04D023F0200323834C
:101284000220ADE70020ABE7977D000038B50546A6
:101294000B4C00E010340B4B9C420FD263685B791B
:1012A400002BF7D02946204606F03EFE0028F1D058
:1012B40023681B68294620469847EBE738BD00BFE2
:1012C4007CA900008CA9000070B506460D46084CA8
:1012D40004E02A463146204698471034054B9C4288
:1012E40004D223689B69002BF3D1F6E770BD00BFDD
:1012F4007CA900008CA900002DE9F04107460546B1
:101304000AE007EA0807144B03EB06135B680422A0
:101314001968204606F052FED5B195FAA5F6B6FA3C
:1013240086F60D4C04EB06140123B3406FEA030860
:1013340025EA0305237B002BEED03301064AD3585C
:101344001B69002BDDD0204698470028E4D1D8E75C
:101354003846BDE8F08100BF7CA900002DE9F041CA
:1013640080460F461D4BD3E8EF5F6A1CC3E8E12FAC
:101374000029F8D16DBB1A4C002607E063680422EB
:101384001968204606F01AFE01361034154B9C42AB
:1013940011D2237B002BF7D0204606F0B9FD236839
:1013A4001B69002BEAD0204698470028E6D0012389
:1013B400B3401D43E8E7B8F1000F0BD055B1284600
:1013C400FFF79AFF0546002FF8D00A2006F0B2FD79
:1013D400F4E700252846BDE8F08100BF100A00208C
:1013E4007CA900008CA9000008B5064B186018B150
:1013F400054B1B68092B00DC08BD044804F076FA91
:10140400FAE700BF040A00200C0A0020E4010020CF
:1014140008B5024804F06AFA08BD00BFE4010020E0
:1014240030B589B000220F490F4808F0F8FF0F4D7E
:1014340000220023CDE90623002404940E23039301
:101444000294019400940A4B4FF4407209492846CF
:1014540008F007FE0849284604F0C2FA204609B0FD
:1014640030BD00BF15140000B0060020F8010020B4
:10147400C917000058130020A8AB0000014B53F813
:1014840020007047C4AB000048B108B5054A10609D
:10149400054B1960084600F0F5FC002008BD6FF00C
:1014A4001500704778000020000A002008B5054B9D
:1014B4001B781BB1034B01221A7008BD024804F0CB
:1014C40015FAF7E74A130020E401002008B50C4B95
:1014D400D3E8EF1F0131C3E8E21F002AF8D130B985
:1014E400084808F0A8FF084804F000FA08BD074BB4
:1014F400D3E8EF1F0139C3E8E21F002AF0D0F7E771
:10150400080A0020B0060020E40100200C0A002094
:10151400044B00200146D3E8EF0FC3E8E21F002A82
:10152400F9D17047080A002038B5FFF7F1FF0546E6
:10153400094C00E01034094B9C420BD263685B7980
:10154400002BF7D023685B68002BF3D02946204694
:101554009847EFE738BD00BF7CA900008CA90000C4
:10156400034B18680028D4BF00200120704700BF37
:10157400080A002010B5044C0449204606F091F9ED
:10158400034B1C6010BD00BF58010020B0AB00002D
:10159400FC09002008B500230C4A13700C4A1360A0
:1015A4000C4A13604FF400410B48FFF76DFFFFF73F
:1015B400E1FF0A4A06E0094BD31A1B1101335168B3
:1015C4000B711032064B9A42F5D308BD4B13002021
:1015D400080A00200C0A0020317F00007CA90000CA
:1015E4008CA9000008B50146014806F0B9FC08BD05
:1015F4005801002008B5024806F036FA08BD00BFBD
:101604005801002008B50146024B186806F0AEFCEC
:1016140008BD00BFFC09002008B5024806F0AAFC7A
:1016240008BD00BF5801002010B582B0002200237D
:10163400CDE90023264B187808B902B010BD6846DE
:1016440006F0B0FC044660B1FFF720FE2046FFF729
:10165400D9FF204BD3E8EF1F0139C3E8E21F002A6A
:10166400F8D1FFF77DFF58B91B4A1368516813F589
:101674007A7341F1000113605160FFF7CDFFDCE79D
:1016840008F0BEFE4A0142EAD06243011B1A62EB33
:101694000102920042EA93729B001B1842EB010282
:1016A400D20042EA5372C3F3103343EA4243D20BEB
:1016B4000948016840685B1A62EB000240F2E931B4
:1016C4008B4272F10002CFD3FFF72EFFCCE700BFAD
:1016D4004A1300200C0A0020A80600200F4B1B7898
:1016E40003B1704710B500210120FFF737FE0C4C01
:1016F40000E010340B4B9C4208D263685B79002BEA
:10170400F7D023689B6820469847F2E7FFF78CFFE1
:101714000028FBD1014B01221A7010BD4B1300208D
:101724007CA900008CA9000010B582B0184BD3E846
:10173400EF2F511CC3E8E01F0028F8D1154B1B788C
:1017440063B9154B1B68B3B1BAB1092A13D1134855
:1017540008F071FE124804F0C9F80CE0EFF31184AC
:10176400202383F31288BFF36F8FFFF75DFF84F3A9
:101774001188BFF36F8F02B010BD00220023CDE9A2
:1017840000234FF400420023044805F093F8F2E7E5
:101794000C0A00204B130020040A0020B00600208D
:1017A400E401002010B50446044B1B689847A06070
:1017B4002146034806F0FAFB10BD00BF7800002064
:1017C400580100202DE9F04100210846FFF7C6FD2D
:1017D400804650B140F26766002708F0E9FE154BD9
:1017E4001858FFF701FE002515E04FF0FF364FF0C3
:1017F400FF37F2E74046FFF77FFD804670B94FF0B0
:10180400FF364FF0FF3709E02C4632463B460A4884
:1018140004F0B0F82546B8F1000FEBD1FFF704FF50
:1018240004460028F6D1002DEED000210846FFF72B
:101834004BFDEAE708000000E40100200248034BE6
:10184400C01AC008704700BF7CA900002CA9000082
:1018540010B50C46FFF7F2FFA04203D9024B53F830
:10186400340010BD0020FCE72CA9000000B589B0AD
:10187400059206930023079362B1074A0C9B0293D7
:101884000B9B01930A9B009305ABFFF7C7F909B0C3
:101894005DF804FB0022F1E7D77F00002DE9F04F4B
:1018A4008BB004AF05461E468846C1F34A24002C7B
:1018B40000F0898091460022FA603A617A6104233B
:1018C4000293FB1801930A23009307F10C032146AA
:1018D4004846FFF7A3F9B0F5006F58D3D9F80410C0
:1018E4006D4600233B7302237B738AB004AC14F16E
:1018F400100217D012201AB1042801DD3B4B63619A
:1019040000233B7002237B70CAB10346082800DD24
:10191400A1610C2B02DD40F2FF73E36104F12003AB
:1019240000210AE06FF00040E5E701F118063E44AB
:1019340016F8186C03F8016B01310129F5D9112847
:1019440022DD122342B10421397300217973B97362
:101954000121F973F868206100216FF300016FF32E
:1019640041016FF382016FF3C501022060F3881116
:10197400C3F30A0363F353210023C1F313011C4887
:1019840006F09AFBAD462DE06FF01B03DAE760F337
:101994005328C0F30A0A0AEB1850173020F0070046
:1019A4008008FFF71FFE8346B0B104230293FB189F
:1019B40001930A230093534600F11002214648463E
:1019C400FFF754FF08E004EB1154173424F0070424
:1019D400A008FFF707FE8346334642462946584689
:1019E40006F00DFB1C37BD46BDE8F08FE4AB0000EC
:1019F40044A900002DE9F04F85B080460D461746F6
:101A04001E46DDF838B0DDF84090B9F1000F41D042
:101A1400119B039300934B460F9A10210020FEF76D
:101A2400A3FEB0F5006F2DD282460BEB00031733F3
:101A340023F0070300246FF300046FF341046FF3F2
:101A4400820468F3C50467F3881460F353246BF3CA
:101A54001F549808FFF7C6FD074650B11030B9F17E
:101A6400000F06D0119B00934B460F9A5146FEF788
:101A74007BFE334622462946384606F0C0FA05B0B6
:101A8400BDE8F08F40F2FF73034A0221034806F0D9
:101A940008FBF4E70020C7E724AC000044A90000D9
:101AA400406820B1034BC01A40F3CF0070474FF099
:101AB400FF3070472CA900000EB400B582B0014677
:101AC40003AB53F8042B0193034801F0C3FA02B0AB
:101AD4005DF804EB03B07047F380000010B584B0E8
:101AE40011F0440F05D01A4B1B6833B9002004B021
:101AF40010BD1849FFF7E0FFF9E717490968B2FB81
:101B0400F1F2B2FBF3FC03FB1C224FF47A7E0EFBD2
:101B140002F2B2FBF3F403FB14210EFB01F1B1FB5F
:101B2400F3F10E4AA2FB0C32D20A4FF4616303FBB9
:101B340012CC0B4BA3FB0CE35B0902910194C3EBA6
:101B44000311ACEB810100910649FFF7B5FFCEE725
:101B5400180A00205CAC0000140A0020C5B3A2914E
:101B64008988888868AC000061B108B52AB1064A42
:101B740052F8232012B9054A00E0044A0449FFF749
:101B84009BFF08BD704700BF04AD000084AC00009B
:101B9400FCA900002DE9F04105461746069EDDF834
:101BA4001C8081B900242EB1324611492846FFF722
:101BB40083FF0444B8F1000F14D06FB1099B042BC8
:101BC40013D00C4909E00C4B099A53F822200B4915
:101BD400FFF772FF0446E6E7064942462846FFF748
:101BE4006BFF04442046BDE8F0810549F5E700BFDA
:101BF400A0AC000090AC000018AD000098AC000050
:101C04008CAC00002DE9F04F87B005460C460492D9
:101C140005939DF84C7001F0020B01F0010AC1F329
:101C2400C00801F4807906F0C7F918B302461649D2
:101C34002846FFF741FF0646BBF1000F1CD13A4688
:101C44005146284606F07AFAB9F1000F01D0002374
:101C540011930397129B0293119B0193109B009382
:101C64000023049A41462846FFF794FF304407B006
:101C7400BDE8F08F0026DFE7059A21462846FFF7E6
:101C84002DFF0644DBE700BFA4AC000011F0100FE9
:101C94000BD108B511F0200F03D00449FFF70CFF56
:101CA40008BD0349FFF708FFFAE77047E4AD0000F9
:101CB4007CB600002DE9F04105460F4616469846CD
:101CC4000699FFF7E3FF0024444505DA2449284632
:101CD400FFF7F2FE0134F7E7002409E02049284623
:101CE400FFF7EAFE0BE01F492846FFF7E5FE013443
:101CF4000F2C0CDC002C02DD14F0070FEED0B442E4
:101D0400F1D23A5D18492846FFF7D6FEEFE71749A6
:101D14002846FFF7D1FE002409E011492846FFF7C1
:101D2400CBFE0BE012492846FFF7C6FE01340F2C08
:101D340013DC002C02DD14F0070FEED0B44207D2FE
:101D44003A5D0C4B9B5C13F0970FEBD12E22E9E725
:101D540003492846FFF7B0FEE8E7BDE8F08100BF7D
:101D64009CAC0000B0AC0000A8AC0000B4AC000017
:101D7400B8AC0000A1B600002DE9F04184B00446DF
:101D84009DF82C500C9F0E9E95B9012B1ED019481E
:101D94004FF0000827B13B462246174905F0BDFB2A
:101DA400C6B905BB204606F08BF904B0BDE8F08146
:101DB40003950A980290019300920B4600220F9912
:101DC4002046FFF71FFF80460C48E3E70B484FF01F
:101DD4000008DFE70F9B0093434632460D992046E7
:101DE40006F0C4F9DDE72A460F99204606F0B2F959
:101DF400D8E700BF2381000059300000F3800000C1
:101E04002DE9F04383B00646056842F20F738B4216
:101E140028BF0B46184A0521684604F01DFF0446F6
:101E24007368D3F804900B27DFF8508005E04A4626
:101E340039464046A8473F1A8044002FF7D17368BB
:101E4400D3F804806F4605E0424621463846A84749
:101E5400241A0744002CF7D173685F681B24084ECA
:101E640005E03A4621463046A847241A0644002C89
:101E7400F7D103B0BDE8F0831CAF0000D8AC00007C
:101E8400BCAC0000074B01221A6004E04008054A7C
:101E940013685B001360044B9842F7D8034B186037
:101EA400704700BF140A002040420F00180A0020A7
:101EB40070B506460D46002405E0315D044883688C
:101EC400DB6998470134AC42F7D3284670BD00BFA4
:101ED40080A60000014B03600020704780AD000025
:101EE40008B5034805F076FB024805F073FB08BD0E
:101EF40080AD0000B8AD000008B5024804F06AFDEA
:101F040008BD00BFE8AD0000B0F5680F17D00CD8CD
:101F140040F6BA63984214D0B0F5683F13D03A281B
:101F240001D00120704700207047094B98420CD023
:101F3400084B984201D001207047002070470020D0
:101F4400704700207047002070470020704700BF92
:101F54003A00003A2C5F5CA928B308B54368B3F58E
:101F6400683F0AD0B3F5680F14D012498B421FD0D2
:101F7400006803F065FC002014E003680022D3E845
:101F8400EF1F012903D1C3E8E02F0028F7D10DD1B9
:101F9400104607E003681B7803F580730020064AA7
:101FA40042F8230008BD6FF4E04070470348F9E7A6
:101FB4000348F7E72C5F5CA900000350E98FFFFF9B
:101FC400EA8FFFFF88B308B54368B3F5683F0FD0C5
:101FD400B3F5680F19D016498B4224D000684FF02E
:101FE400FF324FF0FF3303F0ABFB68B111480BE055
:101FF40003680122D3E8EF1F002903D1C3E8E02FCF
:102004000028F7D10BD1002008BD03681B7803F525
:102014008073094A52F823301BB90020F4E70548BD
:10202400F2E70448F0E70548EEE76FF4E040704754
:102034002C5F5CA9E98FFFFF00000350EA8FFFFFCC
:1020440010B50446A8B16368B3F5683F10D0B3F582
:10205400680F0DD00D4A93420AD013F4686F0DD067
:1020640021680B4807F03EFF00232360074B6360A1
:1020740010BD084B5B6808489847E4E723680022D2
:102084001A605A609A60DA601A61EFE72C5F5CA903
:10209400440F0020F0000020F0AD000010B504460D
:1020A40068B36068B0F5683F28D0B0F5680F25D0F4
:1020B400174B984228D0FFF727FFC0B14FF0FF32EB
:1020C4004FF0FF332146134803F008FB08B9236897
:1020D4001BB9114B5B6811489847236800221A60AA
:1020E4005A609A60DA601A614FF46863636020682A
:1020F40007F079FF636843F03A03636010BD064B51
:102104005B6807489847CCE72368002BD3D1D5E711
:102114002C5F5CA9440F0020F000002018AE0000E2
:10212400F0AD000008B5402314220449044807F028
:10213400CBFE0449044804F0BFFC08BD440A002057
:10214400440F002048AE00005CAE00002DE9F041D1
:1021540082B000AF0446D0F800E0D0F804C085682F
:102164006E468AB06B4613F1100200F08880142189
:102174008AB10846042903DDDFF81C81C3F8148002
:10218400082801DDC3F818E00C2801DDC3F81CC0E1
:10219400102800DD1D62132974DD14253AB10521D0
:1021A400397100217971B971F97178681861002168
:1021B4006FF300016FF341016FF382016FF3C50107
:1021C400012363F38811C5F30A0565F353216FF303
:1021D4001F5100233148FFF761FBB546D4F80CC00A
:1021E40026696569E8468AB06B4613F110024CD043
:1021F400142182B10846042903DDDFF8A4E0C3F802
:1022040014E0082801DDC3F818C00C2800DDDE61E5
:10221400102800DD1D6213293ADD14253AB1052189
:10222400397100217971B971F971786818610021E7
:102234006FF300016FF341016FF382016FF3C50186
:10224400012666F38811C5F30A0565F353216FF37C
:102254001F51124D00232846FFF720FBC546E369B2
:10226400104A3146284605F01CFFA3690E4A314640
:10227400284605F016FF0837BD46BDE8F0816FF02B
:10228400004175E76FF01B0588E76FF00041B0E788
:102294006FF01B05C2E700BF6CAE000064A900002C
:1022A4009CAE0000CCAE0000DCAE000038B50446A5
:1022B4000D4611B10846FFF749FF012C04D0294609
:1022C400204602F0ABFF38BDEFF30583103B034A11
:1022D4000121034805F0E5FEF1E700BF0CAF000063
:1022E40064A9000030BFFFF7FDBF00BF38B5044646
:1022F400054D2A46054908F0B1F8054A0021601940
:1023040008F0D3F838BD00BF00000000D0A90000D9
:102314000400000070B50646064D074B1D444C1BD7
:102324002046FFF7E3FF083CC6F8A44005F1080087
:1023340070BD00BF0000000004000000054B5A6996
:102344009B689A4204D0044A536843F08053536014
:10235400704700BF3C11002000ED00E081690D4B87
:102364005A6942F480725A61BFF34F8FBFF36F8F83
:1023740031F8021C5A6922F480725A61BFF34F8FFC
:10238400BFF36F8F4DF60273994201D0002070475E
:102394000120704700ED00E04FF0000C83F800C00E
:1023A40002F07F4CBCF17F4F14D102F00C0CBCF155
:1023B400080F04D012F0080F09D00846704708B57A
:1023C400054A0121054805F062FE002008BD0122EE
:1023D4001A7070470020704720AF000064A9000005
:1023E40008B5314A0121314805F051FE304B9B6A52
:1023F40013F0007F26D11D202D4B9B6A13F0807FA4
:1024040027D12B4B9B6A13F4801F29D1284B9B6A3D
:1024140013F4002F2BD1264B9B6A13F4802F2DD15C
:10242400234B9B6A13F4003F2FD1214B9B6A13F477
:10243400803F31D11E4A936A6FEA03436FEA134324
:10244400936208BD1B4A0121184805F020FE1E2096
:10245400D2E7194A0121154805F019FE1F20D0E7DB
:10246400164A0121114805F012FE0220CEE7144A53
:1024740001210E4805F00BFE2120CCE7114A012171
:102484000A4805F004FE2220CAE70F4A0121074842
:1024940005F0FDFD2320C8E70C4A0121034805F09F
:1024A400F6FD2420C6E700BF4CAF000064A900007D
:1024B40000ED00E064AF000078AF000094AF0000CE
:1024C400C0AF0000E0AF000008B0000024B000007E
:1024D40008B500230B70034A0121034805F0D7FD1A
:1024E40008BD00BF50B0000064A9000090B583B0DF
:1024F40000AF0F2923DC2F4C103900233B7102233A
:102504007B718AB0EC461CF110021AD0122022B161
:10251400042802DD284BCCF8143000233B7002233E
:102524007B70E2B10346082801DDCCF818400C2B7F
:1025340001DDCCF81C100CF1200300210DE01F4C30
:10254400DAE76FF00040E2E701F1080404EB070E5C
:102554001EF808EC03F801EB01310129F4D9112824
:1025640024DD12234AB10421397100217971B97132
:102574000121F9717868CCF8100000216FF3000193
:102584006FF341016FF382016FF3C501012060F322
:102594008811C3F30A0363F353216FF31F5100231C
:1025A4000748FFF77BF90C37BD4690BD6FF01B035E
:1025B400D8E700BF74B00000A8B000008CB00000E1
:1025C40064A90000F8B505460F461446394A0121AE
:1025D400394805F05CFD394B9B6A13F0100F31D17B
:1025E4001026364B9B6A13F0080F32D1334B9B6A8B
:1025F40013F0020F34D1314B9B6A13F0010F4BD10E
:102604002E4B9B6A13F0200F4DD12C4B9B6A13F079
:10261400100F01D1294B9B6A284B9B6A13F0200FA2
:1026240004D0264A536A23F400535362234A936A1C
:1026340043F0FF0393620121284605F034FE207025
:102644003046F8BD1E4A01211B4805F020FD112625
:10265400C7E71C4A0121184805F019FD1226C5E7F1
:10266400194A0121144805F012FD144A536B926A69
:1026740012F0800F01D11326BDE7144A01210E4840
:1026840005F00FFD37B10D4A936A23F0800393627E
:102694001326B0E71326AEE70D4A0121064805F0DC
:1026A400F6FC1426ACE70B4A0121034805F0EFFCC5
:1026B4001526AAE7BCB0000064A9000000ED00E004
:1026C400D4B0000008B100001CB1000034B1000017
:1026D4004CB100006CB10000F8B505460F46144635
:1026E400374A0121374805F0D2FC374B9B6A13F473
:1026F400805F25D11626344B9B6A13F4006F26D1D4
:10270400314B9B6A13F4007F28D12F4B9B6A13F43F
:10271400806F3FD12C4B9B6A13F4807F41D12A4BAD
:102724009B6A13F4005F43D1274A936A43F47F43BF
:1027340093620121284605F0B6FD20703046F8BDAD
:10274400224A01211F4805F0A2FC1726D3E7204A9C
:1027540001211C4805F09BFC1826D1E71D4A0121E4
:10276400184805F094FC184A936B926A12F4004FCF
:1027740001D11926C9E7184A0121124805F091FC34
:1027840037B1114A936A23F4004393621926BCE7D4
:102794001926BAE7114A01210A4805F078FC1A26DD
:1027A400B8E70F4A0121074805F071FC1B26BBE777
:1027B4000C4A0121034805F06AFC1C26B4E700BF5B
:1027C4009CB1000064A9000000ED00E0B4B1000079
:1027D40008B10000C8B10000E4B10000FCB1000081
:1027E40018B200006CB1000070B506460D462B4AC5
:1027F40001212B4805F04BFC00232B70294BDC6A8C
:1028040014F002040AD1274BDB6A002B0DDB254BA5
:10281400DC6A14F080440ED1204670BD224A0121A6
:102824001F4805F034FC0024F6E7204A01211C4827
:1028340005F02DFCF0E71E4A0121194805F027FC9C
:102844003046FFF78BFD98B9164B9B6A13F0FF0FC8
:1028540016D1144B9C6A14F47F4418D1114B9B6A13
:10286400B3F5803FD8D33046FFF7BAFD0446D3E72B
:102874003368104A01210A4805F013FC3468CBE799
:102884002A4601213046FFF79DFE0446C4E72A4646
:1028940001213046FFF720FF0446BDE730B20000B7
:1028A40064A9000000ED00E048B200006CB2000032
:1028B4007CB200009CB2000030B58BB01F4B5D6849
:1028C400C5F30805002383F31188BFF36F8F0DF15F
:1028D4002603FFF761FD04460DF12702294605F0A2
:1028E400E4FC9DF827300BB10BB030BD05460DF16B
:1028F400040C20686168A268E368ACE80F002069F2
:102904006169A269E369ACE80F009DF826304BB118
:10291400089BC3F308025AB96FEA53236FEA4323AF
:10292400089305E0089B23F4FF7323F00103089345
:1029340001A92846FFF7BAFCD6E700BF00ED00E086
:10294400064B5A6942F010025A615A6942F4806295
:102954005A615A6922F008025A61704700ED00E09A
:10296400EFF30880EFF3098101B57246FFF7A4FF86
:1029740001BD00BF002080F31488BFF36F8F0020D7
:1029840080F30A8880F30B88104880F308880020BD
:102994000F49087001F04CFE00200E490860BFF397
:1029A4004F8F00F02FF8202080F311880A484FF44D
:1029B4000061401880F30988EFF314800221084372
:1029C40080F31488BFF36F8F00F0E4F8982300209D
:1029D4005213002094ED00E058160020084BD3F861
:1029E4009000C0F30720002306E0054AC2F898309F
:1029F4000021C2F8A01001338342F6DB704700BF08
:102A040000ED00E010B572B6002484F31388FFF7DC
:102A1400E5FF234608E003F120010E4A4FF0FF30A2
:102A240042F821000133DBB20F2BF4D9002308E074
:102A340003F16001074A4FF0FF3042F821000133EF
:102A4400DBB20F2BF4D962B6BFF34F8FBFF36F8F96
:102A540010BD00BF00E100E008B50A4B9B6883424B
:102A640002D003F0E5FB08BDEFF30583002BF8D09B
:102A7400054B5A6842F080525A605A6A22F4004266
:102A84005A62EEE73C11002000ED00E016498A6826
:102A94004FF030001044EFF3098C80E8F01F202041
:102AA40080F31288BFF36F8F104F4FF000664A69AE
:102AB4008A603E60D2F8A4000D4C2060D2F8A800D1
:102AC4000023C2F8A83080F3118802F1300090E8A6
:102AD400F01F8CF3098802F1000004B505F01BFC1B
:102AE400BDE80440704700003C11002004ED00E004
:102AF400600F00201EF0040F0CBFEFF30880EFF30B
:102B04000980816911F8021C0229FFD001B57246BF
:102B140005F0BDFB01BD00BF002807DB00F01F026C
:102B2400400901239340024A42F82030704700BF15
:102B340000E100E0002808DB4901C9B200F160406F
:102B440000F5614080F80013704700F00F00490160
:102B5400C9B2014B1954704714ED00E04209054B0A
:102B640053F8222000F01F00012303FA00F0104064
:102B7400704700BF00E100E0044B23F07F03044AE8
:102B84009360BFF34F8FBFF36F8F70470000000057
:102B940000ED00E008B5FFF7EFFF074AD2F88830F0
:102BA40023F47003C2F8883002F0E8FC03F0A6FCBA
:102BB40000F04EF802F03EFD00ED00E010B4A2F18A
:102BC40020040E4942F8081C21F0010142F8081CB7
:102BD40042F8203C019B42F81C3C029B42F8183C02
:102BE400039B42F8143C4FF0807342F8043C0465A4
:102BF4000023C0F8A83010BC704700BFF1100000DB
:102C040000B50E4615460B4B9860D0F8A4200A4B2D
:102C14001A60D0F8943083F30B882C4686F3098825
:102C24000020064B98472046002100220023044C34
:102C3400204700BF3C110020600F002025830000C6
:102C4400F1100000014B10221A61704700ED00E002
:102C5400002207E003F1604303F56143202183F878
:102C640000130132442A09DC53B2002BF2DA03F0D8
:102C74000F030349194420230B76F2E7704700BF82
:102C8400FCEC00E008B5EFF30583103B044A02EBCB
:102C9400C301496852F833008847FFF74FFB08BD6A
:102CA400A0A6000010B584B00A4C23460A4A0121AC
:102CB4000A4805F047FC0023019302930393084B51
:102CC4000193E41A0294012101A805F03FFC04B029
:102CD40010BD00BF0000072000000020B8B20000B3
:102CE400F8010020024B034AC3F8C020704700BF1C
:102CF40000ED00E0AAFF4400034BC3F89800C3F8BA
:102D04009C10C3F8A020704700ED00E00E4BC3F800
:102D14009800C3F89800D3F89C000A7A60F3040280
:102D24000A72D3F8A020C2F34202087A62F3471071
:102D34000872D3F89C2022F01F020A60D3F8A03056
:102D440023F01F03CB60704700ED00E070B505462B
:102D54000E46002400E00134A6421EDD04EB4403C9
:102D64009A0005EB830359680029F4D0A85805F0AC
:102D740043FB04EB84030B4A42F8230010F1160FC3
:102D84000CD0094B1B78984209DA04EB840302EB5C
:102D940083010431FFF7BAFFDDE7002070BD6FF057
:102DA4001500FBE7640F00204C13002010B5044607
:102DB4000A4BD3F89030C3F30723013B984203D85E
:102DC40005F0F4FA204610BD0346054A01210548E2
:102DD40005F067F96FF01500F5E700BF00ED00E0BE
:102DE400C8B200005CA900002DE9F04F87B081460D
:102DF400009101931446002648E03346614A0121BC
:102E0400614805F04EF96FF0150407E03B465F4A50
:102E140001215D4805F045F96FF01504204607B01F
:102E2400BDE8F08FD84564D12946C0B205F0F5FA63
:102E34002BE0574AC2F89870D2F89C3003F01F0375
:102E440021F01F010B43C2F89C302946E0B205F083
:102E5400E4FA044610F1160FE0D0013415E0013B0A
:102E64004B49C1F89870D1F8A02002F01F0223F05A
:102E74001F031343C1F8A0302946E0B205F0CDFA90
:102E8400044610F1160FC9D001340136009B9E424E
:102E9400C4DA06EB46054FEA850A09EB85056F6837
:102EA400002FF2D0019B23B1284605F093FA0028A5
:102EB400A3D0394659F80A0005F09EFA074610F1E6
:102EC400160FA3D08442A1DD314BC3F89800D3F888
:102ED4009C2022F01F02C3F89800D3F8A03043F0DE
:102EE4001F0859F80A306968194401F1FF3B9342FD
:102EF40098D093429DD0D845B1D0013B2449C1F824
:102F04009870D1F8A02002F01F0223F01F0313438E
:102F1400C1F8A0302946E0B205F07FFA044610F16A
:102F2400160F3FF47BAF0130194BC3F89870D3F8F8
:102F34009C109DF8102061F304028DF81020D3F842
:102F4400A030C3F34203D2B263F347128DF81020CA
:102F540059F80A306A681344029323F01F03A8EB5C
:102F64000B084344013B23F01F03059302A9C0B29D
:102F7400FFF71CFF044610F1160F3FF44FAF013466
:102F840083E700BFF0B200005CA9000014B30000A6
:102F940000ED00E010B5034C01232278FFF724FF75
:102FA400207010BD4C130020044B0522C3F894205C
:102FB400BFF34F8FBFF36F8F704700BF00ED00E08A
:102FC400BFF35F8F024B0022C3F89420704700BF09
:102FD40000ED00E038B51C4B1D681C4BD3F8903055
:102FE400C3F307239D422BD8FFF7EAFFFFF77AFECE
:102FF400002407E0144B596801EB0411204605F046
:10300400D5F90134A542F5D81148057005F024FA24
:1030140010F1160F13D00E4B1A780C4BD3F89030D6
:10302400C3F307239A4207DA084BC3F89820002118
:10303400C3F8A0100132F0E7FFF7B6FF002038BD57
:103044004FF0FF30FBE700BF38B3000000ED00E0B5
:103054004C13002030B587B00D461146002400946F
:103064000194029403940494059402228DF802209E
:10307400044A0192049005951A46684603F018FE26
:1030840007B030BD5985000008B5024B1B6898474E
:10309400002008BD780F0020034B1860034A937882
:1030A40043F0020393707047780F0020A4000020BF
:1030B40008B5064921F00701C1F1005202F5E022EA
:1030C400034804F073F9002008BD00BF9F230020CB
:1030D4007C0F002068B108B5064A074B1B680749F6
:1030E400A1FB03139B0C00FB03F042F00103984780
:1030F40008BD7047E0A90000C400002083DE1B4324
:1031040038B51A4B1B780133194AA2FB031202F497
:10311400FE7101EB92029C1AE5B206F022FA154BFD
:103124001B782BB1144A52F82530C01A07281AD933
:103134004FF05023D3F8143163B14FF050230022E1
:10314400C3F81421D3F81431084B1D7015B9094B79
:1031540001221A70054B1C7806F003FA064B43F85B
:103164002400012038BD0020FCE700BF4E130020DE
:10317400CDCCCCCC4D130020880F002000B583B0FB
:103184000DF1070001F068FB114B98421CD1114B63
:103194004FF48062C3F8B8254FF40062C3F83C25AD
:1031A4000D499DF8070006F0A0FA0C499DF80700A8
:1031B40006F096FA9DF807300120984001F046FB8E
:1031C400002003B05DF804FB6FF00B00F9E700BFCB
:1031D4000000AD0B00A002502CA0025028A1025008
:1031E40008B50121104BC3F80015104A0223C2F898
:1031F400D0360F48D0F8003223F0E04343F0405378
:10320400C0F80032D0F8043223F0E04343F04053D6
:10321400C0F80432C2F80417C2F80419C2F8001B3B
:1032240000F032F808BD00BF00100050004000500C
:103234000025845000F01F0240090CD001280CD155
:103244000748803250F8223023F0E04343EA01710A
:1032540040F8221070470348F3E70020F1E700BF6D
:10326400002884500025845038B50546002405E024
:103274002946044B185DFFF7DDFF0134032CF7D911
:1032840038BD00BF74B3000008B50249024804F019
:103294008EFD08BD78B300009C0F002000487047E5
:1032A40044100020034BC01A8010034B03FB00F0B2
:1032B400704700BFCC0F0020B76DDBB638B50546AC
:1032C4000C46FFF7EFFF01464022034805F053FA8E
:1032D40001462846A04738BD20A6000030B583B07B
:1032E40005460C46FFF7DEFF0146402300932346C4
:1032F400054A064805F059FA011E01DB03B030BD4A
:103304002846A047FAE700BFF787000020A6000080
:1033140008B5092817D8DFE800F0051C161616169C
:103324001616171200210D4805F0B1F9836813F041
:10333400070F08D10021094805F00BFA03E0022128
:10334400064805F006FA08BD0321044805F001FA11
:10335400F9E70121014805F0FCF9F4E720A6000093
:1033640010B582B0EFF31184202383F31288BFF3E6
:103374006F8F154A136843F00201116013F0010FB7
:1033840009D1002384F31188BFF36F8FB3B905F01B
:1033940038FA02B010BD0DF1070201214FF05020A0
:1033A40005F046F99DF80730012B01D00023E9E729
:1033B400FFF774FF05F0BBF90123E3E7002103489D
:1033C40005F0C7F9E5E700BF6C10002020A6000057
:1033D40010B5EFF31184202383F31288BFF36F8FAA
:1033E400074A136823F00201116013F0010F04D09F
:1033F40084F31188BFF36F8F10BD05F016FAF7E759
:103404006C10002070B582B00546012807D14FF03A
:103414005023D3F81C3403F00303022B36D006F0F8
:103424000DFE044610B92B4B1B7873B9EFF31186CC
:10343400202383F31288BFF36F8F012494B94FF0D4
:1034440050230222C3F808230CE00026F6E7FCB15F
:10345400304604F085FF4FF05023D3F81835DBB223
:10346400012B19D00DF1070200214FF0502005F077
:10347400DFF80028EBD09DF80730022B01D0012D96
:10348400E5D104B386F31188BFF36F8F02B070BD2A
:10349400012005F0DEF9DEE74FF05023D3F80431C4
:1034A400002BDFD04FF050230022C3F80421D3F8BF
:1034B40004210222C3F81825074A2021C2F88011EA
:1034C40001229A60CEE74FF050230222C3F804236E
:1034D400DCE700BF5213002000E100E000B585B036
:1034E400CDF800D0CDF804D0002302930123039338
:1034F4006B46074A05F075F9002805DB4FF4804256
:103504000023684602F036FA05B05DF804FB00BFFC
:103514008388000070B5064600220121052004F0CE
:10352400EEFE114801F0A0F9104B984219D101F0B8
:10353400ADF90024032C12D82146304605F0A7F833
:1035440005462146304605F0AFF8094904F02FFC42
:10355400002805DB0123AB601C44E4B2EAE7002049
:1035640070BD6FF00400FBE7153300000000AD0BE5
:1035740084B3000010B504460E4B0121D3E8EF2FAD
:10358400C3E8E01F0028F9D11AB1631E012B0DD93D
:1035940010BD094805F088F8084900234B608B608A
:1035A400CB6001238B6004F01FFCEEE72046FFF79D
:1035B40029FFEDE7C80F002020A60000B80F002067
:1035C40010B504460A2806D0E1B206488368DB69D0
:1035D4009847204610BD03488368DB690D2198474E
:1035E400F2E700BF80A6000010B5044C2046FFF7A8
:1035F40053FD2046FDF774FD10BD00BFC535000026
:1036040008B5054806F00CFC18B1FFF7EDFF0020E3
:1036140008BD6FF01200FBE780A60000F0B51C4661
:10362400059F069E00F01F0C400936D0012836D1B4
:10363400284D0CF1800355F8233091B3012092B347
:103644004FF0020E40EA0E0084B34FF00C0E40EA35
:103654000E0077B34FF4706E40EA0E0066B34FF479
:10366400403E40EA0E0023EA000041B30B7842B327
:1036740012785200134334B322789200134327B3D1
:103684003A781202134316B33278120413430343F5
:103694000CF1800C45F82C30F0BD0F4DC9E7002526
:1036A400C7E70020CBE74FF0000ECBE74FF0000E4A
:1036B400CDE74FF0000ECFE74FF0000ED1E7002327
:1036C400D5E70022D6E70022D8E70022DAE7002275
:1036D400DCE700BF002884500025845000F01F035D
:1036E400400908D0012808D1054A803352F8230044
:1036F40000F001007047034AF7E70022F5E700BF36
:10370400002884500025845028B1012801D10348A1
:103714007047002070470248704700BF40A6000071
:1037240060A600002DE9F04786B088461646994603
:10373400446801F01F05237B45EA4315204605F044
:1037440017F9002864D0B6F5001F35D00DF10C0A26
:103754000027039704974946304605F03EF98DF853
:103764000C00009701970297CDF804A0A36823FAF0
:1037740008F313F0010F02D1B6F1A07F23D004F1B6
:1037840010060DF117022946304606F023FB234BA1
:10379400984237D010346A462946204606F00EFB7C
:1037A4001E4B984237D101222946204606F02AFBB7
:1037B400002006B0BDE8F087294604F1100006F0A9
:1037C40025FB0020F5E72846FFF788FF0028D6D11F
:1037D4000DF11702294604F1100006F0FBFA104B14
:1037E400984203D00DF117030493D3E70DF11702A8
:1037F4004146204605F02DF9084B9842F2D06FF06F
:103804000B00D6E79DF81710304606F0F3FAC1E72F
:103814006FF08500CDE76FF01500CAE70000AD0B2F
:103824000400AD0BF0B589B00F461446456801F0AD
:103834001F062B7B46EA4316104605F09EF88DF8CA
:103844001E0040F206332340B3F5837F53D016D8CD
:10385400062B4CD006D9B3F5807F0DD101238DF80A
:103864001D3024E003B3022B03D104238DF81D3053
:103874001DE06FF0150038E06FF0150035E040F200
:10388400022293423BD0B3F5407F03D103238DF84A
:103894001D300CE0B3F5007F03D102238DF81D30F9
:1038A40005E06FF0150020E000238DF81D3014F4BE
:1038B400002F28D06A680123BB409360284605F096
:1038C40057F840B310350DF11F023146284606F073
:1038D40081FA074614F4403F36D13146284606F0B3
:1038E40085FA3C4B9F426DD0002009B0F0BD062301
:1038F4008DF81D30DBE707238DF81D30D7E705234E
:103904008DF81D30D3E714F4802FD7D06A680123D3
:10391400BB40D360D2E7C4F340438DF8083014F4BD
:10392400803F0CBF012300238DF810300024019444
:103934000DF11D0300930DF11E0304AA02A93046E4
:10394400FFF76CFE2046D0E702AA002302930393FC
:10395400049305930693059204AA3146284606F07B
:103964002DFA1C4B98421DD114F4003F1DD09DF834
:103974001D308DF8103014F4803F0CBF0123002358
:103984008DF811309DF81E308DF81230002304AAF2
:103994003146284606F016FA0E4B9842A1D06FF035
:1039A4001500A2E76FF015009FE700230493059329
:1039B40006930DF11E03049304AA3146284606F02B
:1039C400FDF9E9E79DF81F10284606F013FA0020D8
:1039D4008BE700BF0000AD0B38B5044645682846A8
:1039E40004F0C6FF20B91049204604F070FF38BD2A
:1039F4001035284606F0F6F90028F4D100212846AF
:103A040006F0ECF9094B98420AD1002208492846ED
:103A140006F0DCF9002205210D2004F070FCE2E739
:103A24006FF00400E3E700BF3D8A00000000AD0B27
:103A3400178A000070B400F01F0C400919D0012847
:103A440019D10E4D0CF1800055F820600C4C344017
:103A540041EA420141EA83039DF80C2043EA022330
:103A64009DF8102043EA0243234345F8203070BCFC
:103A74007047044DE6E70025E4E700BF00288450C2
:103A8400F0F0FCFF0025845000F01F01400906D02F
:103A9400012806D1044A01238B4093607047034AEE
:103AA400F9E70022F7E700BF00288450002584507E
:103AB40000F01F01400906D0012806D1044A012361
:103AC4008B40D3607047034AF9E70022F7E700BF51
:103AD40000288450002584502DE9F04F85B0074616
:103AE4008B469046002423E04FF0FF3535E0C8F8BC
:103AF4000C55012603963146B5F1FF3F16D0B1F1BE
:103B0400FF3F40F0138157F80A3013F4004F02D0FE
:103B140001260022039200220192CDF80090C3F303
:103B24004123324603992846FFF784FF0134E4B267
:103B34005C4580F0FF804FEA840A57F82430C3F3D1
:103B4400C322C3F30805082A00F2F6807E4911F85F
:103B5400029040F2FF129542C6D01B0E222B00F2B7
:103B6400EE8001A252F823F0F33A0000F93B000082
:103B7400073C0000133C0000213C00002F3C0000E7
:103B84003B3C0000433D0000433D0000433D00003A
:103B9400433D0000493C00005D3C0000433D000003
:103BA400433D0000433D0000433D0000433D000011
:103BB400433D0000433D0000433D0000433D000001
:103BC400713C0000833C0000953C0000A73C0000D1
:103BD400433D0000433D0000433D0000B93C00006C
:103BE400C93C0000D53C0000E53C0000F53C000069
:103BF400053D0000C8F81455002603964FF0FF3128
:103C04007AE7C8F8085501260396314674E7C8F8E0
:103C14001055002603964FF0FF316DE7C8F808559C
:103C2400002601230393314666E7C8F80C550126A4
:103C34000396002160E7C8F81055002603964FF05C
:103C4400FF3159E7C8F80855B9F1000F5ED00026D6
:103C540003964FF0FF314FE7C8F80C55B9F1000F48
:103C64005CD0002603964FF0FF3145E7C8F8605555
:103C740057F80A10C1F30041012603963CE7C8F83F
:103C8400645557F80A10C1F300410126039633E73F
:103C9400C8F8685557F80A10C1F300410126039685
:103CA4002AE7C8F86C5557F80A10C1F300410126F9
:103CB400039621E7C8F824550126002303934FF007
:103CC400FF3119E7C8F8285501260396314613E752
:103CD400C8F830550126002303934FF0FF310BE75A
:103CE400C8F834550126002303934FF0FF3103E74E
:103CF400C8F838550126002303934FF0FF31FBE643
:103D0400C8F83C55012603963146F5E64E46CDF8F3
:103D14000C904FF0FF314FF00609EDE64E46CDF81A
:103D24000C904FF0FF314FF00609E5E6284604F009
:103D3400AFFEE8E6002004E06FF0150001E06FF04C
:103D4400850005B0BDE8F08F4CB400002DE9F843C0
:103D540005460F46466806F071F920B9234B1B78D7
:103D64000BB3002300E00123D5F810906A68D2F861
:103D74000080F3B9284604F0C4FF0446736813F0C6
:103D8400040F03D04FF48003C8F80433F36A1F70A0
:103D94000122F16A284605F000F884F31188BFF384
:103DA4006F8FBDE8F8830123DEE784F31188BFF346
:103DB4006F8FEFF31184202383F31288BFF36F8F87
:103DC400284604F09EFE0028EFD0D9F80030002BDE
:103DD400D4D0D3F8A420002AD0D0D3F8B420002A19
:103DE400CCDAD8F84C25C3F8B420C7E75213002026
:103DF4002DE9F04F85B09846D0F810B0DBF80040BC
:103E0400D0F804A0DAF800509AF80830002B40F0FB
:103E1400B58081460F46164694F86130002B40F079
:103E2400B08094F86230002B40F0AE806365B8F146
:103E3400FF3F44D0B8F1040F16DDA3F1993383FB9F
:103E440008234FEAE870C0EB6300C117C90341EAD5
:103E54005041C0034E4BC0184E4A4FF0000341F18D
:103E64000001FCF775F901E000200146A065E16559
:103E7400276466640023A364E3642365DAF80430EA
:103E840013F0040F20D1DAF8043013F0040F02D039
:103E940094F8602052BBC5F83475C5F83865002025
:103EA400C5F81001D5F81031C5F84C01D5F84C31DE
:103EB400012384F861302B6005B0BDE8F08F002247
:103EC4000023C4E91623D3E7EFF3118303932023DC
:103ED40083F31288BFF36F8F0221484604F051FF29
:103EE400039B83F31188BFF36F8FCCE7B24228BFE3
:103EF40032469146DAF82810384606F0AFFA4F44B5
:103F0400B6EB090614D0B8F1FF3FC4D00023C5F8BE
:103F14000831D5F8083104F10800D4E916234FF02C
:103F240000084FF00009CDE9008902F0C3FCB2E7B4
:103F340094F86020A2EB0902D2B284F86020DAF887
:103F4400280000EB090106F096FA0BF10803D3E808
:103F5400EF1F41F00401C3E8E21F002AF7D145F343
:103F64000735002D08DB05F01F026D09012393407E
:103F74004035094A42F8253000209DE76FF085005E
:103F84009AE76FF00F0097E76FF00F0094E700BF18
:103F94003F420F0040420F0000E100E0F0B583B063
:103FA40004461D460669EFF31187202383F3128824
:103FB400BFF36F8F3368D3F8A40000BBC3F8A42009
:103FC4003368C3F8A01001F06043B3F1005F1DD162
:103FD4003368C3F8A8103368C3F8AC2031462046D0
:103FE40004F0F6FE87F31188BFF36F8F204604F0C8
:103FF400B7FD80B3B5F1FF3F10D100202CE087F36B
:104004001188BFF36F8F6FF00F0025E03368002233
:10401400C3F8B020204605F04CF8DFE73468683474
:1040240025EAE575E917C90341EA5541ED030B4853
:1040340028180B4A4FF0000341F10001FCF788F8FF
:1040440002460B4600200021CDE90001204602F083
:1040540031FC002000E0002003B0F0BD3F420F001F
:1040640040420F0070B50446056943681E6828681D
:1040740000220A49083006F0D2F92B68DC6328686C
:1040840000220749683006F0CAF92B68C3F89C403F
:10409400044BC6F80433002070BD00BF1B9200001F
:1040A4001790000014020A0038B505460C4601F1C9
:1040B4000C0000F0D1FB0C4B98420DD105F10C0221
:1040C40005F59071207B05F015FB237B01209840BA
:1040D40000F0BCFB002038BD044A0121044803F071
:1040E400D6FF6FF00400F6E70000AD0B58B40000F3
:1040F40074A9000038B5044645680121E86804F055
:1041040025FE63681A682B69C2F824356B7DA97D86
:104114000B43298B0B43297D0B43C2F86C35236970
:104124001B6823B12046FFF79DFF002803DB2046D0
:1041340005F0ADF800B138BD0249204604F0B0FCEA
:10414400F9E700BF3B8E000021F07F4100F5A87025
:10415400014B43F820107047005001504FF4803356
:104164008340024AC2F84433704700BF00500150F4
:104174004FF480338340024AC2F84833704700BF8B
:1041840000500150014BD3F8040570470050015012
:104194002DE9F843054689469046FFF7E9FF28468E
:1041A40005F0A7F94E46032710E0FFF7EBFF04469E
:1041B400494605F08DF9B0F5000F26D9284605F0DB
:1041C40098F9B8F1000F22D13E190137314628463B
:1041D400FFF7BAFF2846FFF7C1FFFFF7D3FF0446F6
:1041E400C11C304605F074F90A4B98420AD9284696
:1041F40005F072F90028D8D1B8F1000FE4D06FF0BF
:10420400150000E00020BDE8F8830020FBE76FF014
:104214001500F8E7FDFF7F00034B044AC3F80823A9
:10422400C3F84823704700BF0050015003000F003B
:1042340010B5012383406FEA030C0C4AD2E8EF1F48
:1042440001EA0C0EC2E8E4EF002CF7D14FF48032FF
:1042540082400748C0F80823BFF35F8FBFF36F8F16
:104264000B4214BF0120002010BD00BF9C10002091
:10427400005001504FF480338340124AD2F8042393
:10428400134201D10020704710B504460123834036
:10429400DB430D49D1E8EF2F02EA0300C1E8EC0F3C
:1042A400BCF1000FF6D122FA04F313F0010F03D18D
:1042B400204605F011F918B1204605F01AF901203D
:1042C40010BD00BF005001509810002001B9704784
:1042D400012383400D4AD2E8EFCF4CEA030CC2E835
:1042E400E1CF0029F7D14FF480338340084AC2F864
:1042F4000433084BD3E8AF3FC34013F0010FE6D0BB
:10430400054B4FF40012C3F80021E0E79C10002095
:10431400005001509810002000E100E038B5144628
:104324001046194605F0F1F802460D490B68E01AEB
:104334001B184C6844F100040B604C60A2F5001398
:10434400B3F5400F09D2074B1B68190A1B06D41892
:1043540041F10005044BC3E9004502F0ADF938BD55
:10436400B8070020A0100020C007002038B50D4B6E
:104374001C68250A2406BFF35F8FFFF703FF03467B
:10438400001945F10001B3F5801F0AD2064BD3E9A9
:104394000023904271EB030303D210F1807041F1CA
:1043A400000138BDA0100020C00700202DE9F04115
:1043B400064614461D469DF820801046194605F011
:1043C400A4F80746FFF7D2FFA04271EB050319D208
:1043D400201A65EB01011B4B984271F100012BD2AD
:1043E400194B03EB0613D3E90223AB4208BFA242E5
:1043F40001D1002014E0424639463046FFF7C8FE9A
:1044040070B117E0B8F1000F19D10123B3400F4A7E
:10441400D2E8EF0F1843C2E8E10F0029F8D10020D9
:10442400094B320103EB0616C6E902450699995079
:10443400079B7360BDE8F0816FF01500FAE76FF039
:104444001500F7E701008000A8070020981000205D
:1044540030B585B0FFF7E0FE00231E4AC2F80835E8
:10446400002B25DD1B4C0225C4F804531A4B4FF4D2
:104474000012C3F8802100220121152003F03FFF20
:10448400152003F037FF0123A3602360134A136050
:10449400002402940194124B0093124A00232046F4
:1044A40005F043F82846FFF765F8204605B030BD0F
:1044B4000D4A02EB03124FF0FF304FF0FF31C2E917
:1044C40002014FF480329A400249C1F804230133B7
:1044D400C6E700BF0050015000E100E09C1000203E
:1044E40021430000FFFF7F00A80700202DE9F047CB
:1044F40082B00446FFF7BEFE10B902B0BDE8F087F3
:10450400FFF734FF82460D4605F002F80646154BC8
:1045140003EB0413D3E90289C24575EB09050BD2F9
:104524000025304604F0FCFF002DE6D000974246FB
:104534004B462046A847E0E70A4A230102EB041150
:10454400D5584F680020D0504FF0FF324FF0FF3362
:10455400C1E902232046FFF70BFE204604F0C9FF01
:10456400DFE700BFA807002010B50D4BD3F80433D4
:1045740013F0020F03D10024002C0BDD10BD022127
:10458400074804F06FFF0028F5D0064A136801338A
:104594001360F0E72046FFF7A9FF0134ECE700BF02
:1045A40000500150A010002010B584B0B0F1FF3FBE
:1045B40018D001281BDD154B9842A8BF18460446A5
:1045C400134B01221A70FFF7D1FE124B1A685B6875
:1045D400801AB0F5000F0CD20444B4F5000F09D3CF
:1045E4000A4C07E00A4B00221A70084CEBE701243E
:1045F400E6E7064C0020121902900190064900914A
:1046040043F1000304F091FF04B010BDFFFF7F00ED
:1046140051130020B80700202143000008B5FFF71C
:10462400A5FE024B1B68C01A08BD00BFB8070020D6
:1046340008B505F01AF868B15D4BD3F8203A4BB9C8
:104644005B4B0D22C3F8202A0122C3F81C29002247
:10465400C3F81C2900220BE002F160034FF47F0130
:1046640051F83310DB0003F57F035B680B60013204
:104674001F2A08D802F160034FF47F0151F8333048
:10468400B3F1FF3FE8D104F0C8FF30B1484B292211
:10469400C3F80C270322C3F83C2704F072FF40B18F
:1046A400444B454AC3F830254FF050230122C3F848
:1046B400582504F07AFF18B1404B0022C3F84C256A
:1046C40004F08BFF68B14FF05023D3F8003413F09B
:1046D400010F06D04FF050230022C3F81421C3F871
:1046E400182104F08EFF60B14FF05023D3F800344A
:1046F40013F0010F05D04FF050236FF00102C3F8FF
:10470400002404F09EFF18B1294B6522C3F80C273E
:1047140004F0BFFF20B1294BD3F82034002B30DB49
:1047240004F0C3FFE8B1224B7E22C3F80C27C3F880
:104734003C29234A7F23C2F818311E490023C1F8BB
:10474400043EC1F8083E01F54821C1F81031C2F811
:104754002431C2F82C3102F5FF1202F58052C2F85E
:10476400A032184AD2F88C3043F44063C2F88C303B
:10477400154A1168154BC3F84415D269C3F84C2582
:1047840008BD4FF050230322C3F8182501229A6074
:104794004FF05023D3F80431002BF9D04FF05023BD
:1047A4000022C3F804210122DA60C3F81825B7E710
:1047B40000400050009003504400EFBE002003501E
:1047C4000020005000ED00E00080FF000060005079
:1047D40010B50468ACB1B4FA84F3C3F11F03DBB2BF
:1047E40001229A4024EA0202D0E8EFCFA44504D182
:1047F400C0E8EE2FBEF1000FF6D1EAD10B700248EB
:1048040010BD0248FCE700BF0000AD0B0200AD0B79
:104814000368CB4013F0010F11D100B502680123E6
:104824008B401343D0E8EFCF944504D1C0E8EE3F6A
:10483400BEF1000FF6D1F1D102485DF804FB024845
:10484400704700BF0000AD0B0400AD0B014BC3F873
:10485400040570470070015008B50146014804F092
:10486400EFFF08BDC8000020054B1B792BB9044B92
:10487400186001221A71034870470348704700BF4B
:10488400A41000200000AD0B0C00AD0B08B5084BC4
:104894001B680BB104F069FF04F065FF4FF050236F
:1048A400C3F818050122C3F81425C3F8802508BDF0
:1048B400A410002000B583B0032818D8DFE800F066
:1048C4001A026D6700224FF48073012003F1502314
:1048D40000211960196802F1502201211160354A42
:1048E4001268002A5FD04FF05023C3F8040303B0CA
:1048F4005DF804FB4FF05023D3F81824D3F8183490
:1049040003F003038DF8073012F4803F15D14FF004
:104914005023D3F8143413F0010F13D104F023FF00
:104924008DF807009DF807204FF05023C3F8182591
:1049340008224FF482730220C8E70DF1070004F047
:1049440066FFEFE74FF05023D3F81C3403F0030362
:104954008DF807300DF1070004F059FF0028E1D06D
:10496400144B1B682BB14FF050230222C3F80423CD
:10497400BDE74FF05023D3F80431002BF9D04FF0AA
:1049840050230022C3F80421D3F80431AFE71822DE
:104994004FF490734FF4807098E720224FF4927391
:1049A4004FF4007092E71A68002AFCD000221A60C3
:1049B4001B689CE7A410002010B54FF05023D3F8D7
:1049C400044302E0194B1B68984774B3B4FA84F0AB
:1049D400C0F11F000122824083009BB203F5807363
:1049E4009BB2C0B292B224EA020403F150231968C4
:1049F4000029EAD0002119601B684FF05023C3F846
:104A04000823022ADED1D3F81814D3F8183403F09B
:104A14000303012BD6D14FF050230221C3F81815FC
:104A2400C3F8042301229A60CFE710BDA41000202C
:104A340008B50079024B03EB0010FFF7C9FE08BD6F
:104A4400D000002070B400F01F0C400919D00128D8
:104A540019D10E4D0CF1800055F820600C4C3440F7
:104A640041EA420141EA83039DF80C2043EA022310
:104A74009DF8102043EA0243234345F8203070BCDC
:104A84007047044DE6E70025E4E700BF00288450A2
:104A9400F0F0FCFF00258450F0B51C46059F069EEF
:104AA40000F01F0C400936D0012836D1284D0CF1F6
:104AB400800355F8233091B3012092B34FF0020ED6
:104AC40040EA0E0084B34FF00C0E40EA0E0077B3B8
:104AD4004FF4706E40EA0E0066B34FF4403E40EA75
:104AE4000E0023EA000041B30B7842B3127852005F
:104AF400134334B322789200134327B33A78120253
:104B0400134316B332781204134303430CF1800C9D
:104B140045F82C30F0BD0F4DC9E70025C7E700204C
:104B2400CBE74FF0000ECBE74FF0000ECDE74FF090
:104B3400000ECFE74FF0000ED1E70023D5E70022A7
:104B4400D6E70022D8E70022DAE70022DCE700BF3C
:104B5400002884500025845000F01F02400907D02B
:104B6400012807D1044B1869D04000F001007047B8
:104B7400024BF8E70023F6E7002884500025845010
:104B840000F01F03400908D0012808D1054A8033EA
:104B940052F82300C0F301407047034AF7E70022AC
:104BA400F5E700BF002884500025845000B583B089
:104BB40084468E460C4B93E8030002AB03E90300E2
:104BC400634609E002A901EB830151F8081C086A55
:104BD40042F8040B086201330CEB0E009842F1D842
:104BE40003B05DF804FB00BFD0A9000000F01F0172
:104BF400400906D0012806D1044A01238B401362E0
:104C04007047034AF9E70022F7E700BF0028845001
:104C1400002584504309034AD35C00F01F00184464
:104C2400C0B27047ECB4000000487047AC100020DC
:104C34000048704704B500002DE9F04184B00546F2
:104C44000C4616461F460846FFF7E4FF804656B357
:104C54002146284604F0D9FE28B12146284604F00E
:104C640094FE002843D12146284604F09DFE10B14D
:104C74007378012B3BD001238DF80F30002301936F
:104C84000096B31C721C0DF10F012046FFF704FFC0
:104C94002879FFF7C9FF08F1080230F8123043F011
:104CA400030320F81230002F3BD02146284604F09D
:104CB400ACFE002837D13E782B6806F5A27200219D
:104CC40043F8221043F822102879FFF7ADFF08F1CA
:104CD400080230F8123023F02003DB04DB0C20F848
:104CE40012307B782BB9114804B0BDE8F08110482C
:104CF400FAE7BA78009222463146286804F0BDFDEE
:104D04002879FFF791FF024608F1080032F81030C5
:104D14007603B6B2334343F0200322F8103003483D
:104D2400E2E70248E0E70248DEE700BF0000AD0B1F
:104D34000400AD0B70B506460D46144604F025FE7E
:104D440068B13079FFF770FF06462846FFF762FF27
:104D5400083036F810305B0B2370024870BD0248EF
:104D6400FCE700BF0000AD0B0400AD0B30B583B011
:104D740005460191002400E00134012C18D80E4BA3
:104D84001B5D03F0070202A901EBD30313F8043CF3
:104D9400D34013F0010FEFD005EB8402012120462C
:104DA400FFF704FF55F82430002BE5D0012000E084
:104DB400002003B030BD00BFFCB4000008B500798A
:104DC400024B03EB8000FFF703FD08BDE000002069
:104DD4002DE9F04182B00546884616461F4604F088
:104DE40054FFAEB33A463146284604F06AFE041E28
:104DF40020DB2879FFF718FF40F834602879FFF7A3
:104E040013FF00EBC40047602879FFF70DFF054648
:104E14004046FFF7FFFE083035F81030E4B2640274
:104E2400A4B2234343F4807325F81030094802B038
:104E3400BDE8F0812879FFF7F7FE0DF1070178301E
:104E4400FFF7C6FC034B9842F1D19DF80740D0E729
:104E54000048ECE70000AD0B2DE9F04784B00646AE
:104E64000C4690460846FFF7D5FE07463079FFF713
:104E7400DBFE0546D8F80090B9F1000F21D0214699
:104E8400304604F0B1FD002843D100238DF80E30E4
:104E94008DF80F30019300934B460DF10F020DF185
:104EA4000E012046FFF7F8FD07F1080235F812302D
:104EB40023F002039BB225F8123043F0010325F8D6
:104EC4001230D8F80430BBB193F80090D3F804A0A2
:104ED4002146304604F079FDE8B1BAF1000F61D102
:104EE400083735F8173023F01C039BB225F8173028
:104EF40043EA890325F81730D8F80820002A55D04A
:104F04005368126821463046FFF762FF04B0BDE8DB
:104F1400F0872748FAE707F1080235F8123023F042
:104F24002003DB04DB0C25F81230BAF1000FD7D0D4
:104F3400B9F1030F38D8D8F804305B6893F800A0AF
:104F4400B9F1000F08D133680AF5A27A002243F8B8
:104F54002A2043F82A20C3E7484604F05EFD0346AE
:104F640031680AF5A27C51F82C2022F0030241F8A2
:104F74002C2022465146306804F066FC0AF13C03BA
:104F840005EB43039C8007F1080235F812304FEA21
:104F94004A3A1FFA8AFA43EA0A0343F0200325F83F
:104FA40012309DE70248B1E70148AFE70148ADE799
:104FB4000400AD0B0000AD0B38B505460C4604F0FB
:104FC400D5FC08B9074838BD2146284604F056FDEB
:104FD4002146284604F084FE204604F0ABFC024837
:104FE400F1E700BF0400AD0B0000AD0B08B500797C
:104FF400024B03EB8000FFF70BFC08BDE000002030
:10500400F0B583B005460E460079FFF70DFE90F823
:105014008C3013B10D4803B0F0BD0446602200216A
:10502400103005F042FA2F682879FFF701FE036873
:105034000093002332464FF00041384604F072FEDC
:10504400012384F88C30A3670148E4E70C00AD0B1E
:105054000000AD0B2DE9F04782B081460F46904623
:1050640000230093019351686846FFF77FFE4CE0EC
:1050740094FAA4F4B4FA84F404F01F05254B9B5D60
:1050840045EA43152846FFF7C5FD083037F810A058
:10509400CAF3820A0DEB8603E00804F007041A5CE5
:1050A4000121A14022EA01021A542846FFF768FDB3
:1050B400034652462946384604F0B1FD2846FFF718
:1050C40095FD02AB03EB860353F8084C002CCFD1BB
:1050D4000136012E0DD8104B9B5D08F10402D9084E
:1050E40003F00703525C22FA03F313F0010FEFD02D
:1050F400E7E700224FF00041484604F0FAFBD8F8F5
:1051040004106846FFF732FE08B10026E1E702B05A
:10511400BDE8F08700B50000FCB40000F8B5044613
:105124000E461148081A114BA3FB00304009FFF743
:105134007FFD0746D4F80413C9B2026841F0004168
:10514400204604F0D6FB051E05DB2A4631462046E0
:1051540004F012FEF8BD3A4631462046FFF77AFFC6
:1051640025F00045F1E700BFAC100020398EE3388C
:1051740008B502490248FFF7D1FF08BDAC10002072
:1051840000D00050034B00E02033034A9342FBD38A
:10519400704700BF20A60000A0A6000004280CD879
:1051A400DFE800F0030D05070900064870470648CC
:1051B40070470648704706487047064870470648D7
:1051C400704700BF0CB5000030B5000040B50000CA
:1051D4004CB500005CB500001CB5000030B108B54A
:1051E40004F032FF20B1037823B108BD02487047B0
:1051F4000148FAE70048F8E76CB5000010B504462A
:10520400FCF76CFA034A0121034802F040FF2046F0
:1052140004F016FE74B5000064A900002DE9F047FF
:1052240082B000AF05460C46EFF31188202383F3C8
:105234001288BFF36F8FDFF8C491D9F80860FFF7C5
:10524400ADFF99F81010E94601233B7103237B71EC
:105254008AB0EC461CF1100221D04FF0160E5AB160
:105264007346BEF1040F03DDDFF894A1CCF814A05B
:10527400082B01DDCCF8185001233B7003237B700D
:10528400D2B17346BEF10C0F01DDCCF81C00102B1B
:1052940001DDCCF820100CF1240300210AE06FF0AA
:1052A400004EDCE701F10800384410F8080C03F85C
:1052B400010B01310129F5D9BEF1150F50DD16237B
:1052C4004AB10521397100217971B9710121F9714E
:1052D4007868CCF8100000216FF300016FF34101EE
:1052E4006FF382016FF3C501012060F38811C3F3EA
:1052F4000A0363F353216FF31F5100234148FCF762
:10530400CDFACD461CB1E369C3F308035BBB304659
:10531400FFF764FFE94601233B7103237B718AB0E5
:10532400EC461CF1100224D04FF0120E52B1734619
:10533400BEF1040F02DD3449CCF81410082B01DD52
:10534400CCF8186001233B7003237B70F2B1BEF1EB
:105354000C0F01DDCCF81C000CF12003002113E03C
:105364006FF01B03ACE7294A0121264802F08FFEA7
:10537400CDE76FF0004ED9E701F10800384410F88A
:10538400080C03F8010B01310129F5D9BEF1110F05
:1053940031DD12234AB10421397100217971B971C7
:1053A4000121F9717868CCF8100000216FF3000135
:1053B4006FF341016FF382016FF3C501012060F3C4
:1053C4008811C3F30A0363F353216FF31F510023BE
:1053D4000C48FCF763FACD4621462846FFF70EFF3A
:1053E40088F31188BFF36F8F3046FDF735FB08371C
:1053F400BD46BDE8F0876FF01B03CBE73C110020EE
:1054040084B5000064A90000D0B50000ACB500006C
:1054140038B505460B4B53F8204002E02368984703
:1054240008346B1C074A52F82330A34209D9606838
:105434000028F3D0037F13F0010FF1D104F008FD2D
:10544400EEE738BDF8B5000010B586B0B023104CB7
:1054540003FB004400EB800C0E4B03EB8C030E4A61
:105464000592012204920F220392002202920192D9
:1054740000930A4B4FF4A072094901EB8C112046AA
:1054840000F0C0FA637B23F00403637306B010BD1D
:10549400C80700203C110020E8B50000A59F0000CB
:1054A400581E002008B553EA020102D100F096FE0E
:1054B40008BD0249183001F05DF8F9E74BA200007D
:1054C40010B586B0184C14E0636A0593236A0493FC
:1054D400E3690393A36902936369019323690093C6
:1054E400E368A2686168206800F08CFA23685C6550
:1054F40030340E4B9C42E7D300F08AFD0A4C00E0A6
:1055040030340A4B9C420BD2A26AE36AB3F1FF3FE8
:1055140008BFB2F1FF3FF3D02068FFF7C3FFEFE706
:1055240000F08EFD06B010BDC8A80000C8A8000099
:1055340008B50B4B01221A700320FFF769FF03F033
:105544001CF8FCF7CDFC0420FFF762FFFFF7B8FF5F
:10555400FBF766F8034A137B23F00103137308BDBA
:10556400521300207808002008B50146014A024879
:10557400FDF746FB355500007808002008B50348C0
:10558400034A121A002104F07AFC08BDF801002035
:105594005413002010B50446FFF756FFB0230A4900
:1055A40003FB0411094A04EB840302EB8303D9606F
:1055B4001C74074B03EBC42303F5006304EB84045E
:1055C40002EB8402536010BDC80700203C11002088
:1055D4005816002070B586B000F06AFD104D114BCE
:1055E4005D61114B059301230493002403940294F9
:1055F400019400940D4B4FF480620D49284600F04D
:1056040001FA06466B7B23F004036B73284604F00F
:10561400B2FD2046FFF7BEFF304606B070BD00BFA6
:10562400780800203C110020F0B50000355500003A
:10563400981F002008B50020FFF7EAFE1B4B03F576
:10564400006282F3088883F30A88194CE02384F803
:1056540022300023E37723766376A37684F8203020
:10566400626A42F4E022626284F82330FDF768F94A
:10567400FDF7E8FA4FF0FF33A362E362FDF7AAFCFB
:10568400FDF710FBFBF786FF0A4800F01DFAFFF751
:1056940079FDFDF7A5FD0120FFF7BAFE0220FFF713
:1056A400B7FEFFF797FFFFF75FFF00BF5816002014
:1056B40000ED00E02809002010B5064C002000E0B1
:1056C4001C34054B9C4204D2204604F0E0FB002825
:1056D400F6DA10BD940100209401002030B583B0A7
:1056E4000D46EFF31181202484F31288BFF36F8FEA
:1056F400C46864B12C602368C36083690133836127
:10570400002081F31188BFF36F8F03B030BD00F127
:10571400080C53EA020404D100232B606FF00B0041
:10572400EFE7009201930246604600F083FB0028F5
:10573400EBD1024B9B681B692B60E6E73C11002010
:105744002DE9F04182B00446EFF31187202181F363
:105754001288BFF36F8FC16899B9002950D1364BB5
:105764009B6893F90E3023610131E160324B9B68F1
:10577400A36087F31188BFF36F8F002002B0BDE8E8
:10578400F08116461D4682682B4B9B689A42E4D0F2
:1057940055EA060136D092F90E80414693F90E007F
:1057A40004F00BFC804534DC4FF0000800960195B2
:1057B40022463946214800F03DFB0028DED0EFF3B5
:1057C4001185202383F31288BFF36F8FA36843B33B
:1057D40023689C4223D013B3216993F90E0004F08B
:1057E400ECFB0146204604F0F3FBE8B9B8F1000FE6
:1057F4001AD185F31188BFF36F8F6FF00A00BDE7EC
:105804002369B0E787F31188BFF36F8F6FF00F0040
:10581400B4E70146204604F0DBFB8046C6E7216975
:10582400E0E7B8F1000FE4D02946044800F0C4FBD7
:105834006FF00A00A2E700BF3C11002060110020B5
:10584400F8B58368002B47D00446264A92689342F1
:1058540045D1C368012B04D9013BC3600025284608
:10586400F8BDEFF31186202383F31288BFF36F8F03
:10587400016904F0ADFB2768A7420CD03D1E18BF98
:10588400012557B9A760CDB90023E36086F31188D9
:10589400BFF36F8FE3E70027F0E77A683B68136094
:1058A4005A6000233B607B607A7B22F002027A73A9
:1058B400BB6007F1180004F070FDE3E797F90E30C0
:1058C40023610025C7F8AC50384604F054FC314637
:1058D400054800F071FBC2E76FF01505BFE74FF014
:1058E400FF35BCE73C11002060110020F8B50446E8
:1058F400EFF31187202383F31288BFF36F8F0568BA
:10590400A84212D02E1E18BF012685B906BBA36873
:10591400E268934224D001221344A36000230BBB0A
:1059240087F31188BFF36F8FF8BD0025EAE76A6833
:105934002B6813605A6000232B606B606A7B22F033
:1059440002026A73AB6005F1180004F026FDDDE77E
:105954000023C5F8AC30284604F00DFC0123DEE733
:105964000022D9E73946024800F026FBDCE700BFF5
:105974006011002010B582B0EFF31181202484F36C
:105984001288BFF36F8F846844B1013C846081F353
:105994001188BFF36F8F002002B010BD53EA0204D8
:1059A40006D0009201930246054800F043FAF3E75B
:1059B40081F31188BFF36F8F6FF00F00ECE700BF26
:1059C4006011002008B553EA020102D100F006FC80
:1059D40008BD0249183000F0CDFDF9E74BA20000E4
:1059E40010B5044640B11F2204F1740004F065FDB3
:1059F400002084F8930010BD014B9C68F3E700BFBE
:105A04003C1100202DE9F04F85B004460F461546A1
:105A14001E46DDF838A0DDF83C90DDF84080DDF866
:105A24004CB000F158038365C365129B042211999D
:105A340004F00CFB2A463946204604F0EAFA0546EF
:105A4400CDF80880CDF80490CDF800A03346024686
:105A540039462046FDF7B2F8002363652666C4F88C
:105A640064A0C4F86890C4F86C80EFF3118220231A
:105A740083F31288BFF36F8F124B196A21671C627C
:105A840082F31188BFF36F8FBBF1000F13D01F2275
:105A9400594604F1740004F010FD002384F8933097
:105AA400084B9B685BB1D3F8A030C4F8A0302846FB
:105AB40005B0BDE8F08F002384F87430F0E7C4F833
:105AC400A030F4E73C110020012343730373002347
:105AD400C0F89430C0F89830C0F8A030014B9860FA
