:10000000003A0020252B000095AF0000112B0000C6
:10001000112B0000112B0000112B0000112B0000F0
:10002000000000000000000000000000A52C0000FF
:10003000112B0000000000003D2C0000112B0000DF
:10004000352E0000352E0000352E0000352E000024
:10005000352E0000352E0000352E0000352E000014
:10006000352E0000352E0000352E0000352E000004
:10007000352E0000352E0000352E0000352E0000F4
:10008000352E0000352E0000352E0000352E0000E4
:10009000352E0000352E0000352E0000352E0000D4
:1000A000352E0000352E0000352E0000352E0000C4
:1000B000352E0000352E0000352E0000352E0000B4
:1000C000352E0000352E0000352E0000352E0000A4
:1000D000352E0000352E0000352E0000352E000094
:1000E000352E0000352E0000352E0000352E000084
:1000F000352E0000352E0000352E0000352E000074
:10010000352E0000352E0000352E0000352E000063
:10011000352E0000352E0000352E0000352E000053
:10012000352E0000352E0000352E0000352E000043
:10013000352E0000352E0000352E0000352E000033
:10014000352E0000352E0000352E0000352E000023
:10015000352E000053B94AB9002908BF00281CBF3A
:100160004FF0FF314FF0FF3000F00CB8ADF1080C4C
:100170006DE904CE00F010F8DDF804E0DDE90223BB
:1001800004B07047704700BF034613F8012B002AE4
:10019000FBD1181A013870472DE9F04786468C4686
:1001A0000846089E154674461946002B40F0C1804B
:1001B0008542B2FA82F245D94AB1C2F1200300FA6F
:1001C00002FC954094402EFA03F343EA0C0C4FEAEC
:1001D000154EA8B2230CBCFBFEF80EFB18CC08FB96
:1001E00000F943EA0C43994528D9EB1808F1FF3789
:1001F00004D2994502D9A8F102072B44A3EB0903C5
:10020000A4B2B3FBFEFC0EFB1C330CFB00F044EA73
:100210000344A04214D92C190CF1FF3304D2A0429C
:1002200002D9ACF102032C44241A43EA07401EB160
:10023000D440002334607360BDE8F0874746DDE7B3
:100240006346F1E792BB431B01214FEA154EAFB263
:10025000200CB3FBFEFC0EFB1C330CFB07F840EA42
:100260000343984561D9EB180CF1FF3004D298454F
:1002700002D9ACF102002B44A3EB0803A4B2B3FBF8
:10028000FEFC0EFB1C330CFB07F744EA0344A742B9
:100290004DD92C190CF1FF3304D2A74202D9ACF18D
:1002A00002032C44E41B43EA0040C0E7C2F12003F0
:1002B0009540944020FA03F12EFA03F34FEA154ECD
:1002C0009040AFB20343B1FBFEFC0EFB1C10190CB7
:1002D0000CFB07F841EA0041884522D969180CF166
:1002E000FF3004D2884502D9ACF102002944A1EBC9
:1002F00008019BB2B1FBFEFC0EFB1C110CFB07F7C7
:1003000043EA01439F420ED9EB180CF1FF3104D2AE
:100310009F4202D9ACF102012B44DB1B41EA0041B0
:1003200093E76046E3E76146F7E76046A4E7634684
:10033000B8E7834206D916B9002108467CE7C6E92A
:1003400000E0F9E7B3FA83F78FB9834201D372452E
:1003500008D8BEEB020460EB030301209C461EB9E3
:10036000002169E73846FAE7C6E9004CF8E7C7F12B
:10037000200CBB400EFA07F522FA0CF42EFA0CF111
:10038000BA401C4320FA0CF3B8404FEA1449014329
:100390001FFA84FEB3FBF9F809FB18300B0C08FBBD
:1003A0000EFA43EA00439A4540D9E31808F1FF30BA
:1003B00004D29A4502D9A8F102002344A3EB0A0310
:1003C00089B2B3FBF9F809FB183308FB0EFE41EACA
:1003D00003418E452CD9611808F1FF3304D28E45B4
:1003E00002D9A8F10203214443EA0040A1EB0E0127
:1003F000A0FB02984145CE46434602D306D14D4567
:1004000004D20138B9EB020E68EB0403002EA7D02A
:10041000B5EB0E0261EB030101FA0CFC22FA07F3C3
:10042000F9404CEA0303C6E9003199E74046C5E7C5
:100430004346D9E710B5074809F01FFB064C204694
:100440000CF0BFFB054809F018FB20460CF0B9FB87
:1004500010BD00BFCCDB000020A10700C4DB000002
:1004600010B5074C00220023204605F02FFCA3689E
:10047000DBB2044A032104480AF090FC10BD00BF1F
:10048000E801002078DA0000B4D9000010B5064C6D
:10049000204605F0D7FBA368DBB2044A03210448D9
:1004A0000AF07CFC10BD00BFE801002094DA0000D7
:1004B000B4D900002DE9F04786B000AFC7E06FF077
:1004C000004C60E06B4A03216B480AF05DFC23E0BE
:1004D000BCF1130F6FDD14213AB1052038740020F0
:1004E0007874B874F874386918616FF300056FF3A5
:1004F00041056FF382056FF3C505032363F3881588
:10050000C1F30A0363F353256FF31F5500232946F4
:10051000594801F09BFAB5460134E4B2022C4DD89B
:10052000282006F095FA80460028CBD0282200210A
:100530000CF0B5FF042107F110000AF01BFF04EBDB
:10054000440608EB86063B697360042107F110003E
:100550000AF010FF3B69B360042107F110000AF0B4
:1005600009FF3B69F360414644480CF0C5FC7168E3
:10057000B068D6F80C806E468AB06B4613F1100254
:100580009DD04FF0140C002AA2D0E646BCF1040F17
:1005900003DDDFF8EC90C3F81490BEF1080F00DD26
:1005A0009961BEF10C0F00DDD861BEF1100F8FDD37
:1005B000C3F820808CE76FF01B018DE7FFF766FF23
:1005C00002F066FCC7E9040107F1100107F1080019
:1005D0000AF05FFD0AF066FD6C4688B06B4613F1C9
:1005E000100240D010265AB1B446042E03DDDFF8C5
:1005F00094E0C3F814E0BCF1080F01DD9861D96103
:100600000F2E33DD10213AB10420387100207871AB
:10061000B871F871786818616FF3000A6FF3410AD6
:100620006FF3820A6FF3C50A032363F3881AC1F3D9
:100630000A0161F3532A6FF31F5A002351460E48F3
:1006400001F004FAA54644F6206009F020FA02F011
:100650005DFF02F069FF02F01BFCC7E90201FFF732
:10066000FFFE00245AE76FF00046BCE76FF01B0165
:10067000C9E700BFB0DA0000B4D90000F8010020DB
:10068000D0DA00000CDB00002DE9F04F85B000AFA0
:10069000AAE0674A012167480AF076FB25E06FF07F
:1006A000004148E013295CDD14213AB1052038717E
:1006B00000207871B871F871786818616FF30005DF
:1006C0006FF341056FF382056FF3C505032363F3F1
:1006D0008815C1F30A0363F353256FF31F550023F5
:1006E0002946544801F0B2F9CD4640460CF081FE4F
:1006F0000134E4B2022C37D84FF0FF324FF0FF3311
:100700004D4805F065FA80460028C2D004EB44034A
:1007100000EB8303D3F804C0D3F808E004EB4403F0
:1007200000EB8303D3F80CA0E9468AB06B4613F1C3
:100730001002B4D01421002AB4D00846042903DDE5
:10074000DFF8F8B0C3F814B0082801DDC3F818C00A
:100750000C2801DDC3F81CE01028A3DDC3F820A09D
:10076000A0E76FF01B01A0E7FFF790FE07F108007C
:1007700009F0A3F96C4688B06B4613F1100251D012
:100780004FF0100C62B1E646BCF1040F03DDDFF858
:10079000B080C3F81480BEF1080F01DD9861D96103
:1007A000BCF10F0F41DD10213AB104203871002057
:1007B0007871B871F871786818616FF300066FF39B
:1007C00041066FF382066FF3C506032363F38816B1
:1007D000C1F30A0161F353266FF31F56002331461C
:1007E000144801F033F9A5460CF0B8FD4A0142EA7D
:1007F000D06243011B1A62EB0102920042EA93723B
:100800009B001B1842EB0102D20042EA5372C3F371
:10081000103343EA4243D20BBB60FA60FFF720FE7D
:10082000002467E76FF0004CACE76FF01B01BBE7FB
:1008300030DB0000B4D90000F801002048DB0000E4
:100840007CDB000000B583B000F018F800F02AF857
:1008500000F04EF800F056F84FF480320023CDE956
:1008600000234FF480420023034806F099F800204B
:1008700003B05DF804FB00BF3801002008B5064B4B
:1008800018680CF0A4F900B108BD044A032104481B
:100890000AF07AFAF8E700BF00000020D4DB00007D
:1008A000BCD9000008B50D480CF091F958B14FF4CF
:1008B000D0110B4809F04CF94FF4D011094809F058
:1008C00047F9012008BD05480CF081F90028EED158
:1008D000054A032105480AF057FAE8E740D6000028
:1008E00014DC00000CDC0000F0DB0000ACD90000E0
:1008F00008B500220621024809F045F908BD00BFED
:1009000040D6000008B500220721024809F03BF953
:1009100008BD00BF40D600002DE9F04F91B0059210
:100920000293134602F004020092C3F3C20210F0D5
:100930000303019340F02B8280468A460132041D56
:1009400000284FD0B8F1000F05D0A4EB0803043302
:10095000534500F21F82029B5D1E019B0493069388
:10096000039300264FF0FF3B0427B946B8F1000F70
:1009700001D0029B2360531E0793002A40F35D8140
:10098000059B13F0020228D00120A4EB08018B087C
:100990001AB1B1F5007F80F0038203990F2900F2AC
:1009A0000282B8F1000F00F06081DBB201F1400279
:1009B0006A4402F8103C02F820BC002800F0518183
:1009C00063F07F0301F140026A4402F8103C049B8B
:1009D00001330493039B0133039304340022CC4678
:1009E00040463DE001F0070A5444CAF1080AA9E76D
:1009F000002634E0002632E0002630E00827BC461E
:100A00002DE025292BD10BF1010B01260427BC4633
:100A100025E04729EED82A2914D32A39C9B24FF044
:100A2000010E0EFA01F14FF6DA7E11EA0E0F16D121
:100A300011F0625F40F0C08011F0010F40F08C8037
:100A400000260CE0252903D10BF1FF3B002606E030
:100A500001D9002603E0202901D02329CCD11D464D
:100A60006B1C6978002900F01981002EC9D07A2901
:100A7000BED84C29CDD34C392E2961D80FF2040EA3
:100A80005EF821F05F0A0000410B0000410B0000FE
:100A9000410B0000410B0000410B0000410B000026
:100AA000410B0000410B0000410B0000410B000016
:100AB000410B0000510B0000410B0000410B0000F6
:100AC000410B0000410B0000410B0000410B0000F6
:100AD000410B0000410B0000B90B0000410B00006E
:100AE000510B0000510B0000B90B0000B90B0000C6
:100AF000B90B00005F0A0000510B0000FD09000067
:100B0000410B00005F0A0000410B0000150C0000C3
:100B1000510B0000150C0000410B0000410B0000C0
:100B20001D0C00004B0B0000510B0000410B00009E
:100B3000410B0000510B0000410B0000450B000071
:100B400000268CE70427BC4689E70427BC4686E7D5
:100B500029786C2924D000263C44013CB4FBF7F4EE
:100B600007FB04F420B1211A6144514500F21581BC
:100B7000002A58D1BCF1040F00F08880BCF1080FA6
:100B800040F014811A99073121F0070101F108059D
:100B90001A95D1E9008908B1C4E9008908345EE7F3
:100BA00013F8021C6C2903D000260427BC46D3E7A7
:100BB00000260827BC46CFE729784C291AD01A9975
:100BC000073121F0070101F108061A96D1E9006703
:100BD000073424F0070440B1211A0831514513D8D5
:100BE00029784C2913D0C4E9006708340026082767
:100BF000BC4634E71A99073121F0070101F10806D4
:100C00001A96D1E90067E3E76FF01B00BCE0C4E986
:100C10000067EAE700260427BC469DE73246002627
:100C20000427BC4698E7E14680461A9A111D1A919E
:100C300012680292079A1D4698E6624B029A9A42FF
:100C400004D3614B9A420AD3002300E00023002B17
:100C50007FF496AE059B03F00202002095E6012387
:100C6000F5E7069B01330693B4E610B10AF1010AD9
:100C7000B0E6009B13B10AF1020AABE60298FFF757
:100C800083FA0AEB000303F1020AA3E61A990D1D89
:100C90001A95096800B121600434E0E68046231A01
:100CA000B3F5806F80F0858090B1002202609B08D0
:100CB0000370009B83B1069BC370049B88F80230CD
:100CC0001BBB019DDDF80C90DDF810B0029F3DE0EC
:100CD0005344A3F1080057E0069B4370EDE701334E
:100CE0009842EED903F140026A4412F8101C12F93E
:100CF000102C002AF3DA01F07F01A4EB0802013284
:100D0000524559D804F8011BE9E7019B0398E7E72E
:100D1000009B43B305F140036B4413F8203C04F8F7
:100D2000013B019EA4EB080333440133534546D8ED
:100D300005F140036B4413F8103C04F8013B3246C4
:100D4000394620460CF084FB34440135A94519D9B5
:100D5000BBF1000FDCD005F140036B4413F9103CEC
:100D6000002BD5DAF1E705F140036B4413F8103C92
:100D700058F82370002248F823203846FFF704FA79
:100D8000461CCFE7A4EB080011B0BDE8F08F6FF070
:100D90000D00F9E76FF01B00F6E76FF01B00F3E7BB
:100DA0006FF01500F0E76FF01500EDE76FF015003C
:100DB000EAE76FF01500E7E76FF01B00E4E76FF07C
:100DC0001B00E1E7B8D50000F8E900002DE9F04F7D
:100DD00097B000AF8346BA613B61D7F88030C3F368
:100DE000C0033B62F96011B909F0EAF9F8609BF8B9
:100DF0000260B14636B1D7F8803013F0010F0DD143
:100E0000002300E000239BF803207A6242B1D7F868
:100E1000802012F0020F22D1002202E00123F2E72B
:100E2000002202B9EBB19BF80050AA00BA60DBF8CF
:100E300004207A610BEB8505BA69F2B1002B40F012
:100E40000481B9F1000F00F00F81D7F8803013F062
:100E5000040F40F00D810020F8610646F9E0012200
:100E6000DFE7BB691BB13A69F96858469847FC68E7
:100E700020465C37BD46BDE8F08FFC68E3B94D44C1
:100E800000233B6123E00444013501364E451AD26C
:100E90002A7800235BF822201946B86909F0A5F9E1
:100EA000BAF1000FEFD0D7F888309845EBD22AF886
:100EB000180008F10108E6E70026C7F81C80B046D4
:100EC000D7F884A0E2E7C7F81080D7F81C80D7F8DD
:100ED000803003F00503FB604FF0000AA146C7F81D
:100EE0001CB09CE000253B6A7BB9002D79D0D7F877
:100EF000803013F0010F79D1FB68002B6FD10223F2
:100F0000A9EB030988E00125EDE75946786909F066
:100F1000B2F90028E9D06C46002387F82C30022370
:100F200087F82D308AB0694611F1100237D01225AA
:100F30001AB1042D01DDB34B4B61002387F8283033
:100F4000022387F829306ABB112D45DD122362B1D7
:100F5000042087F82C00002087F82D0087F82E0049
:100F6000012087F82F00F86A08616FF300086FF31B
:100F700041086FF382086FF3C508022161F38818F6
:100F8000C3F30A0363F353286FF31F58002341464A
:100F90009D4800F05BFDA546A9F102093CE06FF019
:100FA0000045C5E72B46082D01DD786988610C2BCB
:100FB00001DDC1F81CB001F12003002009E000F1BF
:100FC000300C07F1280EF4441CF830CC03F801CBA8
:100FD00001300128F3D9B7E76FF01B03B7E701230E
:100FE0008EE7D7F8803013F0020F15D00023224689
:100FF0001946B86909F0F9F8D7F8843053B13B695C
:10100000D7F88820934205D2D7F8842022F813001D
:1010100001333B61013881440AF1010A35467B6A9C
:101020009A4510D22E4616F802BB6B78FA6952F830
:101030002340764B9C42FFF455AF754B9C42FFF426
:1010400062AF00254FE74C4612E707F1440000234A
:10105000FB6118B14A4629460CF0FAF94D444FF0AD
:101060000008C7F804901EE00020F8610646F0E78B
:10107000FE6107F134000026EBE700253B6A33BB35
:10108000002D3BD0D7F8803013F0010F26D0731C11
:1010900006F1300207F12801561806F8149CDEB25A
:1010A00008F1010825467B6A98454AD22C4614F877
:1010B00002AB95F801905BF82930544A9342DCD397
:1010C000534A934201D30025D8E70125D6E751467C
:1010D000786909F0D0F80028D2D0E1E7D7F880305D
:1010E00013F0040FDCD0FA69531C303207F12801E9
:1010F0000A4402F8249CDBB2FB61D1E7D7F88030C8
:1011000013F0020F09D0731C06F1300207F1280119
:10111000561806F8149CDEB2C2E7F869431C00F1C9
:10112000300107F128028A1802F824AC0246023284
:10113000D2B2FA6107F1580252FA83F303F8249C01
:10114000AEE7D7F804909BF8003087F854309BF84E
:101150000130334487F85530D7F8803013F0020F50
:101160000ED1FB69C3F3470387F85730D7F88030B7
:1011700013F0010F06D113F0040F3ED1002302E05B
:101180000023F1E7002387F85630DBF800003863CE
:10119000786DCBF80000D7F810804246B968584601
:1011A000D7F818A0D047041EFFF662AE386BCBF814
:1011B0000000C7F810804246F96907F13400D047B3
:1011C00000285EDB04EB0008B96849447B6A01EB48
:1011D0004301D7F810904A46FB68591A2846D04771
:1011E000041EFFF645AE08EB04054FF00008C7F8F3
:1011F00024B0B3465446CA4621E0FB69C3E74FF02A
:10120000000909E01CDC0000C4D90000B8D50000CA
:10121000F8E900004FF000095246012107F12C00C7
:10122000A04700282FDB05444B4632465146204656
:1012300008F0DBFF002828DB054408F10108D84549
:1012400018D208F1300307F12802134413F8143CB4
:1012500087F82C307A6A52F82360D7F88430002B54
:10126000CDD0D7F888309845D4D2D7F8843033F829
:101270001890D1E73A6900210846BB6998472C4687
:10128000F6E50446F4E50446F2E50446F0E500BF61
:10129000014B1860704700BF0400002080B5054670
:1012A0000E461746984605F0CFF803460CF07AF93B
:1012B0000446DFF8189049F8003042463946304677
:1012C000A84754F8090001F09FFC00BF0800000087
:1012D0002DE9F04383B0044608461546A38B13F06E
:1012E000080F05D103F0070600230093019354E093
:1012F000012909D043F02003A38385F31188BFF3AC
:101300006F8F03B0BDE8F08343F01003A383F4E7CD
:10131000204609F013FB42E0D4F818904A4669468B
:10132000204609F024FB4FF00008A38B03F00707C9
:10133000B74269D0A268002A66D0012243F00803B0
:10134000A38385F31188BFF36F8F002A64D1009BBC
:101350002BB14B463A466946204609F081FBB8F16D
:10136000000F02D034492046C047EFF311852023F7
:1013700083F31288BFF36F8FA38B23F00803A3833B
:10138000A38B13F0100F4DD023F01003A383012083
:10139000A68B06F007060028AFD00228B8D0002898
:1013A000ABD0013804282BD801A353F820F000BF9C
:1013B0001913000001140000C5130000D913000028
:1013C000ED1300002369D3F800800621204609F0C0
:1013D0008BFA4FF00009A8E72369D3F804800421B1
:1013E000204609F081FA4FF000099EE72369D3F8FF
:1013F00008800521204609F077FA4FF0000994E7AC
:101400004FF00008C14690E7009A0AB1002295E724
:10141000B8F1000F92D1B3E74A463946204609F0A9
:101420006BFA94E713F0200F04D023F02003A3837A
:101430000220ADE70020ABE78FAA000038B50546D3
:101440000B4C00E010340B4B9C420FD263685B796D
:10145000002BF7D02946204609F0E3FB0028F1D005
:1014600023681B68294620469847EBE738BD00BF34
:101470000CDA00001CDA000070B506460D46084C78
:1014800004E02A463146204698471034054B9C42DA
:1014900004D223689B69002BF3D1F6E770BD00BF2F
:1014A0000CDA00001CDA00002DE9F0410746054681
:1014B0000AE007EA0807144B03EB06135B680422F3
:1014C0001968204609F0F7FBD5B195FAA5F6B6FAEA
:1014D00086F60D4C04EB06140123B3406FEA0308B3
:1014E00025EA0305237B002BEED03301064AD358AF
:1014F0001B69002BDDD0204698470028E4D1D8E7AF
:101500003846BDE8F08100BF0CDA00002DE9F0415B
:1015100080460F461D4BD3E8EF5F6A1CC3E8E12FFE
:101520000029F8D16DBB1A4C002607E0636804223D
:101530001968204609F0BFFB01361034154B9C4258
:1015400011D2237B002BF7D0204609F05EFB2368E5
:101550001B69002BEAD0204698470028E6D00123DB
:10156000B3401D43E8E7B8F1000F0BD055B1284652
:10157000FFF79AFF0546002FF8D00A2009F057FB25
:10158000F4E700252846BDE8F08100BF6C0B002081
:101590000CDA00001CDA000008B5064B186018B120
:1015A000054B1B68092B00DC08BD044804F04AFB0E
:1015B000FAE700BF600B0020680B0020D801002074
:1015C00008B5024804F03EFB08BD00BFD80100206A
:1015D00030B589B000220F490F480BF0CEFE0F4DF9
:1015E00000220023CDE90623002404940E23039354
:1015F0000294019400940A4B4FF440720949284622
:101600000BF0BDFC0849284604F096FB204609B0C3
:1016100030BD00BFC1150000280800207003002065
:1016200075190000C0250020D4DC0000014B53F8E0
:1016300020007047F0DC000048B108B5054A106092
:10164000054B1960084600F0F5FC002008BD6FF05E
:1016500015007047080000205C0B002008B5054B02
:101660001B781BB1034B01221A7008BD024804F01D
:10167000E9FAF7E7B01D0020D801002008B50C4BAF
:10168000D3E8EF1F0131C3E8E21F002AF8D130B9D7
:1016900008480BF07EFE084804F0D4FA08BD074B5A
:1016A000D3E8EF1F0139C3E8E21F002AF0D0F7E7C3
:1016B000640B002028080020D8010020680B0020BF
:1016C000044B00200146D3E8EF0FC3E8E21F002AD5
:1016D000F9D17047640B002038B5FFF7F1FF0546DC
:1016E000094C00E01034094B9C420BD263685B79D3
:1016F000002BF7D023685B68002BF3D029462046E7
:101700009847EFE738BD00BF0CDA00001CDA000094
:10171000034B18680028D4BF00200120704700BF89
:10172000640B002010B5044C0449204608F037FF34
:10173000034B1C6010BD00BFF8000020DCDC000083
:10174000580B002008B500230C4A13700C4A136094
:101750000C4A13604FF400410B48FFF76DFFFFF791
:10176000E1FF0A4A06E0094BD31A1B110133516805
:101770000B711032064B9A42F5D308BDB11D002003
:10178000640B0020680B002027AC00000CDA00007E
:101790001CDA000008B50146014809F05EFA08BDF0
:1017A000F800002008B5024808F0DCFF08BD00BFC3
:1017B000F800002008B50146024B186809F053FAFA
:1017C00008BD00BF580B002008B5024809F04FFAC9
:1017D00008BD00BFF800002010B582B00022002331
:1017E000CDE90023264B187808B902B010BD684631
:1017F00009F055FA044660B1FFF720FE2046FFF7D6
:10180000D9FF204BD3E8EF1F0139C3E8E21F002ABC
:10181000F8D1FFF77DFF58B91B4A1368516813F5DB
:101820007A7341F1000113605160FFF7CDFFDCE7EF
:101830000BF094FD4A0142EAD06243011B1A62EBAD
:101840000102920042EA93729B001B1842EB0102D4
:10185000D20042EA5372C3F3103343EA4243D20B3D
:101860000948016840685B1A62EB000240F2E93106
:101870008B4272F10002CFD3FFF72EFFCCE700BFFF
:10188000B01D0020680B0020200800200F4B1B78A3
:1018900003B1704710B500210120FFF737FE0C4C53
:1018A00000E010340B4B9C4208D263685B79002B3C
:1018B000F7D023689B6820469847F2E7FFF78CFF34
:1018C0000028FBD1014B01221A7010BDB11D002070
:1018D0000CDA00001CDA000010B582B0184BD3E817
:1018E000EF2F511CC3E8E01F0028F8D1154B1B78DF
:1018F00063B9154B1B68B3B1BAB1092A13D11348A8
:101900000BF047FD124804F09DF90CE0EFF3118451
:10191000202383F31288BFF36F8FFFF75DFF84F3FB
:101920001188BFF36F8F02B010BD00220023CDE9F4
:1019300000234FF400420023044805F031F8F2E799
:10194000680B0020B11D0020600B0020280800203B
:10195000D801002010B50446044B1B689847A060CE
:101960002146034809F09FF910BD00BF0800002080
:10197000F80000202DE9F04100210846FFF7C6FDE0
:10198000804650B140F2676600270BF00BFE154B06
:101990001858FFF701FE002515E04FF0FF364FF015
:1019A000FF37F2E74046FFF77FFD804670B94FF002
:1019B000FF364FF0FF3709E02C4632463B460A48D7
:1019C00004F084F92546B8F1000FEBD1FFF704FFCE
:1019D00004460028F6D1002DEED000210846FFF77E
:1019E0004BFDEAE708000000D80100200248034B45
:1019F000C01AC008704700BF0CDA0000ACD9000064
:101A000010B50C46FFF7F2FFA04203D9024B53F882
:101A1000340010BD0020FCE7ACD9000000B589B04F
:101A2000059206930023079362B1074A0C9B029329
:101A30000B9B01930A9B009305ABFFF7C7F909B015
:101A40005DF804FB0022F1E7CDAC00002DE9F04F7A
:101A50008BB004AF05461E468846C1F34A24002CCD
:101A600000F0898091460022FA603A617A6104238D
:101A70000293FB1801930A23009307F10C032146FC
:101A80004846FFF7A3F9B0F5006F58D3D9F8041012
:101A90006D4600233B7302237B738AB004AC14F1C0
:101AA000100217D012201AB1042801DD3B4B6361EC
:101AB00000233B7002237B70CAB10346082800DD77
:101AC000A1610C2B02DD40F2FF73E36104F12003FE
:101AD00000210AE06FF00040E5E701F118063E44FE
:101AE00016F8186C03F8016B01310129F5D911289A
:101AF00022DD122342B10421397300217973B973B5
:101B00000121F973F868206100216FF300016FF380
:101B100041016FF382016FF3C501022060F3881168
:101B2000C3F30A0363F353210023C1F313011C48D9
:101B300009F03FF9AD462DE06FF01B03DAE760F3E3
:101B40005328C0F30A0A0AEB1850173020F0070098
:101B50008008FFF71FFE8346B0B104230293FB18F1
:101B600001930A230093534600F110022146484690
:101B7000FFF754FF08E004EB1154173424F0070476
:101B8000A008FFF707FE83463346424629465846DB
:101B900009F0B2F81C37BD46BDE8F08F10DD00003B
:101BA000D4D900002DE9F04F85B080460D46174688
:101BB0001E46DDF838B0DDF84090B9F1000F41D095
:101BC000119B039300934B460F9A10210020FEF7C0
:101BD000A3FEB0F5006F2DD282460BEB0003173346
:101BE00023F0070300246FF300046FF341046FF345
:101BF000820468F3C50467F3881460F353246BF31D
:101C00001F549808FFF7C6FD074650B11030B9F1D0
:101C1000000F06D0119B00934B460F9A5146FEF7DA
:101C20007BFE334622462946384609F065F805B062
:101C3000BDE8F08F40F2FF73034A0221034809F028
:101C4000ADF8F4E70020C7E750DD0000D4D900006C
:101C5000406820B1034BC01A40F3CF0070474FF0EB
:101C6000FF307047ACD900000EB400B582B0014619
:101C700003AB53F8042B0193034801F0FBFA02B0C5
:101C80005DF804EB03B07047E9AD000010B584B017
:101C900011F0440F05D01A4B1B6833B9002004B073
:101CA00010BD1849FFF7E0FFF9E717490968B2FBD3
:101CB000F1F2B2FBF3FC03FB1C224FF47A7E0EFB25
:101CC00002F2B2FBF3F403FB14210EFB01F1B1FBB2
:101CD000F3F10E4AA2FB0C32D20A4FF4616303FB0C
:101CE00012CC0B4BA3FB0CE35B0902910194C3EBF9
:101CF0000311ACEB810100910649FFF7B5FFCEE778
:101D0000740B002088DD0000700B0020C5B3A29189
:101D10008988888894DD000061B108B52AB1064A37
:101D200052F8232012B9054A00E0044A0449FFF79B
:101D30009BFF08BD704700BF34DE0000B0DD00002F
:101D4000B8DD00002DE9F04105461746069EDDF896
:101D50001C8081B900242EB1324611492846FFF774
:101D600083FF0444B8F1000F14D06FB1099B042B1A
:101D700013D00C4909E00C4B099A53F822200B4967
:101D8000FFF772FF0446E6E7064942462846FFF79A
:101D90006BFF04442046BDE8F0810549F5E700BF2C
:101DA000D0DD0000C0DD000048DE0000C8DD00001E
:101DB000BCDD00002DE9F04F87B005460C460492CB
:101DC00005939DF84C7001F0020B01F0010AC1F37C
:101DD000C00801F4807908F06CFF18B30246164978
:101DE0002846FFF741FF0646BBF1000F1CD13A46DB
:101DF0005146284609F01FF8B9F1000F01D0002321
:101E000011930397129B0293119B0193109B0093D4
:101E10000023049A41462846FFF794FF304407B058
:101E2000BDE8F08F0026DFE7059A21462846FFF738
:101E30002DFF0644DBE700BFD4DD000011F0100FDA
:101E40000BD108B511F0200F03D00449FFF70CFFA8
:101E500008BD0349FFF708FFFAE7704714DF0000E9
:101E6000C4E700002DE9F04105460F4616469846A6
:101E70000699FFF7E3FF0024444505DA2449284684
:101E8000FFF7F2FE0134F7E7002409E02049284675
:101E9000FFF7EAFE0BE01F492846FFF7E5FE013495
:101EA0000F2C0CDC002C02DD14F0070FEED0B44236
:101EB000F1D23A5D18492846FFF7D6FEEFE71749F9
:101EC0002846FFF7D1FE002409E011492846FFF714
:101ED000CBFE0BE012492846FFF7C6FE01340F2C5B
:101EE00013DC002C02DD14F0070FEED0B44207D251
:101EF0003A5D0C4B9B5C13F0970FEBD12E22E9E778
:101F000003492846FFF7B0FEE8E7BDE8F08100BFCF
:101F1000CCDD0000E0DD0000D8DD0000E4DD0000E5
:101F2000E8DD0000E9E800002DE9F04184B0044656
:101F30009DF82C500C9F0E9E95B9012B1ED0194870
:101F40004FF0000827B13B462246174908F063F9D5
:101F5000C6B905BB204608F030FF04B0BDE8F081EB
:101F600003950A980290019300920B4600220F9964
:101F70002046FFF71FFF80460C48E3E70B484FF071
:101F80000008DFE70F9B0093434632460D99204639
:101F900008F069FFDDE72A460F99204608F057FF51
:101FA000D8E700BF19AE000075320000E9AD0000AF
:101FB0002DE9F04383B00646056842F20F738B4269
:101FC00028BF0B46184A0521684607F0CFFA044699
:101FD0007368D3F804900B27DFF8508005E04A4679
:101FE00039464046A8473F1A8044002FF7D173680E
:101FF000D3F804806F4605E0424621463846A8479C
:10200000241A0744002CF7D173685F681B24084E1C
:1020100005E03A4621463046A847241A0644002CDB
:10202000F7D103B0BDE8F0834CE0000008DE00000B
:10203000ECDD0000074B01221A6004E04008054A6D
:1020400013685B001360044B9842F7D8034B186089
:10205000704700BF700B002040420F00740B00203F
:1020600070B506460D46002405E0315D04488368DE
:10207000DB6998470134AC42F7D3284670BD00BFF6
:10208000A0D60000014B036000207047B0DE0000C6
:1020900008B5034808F01CF9024808F019F908BD12
:1020A000B0DE0000E8DE000008B5024804F054FD90
:1020B00008BD00BF18DF0000B0F5680F17D00CD8BE
:1020C00040F6BA63984214D0B0F5683F13D03A286E
:1020D00001D00120704700207047094B98420CD076
:1020E000084B984201D00120704700207047002023
:1020F000704700207047002070470020704700BFE5
:102100003A00003A2C5F5CA928B308B54368B3F5E0
:10211000683F0AD0B3F5680F14D012498B421FD024
:10212000006803F0FFFC002014E003680022D3E8FD
:10213000EF1F012903D1C3E8E02F0028F7D10DD10B
:10214000104607E003681B7803F580730020064AF9
:1021500042F8230008BD6FF4E04070470348F9E7F8
:102160000348F7E72C5F5CA900000350E98FFFFFED
:10217000EA8FFFFF88B308B54368B3F5683F0FD017
:10218000B3F5680F19D016498B4224D000684FF080
:10219000FF324FF0FF3303F045FC68B111480BE00C
:1021A00003680122D3E8EF1F002903D1C3E8E02F21
:1021B0000028F7D10BD1002008BD03681B7803F578
:1021C0008073094A52F823301BB90020F4E7054810
:1021D000F2E70448F0E70548EEE76FF4E0407047A7
:1021E0002C5F5CA9E98FFFFF00000350EA8FFFFF1F
:1021F00010B50446A8B16368B3F5683F10D0B3F5D5
:10220000680F0DD00D4A93420AD013F4686F0DD0B9
:1022100021680B480AF03EFD00232360074B6360F2
:1022200010BD084B5B6808489847E4E72368002224
:102230001A605A609A60DA601A61EFE72C5F5CA955
:10224000A01000207C00002020DF000010B5044614
:1022500068B36068B0F5683F28D0B0F5680F25D046
:10226000174B984228D0FFF727FFC0B14FF0FF323D
:102270004FF0FF332146134803F0A2FB08B923684F
:102280001BB9114B5B6811489847236800221A60FC
:102290005A609A60DA601A614FF46863636020687C
:1022A0000AF079FD636843F03A03636010BD064BA2
:1022B0005B6807489847CCE72368002BD3D1D5E764
:1022C0002C5F5CA9A01000207C00002048DF0000EB
:1022D00020DF000008B540231422044904480AF016
:1022E000CAFC0449044804F0FBFC08BDA00B002014
:1022F000A010002078DF00008CDF00002DE9F04105
:1023000082B000AF0446D0F800E0D0F804C0856881
:102310006E468AB06B4613F1100200F088801421DB
:102320008AB10846042903DDDFF81C81C3F8148054
:10233000082801DDC3F818E00C2801DDC3F81CC033
:10234000102800DD1D62132974DD14253AB1052122
:10235000397100217971B971F971786818610021BA
:102360006FF300016FF341016FF382016FF3C50159
:10237000012363F38811C5F30A0565F353216FF355
:102380001F5100233148FFF761FBB546D4F80CC05C
:1023900026696569E8468AB06B4613F110024CD095
:1023A000142182B10846042903DDDFF8A4E0C3F854
:1023B00014E0082801DDC3F818C00C2800DDDE6138
:1023C000102800DD1D6213293ADD14253AB10521DC
:1023D000397100217971B971F9717868186100213A
:1023E0006FF300016FF341016FF382016FF3C501D9
:1023F000012666F38811C5F30A0565F353216FF3CF
:102400001F51124D00232846FFF720FBC546E36904
:10241000104A3146284608F0C1FCA3690E4A3146ED
:10242000284608F0BBFC0837BD46BDE8F0816FF0D8
:10243000004175E76FF01B0588E76FF00041B0E7DA
:102440006FF01B05C2E700BF9CDF0000F4D900005D
:10245000CCDF0000FCDF00000CE0000038B50446D3
:102460000D4611B10846FFF749FF012C04D029465B
:10247000204603F033F838BDEFF30583103B034AE1
:102480000121034808F08AFCF1E700BF3CE00000AE
:10249000F4D9000030BFFFF7FDBF00BF38B50446D8
:1024A000054D2A4605490AF0D3FF054A0021601967
:1024B0000AF0F5FF38BD00BF0000000060DA000040
:1024C0000400000070B50646064D074B1D444C1B2A
:1024D0002046FFF7E3FF083CC6F8A44005F10800DA
:1024E00070BD00BF0000000004000000054B5A69E9
:1024F0009B689A4204D0044A536843F08053536067
:10250000704700BFB412002000ED00E081690D4B60
:102510005A6942F480725A61BFF34F8FBFF36F8FD5
:1025200031F8021C5A6922F480725A61BFF34F8F4E
:10253000BFF36F8F4DF60273994201D000207047B0
:102540000120704700ED00E04FF0000C83F800C060
:1025500002F07F4CBCF17F4F14D102F00C0CBCF1A7
:10256000080F04D012F0080F09D00846704708B5CC
:10257000054A0121054808F007FC002008BD01229A
:102580001A7070470020704750E00000F4D9000036
:1025900008B5314A0121314808F0F6FB304B9B6AFF
:1025A00013F0007F26D11D202D4B9B6A13F0807FF6
:1025B00027D12B4B9B6A13F4801F29D1284B9B6A90
:1025C00013F4002F2BD1264B9B6A13F4802F2DD1AF
:1025D000234B9B6A13F4003F2FD1214B9B6A13F4CA
:1025E000803F31D11E4A936A6FEA03436FEA134377
:1025F000936208BD1B4A0121184808F0C5FB1E2044
:10260000D2E7194A0121154808F0BEFB1F20D0E788
:10261000164A0121114808F0B7FB0220CEE7144A00
:1026200001210E4808F0B0FB2120CCE7114A01211E
:102630000A4808F0A9FB2220CAE70F4A01210748EF
:1026400008F0A2FB2320C8E70C4A0121034808F048
:102650009BFB2420C6E700BF7CE00000F4D900000B
:1026600000ED00E094E00000A8E00000C4E00000FD
:10267000F0E0000010E1000038E1000054E100004B
:1026800008B500230B70034A0121034808F07CFBC6
:1026900008BD00BF80E10000F4D9000090B583B010
:1026A00000AF0F2923DC2F4C103900233B7102238C
:1026B0007B718AB0EC461CF110021AD0122022B1B4
:1026C000042802DD284BCCF8143000233B70022391
:1026D0007B70E2B10346082801DDCCF818400C2BD2
:1026E00001DDCCF81C100CF1200300210DE01F4C83
:1026F000DAE76FF00040E2E701F1080404EB070EAF
:102700001EF808EC03F801EB01310129F4D9112876
:1027100024DD12234AB10421397100217971B97184
:102720000121F9717868CCF8100000216FF30001E5
:102730006FF341016FF382016FF3C501012060F374
:102740008811C3F30A0363F353216FF31F5100236E
:102750000748FFF77BF90C37BD4690BD6FF01B03B0
:10276000D8E700BFA4E10000D8E10000BCE1000010
:10277000F4D90000F8B505460F461446394A012140
:10278000394808F001FB394B9B6A13F0100F31D127
:102790001026364B9B6A13F0080F32D1334B9B6ADD
:1027A00013F0020F34D1314B9B6A13F0010F4BD160
:1027B0002E4B9B6A13F0200F4DD12C4B9B6A13F0CC
:1027C000100F01D1294B9B6A284B9B6A13F0200FF5
:1027D00004D0264A536A23F400535362234A936A6F
:1027E00043F0FF0393620121284608F0D9FB2070D3
:1027F0003046F8BD1E4A01211B4808F0C5FA1126D3
:10280000C7E71C4A0121184808F0BEFA1226C5E79E
:10281000194A0121144808F0B7FA144A536B926A16
:1028200012F0800F01D11326BDE7144A01210E4892
:1028300008F0B4FA37B10D4A936A23F0800393622B
:102840001326B0E71326AEE70D4A0121064808F02B
:102850009BFA1426ACE70B4A0121034808F094FACE
:102860001526AAE7ECE10000F4D9000000ED00E035
:1028700004E2000038E200004CE2000064E20000E4
:102880007CE200009CE20000F8B505460F461446C5
:10289000374A0121374808F077FA374B9B6A13F41F
:1028A000805F25D11626344B9B6A13F4006F26D126
:1028B000314B9B6A13F4007F28D12F4B9B6A13F492
:1028C000806F3FD12C4B9B6A13F4807F41D12A4B00
:1028D0009B6A13F4005F43D1274A936A43F47F4312
:1028E00093620121284608F05BFB20703046F8BD5A
:1028F000224A01211F4808F047FA1726D3E7204A49
:1029000001211C4808F040FA1826D1E71D4A012190
:10291000184808F039FA184A936B926A12F4004F7B
:1029200001D11926C9E7184A0121124808F036FAE0
:1029300037B1114A936A23F4004393621926BCE726
:102940001926BAE7114A01210A4808F01DFA1A2689
:10295000B8E70F4A0121074808F016FA1B26BBE723
:102960000C4A0121034808F00FFA1C26B4E700BF07
:10297000CCE20000F4D9000000ED00E0E4E2000049
:1029800038E20000F8E2000014E300002CE300004D
:1029900048E300009CE2000070B506460D462B4A55
:1029A00001212B4808F0F0F900232B70294BDC6A39
:1029B00014F002040AD1274BDB6A002B0DDB254BF8
:1029C000DC6A14F080440ED1204670BD224A0121F9
:1029D0001F4808F0D9F90024F6E7204A01211C48D5
:1029E00008F0D2F9F0E71E4A0121194808F0CCF9A5
:1029F0003046FFF78BFD98B9164B9B6A13F0FF0F1B
:102A000016D1144B9C6A14F47F4418D1114B9B6A65
:102A1000B3F5803FD8D33046FFF7BAFD0446D3E77D
:102A20003368104A01210A4808F0B8F93468CBE746
:102A30002A4601213046FFF79DFE0446C4E72A4698
:102A400001213046FFF720FF0446BDE760E30000A8
:102A5000F4D9000000ED00E078E300009CE3000002
:102A6000ACE30000CCE3000030B58BB01F4B5D68D9
:102A7000C5F30805002383F31188BFF36F8F0DF1B1
:102A80002603FFF761FD04460DF12702294608F0F1
:102A900089FA9DF827300BB10BB030BD05460DF11A
:102AA000040C20686168A268E368ACE80F00206944
:102AB0006169A269E369ACE80F009DF826304BB16B
:102AC000089BC3F308025AB96FEA53236FEA432302
:102AD000089305E0089B23F4FF7323F00103089398
:102AE00001A92846FFF7BAFCD6E700BF00ED00E0D9
:102AF000064B5A6942F010025A615A6942F48062E8
:102B00005A615A6922F008025A61704700ED00E0EC
:102B1000EFF30880EFF3098101B57246FFF7A4FFD8
:102B200001BD00BF002080F31488BFF36F8F002029
:102B300080F30A8880F30B88104880F3088800200F
:102B40000F49087001F0D4FE00200E490860BFF361
:102B50004F8F00F02FF8202080F311880A484FF49F
:102B60000061401880F30988EFF3148002210843C4
:102B700080F31488BFF36F8F00F0E4F8003A002070
:102B8000B91D002094ED00E0C0280020084BD3F8C8
:102B90009000C0F30720002306E0054AC2F89830F1
:102BA0000021C2F8A01001338342F6DB704700BF5A
:102BB00000ED00E010B572B6002484F31388FFF72F
:102BC000E5FF234608E003F120010E4A4FF0FF30F5
:102BD00042F821000133DBB20F2BF4D9002308E0C7
:102BE00003F16001074A4FF0FF3042F82100013342
:102BF000DBB20F2BF4D962B6BFF34F8FBFF36F8FE9
:102C000010BD00BF00E100E008B50A4B9B6883429D
:102C100002D003F01FFC08BDEFF30583002BF8D0B2
:102C2000054B5A6842F080525A605A6A22F40042B8
:102C30005A62EEE7B412002000ED00E016498A68FF
:102C40004FF030001044EFF3098C80E8F01F202093
:102C500080F31288BFF36F8F104F4FF000664A6900
:102C60008A603E60D2F8A4000D4C2060D2F8A80023
:102C70000023C2F8A83080F3118802F1300090E8F8
:102C8000F01F8CF3098802F1000004B508F0C0F9C8
:102C9000BDE8044070470000B412002004ED00E0DD
:102CA000C01000201EF0040F0CBFEFF30880EFF3FC
:102CB0000980816911F8021C0229FFD001B5724612
:102CC00008F062F901BD00BF002807DB00F01F0219
:102CD000400901239340024A42F82030704700BF68
:102CE00000E100E0002808DB4901C9B200F16040C2
:102CF00000F5614080F80013704700F00F004901B3
:102D0000C9B2014B1954704714ED00E04209054B5C
:102D100053F8222000F01F00012303FA00F01040B6
:102D2000704700BF00E100E0044B23F07F03044A3A
:102D30009360BFF34F8FBFF36F8F704700000000A9
:102D400000ED00E008B5FFF7EFFF074AD2F8883042
:102D500023F47003C2F8883002F082FD03F046FCD1
:102D600000F04EF802F0D8FD00ED00E010B4A2F142
:102D700020040E4942F8081C21F0010142F8081C09
:102D800042F8203C019B42F81C3C029B42F8183C54
:102D9000039B42F8143C4FF0807342F8043C0465F6
:102DA0000023C0F8A83010BC704700BF9D1200007F
:102DB00000B50E4615460B4B9860D0F8A4200A4B80
:102DC0001A60D0F8943083F30B882C4686F3098878
:102DD0000020064B98472046002100220023044C87
:102DE000204700BFB4120020C01000201BB000001C
:102DF0009D120000014B10221A61704700ED00E0A7
:102E0000002207E003F1604303F56143202183F8CA
:102E100000130132442A09DC53B2002BF2DA03F02A
:102E20000F030349194420230B76F2E7704700BFD4
:102E3000FCEC00E008B5EFF30583103B044A02EB1D
:102E4000C301496852F833008847FFF74FFB08BDBC
:102E5000C0D60000074AD2F8FC3043F08073C2F8B5
:102E6000FC30054B00225A601A6842F001021A60D9
:102E7000704700BF00ED00E0001000E0034B0022AF
:102E80005A601A6842F001021A607047001000E0B0
:102E9000014B586800217047001000E008B501F0B0
:102EA00017FD024B1868002108BD00BF5400002028
:102EB00008B5FFF7F3FF024A0023FDF74BF908BD01
:102EC00040420F0010B584B00A4C23460A4A012143
:102ED0000A4808F0D9F90023019302930393084BA1
:102EE0000193E41A0294012101A808F0D1F904B079
:102EF00010BD00BF0000072000000020E8E3000034
:102F000010020020024B034AC3F8C020704700BFE4
:102F100000ED00E0AAFF4400034BC3F89800C3F89B
:102F20009C10C3F8A020704700ED00E00E4BC3F8E2
:102F30009800C3F89800D3F89C000A7A60F3040262
:102F40000A72D3F8A020C2F34202087A62F3471053
:102F50000872D3F89C2022F01F020A60D3F8A03038
:102F600023F01F03CB60704700ED00E070B505460D
:102F70000E46002400E00134A6421EDD04EB4403AB
:102F80009A0005EB830359680029F4D0A85808F08B
:102F9000D5F804EB84030B4A42F8230010F1160F16
:102FA0000CD0094B1B78984209DA04EB840302EB3E
:102FB00083010431FFF7BAFFDDE7002070BD6FF039
:102FC0001500FBE7C4100020B21D002010B5044618
:102FD0000A4BD3F89030C3F30723013B984203D840
:102FE00008F086F8204610BD0346054A0121054831
:102FF00007F0D4FE6FF01500F5E700BF00ED00E02C
:10300000F8E30000ECD900002DE9F04F87B08146CD
:10301000009101931446002648E03346614A01219D
:10302000614807F0BBFE6FF0150407E03B465F4ABE
:1030300001215D4807F0B2FE6FF01504204607B08D
:10304000BDE8F08FD84564D12946C0B208F087F8B2
:103050002BE0574AC2F89870D2F89C3003F01F0357
:1030600021F01F010B43C2F89C302946E0B208F062
:1030700076F8044610F1160FE0D0013415E0013B5C
:103080004B49C1F89870D1F8A02002F01F0223F03C
:103090001F031343C1F8A0302946E0B208F05FF8DF
:1030A000044610F1160FC9D001340136009B9E4230
:1030B000C4DA06EB46054FEA850A09EB85056F6819
:1030C000002FF2D0019B23B1284608F025F80028F4
:1030D000A3D0394659F80A0008F030F8074610F135
:1030E000160FA3D08442A1DD314BC3F89800D3F86A
:1030F0009C2022F01F02C3F89800D3F8A03043F0C0
:103100001F0859F80A306968194401F1FF3B9342DE
:1031100098D093429DD0D845B1D0013B2449C1F805
:103120009870D1F8A02002F01F0223F01F03134370
:10313000C1F8A0302946E0B208F011F8044610F1B9
:10314000160F3FF47BAF0130194BC3F89870D3F8DA
:103150009C109DF8102061F304028DF81020D3F824
:10316000A030C3F34203D2B263F347128DF81020AC
:1031700059F80A306A681344029323F01F03A8EB3E
:103180000B084344013B23F01F03059302A9C0B27F
:10319000FFF71CFF044610F1160F3FF44FAF013448
:1031A00083E700BF20E40000ECD9000044E4000005
:1031B00000ED00E010B5034C01232278FFF724FF57
:1031C000207010BDB21D0020044B0522C3F89420CE
:1031D000BFF34F8FBFF36F8F704700BF00ED00E06C
:1031E000BFF35F8F024B0022C3F89420704700BFEB
:1031F00000ED00E038B51C4B1D681C4BD3F8903037
:10320000C3F307239D422BD8FFF7EAFFFFF77AFEAF
:10321000002407E0144B596801EB0411204607F025
:1032200067FF0134A542F5D81148057007F0B6FFD5
:1032300010F1160F13D00E4B1A780C4BD3F89030B8
:10324000C3F307239A4207DA084BC3F898200021FA
:10325000C3F8A0100132F0E7FFF7B6FF002038BD39
:103260004FF0FF30FBE700BF68E4000000ED00E036
:10327000B21D002030B587B00D46114600240094E1
:103280000194029403940494059402228DF8022080
:10329000044A0192049005951A46684606F092F990
:1032A00007B030BD99B2000008B5024B1B689847C3
:1032B000002008BDD8100020034B1860034A937803
:1032C00043F0020393707047D810002034000020B0
:1032D00008B5064921F00701C1F1005202F5E022CC
:1032E000034806F0E1FE002008BD00BF074A0020A9
:1032F000DC10002068B108B5064A074B1B68074977
:10330000A1FB03139B0C00FB03F042F00103984761
:1033100008BD704770DA00005400002083DE1B43B4
:1033200038B51A4B1B780133194AA2FB031202F479
:10333000FE7101EB92029C1AE5B208F0E9FF154B11
:103340001B782BB1144A52F82530C01A07281AD915
:103350004FF05023D3F8143163B14FF050230022C3
:10336000C3F81421D3F81431084B1D7015B9094B5B
:1033700001221A70054B1C7808F0CAFF064B43F86F
:103380002400012038BD0020FCE700BFB41D002050
:10339000CDCCCCCCB31D0020E810002000B583B00C
:1033A0000DF1070001F0B8FB114B98421CD1114BF5
:1033B0004FF48062C3F8B8254FF40062C3F83C258F
:1033C0000D499DF8070009F067F80C499DF80700C2
:1033D00009F05DF89DF807300120984001F096FB58
:1033E000002003B05DF804FB6FF00B00F9E700BFAD
:1033F0000000AD0B00A002502CA0025028A10250EA
:1034000008B50121104BC3F80015104A0223C2F879
:10341000D0360F48D0F8003223F0E04343F0405359
:10342000C0F80032D0F8043223F0E04343F04053B8
:10343000C0F80432C2F80417C2F80419C2F8001B1D
:1034400000F032F808BD00BF0010005000400050EE
:103450000025845000F01F0240090CD001280CD137
:103460000748803250F8223023F0E04343EA0171EC
:1034700040F8221070470348F3E70020F1E700BF4F
:10348000002884500025845038B50546002405E006
:103490002946044B185DFFF7DDFF0134032CF7D9F3
:1034A00038BD00BFA4E4000008B50249024807F097
:1034B000FCFA08BDA8E40000FC100020F0B583B0C1
:1034C00005460C4616468AB20F4883681B68294693
:1034D00098470346C00F01D103B0F0BD56B118465E
:1034E000FAE708F015FF01903A4601A9A81909F07A
:1034F000AFFF3E44A64204D2A71B042FF1D90427F4
:10350000EFE70020E8E700BF80D6000008B5054BD4
:103510001B7803B108BDFFF79DFC024B01221A7016
:10352000F8E700BFB51D002008B5064BD3E8EF2F24
:10353000511CC3E8E01F0028F8D102B108BDFFF715
:103540009DFCFBE71C11002000487047BC110020C7
:10355000014BC01A401170473411002038B50546A0
:103560000C46FFF7F5FF01464022034807F0A8FF8D
:1035700001462846A04738BD20D6000030B583B0AC
:1035800005460C46FFF7E4FF01464023009323461F
:10359000054A064807F0AEFF011E01DB03B030BD4F
:1035A0002846A047FAE700BF3DB5000020D600003E
:1035B00008B5092817D8DFE800F0051C16161616FE
:1035C0001616171200210D4807F008FF836813F044
:1035D000070F08D10021094807F060FF03E002212E
:1035E000064807F05BFF08BD0321044807F056FFBB
:1035F000F9E70121014807F051FFF4E720D6000068
:1036000010B582B0EFF31184202383F31288BFF347
:103610006F8F154A136843F00201116013F0010F18
:1036200009D1002384F31188BFF36F8FB3B907F07A
:103630008DFF02B010BD0DF1070201214FF05020A7
:1036400007F09DFE9DF80730012B01D00023E9E72C
:10365000FFF77AFF07F010FF0123E3E7002103489B
:1036600007F01CFFE5E700BFE411002020D60000B2
:1036700010B5EFF31184202383F31288BFF36F8F0B
:10368000074A136823F00201116013F0010F04D000
:1036900084F31188BFF36F8F10BD07F06BFFF7E75E
:1036A000E411002070B582B00546012807D14FF023
:1036B0005023D3F81C3403F00303022B36D009F057
:1036C0004BFC044610B92B4B1B7873B9EFF31186F2
:1036D000202383F31288BFF36F8F012494B94FF036
:1036E00050230222C3F808230CE00026F6E7FCB1C1
:1036F000304607F0B2FC4FF05023D3F81835DBB258
:10370000012B19D00DF1070200214FF0502007F0D6
:1037100036FE0028EBD09DF80730022B01D0012D9A
:10372000E5D104B386F31188BFF36F8F02B070BD8B
:10373000012007F033FFDEE74FF05023D3F80431C8
:10374000002BDFD04FF050230022C3F80421D3F820
:1037500004210222C3F81825074A2021C2F880114B
:1037600001229A60CEE74FF050230222C3F80423CF
:10377000DCE700BFB91D002000E100E000B585B026
:10378000CDF800D0CDF804D0002302930123039399
:103790006B46074A07F0CAFE002805DB4FF480425B
:1037A0000023684602F092FA05B05DF804FB00BF02
:1037B000C9B5000070B5064600220121052007F0BA
:1037C0001BFC114801F0B0F9104B984219D101F0DF
:1037D000BDF90024032C12D82146304607F0FEFD27
:1037E00005462146304607F006FE094907F05DF917
:1037F000002805DB0123AB601C44E4B2EAE70020AB
:1038000070BD6FF00400FBE7B13500000000AD0BA8
:10381000B4E4000010B504460E4B0121D3E8EF2FAD
:10382000C3E8E01F0028F9D11AB1631E012B0DD99E
:1038300010BD094807F0DFFD084900234B608B608D
:10384000CB6001238B6007F04CF9EEE72046FFF7D1
:1038500029FFEDE73011002020D6000020110020C4
:1038600010B504460A2806D0E1B206488368DB6931
:103870009847204610BD03488368DB690D219847AF
:10388000F2E700BFA0D6000010B5044C2046FFF7B9
:1038900013FD2046FDF7FCFC10BD00BF61380000A1
:1038A00008B5054809F093F918B1FFF7EDFF0020BE
:1038B00008BD6FF01200FBE7A0D60000F0B51C4673
:1038C000059F069E00F01F0C400936D0012836D116
:1038D000284D0CF1800355F8233091B3012092B3A9
:1038E0004FF0020E40EA0E0084B34FF00C0E40EA97
:1038F0000E0077B34FF4706E40EA0E0066B34FF4DB
:10390000403E40EA0E0023EA000041B30B7842B388
:1039100012785200134334B322789200134327B332
:103920003A781202134316B3327812041343034356
:103930000CF1800C45F82C30F0BD0F4DC9E7002587
:10394000C7E70020CBE74FF0000ECBE74FF0000EAB
:10395000CDE74FF0000ECFE74FF0000ED1E7002388
:10396000D5E70022D6E70022D8E70022DAE70022D6
:10397000DCE700BF002884500025845000F01F03BE
:10398000400908D0012808D1054A803352F82300A5
:1039900000F001007047034AF7E70022F5E700BF97
:1039A000002884500025845028B1012801D1034803
:1039B0007047002070470248704700BF40D60000A3
:1039C00060D600002DE9F04786B088461646994635
:1039D000446801F01F05237B45EA4315204607F0A4
:1039E0009EFE002864D0B6F5001F35D00DF10C0AFC
:1039F0000027039704974946304607F0C5FE8DF827
:103A00000C00009701970297CDF804A0A36823FA51
:103A100008F313F0010F02D1B6F1A07F23D004F117
:103A200010060DF117022946304609F0AAF8234B7B
:103A3000984237D010346A462946204609F095F856
:103A40001E4B984237D101222946204609F0B1F891
:103A5000002006B0BDE8F087294604F1100009F007
:103A6000ACF80020F5E72846FFF788FF0028D6D1FC
:103A70000DF11702294604F1100009F082F8104BED
:103A8000984203D00DF117030493D3E70DF1170209
:103A90004146204607F0B4FE084B9842F2D06FF042
:103AA0000B00D6E79DF81710304609F07AF8C1E709
:103AB0006FF08500CDE76FF01500CAE70000AD0B91
:103AC0000400AD0BF0B589B00F461446456801F00F
:103AD0001F062B7B46EA4316104607F025FE8DF89D
:103AE0001E0040F206332340B3F5837F53D016D82F
:103AF000062B4CD006D9B3F5807F0DD101238DF86C
:103B00001D3024E003B3022B03D104238DF81D30B4
:103B10001DE06FF0150038E06FF0150035E040F261
:103B2000022293423BD0B3F5407F03D103238DF8AB
:103B30001D300CE0B3F5007F03D102238DF81D305A
:103B400005E06FF0150020E000238DF81D3014F41F
:103B5000002F28D06A680123BB409360284607F0F5
:103B6000DEFD40B310350DF11F023146284609F045
:103B700008F8074614F4403F36D13146284609F08C
:103B80000CF83C4B9F426DD0002009B0F0BD0623DD
:103B90008DF81D30DBE707238DF81D30D7E70523AF
:103BA0008DF81D30D3E714F4802FD7D06A68012335
:103BB000BB40D360D2E7C4F340438DF8083014F41F
:103BC000803F0CBF012300238DF8103000240194A6
:103BD0000DF11D0300930DF11E0304AA02A9304646
:103BE000FFF76CFE2046D0E702AA0023029303935E
:103BF000049305930693059204AA3146284608F0DB
:103C0000B4FF1C4B98421DD114F4003F1DD09DF809
:103C10001D308DF8103014F4803F0CBF01230023B9
:103C20008DF811309DF81E308DF81230002304AA53
:103C30003146284608F09DFF0E4B9842A1D06FF008
:103C40001500A2E76FF015009FE70023049305938A
:103C500006930DF11E03049304AA3146284608F08A
:103C600084FFE9E79DF81F10284608F09AFF00201E
:103C70008BE700BF0000AD0B38B504464568284609
:103C800007F04DFD20B91049204607F0F7FC38BD7C
:103C90001035284608F07DFF0028F4D10021284681
:103CA00008F073FF094B98420AD1002208492846C0
:103CB00008F063FF002205210D2007F09DF9E2E7DF
:103CC0006FF00400E3E700BFE7B700000000AD0BB2
:103CD000C1B7000070B400F01F0C400919D00128D2
:103CE00019D10E4D0CF1800055F820600C4C344079
:103CF00041EA420141EA83039DF80C2043EA022392
:103D00009DF8102043EA0243234345F8203070BC5D
:103D10007047044DE6E70025E4E700BF0028845023
:103D2000F0F0FCFF0025845000F01F01400906D090
:103D3000012806D1044A01238B4093607047034A4F
:103D4000F9E70022F7E700BF0028845000258450DF
:103D500000F01F01400906D0012806D1044A0123C2
:103D60008B40D3607047034AF9E70022F7E700BFB2
:103D700000288450002584502DE9F04F85B0074677
:103D80008B469046002423E04FF0FF3535E0C8F81D
:103D90000C55012603963146B5F1FF3F16D0B1F11F
:103DA000FF3F40F0138157F80A3013F4004F02D060
:103DB00001260022039200220192CDF80090C3F365
:103DC0004123324603992846FFF784FF0134E4B2C9
:103DD0005C4580F0FF804FEA840A57F82430C3F333
:103DE000C322C3F30805082A00F2F6807E4911F8C1
:103DF000029040F2FF129542C6D01B0E222B00F219
:103E0000EE8001A252F823F08F3D0000953E0000A5
:103E1000A33E0000AF3E0000BD3E0000CB3E0000D0
:103E2000D73E0000DF3F0000DF3F0000DF3F000023
:103E3000DF3F0000E53E0000F93E0000DF3F0000EC
:103E4000DF3F0000DF3F0000DF3F0000DF3F0000FA
:103E5000DF3F0000DF3F0000DF3F0000DF3F0000EA
:103E60000D3F00001F3F0000313F0000433F0000B6
:103E7000DF3F0000DF3F0000DF3F0000553F000054
:103E8000653F0000713F0000813F0000913F00004E
:103E9000A13F0000C8F81455002603964FF0FF31EB
:103EA0007AE7C8F8085501260396314674E7C8F842
:103EB0001055002603964FF0FF316DE7C8F80855FE
:103EC000002601230393314666E7C8F80C55012606
:103ED0000396002160E7C8F81055002603964FF0BE
:103EE000FF3159E7C8F80855B9F1000F5ED0002638
:103EF00003964FF0FF314FE7C8F80C55B9F1000FAA
:103F00005CD0002603964FF0FF3145E7C8F86055B6
:103F100057F80A10C1F30041012603963CE7C8F8A0
:103F2000645557F80A10C1F300410126039633E7A0
:103F3000C8F8685557F80A10C1F3004101260396E6
:103F40002AE7C8F86C5557F80A10C1F3004101265A
:103F5000039621E7C8F824550126002303934FF068
:103F6000FF3119E7C8F8285501260396314613E7B3
:103F7000C8F830550126002303934FF0FF310BE7BB
:103F8000C8F834550126002303934FF0FF3103E7AF
:103F9000C8F838550126002303934FF0FF31FBE6A4
:103FA000C8F83C55012603963146F5E64E46CDF855
:103FB0000C904FF0FF314FF00609EDE64E46CDF87C
:103FC0000C904FF0FF314FF00609E5E6284607F068
:103FD00036FCE8E6002004E06FF0150001E06FF029
:103FE000850005B0BDE8F08F94E500002DE9F843A9
:103FF00005460F46466808F0AFFF20B9234B1B78F3
:104000000BB3002300E00123D5F810906A68D2F8C2
:104010000080F3B9284607F04BFD0446736813F09F
:10402000040F03D04FF48003C8F80433F36A1F7001
:104030000122F16A284607F087FD84F31188BFF357
:104040006F8FBDE8F8830123DEE784F31188BFF3A7
:104050006F8FEFF31184202383F31288BFF36F8FE8
:10406000284607F025FC0028EFD0D9F80030002BB7
:10407000D4D0D3F8A420002AD0D0D3F8B420002A7A
:10408000CCDAD8F84C25C3F8B420C7E7B91D002016
:104090002DE9F04F85B09846D0F810B0DBF800401D
:1040A000D0F804A0DAF800509AF80830002B40F05D
:1040B000B58081460F46164694F86130002B40F0DB
:1040C000B08094F86230002B40F0AE806365B8F1A8
:1040D000FF3F44D0B8F1040F16DDA3F1993383FB01
:1040E00008234FEAE870C0EB6300C117C90341EA37
:1040F0005041C0034E4BC0184E4A4FF0000341F1EF
:104100000001FCF727F801E000200146A065E16509
:10411000276466640023A364E3642365DAF804304B
:1041200013F0040F20D1DAF8043013F0040F02D09A
:1041300094F8602052BBC5F83475C5F83865002086
:10414000C5F81001D5F81031C5F84C01D5F84C313F
:10415000012384F861302B6005B0BDE8F08F0022A8
:104160000023C4E91623D3E7EFF31183039320233D
:1041700083F31288BFF36F8F0221484607F0D8FC03
:10418000039B83F31188BFF36F8FCCE7B24228BF44
:1041900032469146DAF82810384609F059F94F446A
:1041A000B6EB090614D0B8F1FF3FC4D00023C5F820
:1041B0000831D5F8083104F10800D4E916234FF08E
:1041C00000084FF00009CDE9008902F0E9FBB2E7F1
:1041D00094F86020A2EB0902D2B284F86020DAF8E9
:1041E000280000EB090109F040F90BF10803D3E8BE
:1041F000EF1F41F00401C3E8E21F002AF7D145F3A5
:104200000735002D08DB05F01F026D0901239340DF
:104210004035094A42F8253000209DE76FF08500BF
:104220009AE76FF00F0097E76FF00F0094E700BF79
:104230003F420F0040420F0000E100E0F0B583B0C4
:1042400004461D460669EFF31187202383F3128885
:10425000BFF36F8F3368D3F8A40000BBC3F8A4206A
:104260003368C3F8A01001F06043B3F1005F1DD1C3
:104270003368C3F8A8103368C3F8AC203146204631
:1042800007F07DFC87F31188BFF36F8F204607F09E
:104290003EFB80B3B5F1FF3F10D100202CE087F347
:1042A0001188BFF36F8F6FF00F0025E03368002295
:1042B000C3F8B020204607F0D3FDDFE73468683448
:1042C00025EAE575E917C90341EA5541ED030B48B5
:1042D00028180B4A4FF0000341F10001FBF73AFFA9
:1042E00002460B4600200021CDE90001204602F0E5
:1042F00057FB002000E0002003B0F0BD3F420F005C
:1043000040420F0070B50446056943681E6828687E
:1043100000220A49083009F030F82B68DC6328686D
:1043200000220749683009F028F82B68C3F89C4040
:10433000044BC6F80433002070BD00BFC5BF0000A9
:10434000C1BD000014020A0038B505460C4601F153
:104350000C0000F0E1FB0C4B98420DD105F10C0272
:1043600005F59071207B08F09CF8237B0120984094
:1043700000F0CCFB002038BD044A0121044806F0BF
:1043800003FD6FF00400F6E70000AD0BA0E50000B0
:1043900004DA000038B5044645680121E86807F0F2
:1043A000ACFB63681A682B69C2F824356B7DA97D64
:1043B0000B43298B0B43297D0B43C2F86C352369D2
:1043C0001B6823B12046FFF79DFF002803DB204632
:1043D00007F034FE00B138BD0249204607F037FA35
:1043E000F9E700BFE5BB000021F07F4100F5A870B0
:1043F000014B43F820107047005001504FF48033B8
:104400008340024AC2F84433704700BF0050015055
:104410004FF480338340024AC2F84833704700BFEC
:1044200000500150014BD3F8040570470050015073
:104430002DE9F843054689469046FFF7E9FF2846EF
:1044400007F02EFF4E46032710E0FFF7EBFF044670
:10445000494607F014FFB0F5000F26D9284607F0AB
:104460001FFFB8F1000F22D13E190137314628460F
:10447000FFF7BAFF2846FFF7C1FFFFF7D3FF044657
:10448000C11C304607F0FBFE0A4B98420AD9284669
:1044900007F0F9FE0028D8D1B8F1000FE4D06FF092
:1044A000150000E00020BDE8F8830020FBE76FF076
:1044B0001500F8E7FDFF7F00034B044AC3F808230B
:1044C000C3F84823704700BF0050015003000F009D
:1044D00010B5012383406FEA030C0C4AD2E8EF1FAA
:1044E00001EA0C0EC2E8E4EF002CF7D14FF4803261
:1044F00082400748C0F80823BFF35F8FBFF36F8F78
:104500000B4214BF0120002010BD00BF1412002078
:10451000005001504FF480338340124AD2F80423F4
:10452000134201D10020704710B504460123834097
:10453000DB430D49D1E8EF2F02EA0300C1E8EC0F9D
:10454000BCF1000FF6D122FA04F313F0010F03D1EE
:10455000204607F098FE18B1204607F0A1FE012082
:1045600010BD00BF005001501012002001B970476B
:10457000012383400D4AD2E8EFCF4CEA030CC2E896
:10458000E1CF0029F7D14FF480338340084AC2F8C5
:104590000433084BD3E8AF3FC34013F0010FE6D01C
:1045A000054B4FF40012C3F80021E0E7141200207D
:1045B000005001501012002000E100E038B5144610
:1045C0001046194607F078FE02460D490B68E01ABE
:1045D0001B184C6844F100040B604C60A2F50013FA
:1045E000B3F5400F09D2074B1B68190A1B06D418F4
:1045F00041F10005044BC3E9004502F0D5F838BD90
:1046000030090020181200203809002038B50D4B61
:104610001C68250A2406BFF35F8FFFF703FF0346DC
:10462000001945F10001B3F5801F0AD2064BD3E90A
:104630000023904271EB030303D210F1807041F12B
:10464000000138BD18120020380900202DE9F04182
:10465000064614461D469DF820801046194607F070
:104660002BFE0746FFF7D2FFA04271EB050319D2DC
:10467000201A65EB01011B4B984271F100012BD20E
:10468000194B03EB0613D3E90223AB4208BFA24246
:1046900001D1002014E0424639463046FFF7C8FEFB
:1046A00070B117E0B8F1000F19D10123B3400F4AE0
:1046B000D2E8EF0F1843C2E8E10F0029F8D100203B
:1046C000094B320103EB0616C6E9024506999950DB
:1046D000079B7360BDE8F0816FF01500FAE76FF09B
:1046E0001500F7E7010080002009002010120020CB
:1046F00030B585B0FFF7E0FE00231E4AC2F808354A
:10470000002B25DD1B4C0225C4F804531A4B4FF433
:104710000012C3F8802100220121152006F06CFC54
:10472000152006F064FC0123A3602360134A136084
:10473000002402940194124B0093124A0023204655
:1047400007F0CAFD2846FFF765F8204605B030BDE2
:104750000D4A02EB03124FF0FF304FF0FF31C2E978
:1047600002014FF480329A400249C1F80423013318
:10477000C6E700BF0050015000E100E01412002025
:10478000BD450000FFFF7F00200900202DE9F04714
:1047900082B00446FFF7BEFE10B902B0BDE8F08754
:1047A000FFF734FF82460D4607F089FD0646154B9C
:1047B00003EB0413D3E90289C24575EB09050BD25B
:1047C0000025304607F083FD002DE6D000974246D5
:1047D0004B462046A847E0E70A4A230102EB0411B2
:1047E000D5584F680020D0504FF0FF324FF0FF33C4
:1047F000C1E902232046FFF70BFE204607F050FDDB
:10480000DFE700BF2009002010B50D4BD3F80433BB
:1048100013F0020F03D10024002C0BDD10BD022188
:10482000074807F0F6FC0028F5D0064A1368013364
:104830001360F0E72046FFF7A9FF0134ECE700BF63
:10484000005001501812002010B584B0B0F1FF3FA5
:1048500018D001281BDD154B9842A8BF1846044606
:10486000134B01221A70FFF7D1FE124B1A685B68D6
:10487000801AB0F5000F0CD20444B4F5000F09D330
:104880000A4C07E00A4B00221A70084CEBE701249F
:10489000E6E7064C002012190290019006490091AB
:1048A00043F1000307F018FD04B010BDFFFF7F00C7
:1048B000B81D002030090020BD45000008B5FFF7F5
:1048C000A5FE024B1B68C01A08BD00BF30090020BE
:1048D0004FF05023D3F8582502F00302024BD34087
:1048E000024A1360704700BF0020A1075400002057
:1048F00008B507F091FD68B15D4BD3F8203A4BB98C
:104900005B4B0D22C3F8202A0122C3F81C29002288
:10491000C3F81C2900220BE002F160034FF47F0171
:1049200051F83310DB0003F57F035B680B60013245
:104930001F2A08D802F160034FF47F0151F8333089
:10494000B3F1FF3FE8D107F03FFD30B1484B2922DA
:10495000C3F80C270322C3F83C2707F0E9FC40B159
:10496000444B454AC3F830254FF050230122C3F889
:10497000582507F0F1FC18B1404B0022C3F84C2534
:1049800007F002FD68B14FF05023D3F8003413F064
:10499000010F06D04FF050230022C3F81421C3F8B2
:1049A000182107F005FD60B14FF05023D3F8003413
:1049B00013F0010F05D04FF050236FF00102C3F840
:1049C000002407F015FD18B1294B6522C3F80C2708
:1049D00007F036FD20B1294BD3F82034002B30DB13
:1049E00007F03AFDE8B1224B7E22C3F80C27C3F84A
:1049F0003C29234A7F23C2F818311E490023C1F8FD
:104A0000043EC1F8083E01F54821C1F81031C2F852
:104A10002431C2F82C3102F5FF1202F58052C2F89F
:104A2000A032184AD2F88C3043F44063C2F88C307C
:104A3000154A1168154BC3F84415D269C3F84C25C3
:104A400008BD4FF050230322C3F8182501229A60B5
:104A50004FF05023D3F80431002BF9D04FF05023FE
:104A60000022C3F804210122DA60C3F81825B7E751
:104A700000400050009003504400EFBE002003505F
:104A80000020005000ED00E00080FF0000600050BA
:104A900010B50468ACB1B4FA84F3C3F11F03DBB200
:104AA00001229A4024EA0202D0E8EFCFA44504D1C3
:104AB000C0E8EE2FBEF1000FF6D1EAD10B7002482C
:104AC00010BD0248FCE700BF0000AD0B0200AD0BBB
:104AD0000368CB4013F0010F11D100B50268012328
:104AE0008B401343D0E8EFCF944504D1C0E8EE3FAC
:104AF000BEF1000FF6D1F1D102485DF804FB024887
:104B0000704700BF0000AD0B0400AD0B014BC3F8B4
:104B1000040570470070015008B50146014807F0D0
:104B200066FD08BD58000020054B1B792BB9044BCE
:104B3000186001221A71034870470348704700BF8C
:104B40001C1200200000AD0B0C00AD0B08B5084B8B
:104B50001B680BB107F0E0FC07F0DCFC4FF05023C2
:104B6000C3F818050122C3F81425C3F8802508BD31
:104B70001C12002000B583B0032818D8DFE800F02D
:104B80001A026D6700224FF48073012003F1502355
:104B900000211960196802F1502201211160354A83
:104BA0001268002A5FD04FF05023C3F8040303B00B
:104BB0005DF804FB4FF05023D3F81824D3F81834D1
:104BC00003F003038DF8073012F4803F15D14FF046
:104BD0005023D3F8143413F0010F13D107F09AFCCB
:104BE0008DF807009DF807204FF05023C3F81825D3
:104BF00008224FF482730220C8E70DF1070007F086
:104C0000DDFCEFE74FF05023D3F81C3403F003032F
:104C10008DF807300DF1070007F0D0FC0028E1D037
:104C2000144B1B682BB14FF050230222C3F804230E
:104C3000BDE74FF05023D3F80431002BF9D04FF0EB
:104C400050230022C3F80421D3F80431AFE718221F
:104C50004FF490734FF4807098E720224FF49273D2
:104C60004FF4007092E71A68002AFCD000221A6004
:104C70001B689CE71C12002010B54FF05023D3F89E
:104C8000044302E0194B1B68984774B3B4FA84F0EC
:104C9000C0F11F000122824083009BB203F58073A4
:104CA0009BB2C0B292B224EA020403F15023196805
:104CB0000029EAD0002119601B684FF05023C3F887
:104CC0000823022ADED1D3F81814D3F8183403F0DD
:104CD0000303012BD6D14FF050230221C3F818153E
:104CE000C3F8042301229A60CFE710BD1C120020F4
:104CF00008B50079024B03EB0010FFF7C9FE08BDB1
:104D00006000002070B400F01F0C400919D0012889
:104D100019D10E4D0CF1800055F820600C4C344038
:104D200041EA420141EA83039DF80C2043EA022351
:104D30009DF8102043EA0243234345F8203070BC1D
:104D40007047044DE6E70025E4E700BF00288450E3
:104D5000F0F0FCFF00258450F0B51C46059F069E30
:104D600000F01F0C400936D0012836D1284D0CF137
:104D7000800355F8233091B3012092B34FF0020E17
:104D800040EA0E0084B34FF00C0E40EA0E0077B3F9
:104D90004FF4706E40EA0E0066B34FF4403E40EAB6
:104DA0000E0023EA000041B30B7842B312785200A0
:104DB000134334B322789200134327B33A78120294
:104DC000134316B332781204134303430CF1800CDF
:104DD00045F82C30F0BD0F4DC9E70025C7E700208E
:104DE000CBE74FF0000ECBE74FF0000ECDE74FF0D2
:104DF000000ECFE74FF0000ED1E70023D5E70022E9
:104E0000D6E70022D8E70022DAE70022DCE700BF7D
:104E1000002884500025845000F01F02400907D06C
:104E2000012807D1044B1869D04000F001007047F9
:104E3000024BF8E70023F6E7002884500025845051
:104E400000F01F03400908D0012808D1054A80332B
:104E500052F82300C0F301407047034AF7E70022ED
:104E6000F5E700BF002884500025845000B583B0CA
:104E700084468E460C4B93E8030002AB03E9030023
:104E8000634609E002A901EB830151F8081C086A96
:104E900042F8040B086201330CEB0E009842F1D883
:104EA00003B05DF804FB00BF60DA000000F01F01F2
:104EB000400906D0012806D1044A01238B40136221
:104EC0007047034AF9E70022F7E700BF0028845043
:104ED000002584504309034AD35C00F01F001844A6
:104EE000C0B2704734E6000000487047241200202A
:104EF000004870474CE600002DE9F04184B00546BB
:104F00000C4616461F460846FFF7E4FF804656B398
:104F10002146284607F050FC28B12146284607F0D4
:104F20000BFC002843D12146284607F014FC10B1A1
:104F30007378012B3BD001238DF80F3000230193B0
:104F40000096B31C721C0DF10F012046FFF704FF01
:104F50002879FFF7C9FF08F1080230F8123043F052
:104F6000030320F81230002F3BD02146284607F0DB
:104F700023FC002837D13E782B6806F5A272002169
:104F800043F8221043F822102879FFF7ADFF08F10B
:104F9000080230F8123023F02003DB04DB0C20F889
:104FA00012307B782BB9114804B0BDE8F08110486D
:104FB000FAE7BA78009222463146286807F034FBB7
:104FC0002879FFF791FF024608F1080032F8103007
:104FD0007603B6B2334343F0200322F8103003487F
:104FE000E2E70248E0E70248DEE700BF0000AD0B61
:104FF0000400AD0B70B506460D46144607F09CFB49
:1050000068B13079FFF770FF06462846FFF762FF68
:10501000083036F810305B0B2370024870BD024830
:10502000FCE700BF0000AD0B0400AD0B30B583B052
:1050300005460191002400E00134012C18D80E4BE4
:105040001B5D03F0070202A901EBD30313F8043C34
:10505000D34013F0010FEFD005EB8402012120466D
:10506000FFF704FF55F82430002BE5D0012000E0C5
:10507000002003B030BD00BF44E6000008B5007951
:10508000024B03EB8000FFF703FD08BD700000201A
:105090002DE9F04182B00546884616461F4607F0C6
:1050A000CBFCAEB33A463146284607F0E1FB041E7E
:1050B00020DB2879FFF718FF40F834602879FFF7E4
:1050C00013FF00EBC40047602879FFF70DFF05468A
:1050D0004046FFF7FFFE083035F81030E4B26402B6
:1050E000A4B2234343F4807325F81030094802B07A
:1050F000BDE8F0812879FFF7F7FE0DF10701783060
:10510000FFF7C6FC034B9842F1D19DF80740D0E76A
:105110000048ECE70000AD0B2DE9F04784B00646EF
:105120000C4690460846FFF7D5FE07463079FFF754
:10513000DBFE0546D8F80090B9F1000F21D02146DA
:10514000304607F028FB002843D100238DF80E30AD
:105150008DF80F30019300934B460DF10F020DF1C6
:105160000E012046FFF7F8FD07F1080235F812306E
:1051700023F002039BB225F8123043F0010325F817
:105180001230D8F80430BBB193F80090D3F804A0E3
:105190002146304607F0F0FAE8B1BAF1000F61D1CC
:1051A000083735F8173023F01C039BB225F8173069
:1051B00043EA890325F81730D8F80820002A55D08B
:1051C0005368126821463046FFF762FF04B0BDE81D
:1051D000F0872748FAE707F1080235F8123023F084
:1051E0002003DB04DB0C25F81230BAF1000FD7D016
:1051F000B9F1030F38D8D8F804305B6893F800A0F1
:10520000B9F1000F08D133680AF5A27A002243F8F9
:105210002A2043F82A20C3E7484607F0D5FA034678
:1052200031680AF5A27C51F82C2022F0030241F8E3
:105230002C2022465146306807F0DDF90AF13C0384
:1052400005EB43039C8007F1080235F812304FEA62
:105250004A3A1FFA8AFA43EA0A0343F0200325F880
:1052600012309DE70248B1E70148AFE70148ADE7DA
:105270000400AD0B0000AD0B38B505460C4607F039
:105280004CFA08B9074838BD2146284607F0CDFA40
:105290002146284607F0FBFB204607F022FA024889
:1052A000F1E700BF0400AD0B0000AD0B08B50079BD
:1052B000024B03EB8000FFF70BFC08BD70000020E1
:1052C000F0B583B005460E460079FFF70DFE90F865
:1052D0008C3013B10D4803B0F0BD044660220021AC
:1052E000103008F0DCF82F682879FFF701FE03681A
:1052F0000093002332464FF00041384607F0E9FBA7
:10530000012384F88C30A3670148E4E70C00AD0B5F
:105310000000AD0B2DE9F04782B081460F46904664
:1053200000230093019351686846FFF77FFE4CE02D
:1053300094FAA4F4B4FA84F404F01F05254B9B5DA1
:1053400045EA43152846FFF7C5FD083037F810A099
:10535000CAF3820A0DEB8603E00804F007041A5C26
:105360000121A14022EA01021A542846FFF768FDF4
:10537000034652462946384607F028FB2846FFF7E1
:1053800095FD02AB03EB860353F8084C002CCFD1FC
:105390000136012E0DD8104B9B5D08F10402D9088F
:1053A00003F00703525C22FA03F313F0010FEFD06E
:1053B000E7E700224FF00041484607F071F9D8F8BE
:1053C00004106846FFF732FE08B10026E1E702B09C
:1053D000BDE8F08748E6000044E60000F8B5044662
:1053E0000E461148081A114BA3FB00304009FFF785
:1053F0007FFD0746D4F80413C9B2026841F00041AA
:10540000204607F04DF9051E05DB2A4631462046A9
:1054100007F089FBF8BD3A4631462046FFF77AFF90
:1054200025F00045F1E700BF24120020398EE33853
:1054300008B502490248FFF7D1FF08BD2412002039
:1054400000D00050034B00E02033034A9342FBD3CB
:10545000704700BF20D60000C0D6000004280CD83A
:10546000DFE800F0030D050709000648704706480D
:105470007047064870470648704706487047064818
:10548000704700BF54E6000078E6000088E60000A0
:1054900094E60000A4E6000064E6000030B108B520
:1054A00007F060FD20B1037823B108BD02487047C2
:1054B0000148FAE70048F8E7B4E6000010B50446F2
:1054C000FCF7E4F9034A0121034805F05DFC20469E
:1054D00007F08DFBBCE60000F4D900002DE9F04791
:1054E00082B000AF05460C46EFF31188202383F30A
:1054F0001288BFF36F8FDFF8C491D9F80860FFF707
:10550000ADFF99F81010E94601233B7103237B712D
:105510008AB0EC461CF1100221D04FF0160E5AB1A1
:105520007346BEF1040F03DDDFF894A1CCF814A09C
:10553000082B01DDCCF8185001233B7003237B704E
:10554000D2B17346BEF10C0F01DDCCF81C00102B5C
:1055500001DDCCF820100CF1240300210AE06FF0EB
:10556000004EDCE701F10800384410F8080C03F89D
:10557000010B01310129F5D9BEF1150F50DD1623BC
:105580004AB10521397100217971B9710121F9718F
:105590007868CCF8100000216FF300016FF341012F
:1055A0006FF382016FF3C501012060F38811C3F32B
:1055B0000A0363F353216FF31F5100234148FCF7A3
:1055C00045FACD461CB1E369C3F308035BBB304623
:1055D000FFF764FFE94601233B7103237B718AB027
:1055E000EC461CF1100224D04FF0120E52B173465B
:1055F000BEF1040F02DD3449CCF81410082B01DD94
:10560000CCF8186001233B7003237B70F2B1BEF12C
:105610000C0F01DDCCF81C000CF12003002113E07D
:105620006FF01B03ACE7294A0121264805F0ACFBCB
:10563000CDE76FF0004ED9E701F10800384410F8CB
:10564000080C03F8010B01310129F5D9BEF1110F46
:1056500031DD12234AB10421397100217971B97108
:105660000121F9717868CCF8100000216FF3000176
:105670006FF341016FF382016FF3C501012060F305
:105680008811C3F30A0363F353216FF31F510023FF
:105690000C48FCF7DBF9CD4621462846FFF70EFF04
:1056A00088F31188BFF36F8F3046FDF7ADFA0837E6
:1056B000BD46BDE8F0876FF01B03CBE7B4120020B6
:1056C000CCE60000F4D9000018E70000F4E6000082
:1056D00038B505460B4B53F8204002E02368984745
:1056E00008346B1C074A52F82330A34209D960687A
:1056F0000028F3D0037F13F0010FF1D107F07FFAF8
:10570000EEE738BD40E7000010B5054C01E09847D2
:105710000434044B9C4202D02368002BF7D110BD07
:10572000ACD90000ACD9000010B586B0B023104C45
:1057300003FB004400EB800C0E4B03EB8C030E4A82
:105740000592012204920F220392002202920192FA
:1057500000930A4B4FF4A072094901EB8C112046CB
:1057600000F0FCFA637B23F00403637306B010BD02
:1057700040090020B412002030E7000051CD0000A5
:10578000C030002008B553EA020102D100F038FE13
:1057900008BD0249183000F065FFF9E763D1000049
:1057A00010B586B0184C14E0636A0593236A04931D
:1057B000E3690393A36902936369019323690093E7
:1057C000E368A2686168206800F0C8FA23685C6535
:1057D00030340E4B9C42E7D300F03EFD0A4C00E013
:1057E00030340A4B9C420BD2A26AE36AB3F1FF3F0A
:1057F00008BFB2F1FF3FF3D02068FFF7C3FFEFE728
:1058000000F042FD06B010BDE8D8000048D9000005
:1058100008B50C4B01221A700320FFF759FF05F061
:105820004EFDFCF735FCFFF76FFF0420FFF750FF3C
:10583000FFF7B6FFFBF706F8034A137B23F00103DB
:10584000137308BDB91D0020F009002008B50146FA
:10585000014A0248FDF7ACFA11580000F009002097
:1058600008B50348034A121A002107F0DFF908BD02
:1058700010020020BC1D002010B50446FFF754FFA5
:10588000B0230A4903FB0411094A04EB840302EB29
:105890008303D9601C74074B03EBC42303F5006337
:1058A00004EB840402EB8402536010BD4009002025
:1058B000B4120020C028002070B586B000F016FD9C
:1058C000104D114B5D61114B05930123049300248E
:1058D00003940294019400940D4B4FF400620D491F
:1058E000284600F03BFA06466B7B23F004036B73FB
:1058F000284607F0CEFB2046FFF7BEFF304606B035
:1059000070BD00BFF0090020B412002038E700008D
:10591000115800000032002008B50020FFF7D8FE23
:105920001B4B03F5006282F3088883F30A88194C45
:10593000E02384F822300023E37723766376A3768E
:1059400084F82030626A42F4E022626284F82330F4
:10595000FDF7CEF8FDF74EFA4FF0FF33A362E36296
:10596000FDF748FCFDF7AEFAFBF7ECFE0A4800F045
:1059700057FAFFF767FDFDF743FD0120FFF7A8FE8B
:105980000220FFF7A5FEFFF797FFFFF75FFF00BFBD
:10599000C028002000ED00E0A00A002010B5064C51
:1059A000002000E02034054B9C4204D2204607F042
:1059B00045F90028F6DA10BD7001002070010020C2
:1059C00030B583B00D46EFF31181202484F31288A3
:1059D000BFF36F8F046964B12C6023680361C369EE
:1059E0000133C361002081F31188BFF36F8F03B0CF
:1059F00030BD00F1080C53EA020404D100232B60EF
:105A00006FF00B00EFE7009201930246604600F052
:105A100045FB0028EBD1024B9B681B692B60E6E736
:105A2000B41200202DE9F04182B00446EFF3118753
:105A3000202181F31288BFF36F8FC16899B90029C3
:105A400050D1364B9B6893F90E3023610131E160F0
:105A5000324B9B68A36087F31188BFF36F8F0020E0
:105A600002B0BDE8F08116461D4682682B4B9B684C
:105A70009A42E4D055EA060136D092F90E804146AA
:105A800093F90E0007F071F9804534DC4FF00008FF
:105A90000096019522463946214800F0FFFA002879
:105AA000DED0EFF31185202383F31288BFF36F8FCD
:105AB000A36843B323689C4223D013B3216993F9AD
:105AC0000E0007F052F90146204607F059F9E8B9EF
:105AD000B8F1000F1AD185F31188BFF36F8F6FF003
