:100000001819002081090000434900006D09000013
:100010006D0900006D0900006D0900006D09000008
:10002000000000000000000000000000DD0A0000E9
:100030006D090000000000007D0A00006D0900004D
:10004000450C0000450C0000450C0000450C00006C
:10005000450C0000450C0000450C0000450C00005C
:10006000450C0000450C0000450C0000450C00004C
:10007000450C0000450C0000450C0000450C00003C
:10008000450C0000450C0000450C0000450C00002C
:10009000450C0000450C0000450C0000450C00001C
:1000A000450C0000450C0000450C0000450C00000C
:1000B000450C0000450C0000450C0000450C0000FC
:1000C000450C0000450C0000450C0000450C0000EC
:1000D000450C0000450C0000450C0000450C0000DC
:1000E000450C0000450C0000450C0000450C0000CC
:1000F000450C0000450C0000450C0000450C0000BC
:10010000450C0000450C0000450C0000450C0000AB
:10011000450C0000450C0000450C0000450C00009B
:10012000450C0000450C0000450C0000450C00008B
:10013000450C0000450C0000450C0000450C00007B
:10014000450C0000450C0000450C0000450C00006B
:04015000450C00005A
:10015400F8B5174D284604F06DFE044630B32A69FD
:10016400A9681368284623F0400313600B684FF412
:10017400202206219847002818DB0E4F0E4EAB684C
:10018400402128465B69984700280FDB84F001046E
:1001940014F0FF0414BF39463146084803F090FFB9
:1001A40000214FF4004004F05FFFE8E70020F8BDB1
:1001B400AC520000585700005B5700005F57000026
:1001C400014B1B68184700BF00000020014B18605A
:1001D400704700BF0000002030B585B004460D46CE
:1001E40010220021684604F0B6FF02238DF8023085
:1001F400044B2A4621466846019303F073FF05B079
:1002040030BD00BFC501000080B505460E46174647
:10021400984603F049FB034605F008F80446DFF866
:100224001890424649F8003039463046A84754F8F9
:10023400090000F00BFC00BF080000002DE9F047A6
:10024400058B04462807904611D4022905F00705BA
:1002540040F0CC80204604F08FFA78B10138218B2D
:10026400042811D8DFE800F0C2106D85950001293B
:100274000CBF45F0100545F02005258388F311884F
:10028400BFF36F8FBDE8F08701F0070AAA4500F0BD
:10029400A5800027B9463E46A368002B00F0BC8029
:1002A40041F00801218388F31188BFF36F8FA1689F
:1002B400002900F0BA800D68002900F0B6803346AA
:1002C40052462046D1F80480C047002D76D02B68D2
:1002D40029461D46F0E701F007035A1F012A1BD8DF
:1002E400002221F00701062B276889B2C4E9002205
:1002F40009D13B4603E0628B013262831B68002B09
:10030400F9D141F002012046218304F035FA002896
:100314007AD041F0200176E0042B0AD121F00701C4
:1003240089B22046218304F027FA10B141F020015C
:100334002183218B01F0070AAA454FD00027B94633
:10034400AAE7236921F0070141F00601062DD3F83D
:10035400009021832DD1B9F1000F3FD041F0080165
:10036400218388F31188BFF36F8F20463949C8472A
:1003740029E021F00701236941F0040189B2042D29
:10038400D3F804902183E6D000274FF0040A3E46B8
:1003940082E721F00701236941F0050189B2052DA7
:1003A400D3F808902183D6D000274FF0050A3E46A3
:1003B40072E700274FF0060A3E466DE72B4687E7B3
:1003C400B9F1000FD1D1EFF31188202383F3128800
:1003D400BFF36F8F238B23F008032383258BEA0657
:1003E4002ED525F01003238305F007056669218BBC
:1003F400002EBFF670AF00232768C4E9003321F054
:10040400070141F001012183218B4FF0000901F024
:10041400070AAA457FF440AF002F9CD041F00801A1
:10042400218388F31188BFF36F8F002FC8D03D68F4
:10043400394633465246204604F0CAF92F46F4E7BB
:10044400AB067FF51BAF25F02003238305F00705DA
:1004540000E700BF01480000014B03600020704723
:100464008855000008B5044804F079F9BDE808404F
:10047400024804F074B900BF6E570000A35700008F
:10048400014803F0DBBC00BF8855000038B50446C2
:1004940018B90F4B0F485B6898476168B1F5683F1E
:1004A40010D0B1F5680F0DD00B4DA9420AD011F44C
:1004B4006861206807D00146084804F014FD002351
:1004C4002360656038BD142204F045FEF9E700BFDF
:1004D40060000020D15700002C5F5CA9D8070020E1
:1004E40008B560B34368B3F5683F0ED0B3F5680F41
:1004F40018D0144A934220D000684FF0FF324FF0D6
:10050400FF3302F0DDFD58B115E001220368D3E8A2
:10051400EF1F002903D1C3E8E02F0028F7D10AD147
:10052400002008BD0368084A1B7803F5807352F85D
:100534002330002BF4D00548F3E70548F1E76FF4C6
:10054400E040EEE72C5F5CA900000350E98FFFFF59
:10055400EA8FFFFF08B520B34368B3F5683F09D0BD
:10056400B3F5680F13D0114A93421DD0006802F00E
:100574001FFE14E000220368D3E8EF1F012903D112
:10058400C3E8E02F0028F7D109D0094808BD0021AD
:100594000368084A1B7803F5807342F8231000208F
:1005A400F4E76FF4E040F1E70348EFE72C5F5CA960
:1005B400E98FFFFF00000350EA8FFFFF10B50446E8
:1005C40018B91D4B1D485B6898476368B3F5683FCD
:1005D4002FD0B3F5680F2CD0194A934219D1236850
:1005E40003BB4FF0FF324FF0FF332146154802F0B2
:1005F40039FD08B923681BB90F4B13485B6898474A
:1006040014220021206804F0A6FD4FF4686363609F
:1006140008E0B3F5683F0DD83A2B03D040F6BA6230
:100624009342DED1206804F0A8FC636843F03A03E7
:10063400636010BD054AF3E760000020D157000055
:100644002C5F5CA9D8070020F75700003A00003A55
:1006540008B5064940231422054804F036FCBDE8D9
:1006640008400449044803F05BBC00BFD8020020E2
:10067400D807002090550000A455000030BFFFF7B4
:10068400FDBF00BF2DE9F04105460B4EDFF82C807D
:10069400324606EB0807CC1B2046094904F04EFD00
:1006A400A01942460021083C04F055FD2C6707F1CF
:1006B4000800BDE8F08100BF000000000400000055
:1006C40080550000054B5A699B689A421FBF044A33
:1006D400536843F080535360704700BFCC09002037
:1006E40000ED00E0154B9A6A12F0007F9A6A14BF7D
:1006F4001E201D2012F0807F9A6A18BF1F2012F45A
:10070400801F9A6A18BF022012F4002F9A6A18BF39
:10071400212012F4802F9A6A18BF222012F4003F7D
:100724009A6A18BF232012F4803F9A6A18BF2420C3
:100734006FEA02426FEA12429A62704700ED00E0EB
:1007440010B5194B0246986A9C6A10F4805F14BF76
:100754001720162014F4006F9C6A18BF1820A405F3
:1007640009D5986B986A000404D51AB19A6A22F4E0
:1007740000429A6219200C4B9A6A12F4806F9A6AAA
:1007840018BF1A20D2050CD49B6A13F4005F18BF5B
:100794001C20054A936A43F47F43936200230B7041
:1007A40010BD1B20F5E700BF00ED00E010B51C4BA9
:1007B4000246986A9C6A10F0100F14BF1120102092
:1007C40014F0080F9C6A18BF1220A40709D5586BAF
:1007D400986A000604D51AB19A6A22F080029A62D5
:1007E40013200F4B9A6A12F0010F9A6A18BF142053
:1007F40012F0200F9A6A18BF1520D40658BF9B6ABE
:10080400074B9A6A920642BF5A6A22F400525A620D
:100814009A6A42F0FF029A6200230B7010BD00BF77
:1008240000ED00E0F0B5474B04465B6800258BB053
:10083400C3F3080385F31188BFF36F8F02F07F4081
:10084400B0F17F4F11D102F00C0008280DD0100731
:100854004CBF0C4601250022033B8DF80720032BD7
:1008640005D8DFE803F02462665F2C46F3E7002333
:100874009DF80720CAB902AE04F120073246206869
:100884006168083403C2BC421646F7D1099A002DA8
:1008940053D0C2F3080121B96FEA52226FEA42220F
:1008A4000992184602A904F040F80BB0F0BD254B9C
:1008B400DA6A9107DBD4DA6A002AD8DBDA6A5200F2
:1008C400D5D55A69A16942F480725A61BFF34F8F3A
:1008D400BFF36F8F5A6931F8021C22F480725A6197
:1008E400BFF34F8FBFF36F8F4DF60272914209D061
:1008F4009A6AD2B242B101200DF10701FFF756FF07
:100904000346B5E72368B3E79A6A12F47F4F05D02C
:1009140001200DF10701FFF713FFF1E79B6AB3F51F
:10092400803FA4D3FFF7DEFEEAE700200DF10701C4
:10093400E4E700200DF10701EDE722F4FF7222F055
:100944000102ADE700ED00E0064B5A6942F01002E7
:100954005A615A6942F480625A615A6922F0080263
:100964005A61704700ED00E0EFF30880EFF309816E
:1009740001B57246FFF756FF01BD00BF002080F3AA
:100984001488BFF36F8F002080F30A8880F30B88EC
:100994000F4880F3088801F0C1FB00200D4908606E
:1009A400BFF34F8F00F02CF8202080F311880A4801
:1009B4004FF40061401880F30988EFF3148002219A
:1009C400084380F31488BFF36F8F00F0D7F800005A
:1009D4001819002094ED00E0D80B002000231846DD
:1009E4000649D1F89020C2F30722934200DB7047F6
:1009F400C1F89830C1F8A0000133F6E700ED00E03B
:100A040010B572B6002484F31388FFF7E7FF23467A
:100A14004FF0FF300C4A03F120010133102B42F850
:100A24002100F8D100234FF0FF30074A03F16001A1
:100A34000133102B42F82100F8D162B6BFF34F8F77
:100A4400BFF36F8F10BD00BF00E100E0084B9B684F
:100A540083420BD1EFF3058343B1064B5A6842F04E
:100A640080525A605A6A22F400425A6202F022BF4B
:100A7400CC09002000ED00E014498A684FF03000F2
:100A84001044EFF3098C80E8F01F202080F31288D3
:100A9400BFF36F8F0E4F4FF000664A698A603E6065
:100AA400106F0C4C2060506F0023536780F3118843
:100AB40002F1300090E8F01F8CF3098802F1000085
:100AC40004B503F047FFBDE804407047CC0900209B
:100AD40004ED00E0F40700201EF0040F0CBFEFF358
:100AE4000880EFF30980816911F8021C0229FFD004
:100AF40001B5724603F01FFF01BD00BF40B20028DC
:100B040007DB01234109034A00F01F00834042F838
:100B14002130704700E100E0054B420953F82220E0
:100B2400012300F01F0003FA00F01040704700BFDB
:100B340000E100E040B2002801F10101ACBF00F186
:100B44006040064B4FEA4111C9B2ABBF00F56140AA
:100B540000F00F0080F800131954704714ED00E002
:100B6400044B054A23F07F039360BFF34F8FBFF319
:100B74006F8F70470000000000ED00E008B5FFF73C
:100B8400EFFF074AD2F8883023F47003C2F88830A4
:100B940002F0ACF902F0B0FF00F046F802F0E6F91A
:100BA40000ED00E042F8203C009B0B4942F81C3C5D
:100BB400019B21F0010142F8183C029B42F8081CF9
:100BC40042F8143C4FF0807342F8043C0023203A6E
:100BD40002654367704700BF0D02000000B50B4B70
:100BE40015469860026F0A4B0E461A60036E83F333
:100BF4000B882C4686F309880020064B984720462C
:100C0400002100220023044C204700BFCC0900200F
:100C1400F4070020614900000D0200001022014B7E
:100C24001A61704700ED00E0002320210348C21838
:100C34000133452B82F80013F9D1704700E100E03D
:100C440008B5EFF30583064A103B02EBC30152F8E3
:100C5400330049688847BDE80840FFF733BD00BF4B
:100C64000C5300001FB5094C094A234601210948C9
:100C740000F0FAF800230393074B0121E41A01A8BA
:100C84000193029400F0FAF804B010BD00000720AC
:100C940000000020B45500001801002010B50C7AA3
:100CA4000B6804F01F0223F01F031A43CB68640986
:100CB40023F01F03054943EA440343F00103C1F849
:100CC4009800C1F89C20C1F8A03010BD00ED00E0F0
:100CD40010B5074BD3F89030C3F30723013B984278
:100CE40002D8FFF7DBFF10BD6FF01500FBE700BF74
:100CF40000ED00E02DE9F04F0F46144606464FF094
:100D040000084D4D85B0B84580F29280D6F8049025
:100D1400B9F1000F36D0B9F11F0F40F2878019F0F6
:100D24001F0F40F08380D6F800A01AF01F0F7DD16A
:100D3400504603F04FFE834609EB0A00013803F0E6
:100D440049FE834572D11BF1160F6FD05C456DDDF2
:100D5400C5F898B0D5F89C10C5F898B0D5F8A0306F
:100D640021F01F0143F01F0AD6E900321A449942C8
:100D740002F1FF391ED1CA4508D131465FFA8BF022
:100D840003F031FE08F101080C36BCE73146C5F822
:100D940098B0D5F89C3022F01F0203F01F031343D0
:100DA400C5F89C30E0B203F01EFE10F1160F3DD0E2
:100DB400441CE7E7C5F898B0D5F8A020013B23F020
:100DC4001F0302F01F021343CA453146E0B2C5F8BF
:100DD400A030E8D003F007FE10F1160F26D0C5F8B6
:100DE40098B0D5F89C209DF808300AF1FF3A62F3D8
:100DF40004038DF80830D5F8A0309DF808205B086E
:100E040063F347128DF80820D6E9003213440093A7
:100E140023F01F035344A3EB0903013023F01F0302
:100E24006946C0B20393FFF753FFBEE76FF01504A2
:100E3400204605B0BDE8F08F00ED00E00522044B2C
:100E4400C3F89420BFF34F8FBFF36F8F704700BF79
:100E540000ED00E0BFF35F8F0022024BC3F8942043
:100E6400704700BF00ED00E010B5034C2278FFF797
:100E740041FF207010BD00BFD00B00202DE9F74FBB
:100E8400294D8A4606464FF00008AB46274FD04509
:100E94001BDAD6F80490B9F1000F3FD03168084648
:100EA400019103F097FD0199044609EB0100013813
:100EB40003F090FD84424FF014021D4B08D002FB56
:100EC40008F36FF015024BF8032003B0BDE8F08F70
:100ED40014F1160F2C60F8D01978A142F5DD02FB4D
:100EE40008B0C7F89840C7F89840D7F89C4000F17C
:100EF4000801007B64F304000871D7F8A0000C79A2
:100F0400400860F347140C71D7F89C1021F01F01BE
:100F14006960D7F8A01021F01F01296108F10108C8
:100F240014350C36B3E700BFF807002000ED00E0ED
:100F3400D00B0020F0B54149414CD1F890302568E0
:100F4400C3F307239D4287B075D80020FFF782FFC3
:100F54003C4BC1F8C030854216D13B4C01A82570EA
:100F6400FFF77AFA00250646384FAE4213D1002027
:100F740023783249D1F89020C2F30722934254DBFC
:100F8400FFF75CFF00202FE0616801EB0011FFF721
:100F940085FE0130DFE70199280101EB0513DA68CA
:100FA4003A40B2F5001F21D0B2F5800F2BD0B2F534
:100FB400801F38D15A689B680958013B22F01F00F2
:100FC40003440120844623F01F0340EA4C10CDE97A
:100FD40002218DF8100002A920780593FFF778FE0E
:100FE40000281DDA6FF0150007B0F0BD5A689B6841
:100FF4000958013B22F01F0003444FF0020C01206A
:1010040023F01F03E1E75A689B680958013B22F06B
:101014001F0003444FF0000C062023F01F03D4E705
:1010240023780133237001359FE7C1F89830C1F864
:10103400A00001339EE74FF0FF30D5E700ED00E05C
:10104400C0550000AAFF4400D00B00200000F0FFB0
:1010540008B5024B1B689847002008BD0C08002007
:10106400034B044A1860937843F00203937070476B
:101074000C0800202400002008B50649064821F089
:101084000701C1F1005202F5E02203F00EFB00203B
:1010940008BD00BF1F19002010080020054B03EBFA
:1010A4008000D0F8003223F0E04343F04053C0F80E
:1010B4000032704700258450052370B5144D154E39
:1010C4002C780134B4FBF3F303EB8303E41A03F049
:1010D40007FE114A137823B156F82430C01A0728A2
:1010E40014D94FF05023D3F8141141B10021C3F89F
:1010F4001411D3F814312C700CB9012313702C780B
:1011040003F0EEFD46F82400012070BD0020FCE74A
:10111400D20B00201C080020D10B0020012208B5AE
:101124000B4B0C49C3F8002502230020C1F8D0362C
:10113400FFF7B4FF1046FFF7B1FFC1F80427C1F869
:101144000429C1F8002BBDE8084000F0A5B800BF91
:10115400001000500040005007B50DF1070001F0E9
:1011640001F90F4B984218D14FF480620D4B0E4990
:10117400C3F8B8254FF40062C3F83C259DF8070076
:1011840003F0C5FD9DF80700084903F0BBFD0120ED
:101194009DF80730984001F0DFF803B05DF804FBD8
:1011A4000000AD0B00A002502CA0025028A1025058
:1011B40048B1054B054A1B68B3FBF2F35843044B93
:1011C40043F00103184770473400002040420F00E9
:1011D40080550000002170B5104C114D114E0007D0
:1011E40014F8013B03F01F025B090FD0012B0FD150
:1011F400334603EB8203D3F80022013122F0E042AC
:1012040002430429C3F80022EAD170BD2B46F0E75B
:101214000023803253F82230FFDE00BF375800002D
:1012240000258450002884502DE9F0410646012011
:101234000D46FFF7CFFF4FF47F03D3F83021D3F8E7
:101244003431072A20D1023B032B02D8114AD35C44
:10125400D3B14FF050244FF0010800270520C4F803
:101264001886C4F8147603F04BFD4046C4F814867F
:1012740003F046FDC4F81476C4F8187630462B46BD
:10128400BDE8F041002118474FF050230022C3F875
:101294001426F3E7335800000149024803F0BBBAAF
:1012A400EC55000030080020084B70B5C31A0D46F9
:1012B40007499B10044659434022064803F0CBFBE0
:1012C4002B4601462046BDE87040184760080020C0
:1012D400B76DDBB68C520000402373B50B4C009302
:1012E400041B0B460D460A49A41061430646094AED
:1012F400094803F0DCFB011E05DA30462B4602B038
:10130400BDE87040184702B070BD00BF60080020FF
:10131400B76DDBB61D4B00008C52000010B5EFF327
:101324001184202383F31288BFF36F8F074A136855
:1013340023F00201DB07116002D4012003F0F3FC67
:1013440084F31188BFF36F8F10BD00BF0009002024
:101354002DE9F8430022012106460520FFF7EAFBA8
:10136400114801F07FF8114B984219D101F08AF825
:1013740000244FF01C090C27DFF8348035694146FE
:1013840009FB045003F047FA002807DB012307FB9D
:1013940004551C44042CAB67F0D10020BDE8F8834D
:1013A4006FF00400FAE700BFB11400000000AD0BB9
:1013B400F85500001FB500220123CDE902236B4636
:1013C400084ACDF800D0CDF804D003F09EFB0028E5
:1013D40005DB4FF480420023684601F06DFF05B041
:1013E4005DF804FB534B00000C22104B014602FB3A
:1013F4000033002030B4D3E91C521867EFF3118096
:10140400202484F31288BFF36F8F9C6F04F0C00410
:1014140044F002049C6780F31188BFF36F8F1DB101
:101424002B4630BC0248184730BC70476008002087
:101434008C52000010B4EFF31182202383F312883E
:10144400BFF36F8F1748016841F002040460C807B6
:1014540007D482F31188BFF36F8F012010BC01F011
:1014640029B84FF05021D1F80C04D1F80C14C90755
:10147400EFD5EFF3118083F31288BFF36F8F0A491E
:101484008B6F03F0C00343F002038B6780F3118872
:10149400BFF36F8F82F31188BFF36F8F002010BCEE
:1014A400FFF7A2BF0009002060080020092813D814
:1014B400DFE800F005101212121212120E0C074B84
:1014C400986F10F0070007D1FFF78EBF0220FBE7EB
:1014D4000320F9E70120F7E7704700BF6008002008
:1014E4002DE9F041012207463649D1E8EF3FC1E832
:1014F400E02F0028F9D133B9334934484B60CB602D
:101504008A6003F09BF97B1E012B2BD8012F07D196
:101514004FF05023D3F81C3403F00303022B21D0E3
:1015240003F032FD0546F8B9294B1B78E3B14FF0BF
:10153400502302220646C3F808234FF05024DFF854
:101544009480D4F81824D4F81834D20315D503F0B1
:101554000303022B01D0012F0FD16DB386F3118841
:10156400BFF36F8FBDE8F081EFF31186202383F37F
:101574001288BFF36F8F0125DFE7C5B1304603F052
:101584000DFAD4F81835DBB2012BDAD1D4F80421E2
:10159400002AD6D00022C4F80421D4F8042102225F
:1015A400C4F818252022C8F88021A360C9E70021C7
:1015B400212003F059FDE4E74FF050230222C3F841
:1015C4000423CFE75C0800204C0800207C0800209E
:1015D400D50B002000E100E008B5074803F02AFC21
:1015E40038B10648FFF73CFD0448FEF7EFFD002044
:1015F40008BD6FF01200FBE7EC5200000516000076
:101604000A2838B50446074D04D1AB680D21284695
:101614005B689847AB6803485B68E1B2984720462B
:1016240038BD00BFEC520000F0B51646426801F028
:101634001F04107B87B044EA40141069002871D05D
:10164400B6F5001F02F1100506D12146284603F025
:10165400EAFB002007B0F0BD0027B6F5800F01A813
:101664000197476039D1B3F1007F14BF05230423E8
:101674008DF804300023CDE90403039393680DF13E
:10168400030723FA01F111F001013DD1B6F1A07F66
:101694003AD104F01F03620903F1800328D0012A20
:1016A40046D1254A52F82330DB072DD43A46214649
:1016B400284601F009FA214B98421BD00297214693
:1016C400284603AA01F0B8F81D4B98422DD10122F7
:1016D4002146284601F050FABBE7B3F1C06F05D0AC
:1016E400B3F1007F14BF01230223C1E70323BFE743
:1016F400144AD7E73946284601F036FA104B984287
:10170400DCD06FF00B00A5E73A462146284601F0ED
:10171400DBF90B4B9842D2D128469DF8031001F017
:101724001BFACCE76FF0850094E76FF0150091E7A2
:1017340051F82330FFDE00BF002884500400AD0BB5
:101744000000AD0B002584504209034670B502D059
:10175400012A17D070BD0D4E326951680029F9D0A5
:10176400012503F01F030C689D400029F2D08A680C
:101774002A4002D030464B6898472CB12368214652
:101784001C46F2E7024EE7E72346F8E7CC52000096
:10179400AC52000038B545682B69B3B11035284602
:1017A40001F0D0F9044680B90146284601F0A6F9B3
:1017B400084B98420BD122462846074901F07EF98E
:1017C400224605210D20FFF7B5F9002038BD6FF042
:1017D4000400FBE70000AD0B4D1700002DE9F043BA
:1017E40040F206354668D00648BF0320337B02EA40
:1017F400050558BFC2F3401087B001F01F07B5F5C7
:10180400837F144647EA43178DF8030043D00FD86B
:10181400062D18D007D8B5B1022D3ED06FF01500B3
:1018240007B0BDE8F083B5F5807FF7D101250AE064
:1018340040F20222954232D0B5F5407F31D0B5F561
:10184400007FEBD1022522032DD5012372688B4042
:101854009360326982BB07F01F037F092AD0012FEE
:1018640077D13E4A02EB830284F48033D2F800122B
:10187400C3F30043C4F3404444EA430421F47061D5
:1018840044EA800421F00F0144EA05230B43C2F823
:1018940000320020C4E70725D5E70425D3E7052552
:1018A400D1E70325CFE7630341BF012372688B406F
:1018B400D360CEE72A4AD5E71036394630460DF1D3
:1018C400020201F001F914F4403F80460CD139467C
:1018D400304603F0A6FA234B9845DAD130469DF8FA
:1018E400021001F039F9D4E74FF0000901AB394691
:1018F400304603AACDE90439CDE90199CDF80C901D
:1019040000F09AFF174B984288D114F4003315D095
:101914009DF8033084F48034C4F300448DF80E3011
:1019240039464B46304603AA8DF80C508DF80D40CD
:1019340001F042F80B4B9842CDD06FE7CDE9043368
:1019440039460DF10303304603AA039300F074FFF4
:10195400F0E7803352F82330FFDE00BF00288450C4
:10196400002584500000AD0B036803F01F025B09DF
:10197400026004D0012B034818BF002070470248BE
:10198400704700BF00288450002584502DE9F04F93
:101994001546834640F2FF18DFF88891DFF888A1E6
:1019A40085B000EB8101594503D1002005B0BDE8A5
:1019B400F08FDBF80030C3F3C322082AC3F3080412
:1019C40000F2AA801B0E444508BF4FF0FF3419F8FB
:1019D4000270222B00F2A380DFE803F012191F2209
:1019E400252B22A1A1A1A13A67A1A1A1A1A1A1A1F5
:1019F400A1A16A7F8285A1A1A1888F9295989B005D
:101A0400C5F80C45601C5DD10BF1040BCBE7C5F8A0
:101A14001445621CF8D000265DE0C5F80845F1E7DE
:101A2400C5F81045F5E7631CC5F80845ECD0002659
:101A340004E0661CC5F80C45E6D0012603A803940F
:101A4400FFF792FF0122039B02FA03F3C36008E04D
:101A5400C5F80845002FDCD1631CD5D00026062725
:101A64003246DBF80030039403F40040002818BF2A
:101A7400002203A818BF012601930092FFF774FF08
:101A8400039C019B00EB8400D0F80042C3F3412C7B
:101A9400009A3B0243EA8C03134304EA0A042343F7
:101AA40043EA4603C0F80032AEE7C5F80C45D1E777
:101AB400C5F86045601CDBF80030A5D0C3F30043D3
:101AC400002BBAD0012603A80394FFF74DFF039B14
:101AD40006FA03F383603246C3E7C5F86445E9E7D1
:101AE400C5F86845E6E7C5F86C45E3E7C5F824455D
:101AF400621C89D001260022B3E7C5F8284581E796
:101B0400C5F83045F4E7C5F83445F1E7C5F838457C
:101B1400EEE7C5F83C4575E76FF0150046E76FF052
:101B2400850043E75E580000F0F0FCFF2DE9F0412A
:101B340004460D46476803F027FA4FF0200888B999
:101B4400264B1B7873B16426606803F07DF8F0B906
:101B5400012003F0D5F8013EF6D10021212003F045
:101B640083FAF0E7EFF31186314688F31288BFF366
:101B74006F8F606803F068F8A8B986F31188BFF323
:101B84006F8FEFE786F31188BFF36F8FE5E7EFF30D
:101B94001186314688F31288BFF36F8F606803F0B3
:101BA40053F80028EED0FB6900201D706368FA69C1
:101BB4001B68C3F844250122C3F84825C3F8200153
:101BC400D3F82041C3F85801D3F858019A6081F33F
:101BD4001188BFF36F8FBDE8F08100BFD50B0020E3
:101BE400F8B50546002201210820FEF7A3FF0820CE
:101BF400FEF784FF6C680121E06803F056F86B6817
:101C040019682369C1F82435A27D637D207D1343BF
:101C1400228B02431343C1F86C356E68D6E9004346
:101C240013F0010342D02F6907F1080000F09AFB7A
:101C34002D4B984254D1387A04F10C0204F590717A
:101C440003F06AF8387A012707FA00F000F084FB01
:101C54000823C4F80035F369C4F844350023C4F8F4
:101C64004835A760D4F85831002BFBD00026C4F8BF
:101C740000656B683146D86803F017F86D68314623
:101C8400E8682C6803F011F80823C4F800352A7AB0
:101C940052B92B6AC4F834350123C4F83835C4F872
:101CA4001021D4F8102123600020F8BD0822C4F8C4
:101CB4000025F269C4F84425C4F848350123A3601B
:101CC400D4F82031002BFBD00023C4F82031D4F801
:101CD40020310123E3604FF48073C4F80433C1E777
:101CE4006FF00400E1E700BF0000AD0B0123834067
:101CF40070B5DC430B4AD2E8EF1F01EA0405C2E8E1
:101D0400E65F002EF7D14FF4803282400648C0F8D7
:101D14000823BFF35F8FBFF36F8F0B4214BF012003
:101D2400002070BD2C0900200050015070B40E49F1
:101D340022F07F46D1E90034D01AC31844F10004DC
:101D4400C1E90034A6F50013B3F5400F09D2074BDF
:101D54001B681A0A1B069C19054B42F10005C3E9CE
:101D6400004570BC01F0A4BF280100203009002008
:101D740030010020D9B101230D4A8340D2E8EFCFCE
:101D84004CEA030CC2E8E1CF0029F7D14FF48033C9
:101D9400084A8340C2F80433074BD3E8AF3FC3403B
:101DA400DB0742BF4FF40012044BC3F80021704715
:101DB4002C090020005001502809002000E100E017
:101DC4000D4B1868010A0006BFF35F8F0B4BD3F865
:101DD4000435181841F10001B3F5801F0AD2084BED
:101DE400D3E90023904271EB030303D210F1807016
:101DF40041F10001704700BF30090020005001503C
:101E0400300100202DE9F04F85B016461F460446E8
:101E14009DF840A0FFF76AFF0190FFF7D1FFB042A1
:101E240071EB070352D23B4B301A67EB0101984226
:101E340071F100014DD2384B03EB0413D3E90223B3
:101E44009F4208BF964258D04FF48038334908FA6D
:101E540004F8204626F07F4BC1F8488302F034FF93
:101E64004FF00309584604F15005AD00ADB205F139
:101E7400502504F5A87305F580350293029A20F0E5
:101E84007F4341F82230C1F84483D1F80435244A11
:101E9400C01A033820F07F4090422ED9286868B1D8
:101EA400D1F80435A3EB0B0020F07F40B0F5000F10
:101EB400039322D9204602F007FF039BBAF1000FD7
:101EC40007D109EB030009F10109D7E7BAF1000FC3
:101ED40009D06FF0150520460199FFF74BFF2846FE
:101EE40005B0BDE8F08F01230E4AA340D2E8EF0FFE
:101EF4001843C2E8E10F0029F8D107490E982301DD
:101F0400C8500F9B01EB04120025C2E9026753601D
:101F1400E1E700BF010080001801002000500150DB
:101F2400FDFF7F00280900207FB500254FF0FF301A
:101F34004FF0FF31194C1A4B0226C4F80833C4F889
:101F44004833184BC4F80855C3E902014FF48033F1
:101F54004FF40012C4F80433134B0121C4F8046392
:101F64001520C3F880212A46FEF7E4FD1520FEF76C
:101F7400C5FD01230D4AA360236013600C4B0D4A79
:101F8400009328460023CDE90155FFF73BFF304677
:101F9400FFF7A6FA284604B070BD00BF00500150F8
:101FA40003000F001801002000E100E02C090020CC
:101FB400311D0000FFFF7F002DE9F7432E4BD3F8BE
:101FC400042390070BD5D3F8042142B10022C3F8AF
:101FD40004212A4AD3F80431136801331360264AD2
:101FE400D2F80433D90326D5254BD3E8EF1F21F0CB
:101FF4000100C3E8E40F002CF7D1CB0702D4D2F8D8
:102004004031C3B100251C4CC4F84051D4F84031D0
:10201400FFF7D6FEEFF31182202383F31288BFF378
:102024006F8F184BD3E90267B042B94106D282F3ED
:102034001188BFF36F8F03B0BDE8F0834FF0FF3812
:10204400D3E900104FF0FF391D60C3E902894FF452
:102054008033C4F84833C4F84051D4F8403182F393
:102064001188BFF36F8F0029E5D0009032463B46BC
:1020740028468847DFE700BF0050015030090020A0
:10208400280900201801002030B5431C124C85B0EB
:1020940005D08442A8BF0446012CB8BF0124FFF731
:1020A4008FFE0E4B0C4DD3E90013401AB0F5000F10
:1020B4000FD22218AA4228BF2A46002052180849E3
:1020C400CDE90100009143F10003FFF79BFE05B049
:1020D40030BD2A46F1E700BFFFFF7F002801002042
:1020E400311D000008B5FFF76BFE024B1B68C01AD8
:1020F40008BD00BF280100204FF47F03D3F830212E
:10210400D3F83431072A05D1023B032B02D8024A03
:10211400D05C7047002070477958000008B5FFF77D
:10212400EBFF58B1644BD3F8202A3AB90D21C3F818
:10213400201A0121C3F81C19C3F81C290022D3005A
:1021440003F57F03D3F80013013107D0D3F800134C
:102154000132D3F80433202A0B60F0D1FFF7CCFF0F
:10216400002840F0A080FFF7C7FF40B1534B544A0A
:10217400C3F830254FF050230122C3F858254FF4FB
:102184007F03D3F83021D3F83431072A09D1023B35
:10219400032B06D84B4AD35C1BB100224A4BC3F82D
:1021A4004C25FFF7A9FF50B14FF05023D3F800247A
:1021B400D10742BF0022C3F81421C3F818214FF4F9
:1021C4007F03D3F83021D3F83431072A09D14FF0F3
:1021D4005023D3F80024D20744BF6FF00102C3F8A0
:1021E4000024FFF789FF18B16522334BC3F80C278D
:1021F4004FF47F03D3F83021D3F83431072A16D1B2
:10220400314BD3F82034002B11DA4FF05023032242
:10221400C3F8182501229A60D3F80421002AFBD0C0
:102224000022C3F804210122DA60C3F818254FF410
:102234007F03D3F83021D3F83431072A23D1023B6A
:10224400032B02D8214AD35CEBB17E221A4B1B49E3
:10225400C3F80C27C3F83C297F231D4AC2F8183160
:102264000023C1F8043EC1F8083E01F54821C1F835
:102274001031C2F82431C2F82C3102F5FF1202F5F4
:102284008052C2F8A032134AD2F88C3043F440632F
:10229400C2F88C30104A114B1168C3F84415D26946
:1022A400C3F84C2508BD2922034BC3F80C2703228D
:1022B400C3F83C2757E700BF00400050009003508C
:1022C4004400EFBE75580000002003507158000010
:1022D4000020005000ED00E00080FF00006000508E
:1022E40030B50468ACB1B4FA84F30122C3F11F031E
:1022F400DBB29A4024EA0202D0E8EF5FA54204D19F
:10230400C0E8EC2FBCF1000FF6D1EAD102480B7003
:1023140030BD0248FCE700BF0000AD0B0200AD0B6E
:1023240010B50368CB40DB0710D401238B4002684F
:1023340043EA0201D0E8EF4F944204D1C0E8EC1F15
:10234400BCF1000FF6D1F2D1014810BD0148FCE701
:102354000000AD0B0400AD0B014BC3F8040570473E
:10236400007001500146014800F044B938000020D3
:102374000328F7B506462ED84FF05021364B374A7E
:1023840033F81000925DC1F8080300250A440121C6
:1023940042F210744FF05027314B116033F816306D
:1023A4008E4203F150231D601B688DF8071008BF8F
:1023B4000DF10705022E32D0032E40D0012E1CD081
:1023C400D7F8183403F480333DB923B1012002F067
:1023D40097FC013CF0D103B0F0BDD7F8182402F00B
:1023E40003022A70002BF6D09DF807000128F2D1D1
:1023F40002F086FC013CDDD1EDE7D7F80C3403F4A0
:1024040080333DB9002BE6D0012002F079FC013C79
:10241400F3D1E0E7D7F80C2402F00102E1E7D7F8A2
:102424005C3403F480333DB9002BD4D0012002F096
:1024340067FC013CF3D1CEE7D7F85C24ECE7D7F88E
:102444005434DB03C7D5002DCED1012002F058FC53
:10245400013CF4D1BFE700BF505700007D58000095
:1024640048570000044B1A7922B9012218601A71E6
:102474000248704702487047340900200000AD0B41
:102484000C00AD0B08B50A4B1B6833B10520FEF7F1
:1024940043FB10B90520FEF731FB4FF05023012216
:1024A400C3F81825C3F81425C3F8802508BD00BF58
:1024B4003409002010B5032845D8DFE800F01802DD
:1024C400554F00224FF480730121002003F1502363
:1024D40018601C68012402F150221460284A126812
:1024E400002A47D04FF05023C3F804132BE04FF0D9
:1024F4005023D3F81814D3F81824C90312D502F0C2
:102504000303022B05D0012B02D00020FFF730FF7C
:1025140001234FF050220221C2F8183508224FF44B
:102524008273D2E7D3F81424D207F1D5D3F81C244C
:1025340002F00302013A012AE7D8114A12681AB1DB
:102544000222C3F8042310BDD3F80421002AFBD0CF
:102554000022C3F80421D3F80431F4E718224FF41D
:1025640090734FF48071B0E720224FF492734FF4CC
:102574000071AAE71A68002AFCD018601B68E2E719
:1025840034090020F8B54FF0502301250026D3F874
:102594000443174F04B9F8BDB4FA84F0C0F11F0026
:1025A400830003F580739BB203F1502305FA00F214
:1025B400196892B224EA02040029EBD01E601B6859
:1025C4004FF05023022AC3F808230DD1D3F818146E
:1025D400D3F8181401F00301012905D1C3F8182513
:1025E400C3F804239960D5E73B68C0B29847D1E7A4
:1025F400340900200079024B03EB0010FFF770BE92
:1026040040000020036803F01F025B09026004D04D
:10261400012B034818BF002070470248704700BFD1
:102624000028845000258450034A4309D35C00F0F9
:102634001F001844C0B270478158000070B50546A9
:10264400FFF7F2FF0C4C083034F810300E46DA0570
:1026540008D5C3F3432304EBC302284654F83330AC
:1026640052689847A3682BB131462846E268BDE812
:102674007040184770BD00BF3C09002008B5FFF743
:10268400D3FF034B083033F81000400B08BD00BFE4
:102694003C09002008B5FFF7C7FF034B083033F8A7
:1026A4001000C0F3400008BD3C09002008B5FFF746
:1026B400BBFF034B083033F81000C0F3401008BDD3
:1026C4003C090020034611F0010010B5CCB20BD137
:1026D400A207C4F340000DD5074A106A586010627F
:1026E400003818BF012005E004490A6A1A600A622A
:1026F400002AEDD010BD00BF00288450002584506E
:1027040010B5FFF791FF124A083032F81030D9059E
:102714001CD5C3F3432123F4F85322F810300020CE
:1027240002F10E0434F8023F13F4807F03D0C3F3A4
:10273400432399420AD001303028F3D1002342F8D0
:1027440031300448BDE81040FFF7EABD10BD00BFBA
:102754003C090020B4090020F0B5044600200125FE
:10276400064601F1A05101F55151104A89008A42EF
:102774000BD10F4BD3F87C2132B10022C3F87C215A
:10278400D3F87C3140F00040F0BD02F13043A3F5B2
:1027940051439B0805FA03F31C4204D0176817B190
:1027A4001660176818430432E1E700BF00D10050F7
:1027B40000D00050F7B506460846FFF735FF1A4F1C
:1027C40000F1080537F815300C46DB072AD53046EA
:1027D40002F003FB2046FFF769FF58B12046FFF7DC
:1027E4004DFF0022316800B201EB8003C3F81025CD
:1027F400C3F810252046FFF783FF002301A827F81C
:1028040015300194FFF7FEFE019B00EB8300D0F826
:102814000022064B134043F00203C0F80032044880
:1028240003B0F0BD0348FBE73C090020F0F0FCFFD7
:102834000000AD0B0400AD0B2DE9F04316468046B5
:1028440085B00846FFF7F0FE0C463168054609B32B
:102854002046FFF71FFF18B12046FFF727FF10BBE4
:1028640000230DF10F02CDE900338DF80E308DF801
:102874000F3020460B460DF10E0102F056FA4A4A7B
:1028840005F1080132F8113023F0020343F001038B
:1028940022F8113073687BB320461F785968FFF71C
:1028A400F9FE10B1E9B1414829E03F4A05F10800B9
:1028B40032F8103023F02003DB04DB0C22F8103054
:1028C40079B1032FEFD87168D1F804E0D8F800107B
:1028D4009EF800C001EB8C01A7B9C1F81075C1F8CE
:1028E4001075314A05F1080132F8113023F01C0348
:1028F40043EA870322F81130B3685BBB2C4805B068
:10290400BDE8F083D1F810E543EA4C332EF0030E12
:10291400C1F810E5D8F8001043F0200301EB8C0E49
:10292400DEF8101522F8103021F44F3121F44071F3
:10293400CEF810152102DEF8108501F47C5141EA2D
:10294400074141EA0801CEF8101502EB4C01A1F849
:102954007C40C6E72046D3E90067FFF7D1FE002E8E
:10296400CCD0114CD4E90023964203D19F4201D12B
:10297400002209E00F480DF10F01FFF7B1FC0C4BE9
:102984009842BCD19DF80F2004EBC20308355F6068
:1029940034F8153044F8326043EA422343F4807338
:1029A40024F81530AAE700BF3C0900200400AD0B51
:1029B4000000AD0BB40900202DE9F0430C4680461D
:1029C40085B0204611461D46FFF72EFE064629B364
:1029D4002046FFF75FFE18B92046FFF767FE18BBD5
:1029E400334F06F1080937F8193013F01C0F02D0E1
:1029F4004B78012B18D001238DF80F3000234A1C8B
:102A0400CDE9001320468B1C0DF10F0102F08DF966
:102A140037F8193043F0030327F81930002D44D058
:102A24002046FFF737FE18B9224805B0BDE8F08309
:102A3400002295F800C0D8F800301D4F03EB8C033A
:102A4400C3F81025C3F8102506F1080237F8121050
:102A54004FEA8C0E21F02001C904C90C27F812108A
:102A64006E7816B3D8F80000AD787044D0F81035FD
:102A7400360423F4991323F4F853C0F810352302D1
:102A840003F47C5306F440362D05D0F810E53343A7
:102A940005F480152B4341EA4C3143EA0E0341F01F
:102AA4002001C0F8103527F812100348BDE700BF15
:102AB4003C0900200400AD0B0000AD0B014BC3E941
:102AC400021270473C09002010B508461446FFF76F
:102AD400EDFD50B10846FFF7A7FD054B083033F86C
:102AE400103004485B0B237010BD0348FCE700BFA3
:102AF4003C0900200000AD0B0400AD0B70B50E4C7A
:102B0400064694F88C50A5B96022294604F11000B9
:102B140002F021FB3068C0F87C51D0F87C3140F3DE
:102B24000730FDF7EBFF0123044884F88C30A367DA
:102B340070BD0348FCE700BF3C0900200000AD0B5A
:102B44000C00AD0B034B93F88C00003818BF012028
:102B5400704700BF3C0900200079024B03EB800062
:102B6400FFF7DEBB500000200079024B03EB80002E
:102B7400FFF7B6BB50000020F7B5054608461646D9
:102B8400FFF794FD0C462968F0B12046FFF782FD5B
:102B94000746C8B92046FFF771FD04B2A40004F546
:102BA40080728F508A5829682144D1F8102542F048
:102BB4000102C1F810252EB10122296802FA00F39E
:102BC400C1F8043303B0F0BDD1F804332046002B20
:102BD400A4BF4FF00043C1F80433FFF725FD0F4BAA
:102BE400083033F81030C3F38203042B11D0052BC3
:102BF40011D001A80194FFF705FD019A0369D340A0
:102C040003F00103991C204603B0BDE8F04002F034
:102C1400D5B80321F7E70221F5E700BF3C090020FE
:102C24002DE9F04F634B0821D3F8040387B0C0B2F9
:102C340040F00040FFF790FD051E2BDA002303212E
:102C440004A8CDE90433FFF73DFD4FF000094FF030
:102C5400010BDFF864A10DF110081AF8013B574984
:102C6400DA088A5C03F0070322FA03F3DA071CD4B8
:102C740008F10408B9F1000F14D000214FF000400E
:102C8400FFF76AFD032104A8FFF71CFD0028DCD12F
:102C940025F000450124474E494F002D75D107B05A
:102CA400BDE8F08F4FF00109D7E7464B4B44009342
:102CB400D8F800100029DBD091FAA1F1B1FA81F122
:102CC400009B1C7841EA44142046FFF7ADFC3C4BC2
:102CD400083033F81070C80818F8002001F0070114
:102CE4000BFA01F122EA0102BB0808F8002003A84C
:102CF40001930394FFF786FC039A019B803250F8FA
:102D04002220C7F382065B073746C2F3014221D56E
:102D140020463946D6B2FFF791FC03A80394FFF787
:102D240071FC039B803350F82330C3F301439E426C
:102D340007D10021204602F041F83146204602F036
:102D44003DF803A80394FFF75DFC039B0BFA03F320
:102D54000362ADE7022A0CD10321204602F02EF8CB
:102D640006F00503012BECD139462046FFF766FC3B
:102D7400E7E702212046019202F020F8032EF3D067
:102D8400019A032ADDD1022EEDE795FAA5F3B3FAF1
:102D940083F304FA03F225EA020503F5A27256F856
:102DA400221007EB4303B3F87C00C1F30141FFF7A2
:102DB40045FC72E700D0005091580000A056000076
:102DC4003C0900209158000038B5EFF31185202309
:102DD40083F31288BFF36F8F064B9C6802F03DF8B3
:102DE40085F31188BFF36F8F2046BDE83840FDF7A7
:102DF4002DBE00BFCC09002038B50A4B53F8204043
:102E0400013053F82050A54200D838BD606830B175
:102E1400037FDB0701D402F023F80834F3E72368C7
:102E24009847FAE7A4560000012270B52A4B032004
:102E340086B01A70FFF7E0FFFEF78EF9FDF712FB7C
:102E44000420FFF7D9FF254C254D2646AE4204F158
:102E5400300410D300F034FC204C224EAC4226D374
:102E640000F042FCFDF774F91F4A137B23F00103C1
:102E7400137306B070BD54F80C3C059354F8103C21
:102E8400049354F8143C039354F8183C029354F8F4
:102E94001C3C019354F8203C009354E90A2354E960
:102EA4000C0100F02FFA54F8303C5E65CDE7D4E90C
:102EB4000A23B3F1FF3F08BFB2F1FF3F05D052EA46
:102EC4000301206803D100F0CBFC3034C6E731465F
:102ED400183000F05BFEF8E7D50B002034550000F5
:102EE4003455000065500000B801002008B50348BF
:102EF400034A0021121A01F0CAFF08BD180100207C
:102F0400D80B00200023012270B586B0CDE904233C
:102F14000F220193CDE9023214234FF4A0720E4D17
:102F24000E4E03FB00550E4906EBC016044602FB89
:102F340000110C4B3046009500F0E4F9737B2C74BF
:102F440023F004037373084B013403EBC423EE60D2
:102F54006B6006B070BD00BFCC09002038010020B2
:102F6400D8130020594F0000D80B0020BFB5002013
:102F7400FFF742FF2A4B03F5006282F3088883F3CC
:102F84000A880024E023274D274F85F82230EC7768
:102F94002C766C76AC7685F820406B6A43F4E0239B
:102FA4006B6285F82340FDF7CFFCFDF737FE4FF049
:102FB400FF33AB62EB62FDF7BDFFFDF753FE1B4829
:102FC40000F0DEF901F035FFFEF7A8F80120FFF765
:102FD40013FF0220164DFFF70FFF00F0B9FB154B4E
:102FE40015495D61154B4FF4806205930123284612
:102FF400CDE90343CDE901443B46009400F082F956
:1030040006466A7B284622F004026A7301F0FCFF3C
:103014002046FFF777FF3A4631462846FDF7DEFDA6
:10302400D80B002000ED00E02D2E00003802002017
:10303400B8010020CC090020181500209358000086
:10304400002038B5054C064DAC4200D338BD2046AF
:1030540001F021FF0028F9DB1C34F5E7C80000204B
:10306400C800002073B50C46EFF31181202585F3C9
:103074001288BFF36F8FC5685DB125602B68C3608C
:10308400836901338361002081F31188BFF36F8F5B
:1030940011E052EA030603D16FF00B002560F3E759
:1030A400CDE900230246083000F050FA18B9034B6A
:1030B4009B681B69236002B070BD00BFCC0900206F
:1030C4002DE9F341044617461E46EFF311882023E9
:1030D40083F31288BFF36F8FC368334A7BB1806870
:1030E4009168884219D057EA060318D188F31188E9
:1030F400BFF36F8F6FF00F0002B0BDE8F0819168ED
:1031040091F90E100133E36093682161A36088F3A1
:103114001188BFF36F8F0020EEE72169F2E791F980
:103124000E1090F90E306FF07E029942A8BF194636
:103134009142B8BF11468B422DDD01F016FF0546C2
:1031440022464146CDE90076184800F0FFF90028F0
:10315400E1D0EFF31186202383F31288BFF36F8F3E
:10316400A068D0B1236821699C420AD04BB193F97D
:103174000E309942A8BF19466FF07E039942B8BF3A
:10318400194601F0F2FE40B13146084800F072FAE7
:103194006FF00A00B0E70025D2E7002DF4D186F3E2
:1031A4001188BFF36F8FF3E7CC090020D60B002002
:1031B400F8B583680546002B3FD0234A92689342B2
:1031C4003ED1C368012B03D9013BC3600020F8BD85
:1031D400EFF31187202383F31288BFF36F8F016904
:1031E400806801F0C2FE2C68A54207D10023C5E91E
:1031F400023387F31188BFF36F8FE7E7002CF5D014
:10320400D4E90032002613605A60637BC4E9006687
:1032140023F002036373A66004F1180001F062FF57
:10322400AC6094F90E3020462B61A66701F0ECFEE9
:103234003946064800F01EFAC8E76FF01500C6E7E5
:103244004FF0FF30C3E700BFCC090020D60B0020AD
:1032540070B5EFF31186202383F31288BFF36F8FC9
:103264000468A0421AD0CCB1D4E90032002513601E
:103274005A60637BC4E9005523F002036373A560BD
:1032840004F1180001F02EFF2046A56701F0BCFEF2
:103294003146BDE87040074800F0ECB9D0E902328D
:1032A4009A4218BF0133836086F31188BFF36F8F8E
:1032B40070BD00BFD60B002013B5EFF3118120249D
:1032C40084F31288BFF36F8F846844B1013C846037
:1032D40081F31188BFF36F8F002002B010BD52EA52
:1032E400030406D181F31188BFF36F8F6FF00F00D1
:1032F400F3E7CDE900230246014800F027F9ECE7A3
:10330400D60B00202DE9F043984685B000F1580310
:10331400C0E91633109B002603730423073222F0FE
:10332400070543730F9B01EB05090F468373494659
:10333400C0E906668660C6730446FDF7A3F90E9BD2
:10334400073020F00700A066C4E9187502930D9BAE
:10335400A9EB000901930C9B4A4600933946434666
:103364002046FDF71FFC054B66659B6803B1DB6EC9
:103374004846E36605B0BDE8F08300BFCC090020F1
:1033840040F2011383810023C0E91833C366014B63
:1033940098607047CC0900206FF00A01084A9368CE
:1033A4009967084958674B6843F080534B60002382
:1033B40083F31188BFF36F8F9368986F704700BFD2
:1033C400CC09002000ED00E070B590F90D20437B9E
:1033D400002A36DBD90634D11B4C63F07F03224626
:1033E400437352F8183FE169934207D1C0E90021C1
:1033F4000860E06111E09942F8D01B68002BF5D019
:1034040090F90E5093F90E60B542F4D0AE42F2DD5D
:103414005968C0E9003108605860A569954200D038
:1034240005B9E568A3685A7BD20604D1DA897F2AF4
:1034340001D9AA6932B1AB4202D0284600F004FB9C
:10344400656170BD6361FCE7CC09002038B590F973
:103454000D200146002A437B04DA03F07F03437303
:1034640001F098FD0D4D2A4652F8184FAB6894426E
:1034740000D004B9EC688B4207D05A7BD20604D141
:10348400DA897F2A01D9A2692AB1A34202D020464F
:1034940000F0DAFA23466B6138BD00BFCC09002086
:1034A400B3F1FF3F08BFB2F1FF3F03D00249183028
:1034B40000F06CBB704700BF6550000070B590F918
:1034C4000D200146002A437B04DA03F07F03437393
:1034D40001F060FD1C4C4B7B224663F07F034B7371
:1034E40052F8183FE069934207D1C1E90020016016
:1034F400E16111E09842F8D01B68002BF5D091F9F6
:103504000E5093F90E60B542F4D0AE42F2DD586825
:10351400C1E9003001605960A569A368954200D0F3
:1035240005B9E5688B4207D05A7BD20604D1DA8903
:103534007F2A01D9AA692AB1AB4202D0284600F0F9
:1035440083FA2B46636170BDCC090020F8B5DDE930
:1035540006670D4B0C46986811460C4A1060EFF351
:103564001182202282F31288BFF36F8F9D68284650
:1035740001F022FD284632463B46FFF791FF2046E4
:10358400BDE8F840FFF708BFCC090020EC09002093
:10359400F8B50446EFF31187202383F31288BFF3B1
:1035A4006F8F437B49B203F01F02002A0CBF012630
:1035B400002639D103F07F032D4D437301F0EAFC5B
:1035C4002A46437B817363F07F03437352F8183FA9
:1035D400934227D1E869C4E900200460EC610FE05C
:1035E4009842F8D01B68002BF5D093F90EC06145C2
:1035F400F6D08C45F4DD5968C4E900310C605C6098
:10360400AC69944200D004B9EC68AB689C4202D027
:10361400204600F019FA6C6187F31188BFF36F8FAD
:103624003046F8BDE869DEE79B071ED5856801F0E2
:10363400B1FC81732B689D4209D16B68C4E90053C6
:103644001C606C60E8E76A689342F6D01B68002B44
:10365400F3D093F90E209142F5D08A42F3DD5A68F3
:10366400C4E9003214605C60D6E78173D4E700BF1C
:10367400CC09002049B9EFF3058030B9054B5A69EC
:103684009B689A4201D0FFF787BE81F31188BFF38C
:103694006F8F7047CC090020034648B9EFF30582C9
:1036A40032B9064A51699268914201D0FFF774BE5B
:1036B40083F31188BFF36F8F704700BFCC090020DC
:1036C400EFF31181202383F31288BFF36F8F054B2F
:1036D4009A68D37B013BD37381F31188BFF36F8F57
:1036E400704700BFCC09002070B5EFF3118620238A
:1036F40083F31288BFF36F8F144DAB68DA7B01320A
:10370400DA732A4652F8184F944200D004B9EC6890
:103714005A7BD20604D1DA897F2A01D9A2692AB157
:10372400A34202D0204600F08FF923466B6186F352
:103734001188BFF36F8FEFF31180202383F3128876
:10374400BFF36F8FBDE87040FFF7A6BFCC09002020
:10375400024B03F11802C3E906227047CC0900208A
:1037640070B5EFF31186202383F31288BFF36F8FB4
:103774001B4CA168E0690B68814214BF1A46002201
:1037840049680B605960A368E1692AB9154AC3E91D
:1037940000210B60E3610CE093F90E0092F90E50E6
:1037A400A84218D0854216DD5168C3E900210B6098
:1037B4005360A5690B4B9D4200D005B9E568A36829
:1037C4009D4202D0284600F03FF965613046BDE8CD
:1037D4007040FFF7E1BD8A42D8D01268D5E700BF38
:1037E400CC090020E4090020F8B550EA010306469C
:1037F4000C4603D1FFF7B4FF0020F8BDEFF31187A7
:10380400202383F31288BFF36F8F124D124BA868E5
:103814001860FFF71BFEA868234632460F4918308C
:1038240000F0B4F9AA680446537B384643F0040315
:103834005373FFF7B1FDAB68D3E90A23B3F1004F2B
:1038440008BF002AD8D101F075FC201A20EAE070E4
:10385400D3E700BFCC090020EC090020655000002C
:1038640038B50446EFF31185202383F31288BFF3A0
:103874006F8F437B5B070FD5183001F033FC637BFC
:10388400204623F004036373FFF79EFD2946BDE839
:1038940038400448FFF7EEBE85F31188BFF36F8FFD
:1038A40038BD00BFD60B0020014B9868704700BF9D
:1038B400CC0900202DE9F8430446077BEFF311857A
:1038C400202383F31288BFF36F8F437B190705D539
:1038D40085F31188BFF36F8FBDE8F883D90943F0EE
:1038E40008025AD14273A36813B1204601F05AFB6F
:1038F40004F1180001F0F6FBA66D04F15808B04578
:1039040011D04FF0000976B1304601F04BFB06F1BF
:10391400180001F0E7FB3046C6F87890FFF754FD35
:10392400A66DB045EFD1DFF8B880D8F808309C42D6
:103934003BD1EFF30589B9F1000918BF4FF0010934
:10394400D8F81860274A964200D00EB9D8F80C600F
:10395400B34202D0304600F077F8C8F81460B9F1E9
:10396400000F02D02048FFF70BFDD8F808309C4226
:1039740031D1EFF3058373BB227BD20718D42846D9
:10398400FFF70AFDFB07A7D5002383F31188BFF3D4
:103994006F8F0423184602DF9EE703F07F0343F092
:1039A4000803437301F0F6FA9DE74FF00009C7E7F7
:1039B40085F31188BFF36F8F83F31188BFF36F8F83
:1039C4000423184602DFEFF31180202383F31288C7
:1039D400BFF36F8FD4E785F31188BFF36F8FD1E7FF
:1039E400CC090020E4090020380200200122044B05
:1039F400C01A044BC0105843034B1A54704700BFFD
:103A0400B8020020ABAAAAAAD60B0020C3897F2B38
:103A140012D80A4B1B6863B1094B90F90E201B683E
:103A24009A4209DB437BDB0606D1064BC31A18BF57
:103A3400012303F0010070470023FAE7540000203B
:103A4400F00900203801002070B50E4B0E4C1E7C8E
:103A5400054606EB460304EBC304204601F042FB93
:103A640000220A4B28469A55FFF7D0FF48B1084B6D
:103A74002046BDE870401A680649013AD31700F0A1
:103A840085B870BDCC090020B8020020D60B0020F8
:103A940054000020F139000038B5EFF311852023DC
:103AA40083F31288BFF36F8F104B114A9C68106820
:103AB400A04206D1FFF7C8FF85F31188BFF36F8FCB
:103AC40038BD00211B7C11600A4AD35C002BF3D063
:103AD4002046FFF79BFF0028EED0637BDB0602D174
:103AE4002046FFF7EBFC2046E4E700BFCC090020AA
:103AF400EC090020D60B0020074808B5074A0849FE
:103B0400121A01F0C6F9BDE808400648064A0749FA
:103B1400121A01F0BEB900BF0000002018010020F5
:103B2400A85800000000002000000020A858000051
:103B3400024B1868984208BF0020704758000020C4
:103B4400034B1B680BB9FEF7CDBA0020704700BFCA
:103B5400F409002030B570B10B4B5B6898420AD071
:103B6400036843B1D3E90421D0E90445121941EBB8
:103B74000501C3E90421D0E9003213605A6000232F
:103B8400C0E9003330BD00BF58000020B3F1FF3F4F
:103B940008BFB2F1FF3F2DE9F84F04469946154698
:103BA4001F467BD08160EFF31188202383F31288B2
:103BB400BFF36F8F013279F1FF33DFF8E8A020DB28
:103BC400FFF7BEFFDAE90027013549F100092D1896
:103BD40049EBE07306464FF00109C4E90453AD18FC
:103BE40043EB0707FFF7A4FF0346DFF8BCE0DEF86A
:103BF40004A0EBB9C4E900EACAF80040CEF80440D6
:103C040028E06FF00103DAE900125B1A4FF0FF318C
:103C140061EB02025B1B62EB0902012B72F10001F2
:103C2400BCBF012300224FF00009C0E90432D9E7E8
:103C3400D3E9041CD4E904208A4270EB0C0B24DA87
:103C4400891A5A686CEB0000C3E90410C4E9003215
:103C540014605C60FFF76CFF84420ED1134B1B6849
:103C64005BB9B9F1000F02D1FFF76AFF064630468F
:103C740001F021FA0021FEF707FA88F31188BFF357
:103C84006F8F28463946BDE8F88F521A60EB0C0056
:103C94009A45C4E90420ADD01B68AAE700252F4645
:103CA400EFE700BFD002002058000020F4090020F4
:103CB4002DE9F047EFF31185202383F31288BFF336
:103CC4006F8FDFF8A0900026C9F800000027FFF7E7
:103CD4002FFFDFF89480D9F80030D8E900ECD91729
:103CE40050B1D0E90442A34271EB020A1BDAE41A90
:103CF40062EB0102C0E90442002413EB0E034CEB17
:103D040001012046C8E90031C9F8004001F0D3F9A7
:103D14002146FEF7B9F985F31188BFF36F8FBDE82B
:103D2400F047FFF7B9BE14EB0E024CEBE473C0E9A5
:103D34000467C8E90023FFF70DFF85F31188BFF37B
:103D44006F8F83689847EFF31185202383F31288DC
:103D5400BFF36F8FD9F800301B1BC9F80030FFF791
:103D6400E7FEB8E7F4090020D002002010B5EFF315
:103D74001184202383F31288BFF36F8FFFF7E0FED3
:103D84000346054AD2E90001181841EBE37184F3B4
:103D94001188BFF36F8F10BDD002002010B50A4CFC
:103DA40023681BB101232360002010BD00F0F4F848
:103DB4000028F7D00138072803D8044B53F8200013
:103DC40010BD034810BD00BFF8090020BC56000018
:103DD400FE8FFFFFBFF34F8F0549064BCA6802F4FD
:103DE400E0621343CB60BFF34F8F00BFFDE700BF1A
:103DF40000ED00E00400FA0530B44FF0FE32002577
:103E04000B4B0C4C0C494968C3F80024C3F8042438
:103E1400C3F80824C3F80C24C3F81024C3F81424EA
:103E2400C3F81824C3F81C24C4F8005530BC084750
:103E3400005084500040845060000020024BD0E9C0
:103E44000012C3E9001270476000002010B5044658
:103E540050B1636813F0685F05D0064A934202D0FC
:103E640000236260236010BD034B04485B689847DD
:103E7400EFE700BF2C5F5CA960000020DC56000067
:103E8400C8B143680D4A934213D013F0685F0ED053
:103E9400012350E8002F194640E8001C9CF0000F55
:103EA400F7D1012AF5D0BFF35F8F00207047044893
:103EB4007047044870476FF4E04070472C5F5CA97A
:103EC400E98FFFFFEA8FFFFF034680B1426809498B
:103ED4008A420AD012F0685F05D0BFF35F8F0022D8
:103EE40010461A60704704487047044870476FF4DE
:103EF400E04070472C5F5CA9E98FFFFFEA8FFFFF6A
:103F040010B5044620B10023034A2360626010BD4B
:103F14000248FFF771FFF6E73A00003A0457000041
:103F240070B5194CD0F804C00668C4F804C0D0F8C1
:103F340008C0C068C4F808C0E06026600868134B75
:103F4400134D18604868D5F818215860886812F035
:103F5400685F9860C8680969D860196112D0002345
:103F64000C4A05F58A70C5F81431C5F8B831C5F89E
:103F74001821C5F8BC21B047236805F5DC70BDE8FD
:103F84007040184770BD00BF7C000020680000200E
:103F9400100A00202C5F5CA908B500F011F830B9B4
:103FA40000F010F838B9054AC2F80C0A08BD00F050
:103FB40037F8032008BD042008BD00BF005084501A
:103FC4000020704710B5114800F048F800B110BD4A
:103FD4000F4800F043F80028F9D10E4C204600F0B9
:103FE4003DF80028F3D10C4B0C481C6000F036F867
:103FF40001460028EBD100F02DF8044608B1204614
:1040040010BD00F03FF82046FAE700BFBC000020D6
:10401400B8000020B4000020AC000020B000002054
:1040240008B5084800F024F8074800F021F80748CC
:1040340000F01EF8064800F01BF8BDE8084000F048
:104044000BB800BFBC000020B8000020B400002062
:10405400B000002000207047704700BF08B5034B34
:1040640002681B6810689847002008BD7C00002087
:1040740008B5034B02685B6810689847002008BDC8
:104084007C00002070B5094C094D2069AB68984745
:1040940018B1084B08485B6898470021074AEB6849
:1040A40011602069BDE87040184700BF6800002017
:1040B4007C00002060000020285700000C0A00202B
:1040C4000FB407B504AA064B52F8041B18680192F2
:1040D40000F008F803B05DF804EB04B0704700BFCB
:1040E400E85500002DE9F04F43688DB01546804631
:1040F400029383789A0740F10D8100240E78002EF4
:1041040000F00A81252E0BD04B1C03930134414649
:104114003046029B98470028C0F2F6800399EDE7E9
:104124004E788B1C252E0393F0D00027B946BB464E
:10413400BBF11F0F38D8A6F12003102B0AD8DFE8F3
:1041440003F02A0909300909092109090928092D57
:1041540009091F00A6F13003092B33D92A2E37D1C0
:104164001BF0400F55F8043B40F08280002BA7BFA2
:104174004BF0200B9946C3F100094BF0280B01E0EA
:104184004BF0010B039B13F8016B0393002ECFD16B
:1041940030E04BF0020B4BF0040BF3E74BF0080B51
:1041A400F0E74BF0100BEDE7BBF17F0F19D8A6F148
:1041B4003003092BD2D81BF0400F03D00A2101FB96
:1041C4000737DFE70A214BF0200B01FB0939D9E758
:1041D4002E2E06D11BF0400F40F09E804BF0400B7A
:1041E400D0E76C2E31D02BD8682E36D06A2E3CD036
:1041F4004C2E3AD0002F46F02003B8BF2BF04002DB
:10420400A3F16501BCBF00271FFA82FB022901D973
:10421400612B2FD107350727DFF8ACA225F007055E
:1042240008351BF0080F66D00AEB070B56465E45AF
:1042340063D1A4EB0A0AA9EB070906EB0A026FE1B2
:10424400742E9FD07A2E9DD0D4E71BF0800F18BF18
:104254004BF4007B4BF0800B94E71BF4807F18BF7A
:104264004BF4007B4BF4807B8CE74BF4207B89E799
:104274001F4687E7A6F16301122900F2F080DFE808
:1042840011F013004F00EE00EE00EE00EE004F00C0
:10429400EE00EE00EE00EE00EE00FE00E900EE009F
:1042A400EE001B00EE00AF0055F8043B01270DF1B2
:1042B400180A8DF81830B4E755F804AB834BBAF1FB
:1042C400000F08BF9A461BF0400F504614BF3946F2
:1042D4004FF0FF3100F047FF0746A2E74146202098
:1042E400029B984700280FDB013EB742F6D34C44AB
:1042F400B146A41B98E74E46F7E7414616F8010B72
:10430400029B9847002892DA98F8023043F004039D
:1043140088F802304FF0FF3420460DB0BDE8F08F2E
:104324001BF0800F34D01BF4007F2CD0073525F010
:104334000705AA4669685AF8080B2BF010050029EE
:10434400ADB237DA404245F4806561EB41010DF1CD
:10435400180B0A235A4600F012FFA0EB0B0301933B
:104364006B0662D5019B25F001019F4289B240F39F
:10437400A180002E00F0998015F0100240F09C807E
:10438400BB460D4623E0AA465AF8040BC117D4E7EE
:10439400AA461BF4807F5AF8041B01D10846F5E7AE
:1043A4001BF4007F19BF48B241F3C01108B241F3B6
:1043B400C031C2E750EA0103C9D11BF0400FC6D097
:1043C400002FC4D12BF01102BB46019795B240F2E5
:1043D400064115EA01021CBF0BF1010B00222CE07F
:1043E4002BF010020A231FFA82FB1BF0800C49D029
:1043F4001BF4007115BF0735AA4625F007055AF8C6
:10440400040B1EBFAA4669685AF8080B50EA010556
:1044140045D12BF016051BF0400FADB242D0002F52
:1044240040D12BF01702019795B215F0100248D035
:10443400019B002E42D103F1010B29075AD4EB074B
:1044440006D5D9456FDDA9EB0B030199CB465F185F
:104454005B4649E04BF0100B10237826C5E7782B18
:1044640004D1C6F1780343F01003BEE7414625208A
:10447400029B98470028FFF647AF023447E608231B
:104484000026B2E7AA461BF480715AF8040BBDD08B
:104494001BF400711ABFC0B2614680B2B6E72BF0BC
:1044A400060295B20DF1180B54E725F01105BB4631
:1044B400ADB28CE70D46B8E73B460D4603F1020B5F
:1044C400BBE7DDF804B082E79F580000985800006D
:1044D400CDE9043241462020029B98470028FFF68C
:1044E40013AF049B059A01339945F1DCA4EB0B014E
:1044F4009B46CC180AB341463020029B98470028BB
:10450400FFF602AF8EB901342744391B019B99424F
:1045140024DC1D4655BB019AA9EB0B0955462244E0
:104524001446914433E0019F92E7023441463046F9
:10453400029B98470028E7DAE6E640F206410D427E
:10454400E2D015F0020F04F10104414614BF2B2000
:10455400202015F4806F18BF2D20E9E74146302054
:10456400029B013498470028CFDACDE606AB013D23
:104574004146585D029B98470028CBDAC4E6414681
:104584002020029B013498470028FFF6BDAEA9EB1A
:104594000403002BF3DCC1E57047836800EBC10121
:1045A400B3F5004F2CBF51F8220031F812007047C8
:1045B40000EBC1018068B0F5004F2CBF41F82230F8
:1045C40021F812307047012208B5FFF7E6FFD0400A
:1045D40008BD836800EBC101B3F5004F08D34B68F5
:1045E4001AB143F001034B60704723F00103FAE76B
:1045F4004B881AB143F001034B80704723F0010349
:10460400FAE753000122FFF7D3BFB0F5004F34BFE0
:1046140004230823481C0833A0EBD300B0FA80F02D
:10462400C0F11F0070472DE9F0410D46866804462D
:10463400FFF7C9FFB6F5004F014601D3012832D078
:104644003046FFF7E2FF04EB80010E6996B90122C0
:10465400E36882401343E36002220D612B4629463E
:104664002046FFF7A5FF032229462046BDE8F04176
:10467400FFF79EBF022231462046FFF78EFF074612
:10468400034629462046FFF793FF03223346294673
:104694002046FFF78DFF39462B462046FFF788FF5B
:1046A40002223146E1E7BDE8F081B2F5802F2CBF4C
:1046B400082304232DE9F0410026D21A8C18CD1DBD
:1046C40025F0070524F00704641BE408056021466F
:1046D4002046AC60EE60FFF798FF421D9200013067
:1046E40002F107074FEAD7073146A2F1100205F19C
:1046F4001000B8BF324600F02EFD3A463146284637
:10470400FFF77FFF3346324631462846FFF750FF16
:10471400A4EB0708284631460122FFF75AFF424618
:104724003946FFF76EFF3B46324639462846FFF7C7
:104734003FFF21462846FFF764FF434632462146A1
:104744002846FFF735FF214628460122FFF741FF9F
:104754003946BDE8F041FFF766BF002070470FB44B
:1047640007B504A951F8040B0191FBF735FD03B01B
:104774005DF804EB04B07047038B13F0070305D115
:104784000368002B0CBF002003207047022B05D1C7
:10479400408BB0FA80F0400980007047012B05D1AE
:1047A4000368002B0CBF00200520704700207047D1
:1047B40010B50C4600B111B96FF0150010BD081DFD
:1047C40000F093F80028F9D1A368032BF6D9F3E796
:1047D4002DE9F0410D4607461946281D90461E4610
:1047E40000F094F8044638B1334642462946384628
:1047F400A446BDE8F0416047BDE8F08110B4EFF392
:104804001182202484F31288BFF36F8F416110BC9E
:104814000121FBF713BD38B50C46054658B151B11B
:104824000B6843B14B6833B11C22002100F093FCA8
:1048340000202C6138BD6FF01500FBE770B505460C
:104844000E46FFF7B5FF041E14DBEFF3118220239D
:1048540083F31288BFF36F8F4FF6FF716B8B2C8B32
:104864008B4204F0070407D182F31188BFF36F8FE2
:104874006FF00A04204670BD022C0CD101336B8307
:1048840082F31188BFF36F8F0023224631462846F6
:10489400FFF79EFFEEE7062C14D8DFE804F00413BC
:1048A4001313041A0400002333606B683BB9C5E991
:1048B4000066ACB902212846FBF7C0FCDAE71E60AB
:1048C4006E60F6E782F31188BFF36F8F6FF0040414
:1048D400D0E782F31188BFF36F8F6FF08504C9E7C7
:1048E40082F31188BFF36F8FC4E7034658B142685F
:1048F40002F00302012A03D0032A04D1026812B190
:104904000020986070476FF01500704742680346B6
:1049140002F00302032A4FF00002816014BF104624
:1049240000685A6070477047FEE7012801D1EFF331
:104934000583FEF749BA01460068FFF7F6BF08B5DC
:10494400FBF79CFEBDE80840FBF7BCBE002101203C
:10495400FFF7EBBF036E83F30B88704761B662B653
:1049640080F31188BFF36F8F704708B572B60023C8
:1049740083F31188BFF36F8FFCF79EFB50B1BFF335
:104984004F8F30BF00BF00BF00BF00BF00BF00BFDC
:1049940000BF00BF62B6BFF36F8F08BD10B50446F9
:1049A40072B6002383F31188BFF36F8FFCF784FB87
:1049B40050B1BFF34F8F20BF00BF00BF00BF00BF87
:1049C40000BF00BF00BF00BF84F31188BFF36F8F27
:1049D40062B610BD40E800F313F4803FD8B208BFBC
:1049E4006FF01500704730B50C684B6885B00A89C4
:1049F4004D890094013B24F01F04234402F01F025C
:104A040042EA451223F01F0369468DF808200393F8
:104A1400FCF75EF905B030BD08B5FCF719FB0020C2
:104A240008BD4FF05023012270B50C460546C3F86B
:104A340014260020FCF7CEFB28462346BDE8704030
:104A4400002118470C220369C9B201FB0233986F95
:104A540000F00700704770B5C9B20369EFF3118520
:104A6400202484F31288BFF36F8F0C2606FB0134D5
:104A7400A46F14F0C00408D0A24206D085F31188B4
:104A8400BFF36F8F4FF0FF3070BD012206FB01337F
:104A94009A6785F31188BFF36F8F436803EBC103F3
:104AA4005B6898470020EFE78022FFF7D4BFF8B592
:104AB400069F0469C9B2EFF31186202585F3128895
:104AC400BFF36F8F0C2505FB0144A56F05F0070CA0
:104AD400BCF1010F0CD1A76786F31188BFF36F8F68
:104AE400C4E91C23436853F8313098470020F8BDCB
:104AF40005F0C005AF4286F31188BFF36F8F0CBF7A
:104B04006FF077004FF0FF30F1E713B58024009485
:104B1400FFF7CDFF02B010BD10B41C240069CBB266
:104B240003FB0400002110BC10470320FDF7C2BCA6
:104B34000220FDF7BFBC0020FDF7BCBC032000F041
:104B4400F2B8022000F0EFB8002000F0ECB81046F4
:104B5400FEF77EBB436800205B681B690B607047EF
:104B6400436802EA01005B6821EA020198600020C0
:104B7400D9607047436800205B6899607047436858
:104B840000205B68D960704743685A68536821EA1B
:104B940003000B4090600020D360704710B5036998
:104BA4005868F8B1884219D19C680868A1425860D5
:104BB40000D19860002008602AB15A680A609A6897
:104BC400596002B99960002010E0814206D108685A
:104BD400206098688142EDD19C60EBE70446006850
:104BE4000028F2D1002AE8D16FF0150010BD30B5CD
:104BF40043681360057A446804EBC504A34202D3F6
:104C04006FF0010030BD5C798C4201D00833F0E7CD
:104C14000020F7E743681B68D3F88004C3F88004D6
:104C2400704742681368D3F8100150B10020126A2B
:104C340012780A70C3F81001D3F8102101221A6007
:104C440070474FF0FF30704702680346D2F85801AE
:104C540040B95B68DB0706D4D2F82001003818BFDE
:104C6400012070470120704743681B68D3F8042370
:104C7400D20517D5D3F82021A2B1EFF31182202158
:104C840081F31288BFF36F8FD3F8201131B1002163
:104C9400C3F82011D3F820110121D96082F31188BF
:104CA400BFF36F8FD3F85831704713B501AA044688
:104CB400FFF79DFF002805DB019B2268197918681E
:104CC400FCF764FE02B010BD002200F150039B000B
:104CD4009BB203F1502303F580331A601B687047BD
:104CE40008B5FDF76DF808BDFFF758B808B5FBF730
:104CF400C7FBFBF7ADFCBDE80840FFF74FB8004722
:104D040000F093B840F00040C1F88000704740F0D4
:104D14000040C1F88000704740F00040C1F88000B6
:104D2400C2F880007047FDF723BBF7B51646DDE9EE
:104D34000847019001A81D46FDF764FC019BB6F1EC
:104D4400000C18BF4FF0010C00EB83000B1E18BFC2
:104D54000123002D43EA4C0314BF4FF00C0C4FF019
:104D6400000C002C43EA0C0314BF4FF4706C4FF09A
:104D7400000C002F43EA0C0314BF4FF4403C4FF0E7
:104D8400000CD0F8002243EA0C0322EA030301B129
:104D940009780EB13678760019430DB12D78AD003F
:104DA40031430CB12478240229430FB13F783F04E6
:104DB4000C433C43C0F8004203B0F0BD1FB50DF1F5
:104DC4000F03019300238DF80F101A461946009320
:104DD400FFF7ABFF05B05DF804FB38B505460846A0
:104DE4000C46FDF763FCB0B10846FDF753FC90B9DF
:104DF4000846FDF743FC01232A688340C2F80833C0
:104E04002A6803B202EB8303D3F8102522F00302CD
:104E1400C3F8102538BD2046BDE838400021FFF70F
:104E2400CDBFFDF7C7BCFFF7D8BF08B1FCF7C0B9C9
:104E34007047704740B1C368587810F001001EBF36
:104E44001878B0FA80F040097047EFF311832023FB
:104E540083F31288BFF36F8FFEE708B5FFF7F5FF02
:104E640010B54369044633B90020E268537843F02F
:104E74000103537010BD98470028F5D00028B8BF2F
:104E84004042FF28A8BFFF20E3681870EDE700F058
:104E940062B900F053B94169836843EA010212F030
:104EA40003020FD1C2600269013A01FB0233826836
:104EB4009A4201D900207047C2681A604269C360EF
:104EC4009B1AF4E76FF01500704710B5C0E904327F
:104ED4000023816083610446FFF7DDFF0028A8BF3B
:104EE400C4E9004410BD2DE9F04105460F46EFF337
:104EF4001188202383F31288BFF36F8FC668F6B935
:104F04000468A0421BD0D4B1D4E9003213605A60C3
:104F1400637BC4E9006623F002036373A66004F1B3
:104F2400180000F0DFF82046A667276100F06CF84F
:104F3400414605F10800BDE8F041FEF79BBB3E6029
:104F4400AB69EF60013BAB6188F31188BFF36F8FEE
:104F5400BDE8F081202408B5EFF3118384F31288AF
:104F6400BFF36F8FFFF701FDF6E790F90E308B4228
:104F740001D0FEF70DBB0020704703460020C3E9B3
:104F84000033C3E902007047EFF30580003818BF0F
:104F940001207047D0E9003213605A600023C0E951
:104FA4000033704708B5FFF7F5FF437B23F0020396
:104FB40043730023836008BD38B504460D46FEF7ED
:104FC40045FA637B43F002036373E5B1A5602B6884
:104FD4009D4209D16B68C4E900531C606C6012E007
:104FE4006A689A42F6D01B68002BF3D094F90E201D
:104FF40093F90E108A42F3D09142F1DD5A68C4E964
:10500400003214605C6038BD10B5EFF311842023C6
:1050140083F31288BFF36F8FFEF7D6F984F31188F8
:10502400BFF36F8F10BD014610B5EFF31184202339
:1050340083F31288BFF36F8F437B13F0280F0AD1D9
:1050440083680BB1FFF7AEFF4B7B084623F00403E4
:105054004B73FEF7B9F984F31188BFF36F8F10BD5A
:1050640001211838FFF7DFBF38B504460D46FEF7B7
:10507400BBFBB5F1FF3F08BFB4F1FF3F024620463A
:1050840018D000204FF47A7447F6FF730146C2FB30
:105094000431B3F5004F71F100020BD36FF40042F9
:1050A4009A4243F6FF728A4132BF6FF00040D80B38
:1050B40040EA414038BD08B50246FEF739FD70B1FB
:1050C400D0E904319B1A61EBE272B3F1004F72F143
:1050D400000104DA002AACBF1846002008BD6FF0B6
:1050E4000040FBE7024638B5EFF31185202383F334
:1050F4001288BFF36F8F0368CBB1FEF719FD044626
:105104001046FEF727FD00224FF000438442C0E919
:10511400042306D1FEF714FDFFF7CDFF0021FCF7B1
:10512400B3FF002085F31188BFF36F8F38BD6FF094
:105134001500F7E708B5FEF719FE08BD0A44431E3B
:10514400914200D1704710B511F8014B914203F818
:10515400014FF9D110BD02440346934200D1704778
:1051640003F8011BF9E70246014410B58A421346CD
:1051740003D01C780132002CF8D1181A10BDF0B5F8
:10518400C3F13707044603F01F031046FFB2082B90
:10519400E6B232D0102B3DD06508A40845EAC175AB
:1051A40044EA81748A082D1942EB5102290941EA23
:1051B40002716D1842EB1212290A41EA02616D185C
:1051C40042EB1222290C41EA02416D1842EB1242D1
:1051D400AD1842F10002EC0844EA4274D10804EB31
:1051E4008402A6EB4205EDB2092D0CD90134A5F1D8
:1051F4000A0541F10001EDB212E0E40806F00705EA
:1052040044EA4174C908303554EA010200F8015BEC
:10521400BDD1F0BD240906F00F0544EA0174090963
:10522400092D84BFED19EDB2EDE7000001480068D7
:0852340070470000F4070020A0
:10523C00000000008C52000045300000000000000F
:10524C0000000000CC52000000000000AC52000036
:10525C00ED4C00000000000000000000EC520000CB
:10526C00DD150000000000002D1F000000000000F4
:10527C007D10000000000000F14C00000000000058
:10528C003B5800000456000058550000C000002098
:10529C006008002055130000000000000000000012
:1052AC00465800002456000034550000C20000206F
:1052BC000409002099170000000000000000000005
:1052CC00525800003C56000034550000C400002029
:1052DC0010090020991700000000000000000000D9
:1052EC00675800005456000074550000C60000209A
:1052FC001C090020E51B000000000000000000005D
:10530C00000000005149000000000000514900005D
:10531C00000000005149000000000000514900004D
:10532C00000000005149000089250000034D0000D9
:10533C00000000005149000000000000514900002D
:10534C00EC5200006D4C00000000000051490000C0
:10535C00000000005149000000000000514900000D
:10536C000000000051490000252C0000034D0000F6
:10537C0000000000514900000000000051490000ED
:10538C0000000000514900000000000051490000DD
:10539C0000000000514900000000000051490000CD
:1053AC00000000005149000000000000BD1F00007B
:1053BC0000000000514900000000000051490000AD
:1053CC00000000005149000000000000514900009D
:1053DC00000000005149000000000000514900008D
:1053EC00000000005149000000000000514900007D
:1053FC00000000005149000000000000514900006D
:10540C00000000005149000000000000514900005C
:10541C00000000005149000000000000514900004C
:10542C00000000005149000000000000514900003C
:10543C00000000005149000000000000514900002C
:10544C00000000005149000000000000514900001C
:10545C00000000005149000000000000514900000C
:10546C0000000000514900000000000051490000FC
:10547C0000000000514900000000000051490000EC
:10548C0000000000514900000000000051490000DC
:10549C0000000000514900000000000051490000CC
:1054AC0000000000514900000000000051490000BC
:1054BC0000000000514900000000000051490000AC
:1054CC00000000005149000000000000514900009C
:1054DC00000000005149000000000000514900008C
:1054EC00000000005149000000000000514900007C
:1054FC00000000005149000000000000514900006C
:10550C00000000005149000000000000514900005B
:10551C00000000005149000000000000514900004B
:08552C000000000051490000DD
:10553400E1170000594B0000654B0000794B000057
:10554400834B00008D4B00002D160000A14B000082
:045554000000000053
:10555800B9130000AD4A00000F4B00000000000026
:0C556800494A00000000000000000000A4
:0C557400274C0000311B0000194C000007
:105580000338FDD870470000000000002D490000DE
:105590001C000020140000200C000020000000006F
:1055A00004000020C105000091040000E504000093
:1055B0005905000000000020000000000600010066
:1055C00002000000C8550000000000002458000040
:1055D00006000000E0FF0F00000000202C58000033
:1055E00021000000E0FF0620240000202D12000012
:1055F000274A000000000000DD120000AD1200008C
:105600000000000039140000211300003B4B000093
:105610004D4B0000354B0000474B00002F4B000066
:10562000414B0000FFFF00000028845000000000F4
:105630000100000000D0005000000000FFFFFFFF4D
:1056400000258450000000000000000000D0005041
:105650000000000000800050010000000000000079
:10566000785600000000D601000000000000000095
:10567000D40B0020D30B0020008000508456000083
:10568000010000008C56000004000000140000001F
:1056900013000002160600011506000308000000B2
:1056A000030000003C5200003C5200007452000015
:1056B0007C5200008C5200008C520000FF8FFFFFD4
:1056C000FF8FFFFFFE8FFFFFFE8FFFFFFD8FFFFFAE
:1056D000FC8FFFFFFC8FFFFFFB8FFFFF6D75746575
:1056E000785F667265652063616C6C6564207769BC
:1056F0007468204E554C4C20706172616D65746504
:105700007200000043616E277420696E69746961DC
:105710006C697A65206D757465782C2077617320CB
:105720004E554C4C0D0A0000436F756C64206E6F33
:1057300074206C6F636B20706F7765722073617675
:1057400065206D7574657800040100012401200155
:1057500002000100000200014F4E004F4646004C7F
:1057600045442073746174653A2025730A002A2A1F
:105770002A20426F6F74696E67206E524620436F15
:105780006E6E6563742053444B2076332E312E3178
:105790002D653261393766653235373861202A2AFE
:1057A0002A0A002A2A2A205573696E67205A6570D2
:1057B000687972204F532076342E312E39392D6678
:1057C0006638663063353739656562202A2A2A0AC9
:1057D000006D757465785F696E69742063616C6CC7
:1057E00065642077697468204E554C4C2070617256
:1057F000616D6574657200436F756C64206E6F74C3
:1058000020616C6C6F63617465206D7574657820C0
:105810006265666F726520696E697469616C697A28
:10582000696E6700464C4153485F30005352414D0A
:105830005F30000000000121202524636C6F636B42
:105840004035303030006770696F4038343238305E
:1058500030006770696F40383432353030000001F5
:105860000203040506070B7561727440383030304E
:10587000000000000101010000010000000C0424F0
:105880001C0020303030303030303030303030306C
:105890003000016D61696E00286E756C6C29002AFC
:0858A000666C6F61742A0000C0
:1058A8005F470000DC0000203A000000F000002004
:1058B8003A000000C80000203A000000040100205F
:1058C8003A000000000000001D4A0000000000002F
:1058D800000000000090D00300700150000000009C
:1058E800FFFFFFFF3F000000FFFFFFFF3F0000003A
:1058F800FF0000009002000058000020580000201F
:1059080000000000D93D0000A40000209C000020F9
:1059180094000020000000008C000020053F0000DB
:10592800513E0000853E0000CD3E0000FC090020ED
:105938003A00003A000A00203A00003A040A00201F
:105948003A00003A080A00203A00003AB400002061
:1059580078000020700000206C0000206800002003
:08596800000000000000000037
:10597000C8000020C8000020000000000000000057
:105980000E000000DC000020DC0000200000000011
:10599000000000000E000000F0000020F0000020D9
:1059A00000000000000000000E00000004010020C4
:1059B0000401002000000000000000000E000000B4
:0459C00015E015E0F9
:04000003000009816F
:00000001FF
